:020000040000FA
:10000000000C002055010000B70100006110000045
:100010006B10000075100000891000007F100000B8
:10002000000000000000000000000000AD1D000006
:10003000D301000000000000711D0000DB01000082
:10004000DF010000E301000000000000E701000004
:1000500000000000EB0100000000000000000000B4
:10006000EF010000F3010000F7010000FB010000B8
:10007000FF01000003020000070200000B02000065
:100080000F0200001302000000000000000000004A
:10009000170200001B02000000000000000000002A
:1000A0001F02000023020000270200002B020000B4
:1000B0002F02000033020000370200003B02000064
:1000C0003F02000043020000470200004B02000014
:1000D0004F0200000000000053020000000000007A
:1000E00057020000000000005B0200005F020000F9
:1000F0000000000063020000000000006702000032
:100100000000000000000000000000006B02000082
:100110006F02000000000000730200007702000080
:10012000000000007B020000000000000000000052
:1001300000000000000000000000000000000000BF
:1001400000000000000000000000000000000000AF
:100150007F020000114C124DAC4209DA216862683E
:10016000A368043BA2BFC858D050FAE70C34F3E7A9
:100170000C4B0D4CA34208DA19685A680020043A67
:10018000A4BF8850FBE70833F4E772B60748084974
:10019000086000F09FFF00F027FF000084020000CD
:1001A000A8020000A8020000C80200000000000031
:1001B00008ED00E0FEE7FFF7FEBF00F051BF00F0E2
:1001C00054BF00F057BF00F05FBF00F058BF01F010
:1001D000EDBDFFF7FEBF01F0CBBDFFF7FEBFFFF7A0
:1001E000FEBFFFF7FEBFFFF7FEBFFFF7FEBFFFF743
:1001F000FEBFFFF7FEBFFFF7FEBFFFF7FEBFFFF733
:10020000FEBFFFF7FEBFFFF7FEBFFFF7FEBFFFF722
:10021000FEBFFFF7FEBFFFF7FEBFFFF7FEBFFFF712
:10022000FEBFFFF7FEBFFFF7FEBFFFF7FEBFFFF702
:10023000FEBFFFF7FEBFFFF7FEBFFFF7FEBFFFF7F2
:10024000FEBFFFF7FEBFFFF7FEBFFFF7FEBFFFF7E2
:10025000FEBFFFF7FEBFFFF7FEBFFFF7FEBFFFF7D2
:10026000FEBFFFF7FEBFFFF7FEBFFFF7FEBFFFF7C2
:10027000FEBFFFF7FEBFFFF7FEBFFFF7FEBFFFF7B2
:10028000FEBF00BF38550000202F0020F8000000FE
:1002900040550000401C00200000000040550000B8
:1002A000201C00200000000020300020301A000038
:1002B000401C0020E0120000201C00202000000054
:0802C000001C002004000000F6
:1002E000024B0A460146186800F05CB8AC2F0020AB
:1002F00008B5074B044613B1002100E000BF054BD1
:100300001868836A03B19847204604F083FF00BF52
:10031000000000004405000070B50D4D00260D4C96
:10032000641BA410A64209D10B4D00260B4C04F00F
:1003300073FF641BA410A64205D170BD55F8043BA1
:1003400001369847EEE755F8043B01369847F2E747
:100350001030002010300020103000201430002019
:10036000024B0146186800F02BB800BFAC2F0020EC
:10037000884210B501EB020402D98442234607D813
:10038000431EA14208D011F8012B03F8012FF8E712
:10039000024401468A4200D110BD13F8014D02F813
:1003A000014DF7E738B502FB01F5294600F052F898
:1003B000044618B12A46002100F0AAF9204638BDAB
:1003C00038B50546002941D051F8043C0C1F002BDC
:1003D000B8BFE41800F0A8F81D4A136833B9636089
:1003E00014602846BDE8384000F0A4B8A34208D9FC
:1003F000206821188B4201BF19685B6809182160C9
:10040000EDE71A465B680BB1A342FAD911685018A0
:10041000A0420BD120680144501811608342E0D102
:1004200018685B68014453601160DAE702D90C2355
:100430002B60D6E7206821188B4202BF19685B68E1
:100440000918636008BF21605460CAE738BD00BF67
:100450003C4A0020F8B5CD1C064625F003050835BA
:100460000C2D38BF0C25002D01DBA94203D90C232C
:1004700033600020F8BD00F057F821490A6814469F
:100480009CB9204F3B6823B92146304600F03CF828
:1004900038602946304600F037F8431C23D10C233E
:1004A0003046336000F046F8E3E723685B1B17D45F
:1004B0000B2B03D923601C44256004E06368A2422F
:1004C0000CBF0B605360304600F034F804F10B00B1
:1004D000231D20F00700C21ACCD01B1AA350C9E775
:1004E00022466468CCE7C41C24F00304A042E3D095
:1004F000211A304600F008F80130DDD1CFE700BF07
:100500003C4A0020404A002038B50023054D0446EF
:1005100008462B6004F06EFE431C02D12B6803B129
:10052000236038BD444A0020014800F009B800BFEC
:10053000484A0020014800F004B800BF484A0020A3
:1005400070477047B02F0020009A394B9A420FD164
:10055000EFF314830CB41FB536486946002200F04F
:10056000C7FE0FBC0CBC9E460CBC83F314887447BA
:100570000FDFFEE7009A2E4B9A420FD1EFF3148360
:100580000CB41FB52C486946002200F0B1FE0FBC28
:100590000CBC9E460CBC83F3148874470FDFFEE747
:1005A0000CB4029A224B9A4212D10CBC9C46EFF337
:1005B00014830CB463461FB520486946002200F03E
:1005C00097FE0FBC0CBC9E460CBC83F3148874478A
:1005D0000FDFFEE7009A164B9A4210D1EFF3148317
:1005E0000CB463461FB516486946002200F080FE31
:1005F0000FBC0CBC9E460CBC83F3148874470FDF01
:10060000FEE7009A0A4B9A420FD1EFF314830CB421
:100610001FB50C486946002200F06AFE0FBC0CBCF6
:100620009E460CBC83F3148874470FDFFEE700007E
:10063000A5EDF5FE451300004B13000079130000F3
:100640007115000015160000C3438B4210B50ED380
:1006500032F01F030BD1013902F014030144102BB7
:1006600081EA00043DD004DC63B1042B32D00020C9
:1006700041E0142BFBD11F2C40E8C0F30CD941E81A
:10068000C0F105E01F2C40E800F305D941E800F176
:100690001C460B468C42EAD122F01402013A0A2A87
:1006A000E5D801A151F822F005070000FF0600007F
:1006B000F10600006F0600006F0600006F060000E4
:1006C0006F0600000B07000005070000F906000098
:1006D000F10600001F2C40E840F3DDD941E840F16D
:1006E000D6E71F2C40E880F3D6D941E880F1CFE768
:1006F00013F4001FBBD010BD13F4801FFAE75B0298
:10070000F9D5B4E713F4002FF4E713F4802FF1E7E1
:100710000346F0B5C9B29AB19C0715D115460C0431
:1007200044EA01640C4344EA0124D618032D0FD88F
:1007300022F003052B446FF00305940805FB042207
:100740001A44934208D1F0BD03F8011B013AE2E7D5
:10075000771B3C60043DE9E703F8011BF1E7F0B5C6
:1007600004468AB341EA040515F0010513D1012AB4
:1007700023D941EA040313F0020312D1D618032E41
:1007800015D86FF00306930806FB032204EB8304DD
:1007900001EB830116E011F8013B013A04F8013B3B
:1007A000DFE731F8023B023A24F8023BDFE7CE1ADA
:1007B0003768E61A3760043BE0E70023DEE76B5C4E
:1007C0002B550135AA42FAD1F0BD0000034B1B683E
:1007D0005A680AB91868704701487047001C002021
:1007E000ED070000FFF7F2FF004700002DE9F04F92
:1007F00001251E4B8DB0D3F80090D9E90032954009
:10080000013D1BB1984708B104F042FD4FF0010AC9
:100810004FF00041284604F01BFD0026044609F174
:100820000807002CF4D0D9F80430B34202D804F001
:100830002FFDEDE70AFA06F814EA080F12D03B681C
:100840000BB904F025FD6946404604F005FD3B6800
:100850006846DDF804B098470146584604F00CFDA0
:1008600024EA080401360437DBE700BF001C00203F
:100870000000000000000000000000000000000078
:1008800001015F5F030100001F010000E10900009A
:10089000000800000000000001000000010000004E
:1008A00000000000000000001022002000000000F6
:1008B00070000000F85200008000000000070000F7
:1008C00001000000010A00000100000000015F5F5C
:1008D000040100001F0300004D0E00000005000091
:1008E0000000000000000000030000000000000005
:1008F00000000000102A0020000000000353000048
:1009000040000000000500000100000000000000A1
:10091000100000002053000041000000000500000E
:10092000010000000000000020000000365300001D
:100930004200000000040000010000000000000070
:100940004000000000015F5F00000000FE030000A7
:100950005D1E000000040000000000000000000018
:10096000000000000000000000000000A031002096
:100970000000000001015F5F01000000FF030000B4
:10098000911E0000000100000000000000000000B7
:10099000000000000000000000000000A035002062
:0409A0000000000053
:1009C00038B50025054C29462046D4F80024C4F843
:1009D0000454FFF79DFEC4F8005438BD441C0020A9
:1009E00008B500F0C9F838B90121044802F002F84E
:1009F000BDE8084002F084B808BD00BF401C0020DC
:100A00002DE9F047056804469EB0002D40F0AD800A
:100A10002022294601A8FFF77BFE11AE202229469D
:100A200009A8FFF775FE342229463046FFF770FE0D
:100A3000042304F11C0252F804191D46013B81B342
:100A4000342332460021606804F00AFC34282AD19D
:100A5000119B402B27D84FF00109454FCDE901608C
:100A600004F1140801AEA94523D3042604F12C0394
:100A700053F804293746013E002A3AD04FF0000CC3
:100A80003B4A04F12001D2F8003409A801EB8708A1
:100A9000414548D1BCF1000F01D0C2F800343E46B8
:100AA00029E0002BC7D16FF0830528461EB0BDE8B2
:100AB000F08758F8043BD7F80024D81C20F0030036
:100AC000C2F58061884204D9FFF77AFF6FF08C0588
:100AD000EBE7104407EB020A4946C7F80004524608
:100AE000606804F0BDFB09F10109F06046F808AF49
:100AF000B9E7002EBCD1A2681D4B2946C3F80424D7
:100B0000119A1C4B01A853F82270334609AAB84722
:100B1000002705460DF12408B74208F108081CD14A
:100B2000FFF74EFFC1E751F804EBC3F580690EF102
:100B3000030626F003064E4500F1080007D802EB35
:100B4000030C40E902CE33444FF0010CA0E7BCF1A6
:100B5000000FB9D0C2F80034B6E7394658E902238D
:100B6000606804F085FB0137D6E76FF085059CE7E8
:100B7000441C0020940E000008B54FF4E0720021E0
:100B80000248FFF7C5FD002008BD00BF502000202F
:100B90006FF0850070476FF0850070476FF085003B
:100BA00070476FF0850070476FF0850070476FF0F9
:100BB000850070476FF0850070476FF085007047C3
:100BC0006FF0850070476FF0850070476FF085000B
:100BD00070476FF0850070476FF0850070476FF0C9
:100BE000850070476FF0850070476FF08500704793
:100BF0006FF0850070476FF0850070476FF08500DB
:100C000070476FF0850070476FF0850070476FF098
:100C1000850070476FF0850070476FF08500704762
:100C20006FF0850070476FF0850070476FF08500AA
:100C300070476FF0850070476FF0850070476FF068
:100C4000850070476FF0850070476FF08500704732
:100C50006FF0850070476FF0850070476FF085007A
:100C600070476FF0850070476FF0850070476FF038
:100C7000850070476FF0850070476FF08500704702
:100C80006FF0850070476FF0850070476FF085004A
:100C900070476FF0850070476FF0850070476FF008
:100CA000850070476FF0850070476FF085007047D2
:100CB0006FF0850070476FF0850070476FF085001A
:100CC00070476FF0850070476FF0850070476FF0D8
:100CD000850070476FF0850070476FF085007047A2
:100CE0006FF0850070476FF0850070476FF08500EA
:100CF00070476FF0850070476FF0850070476FF0A8
:100D0000850070476FF0850070476FF08500704771
:100D1000012908D1012B06D84368342B03D1D2E92D
:100D2000000101F0B9BE6FF0800070476FF08500E0
:100D3000704708B502F0B0FA002008BD70B5002475
:100D400005460426A6B03C22214607A8CDE9024468
:100D5000CDE904440694FFF7DBFC3C22214617A8AA
:100D60001694FFF7D5FC019405F11C0353F8041900
:100D70003246013E09B1164601E0002EF6D10424A8
:100D800005F12C0353F804192246013C09B114461D
:100D900001E0002CF6D1731E012B38D8012C36D877
:100DA0000423002168680DEB030204F059FA0428BB
:100DB00004D06FF08006304626B070BD022E24D1DC
:100DC0006B69402BF5D806AE32460121686804F005
:100DD00047FA6B699842ECD1CDE9026002A934B1BF
:100DE0002B6A402BE5D816AACDE9042304AC224691
:100DF000019802F063FA0646002CDCD0DDE90423FA
:100E00000021686804F034FAD5E70021E7E70126FD
:100E1000D1E710B58CB00C46694604F01DFA009B72
:100E2000002B04DA02330BDA04F032FA0CE003D0C0
:100E3000A3F2F233012BF7D86846A047014600E041
:100E40000021019804F018FA0CB010BD70B50E4CDA
:100E50000E4D0F4E4FF000414FF0FF3004F0F8F907
:100E6000C10604D531461020FFF7D3FFF2E7820612
:100E700002D529462020F7E7430602D52146402027
:100E8000F2E704F005FAE5E72D0D00003D0D000046
:100E9000330D0000E70C0000ED0C0000D50C000045
:100EA000DB0C0000CF0C0000E10C0000F30C000094
:100EB000F90C0000FF0C0000050D0000EB0B00001A
:100EC000F10B0000C70B0000CD0B0000D30B00009E
:100ED000D90B0000DF0B0000E50B00001B0C00002D
:100EE000210C0000F70B0000FD0B0000030C0000BC
:100EF000090C00000F0C0000150C0000BB0B0000DB
:100F0000C10B00009D0B0000A30B0000910B000023
:100F1000970B0000A90B0000AF0B0000B50B000001
:100F2000270C00002D0C0000330C0000390C0000D1
:100F30004B0C0000510C0000570C0000630C00002B
:100F40005D0C0000450C0000690C00003F0C000027
:100F50006F0C0000750C00007B0C0000810C000081
:100F6000870C00008D0C0000930C0000990C000011
:100F70009F0C0000A50C0000B10C0000C30C000089
:100F8000AB0C0000B70C0000BD0C0000C90C000049
:100F9000110D00000B0D000000000000000000001B
:100FA00010B5054C237833B9044B13B1044800E065
:100FB00000BF0123237010BD80310020000000001D
:100FC0002C55000008B5034B1BB10349034800E052
:100FD00000BF08BD00000000843100202C55000037
:100FE000A3F5803A704700BF174B002B08BF134B87
:100FF0009D46FFF7F5FF00218B460F461348144A24
:10100000121AFFF785FB0E4B002B00D098470D4BB3
:10101000002B00D098470020002104000D000D484F
:10102000002802D00C4800E000BFFFF775F920004F
:10103000290000F009F9FFF75BF900BF0000080084
:101040000000000000000000000C00202030002004
:10105000504A0020000000000000000000F0ECBD3D
:10106000FFF7FCFFFEE700F0E7BDFFF7FCFFFEE740
:1010700000F0E2BDFFF7FCFFFEE700F0DDBDFFF78B
:10108000FCFFFEE700F0D8BDFFF7FCFFFEE7000025
:101090004FF47F03D3F83021D3F83431072A05D138
:1010A000023B032B02D8024AD05C704700207047F5
:1010B000515300004FF05023D3F85825034B02F052
:1010C0000302D340024A1360704700BF0020A1070B
:1010D000202F0020544A08B5D2F8D03043F0020344
:1010E000C2F8D030FFF7D4FF58B1504BD3F8202AC4
:1010F0003AB90D21C3F8201A0121C3F81C19C3F80D
:101100001C290022D30003F57F03D3F8001301311B
:1011100007D0D3F800130132D3F80433202A0B6030
:10112000F0D1FFF7B5FF002876D1FFF7B1FF40B14E
:101130003F4B404AC3F830254FF050230122C3F8FB
:1011400058254FF47F03D3F83021D3F83431072AE0
:1011500009D1023B032B06D8374AD35C1BB10022CE
:10116000364BC3F84C25FFF793FF50B14FF0502397
:10117000D3F80024D10742BF0022C3F81421C3F8DA
:1011800018214FF47F03D3F83021D3F83431072AE4
:1011900009D14FF05023D3F80024D20744BF6FF099
:1011A0000102C3F80024FFF773FF18B165221F4B3B
:1011B000C3F80C274FF47F03D3F83021D3F8343130
:1011C000072A16D11D4BD3F82034002B11DA4FF02B
:1011D00050230322C3F8182501229A60D3F8042172
:1011E000002AFBD00022C3F804210122DA60C3F8F0
:1011F00018250D4AD2F88C3043F44063C2F88C3085
:101200000F4A104B1168C3F84415D269C3F84C2536
:10121000BDE80840FFF74EBF2922044BC3F80C2756
:101220000322C3F83C2780E700ED00E000400050B7
:10123000009003504400EFBE5553000000200350BF
:101240000080FF000060005008B5114B83F30A884E
:1012500001F006FE58B901F0FFFF40B902F014F8A2
:1012600028B902F013F828B102F012F820B100F00A
:1012700094FE05E002F00EF800F0D6FD00F012FE3C
:1012800000F0BEFD00F0D1FD00F0D4FC002008BD50
:1012900000040020084B094A1B6810B55B6804462F
:1012A00019615A61D1E90223D1E90001A04704463E
:1012B00000F03AF8204610BDAC360020EDEEEEEE20
:1012C00010B5094C23685B685A69084B9A4208BFFD
:1012D000086000F0B3FC2368834203D0BDE81040EF
:1012E00000F070BE10BD00BFAC360020EDEEEEEE9B
:1012F00070B505460E461446EFF30583C3F30803A5
:101300000BB100F04AFE54B1064B1B68D3E9002430
:10131000234631462846BDE8704000F0FFBC224617
:10132000F6E700BFA03600208230012808B506D8B5
:1013300000F0E6FF18B9BDE8084000F02EBE08BD79
:101340000020704740F20110704770B5054600F06C
:10135000D7FF0646284600F0D9FE044608B900200B
:1013600070BD01463246284600F006FF0028F6D13F
:101370002368D868F4E700002DE9F04F0C469DB0D3
:1013800009930546914600F0BBFFC4F3072307937A
:10139000E3B20893231480460B9304D56FF08000CA
:1013A0001DB0BDE8F08F079B042BF7D8089B042BDA
:1013B000F4D8DDE907321344042BEFD8002DEDD02B
:1013C00000F0B0FF6B000A9040F1818015F0E00F53
:1013D000EAB2E3D1644B53F82270002FDED03B68B1
:1013E00042463946586800F0C7FE002840F0B580F4
:1013F0003846C5F3072100F0ADFE0028CED1EFF34B
:10140000108572B600F02EFE044685F31088002881
:1014100000F0A6800023036000F00CFE05460126C4
:10142000079B42464FEAC30B59463346484600964F
:1014300000F046FF0028B1D1089B00964FEAC30A8E
:10144000424602235146099800F03AFF064600281A
:10145000A4D1014620220CA800F078FD20223146BC
:1014600014A800F073FD5A4649460CA800F038FD58
:101470000DF130095246099914A800F031FDCB4610
:10148000B246079B9A4532D10023079A01339A420C
:101490003CD84FF0010A0DF15009089B9E424DD1F6
:1014A000099B3946CDE9046314AB0393079B20469F
:1014B00002930CAB01930A9B2A4600930B9B00F00E
:1014C0008FFE2A4B214638469B68984768E7284696
:1014D0000A9900F075FE044600283FF45FAF4368A8
:1014E000002B7FF45BAFC768002F98D156E701232C
:1014F0000093DBF8041042465BF8080B00F0E0FEB6
:1015000000287FF44BAF0AF1010ABAE74A461946B0
:10151000D9F800C0D2E902E07044844505D2D9F878
:10152000040060448645FFF439AF079801318842D2
:1015300002F10802EED809F10809A6E7CDF800A0EB
:10154000D9F804100223424659F8080B00F0B8FEFF
:1015500000287FF423AF01369FE76FF081001FE77B
:101560006FF082001CE700BF5C3B00205C53000072
:101570002DE9F04188B005460F4600F0C1FE064651
:10158000284600F0C3FD044620B96FF0810008B082
:10159000BDE8F08103689B689B0532D40146324662
:1015A000284600F0E9FD0028EFD13946204600F03A
:1015B000D1FD05460028E8D1304600F0B3FE0746CD
:1015C000EFF3108872B600F04DFD064688F31088E0
:1015D000D0B100F02FFD214602464FF0FF333046D8
:1015E000CDE90455CDE90255CDE9007500F0F8FDCF
:1015F00031462046064B9B68079308B0BDE8F04192
:1016000018476FF08000C2E76FF08200BFE700BFAD
:101610005C5300002DE9F041044688B000F070FEF4
:1016200024B114F0804605D06FF08004204608B045
:10163000BDE8F08100F076FE01460746204600F046
:10164000BFFD05460028EFD0D0F80C80B8F1000FA0
:10165000EAD04368012BE7D041466FF001032246F0
:10166000CDE90466CDE90266CDE9007600F0B8FD6B
:1016700029464046034B9B68079308B0BDE8F041FC
:10168000184700BF5C5300000D4B73B51B68044640
:101690005D680E46AB69103D184201D100F07DFC3B
:1016A000002E08DA21462846064B1B69019302B03A
:1016B000BDE870401847286B204002B070BD00BFE5
:1016C000AC3600205C53000073B50E46044610B1E2
:1016D000431E034201D000F060FC144B00221B6843
:1016E00030215D680123304600930223103D00F055
:1016F000E7FD08B100F051FC2B6B0BB900F04DFC7D
:101700002B6B234201D100F048FC2146284600F013
:10171000D5FC40B100F114013022304600F0E0FB6E
:10172000002002B070BD6FF08B00FAE7AC360020ED
:101730002DE9F7430E469046994600F0ADFD04466C
:1017400008B900F02AFC6369002B01DA00F025FCDF
:10175000032E01D900F021FC04EB86077D6ADDB180
:1017600001230022009349460223404600F0A8FDD1
:1017700008B100F012FC7D6A04EBC6044D4528BF99
:101780004D4640462A46616C00F0AAFB636C2B4430
:1017900063647B6A5B1B7B62284603B0BDE8F08311
:1017A00070B50E46154600F077FD044608B900F006
:1017B000F4FB6369002B01DA00F0EFFB032E01D983
:1017C00000F0EBFB04EB8601486A58B185422A46DB
:1017D00028BF024604EBC604636C801A134463649A
:1017E0004862104670BD2DE9F3410F4690461D46F4
:1017F00000F052FD044608B900F0CFFB6369002BEE
:1018000001DA00F0CAFB032F01D900F0C6FB04EB9C
:10181000C70604EB8704636BB26E9B1AAB4201D21E
:1018200000F0BBFB0123002229464046009300F054
:1018300047FD08B100F0B1FBD6E919032A4641463D
:10184000184400F04DFBB36E2B44B36602B0BDE804
:10185000F0810000F8B506460D4600F01DFD044677
:1018600008B900F09AFBE7680FB900F096FB6369CE
:10187000991C22D05A1C23D1002D35D015F1820F8E
:1018800014D102236360EFF3108672B6194B294618
:101890002046DB689847054686F310886368022B6C
:1018A00024D1204600F0FCFB2846F8BD15F1830F3B
:1018B000E9D000F072FB0025E5E702236360FAE758
:1018C000002BF6DB204600F0C9FD3B689B689B05BA
:1018D00001D50223636015F1810FD4D1E369002B98
:1018E000D1DB00F05AFBCEE73546F4E70023636016
:1018F000DAE700BF5C53000008B500F01DFCBDE84E
:101900000840082100F0BEBD094B10B51B685C689B
:10191000236A103C1B0701D400F03FFBEFF3108259
:1019200072B6236B23F00803236382F3108810BD83
:10193000AC36002001F0CEBC38B50D4600F0ACFC52
:10194000044608B900F029FBE3681B689B689B0507
:1019500001D500F022FB2562256038BDC36A016B0A
:1019600010B519400446343000F0C4F90023E36296
:1019700010BD08B5103000F0BDF9002008BD000012
:1019800038B5EFF3108572B6046B0C4005D1054BEA
:10199000C1621968343000F0A1F985F3108820463F
:1019A00038BD00BFAC360020F8B50D4641B338B3A2
:1019B00003682BB344681CB35E69EFF3108772B6FB
:1019C000636CC1F88830236B616433432363E36A3B
:1019D000334209D0216B04F13400194000F08AF938
:1019E000E36A23EA0603E36287F31088064B05F1F6
:1019F0001000196800F072F9012300206B60F8BD37
:101A00006FF08000FBE700BFAC36002038B5084D12
:101A1000284600F055F92B6804465B6853E9040139
:101A200001F0E6F808B100F0B8FA204638BD00BF72
:101A3000AC360020836A0268194341F00801F0B512
:101A400013698162916A96680B44073123F0070598
:101A500021F00701234B416116F40071436218BF66
:101A600008234FF0000408BFD369C0E9074404BF4E
:101A70009B00083307334463446423F00703D468AE
:101A800097698361EB1A03611C6000245C6059B99B
:101A90004FF0180C02F13004D56904EB870403F110
:101AA00008078D4216D15D60C3600023526880F83C
:101AB0003930438700F1100380F83860C3630AB9F6
:101AC000094A13606FF00102BDE8F0400749383061
:101AD00000F0D4B80CFB014EDEF810E0013147F8FD
:101AE00004EBDEE7EDEEEEEEA0360020E5070000A9
:101AF00001F00C03F7B50C2B14BF0546154611F089
:101B0000400407460E4619D0AB6913F8024C86F024
:101B10000803C3F3C003B3EBD41F01D000F03DFAB8
:101B2000402C0ED0412C10D100F00CFC0646014692
:101B30003E4800F035FA304603B0F0BD00F02DFA13
:101B4000E5E7284600F0B4F9F5E73848C71B082F49
:101B500001D900F022FA102C64D8DFE804F009154E
:101B600046194B5E544F242B3159393D6340430095
:101B7000FFF7E8FB286000F061F82D4B1B688342FB
:101B8000D9D000F01FFAD6E72868FFF7DEFBF1E7AF
:101B9000D5E90223D5E90001FFF7EEFB0190FFF73D
:101BA000C3FB0198E6E7D5E90223D5E90001FFF779
:101BB000BFFDDFE72868D5E90112FFF7F1FDD9E79E
:101BC000D5E90223D5E90001FFF70DFE0020E5E786
:101BD0002868FFF791FEF9E7FFF796FEF6E7FFF7B3
:101BE000A9FEF3E7FFF7ACFBC4E7D5E90001FFF777
:101BF000BFFCD3E72868FFF70DFDCFE7D5E900016B
:101C0000FFF79AFEE2E7D5E90001FFF75DFDB1E7D6
:101C1000D5E90001FFF71EFED8E7D5E90001FFF77F
:101C200033FDA7E76FF08300A4E700BF000C00209E
:101C3000AC36002041DF704700F0AFB9044B1868A4
:101C400010B14378012B00D170478068F8E700BFDE
:101C5000B0360020C9B20129064B417005D11A687F
:101C60002AB101781278914201D3034A10681860B2
:101C7000704700BFB0360020B436002070B50F4D5D
:101C800004462868134618B12278067896420BD38A
:101C9000A0602C606068002200F0A0F92046BDE83A
:101CA00070400121FFF7D6BF0546806810B1067865
:101CB0009642F9D3A060AC60ECE700BFB4360020D8
:101CC00038B50546FFF7BAFF044600F07BF905B1C9
:101CD0002C606068BDE8384000F0A2B902230160C2
:101CE0004B70024B1A68024B1A607047B4360020E2
:101CF000B036002038B5044600680D4660B1437820
:101D0000022B09D10121FFF7A5FF23682946586856
:101D100000F04EF90023236038BD000070B572B6A4
:101D20001446EFF30B855FF0000C002A1FBF8CF305
:101D30000B886C46954683F30B880C4A012313608D
:101D400062B60E46FFF7A6FA72B63146FFF7B8FA4A
:101D50005FF0000C002C1EBF8CF30B88A54685F3AA
:101D60000B88024C0025256062B670BDB836002095
:101D7000402010EA0E0018D001B500F031FBBDE89C
:101D80000440884211D072B6EFF30982EFF30B835F
:101D900022E9F00F80E81C4091E81C40B2E8F00F07
:101DA00082F3098883F30B8862B67047EFF30880EB
:101DB0007146EFF30982EFF30B830CB406B4FFF71F
:101DC00097FE864606BC0CBC00F0080001F0080136
:101DD000401A01DC0DDB70470CB42DE9F00F074C05
:101DE000254626462746A046A146A246A34630B42D
:101DF000704730BCBDE8F00F06BC7047A5EDF5FE9E
:101E0000084BDA6882F07F4282F47F0242F480421B
:101E1000DA6000221A765A76DA76DA77602283F868
:101E20002220704700ED00E07047EFF3148030F09F
:101E3000040080F31488BFF36F8F704708B501F07A
:101E400033F8054B986001F035F880F38888BDE8D9
:101E5000084001F035B800BF00ED02E0FFF7EEFFEB
:101E6000009A0A4B9A4210D104460122944320461C
:101E7000214622462346254626462746A046A14619
:101E8000A246A346A446A6460447FEE7A5EDF5FEF6
:101E900008B500214FF0FF3003F0DAF90028F8D13F
:101EA00030BFF6E70122014B1A607047BC360020B4
:101EB000012313B5009304460189022300224068E0
:101EC00000F0FEF918B10323236002B010BD034BEC
:101ED0001B68012BF7D100F0CFF9F4E7BC360020E6
:101EE000F0B504468AB341EA040515F0010513D1A3
:101EF000012A23D941EA040313F0020312D1D618B0
:101F0000032E15D86FF00306930806FB032204EB9B
:101F1000830401EB830116E011F8013B013A04F858
:101F2000013BDFE731F8023B023A24F8023BDFE7EE
:101F3000CE1A3768E61A3760043BE0E70023DEE795
:101F40006B5C2B550135AA42FAD1F0BD0346F0B5C2
:101F5000C9B29AB19C0715D115460C0444EA016434
:101F60000C4344EA0124D618032D0FD822F00305B0
:101F70002B446FF00305940805FB04221A44934296
:101F800008D1F0BD03F8011B013AE2E7771B3C6082
:101F9000043DE9E703F8011BF1E701F09BB90000FC
:101FA0008546024A014B0CB408470000A5EDF5FE3A
:101FB000036923B119604FF0EE3343617047036842
:101FC0001962704704484FF080510160BFF34F8F92
:101FD000BFF36F8F7047000004ED00E02DE9F84378
:101FE00004681F460D4BA4F1080644E90233483C3F
:101FF000054688469146002140222046FFF7A6FF6D
:102000004FF0807346F8043C6FF0020346E9037812
:1020100046F8209CEB602C60BDE8F883A5EDF5FE4A
:10202000436883F30B880368203383F30988C0680F
:1020300070470000054A1368013303F0070313607B
:10204000034A0133801A03EBC00070474C3B002069
:10205000C036002018B1024B013803EBD0007047A6
:10206000C036002010B5064800F066FB044628B1D3
:102070008C220021FFF76AFF00236360204610BD19
:10208000C0360020014608B5034800F066FB002872
:10209000024818BF002008BDC0360020050000809F
:1020A00010B50146EFF3108472B6034800F04FFB01
:1020B00084F31088002010BDC0360020F0B5034620
:1020C000EFF3108672B60024224600F14405406CFE
:1020D00068B9C2B11068012CD0F88850156003D1DE
:1020E0001A6B22EA0101196386F31088F0BDC768F4
:1020F0003F687F698F4204BF2A46013400F188059A
:10210000D0F88800E4E71046EEE7000030B5094C4F
:10211000024661680023084640B105686D68954233
:1021200005D11BB1826860609A60816030BD034652
:102130008068F1E7543B0020054A0346506800B927
:102140007047026852689A42FAD0806CF7E700BF85
:10215000A4360020036807489A68DB6812F4806F91
:1021600003D18B4228BF002070478B4208BF00205C
:10217000704700BF0300008038B504462AB10B68E1
:102180009B68DB050FD5002038BD0B4B1B685D68D5
:10219000102D01D1FFF701FF002255F8103C99697D
:1021A0002C338A4201D10548EEE753F8040FA042D0
:1021B000E9D00132F5E700BFAC3600200500008011
:1021C00038B5FFF747FF0D460446FFF75BFF28B918
:1021D000E369AB4218BF0024204638BD0024FBE76A
:1021E0002DE9F84A0446894617460021302214306A
:1021F0009B46099E0B9DFFF7A9FE00231D4AC4E9DB
:1022000003931268301D526804F1440C103AA26026
:102210000D9AC4F814B0C4F88420089AE26104F15D
:1022200024020A998B4210D10023184604F134028B
:1022300004F164012E1DDDF830C0083163450ED174
:102240002368A7612362BDE8F88A50F8331042F88A
:10225000041B56F833104CF833100133E1E756F8FD
:1022600033C042F804CB55F833C0013341E902C012
:10227000E1E700BFAC360020064B1B685B68102B03
:1022800004D053F8103C0BB1586870474FF0FF3042
:10229000704700BFAC36002010B5FFF7DBFE0446E8
:1022A000FFF7F0FE50B9FFF7E7FFE3685B681B68D4
:1022B0005B68834218BF0024204610BD0024FBE762
:1022C00038B5049D144699B1A0B1CA43824201D2E7
:1022D000094838BD022B0CBF062202220DB942F07C
:1022E00008020CB142F0200200F091FC0028EFD16E
:1022F0000020EEE70148ECE70400008001000080C8
:10230000074B10B51B685C68102C01D1FFF745FE28
:1023100054F8103C5868B0FA80F0400910BD00BF76
:10232000AC36002038B5054648B100F02DFAB5EBC3
:10233000D07F044601D0FFF730FE204638BDFFF7BE
:102340009BFFF4E72DE9F743002508238C2240F298
:102350008C411C4800F0C2F91B4F1C4B7D605D6036
:1023600000F015FA1A4EDFF86C90384600F0A2F82B
:102370000446E0B1D0F80080D8F81C302BB180239F
:102380004A46124900F002F90546D8F8243013B144
:10239000204600F063F92068211D00F00AFC08B116
:1023A000FFF7FBFD2946204633689847DDE70A4BD7
:1023B0001A680A4B1A607368019303B0BDE8F043D2
:1023C000184700BFC0360020A4360020543B002030
:1023D0005C5300005C3B0020342F0020503B002069
:1023E0002DE9F843FFF72AFC194F04463B68A0F19A
:1023F00038065D68174B29461B68012B1FD0F0B1CA
:10240000A5F11008B0451AD0EFF309826B682033AC
:10241000934201D9FFF7C1FDEFF3108972B67168DD
:10242000D8F804308B4206D054F8380C00F0E0FBAA
:1024300008B1FFF7B2FD61683C6089F31088064B74
:102440001B6813B1F26802B11A602846BDE8F88330
:10245000AC360020B8360020503B002030B56FF07D
:102460000704002300F13402241A52F8041B29B196
:10247000D0F8841054F8125019444D600833202BC2
:10248000F3D130BD70B50D46044608B9FFF785FDA0
:10249000EFF3108672B6236B2B432363E36A1D426E
:1024A00003D0034B20465B69984786F3108870BDC4
:1024B0005C530000F8B5054608B9FFF76EFD2E4ED7
:1024C000346814F1290F54D82C4B196804F12803EF
:1024D0008B424ED2D4E9063206200C3300FB023385
:1024E000E043226A02EB42021344626A02EB820278
:1024F0001344B0EB830F4FEA830202D3A31899422F
:1025000001D2FFF74AFD23681D4A1B0C1B049342AE
:1025100001D0FFF742FD2388B3F5817F01D3FFF798
:102520003CFD6368002B01DAFFF737FD154A176899
:1025300007F14C031360144A1268934201D9FFF764
:102540002CFDD4E9063206210C3301FB0233226A4A
:102550003C6002EB42021344626A02EB82021344C3
:10256000326802EB830333606B68BB646F6038468C
:10257000F8BD0027FBE700BF242F002074530000A4
:1025800000005F5F282F0020785300002DE9F04FF6
:1025900085B00F4690460646029300B109B9FFF791
:1025A000FCFCD6F800A0DAF818200AF1300303EB9F
:1025B00082030193DAF81C40264BD3F8009094B1C3
:1025C0000C2000FB04941C60234B1B689C4201D927
:1025D000FFF7E3FC00242546DAF81C30AB4202D9B1
:1025E000B9F1000F03D1204605B0BDE8F08F0C23F0
:1025F000182103FB05F2019B02EB090B01FB0530DF
:10260000002342F809004269CBF80830144382687D
:10261000CBF80460930516D5B8F1000F02D0029BE9
:10262000802B03D00392FFF7B8FC039A12F0E00F5F
:10263000D0B202D158F820201AB10390FFF7ADFCB8
:10264000039848F820B07A680135CBF80820C7F81D
:1026500004B0C1E72C2F00207C5300002DE9F04787
:10266000054608B9FFF799FC18222E680027B369C0
:1026700006F1300404EB8304F3694FF0140902FB04
:1026800003440C2240F2011A336A02FB034409FBA3
:1026900007F1736A01EB0408BB4201D8BDE8F0877B
:1026A000AB6AD8F8102028461343AB620B59414659
:1026B000984708B1FFF771FC3388B3F5807F05D1E7
:1026C000D8F80C0000F002FC0137E0E75345FBD1DD
:1026D000D8F80C0000F00AFCF6E700002DE9F04104
:1026E00016461D46044610B30BB302F1040803FB63
:1026F00008F707F10C028A4219D10021FFF726FCE6
:10270000002004F10C031A46014601318D4210608D
:1027100002EB080C104608D10020A7EB08073B4449
:10272000C4E90036A560BDE8F0816246EDE70148E6
:10273000F9E700BF01000080034638B1006828B106
:1027400002681A60002340F8043B70477047026833
:102750000B1F41F8042C0360704700F10C029142FA
:10276000D0E901030ED3043003FB0023994209D2C0
:102770000439891AB1FBF0F300FB1310B0FA80F0B2
:1027800040097047002070474FF0FF307047704796
:1027900001680E4A0346914215D1C169A2F1102287
:1027A000A2F1EF1291420ED18268012A0BD8C268C1
:1027B00012B101698A4206D0586928B19B691B1A77
:1027C0005842584170470120704700BF55AA00FF8A
:1027D0000D4B70B59E68A6B13046FFF7D9FF044691
:1027E00078B9F3686BB935690DB9204670BD2846D4
:1027F000FFF7CEFF28B9EB68B34202D12E462D6910
:10280000F2E70124F1E700BFDC3B00202DE9F041B5
:10281000394E3468D4B1B468C4B1002861D00029FD
:102820005FD001FB00F5B5FBF0F0884259D1291DBE
:1028300057D8AA070DD025F003020432F46803E04C
:10284000616891424FD2A469002CF9D12046BDE8BD
:10285000F0812A46F2E7891A232904F12007D4E9F6
:10286000050C1AD80123A360A0B1C0F818C0A36951
:1028700003B158610023C4E905333369DB0702D58E
:10288000FFF7A6FFA0BB2A46002138463C46FDF7CD
:102890003FFFDBE7C6F80CC0E9E702F1200804EBD4
:1028A00008032039C3E9011E2169DFF850E0DC602C
:1028B000196144F808E0AEF1102EAEF1EF1EC3F836
:1028C0001CE001B1CB60C3E9050C40B1836199699B
:1028D00001B14B6101212361C4E90121CAE7F36021
:1028E000F5E70024B2E7D4F808E0BEF1000FB2D05B
:1028F0000120FDF7FDFC00BFDC3B002055AA00FFD6
:10290000F8B5054600285DD0394F3B68002B59D0FB
:10291000BA68002A56D0834203D87A681344984292
:1029200002D30120FDF7E4FCA0F120042046FFF7CC
:102930002FFF0028F5D155F8183C012BF1D155F89F
:10294000146C45F8180CB6B1B368002B3BD155F8A0
:102950001C3C03F1200273681344736055F8103C6B
:10296000336103B1DE60204620220021FDF7D0FE56
:10297000234634461E462069002830D08368002B49
:102980002DD1636842682033134463600369D4E93E
:1029900005212361CAB9F1B9426981696261A16106
:1029A000DAB19461A26902B1546103B1DC60202202
:1029B0000021FDF7ADFE3B699B0703D5FFF708FF3C
:1029C0000028AED1F8BD0646D5E79161A16900297E
:1029D000E2D04A61E0E7F960F8E7FC60E2E7002E48
:1029E000E9D1FB68A36103B15C61FC60E3E700BF70
:1029F000DC3B002038B50D46142200210446124865
:102A0000FDF786FE1149124802F0EAFB232D1AD980
:102A100014F003031FBF043DED18C3F10403E418D1
:102A20002A4600212046FDF773FE074B094AC3E9F9
:102A300000459C602260A2F11022203DA2F1EF121D
:102A40006560E261DC6038BDDC3B002001290000EC
:102A50000D28000055AA00FF10B50446406A10B1C9
:102A6000A16A00F02FFE606A02F0B4FB0020C4E906
:102A7000090010BD38B50446FFF7EEFF236A2C228B
:102A8000012B0CBF05466FF0960500212046FDF78F
:102A90003FFE284638BD000037B50C4D0C462B785C
:102AA000DB070FD500230A460193014601AB281D21
:102AB00000F06FF820B9019BA34218BF6FF093009C
:102AC00003B030BD6FF08800FAE700BFF03B002094
:102AD00008B500F045F80948037813F0060F04D054
:102AE000082200210430FDF713FE0C21034800F0FA
:102AF000E9FDBDE8084000F04BB800BFF03B002006
:102B000038B5104D297811F0010116D10822281D81
:102B1000FDF7FEFD02222B7862F342032B7000F0DA
:102B200013F8044658B900F031F8044638B92B7848
:102B300043F001032B70204638BD0024FBE7FFF76C
:102B4000C7FFF8E7F03B0020044A002092F88035E8
:102B500043F0010382F88035704700BFFC3B002042
:102B6000F8B5094C20252646012720462762FFF7A5
:102B700081FF013D04F12C04F7D196F8803565F30F
:102B8000000386F88035F8BDFC3B0020002070472C
:102B9000704738B5002014461D4600F065FD28B981
:102BA0002B68A34218BF6FF0930038BD6FF09200FE
:102BB000FBE7F0B510B943F6DA30F0BD0029FAD0E2
:102BC000012300220C2418250B60016A8A4201D1DE
:102BD0000020F2E704FB02F3D0E9067603EB87035B
:102BE00005FB063303449B6B1B07E4D40132EDE77E
:102BF000EFF3148311F00F0F0CBF0122002262F3D8
:102C0000000383F31488BFF36F8F0020704712F026
:102C100020032DE9F0410646884609D0EFF394835E
:102C2000DC074FF012034CBF42F0080222F008020A
:102C3000100702F0060148BF43F0040306293DD106
:102C400043F001052A4641463046FDF7FDFC0028C9
:102C500014BF012000202AD146E800F2B044110E32
:102C6000120208F1FF3747E800F34FEA13641ED55C
:102C70001B021CD58C421AD046E800F447E800F746
:102C800000F003FC240E84424FEA176733D300F0B0
:102C9000FEFB87422FD8204600F0F2FB2A46C6F101
:102CA000010101443046FDF7CFFCA8B900200028FF
:102CB00014BF00206FF07F00BDE8F08191073ED582
:102CC00043F00805BEE7204600F0D8FB064600F0BA
:102CD000E0FB2A460146E5E70134A742F3D838462F
:102CE00000F0CCFB2A46A8EB0001FDF7ADFC003854
:102CF00018BF0120DBE700F0DBFB8442D6D300F0F5
:102D0000D9FB8742D2D8204600F0CCFB2A46C6F138
:102D1000010101443046FDF797FC0028C6D001347C
:102D2000A74203D8384600F0B7FBDBE7204600F0A7
:102D3000B3FB064600F0C0FB2A460146EAE74CF228
:102D4000DA20B9E7F0B53B4C87B03B4800F028FBF0
:102D5000236801255A1C0193384B2260DA681B69ED
:102D60004FF4407603930023334801A9029204955F
:102D7000ADF814608DF8163000F0D6FA18B143F6AD
:102D8000DA3007B0F0BD23688DF816005A1C0193A5
:102D90002B4B294802932B4B01A9CDE90335226027
:102DA000ADF8146000F0C0FA0028E8D123688DF86F
:102DB00016005A1C0193244B1F480293234B01A970
:102DC000CDE903352260ADF8146000F0ADFA0028BB
:102DD000D5D1022740F2011623688DF816005A1C3F
:102DE00001931B4B144802931A4B01A922600393D1
:102DF0000497ADF8146000F097FA0028BFD123685B
:102E00008DF816005A1C0193134B0B480293134B79
:102E100001A92260CDE90337ADF8146000F084FA0F
:102E200004460028ABD12A462946034800F064FA3C
:102E30002046A6E780410020302F0020805300006C
:102E4000E002000080080000A00F0000A00F0000BA
:102E5000201C0020401C0020001C0020041C00201E
:102E600008B500F0B5F800F0C3F828B900F0DAF8BA
:102E700010B9FFF767FF08B143F6DA3008BD08B5AF
:102E800000F058F860B900F05FF848B900F068F851
:102E900030B962B600F078F810B900F08DF808B1DA
:102EA00043F6DA3008BD0000014B1868704700BFD8
:102EB00080530000014B1B68186870478053000066
:102EC000014B1B68586870478053000043B2002BC9
:102ED00008DB012200F01F0002FA00F0024A5B0941
:102EE00042F823000020704700E100E043B2002BCD
:102EF0000DDB012200F01F0002FA00F05B09054A19
:102F0000203342F82300BFF34F8FBFF36F8F0020B1
:102F1000704700BF00E100E0054B03EB8000D0F8F4
:102F2000003223F0E04343F04053C0F800327047D2
:102F3000002584500020034BD8765A6A42F4702250
:102F40005A62704700ED00E00349044BCA68002054
:102F500092B21343CB60704700ED00E00800FA0521
:102F6000074A084B11680020C3F84415D269C3F81A
:102F70004C250222C3F84025C3F84825704700BFFE
:102F80000080FF000060005000224FF0FF30094B2E
:102F900002F1A0010132102A43F82100F8D1D3F840
:102FA0008022002022F00802C3F88022D3F8803269
:102FB000704700BF00E100E008B500F001FA082208
:102FC000024BC3F880211A60002008BD00E100E038
:102FD000064BD3F8D02022F00102C3F8D020D3F85A
:102FE000D02042F00202C3F8D020704700ED00E08C
:102FF00010B5094C00F0ECF9D4E9010100F0FEF93C
:103000000649074800F00CFA2169E068013900F030
:103010001DFA002010BD00BF80530000FFFF0720F5
:103020000080002008B500214FF0A04000F048FAD1
:1030300000215F4800F044FA00214FF0502000F0DA
:103040003FFA00215B4800F03BFA00215A4800F0AB
:1030500037FA0021594800F033FA0021584800F0AF
:103060002FFA0021574800F02BFA0021564800F0B3
:1030700027FA0021554800F023FA0021544800F0B7
:103080001FFA0021534800F01BFA0021524800F0BB
:1030900017FA0021514800F013FA0021504800F0BF
:1030A0000FFA00214F4800F00BFA00214E4800F0C3
:1030B00007FA00214D4800F003FA00214C4800F0C7
:1030C000FFF900214B4800F0FBF900214A4800F0CD
:1030D000F7F90021494800F0F3F90021484800F0D1
:1030E000EFF90021474800F0EBF90021464800F0D5
:1030F000E7F90021454800F0E3F90021444800F0D9
:10310000DFF90021434800F0DBF90021424800F0DC
:10311000D7F90021414800F0D3F90021404800F0E0
:10312000CFF900213F4800F0CBF900213E4800F0E4
:10313000C7F900213D4800F0C3F900213C4800F0E8
:10314000BFF900213B4800F0BBF900213A4800F0EC
:10315000B7F90021394800F0B3F90021384800F0F0
:10316000AFF90021374800F0ABF90021364800F0F4
:10317000A7F90021354800F0A3F900220121344BC2
:103180001046C3F88024C3F88414C3F8C024C3F8DD
:10319000C414C3F8C824C3F8CC14FFF7BDFE084616
:1031A000FFF7BAFE2B4B1046C3F8001508BD00BF51
:1031B00000400050008000500090005000A00050DF
:1031C00000B0005000C0005000E0005000F000507F
:1031D000000001500010015000400150005001500B
:1031E00000700150008001500090015000A001507B
:1031F00000B0015000C0015000D0015000E001506B
:1032000000F0015000000250001002500020025057
:103210000030025000400250006002500080025016
:1032200000A0025000B0025000D002500000035035
:103230000030035000400350006003500070035002
:10324000009003500025845000288450001008503E
:10325000003000500010005008B5FFF710FE68B9AC
:1032600000F0AEF958B9074AD36823F008031B04ED
:103270001B0C43F0BF6343F40033D36008BD45F239
:103280002350FBE700ED00E000207047002070476E
:103290000020704770470000BFF34F8F0549064B71
:1032A000CA6802F4E0621343CB60BFF34F8F00BFE4
:1032B000FDE700BF00ED00E00400FA050346084604
:1032C00011461BB1012B03D00320704700F008B951
:1032D00000F036B9BFF34F8F0549064BCA6802F4B8
:1032E000E0621343CB60BFF34F8F00BFFDE700BF29
:1032F00000ED00E00400FA05002918BF0421002AAF
:1033000018BF0222036807481143186359605A68BE
:1033100042F001025A60BFF34F8FBFF36F8F00205E
:10332000704700BF04AAFF004A68034612F01F005E
:1033300070B529D10E68072E26D81C6822F01F020E
:1033400065686060A6600B7C03F0010313438A7C10
:10335000D20002F018021A434B7C5B0003F0060314
:103360001343E3608B68013B23F01F02CB685B00D3
:1033700003F00E03134343F0010323616560BFF3C1
:103380004F8FBFF36F8F70BD0120FCE703680020F3
:103390005A68C9B258609960D86018615A6070471D
:1033A00038B5054603681C68C4F307240CB92046E9
:1033B00038BD013C21462846FFF7E8FFF6E700004C
:1033C0000722024BC3F80423704700BF00300050AF
:1033D00000231720084A03F5C0710133402B42F83F
:1033E0002100F8D10023172003F5E0710133402BB1
:1033F00042F82100F8D170470030005010B540F27B
:103400000714064A800B890B884200D910BDC3B24D
:1034100003F5C07342F823400130F5E70030005057
:1034200010B540F2071400F1604001F16041064A16
:10343000400B490B884200D910BDC3B203F5E073BD
:1034400042F823400130F5E700300050C0F30D038F
:10345000C3F58043B3FA83F3C3F11B03064AC0F3F9
:103460008730DBB240F4807043F48073C2F800050B
:10347000C2F80435704700BF003000508003704729
:10348000800300F57F503F307047002070473F2099
:1034900070474FF48040704700F57F40C0304003D4
:1034A000704700004303014818447047FF1FF81F8E
:1034B000402070477F2070474FF400507047000055
:1034C000002914BF4FF480720022044BC0F3073070
:1034D00000F5007043F82020704700BF0030005016
:1034E000F8B543680C2B26D14B68042B23D14FF041
:1034F000FF3304680E6820683360E0B1A168D1B181
:103500002622FFF784FBB0B961680C4B1D68A94205
:103510000CD3A2685F6801EB020C3D44AC4505D8B2
:103520002068FDF71CF900203060F8BD0130042848
:1035300003F10803EAD10220F7E700BF945300002B
:10354000436870B50C2B33D14B68042B30D14FF04E
:10355000FF330468096820680B6058BB626855092E
:1035600004D0012D4FF6FF7318BF002302F01F0295
:10357000D340DB0719D5A468072C16D80123A34034
:1035800013F08B0F11D00C4B0C4E012D08BF33469E
:1035900003EB8203D3F8002222F0E04242EA0472F5
:1035A000C3F8002200230B6070BD4FF0FF33FAE731
:1035B0000220F9E70320F7E7002584500028845013
:1035C00010B50C4C236813B10B4B1B682BB900F0E2
:1035D00091FC30B90122084B1A60012300202360BE
:1035E00010BD0138072801D9044810BD044B53F819
:1035F000200010BD8441002088410020FE8FFFFF85
:10360000B45300002DE9F043144C154F002818BFA7
:103610000446236883B0BB421CD016460D462046A4
:103620004FF4147104F1040900F04CF804F58E789D
:10363000484600F045FB404600F0D2F82B464A468B
:1036400040460849009600F0EDF900B9276003B044
:10365000BDE8F083002003B0BDE8F0838C4100207A
:10366000A5BCC95A3D3D000070B50E4D82B0002882
:1036700014BF8446AC461D46DCF800000A4B984255
:103680000DD100260CF58E7033460096144600F0DE
:10369000F3F9002818BF34462C6002B070BD03480F
:1036A000FBE700BF8C410020A5BCC95AE88FFFFF93
:1036B00038B131B1002201440346013081421A7011
:1036C000FAD1704738B131B10022014403460130CC
:1036D00088421A70FAD1704770B590B000287AD03D
:1036E0003E4C0D464022362106462046FDF710F896
:1036F00040225C21A018FDF70BF82B1D9C4203D241
:1037000004F144039D4252D32B6822685340236046
:103710002B68226C534023646B686268534063607B
:103720006B68626C53406364AB68A2685340A360EB
:10373000AB68A26C5340A364EB68E2685340E3605B
:10374000EB68E26C5340E3642B69226953402361C8
:10375000226D2B695340236562696B695340636135
:103760006B69626D53406365AB69A2695340A361A5
:10377000AB69A26D5340A365EB69E2695340E36115
:10378000EB69E26D5340E3650021304601F0D8F863
:10379000044628B940223046104901F0E5F80446B5
:1037A00040216846FFF78EFF204610B070BD631EB3
:1037B00004F13F01013D1F3415F8010F13F8012FEB
:1037C00042401A7011F8012F2878A34282EA0002C1
:1037D0000A70F1D1D8E76FF07304E5E7DC4300200D
:1037E00010B54FF49A7200210446FCF791FF42F2A3
:1037F0001072044BC4F8202104F596701B68BDE8D4
:10380000104018474C2F00202DE9F04F0446894600
:10381000924695B0002900F0A780002A14BF022725
:10382000012700238DF80C30002C00F09F80DFF87A
:10383000448104AE08F1400B0021204601F080F8DD
:10384000034648B1304620210193FFF73BFF019B1F
:10385000184615B0BDE8F08F40224146204601F0E1
:1038600083F803460028EDD104F1F405202229460F
:10387000204601F079F803460028E3D101222046D2
:1038800003A901F071F803460028DBD1022F62D0B2
:1038900020460CA901F092F803460028D2D119461F
:1038A000204601F04DF803460028CBD1402259466E
:1038B000204601F059F803460028C3D120222046B3
:1038C0000CA901F051F803460028BBD1314620462F
:1038D00001F074F803460028B4D131462046FFF7C2
:1038E000FBFE03460028ADD120222946204601F0E8
:1038F0003BF803460028A5D120460CA901F05EF84C
:10390000034600289ED10146204601F019F80346DF
:10391000002897D140225946204601F025F8034659
:1039200000288FD1202220460CA901F01DF8034663
:10393000002887D12946204601F040F80346002898
:1039400080D19DF80C200132D2B2BA428DF80C2001
:10395000FFF472AF76E752464946204601F004F87C
:103960000346002894D06DE701275AE76FF07303F0
:1039700004AE67E7DC4300202DE9F04104468846A9
:1039800015461F46D0F81801E0B013B100EB400017
:103990004008B5F5807F3ED82844B0F5C07F3AD8BE
:1039A0004FF4C07200216846FCF7B2FE6946D4F8B5
:1039B0002431D4F81821D4F82801984770BBD4F8E2
:1039C000186157B1D4E9493072080DEB06019847E8
:1039D00020BBD4F8183106EB5306B8F1000F00D025
:1039E0008DB9324669462046FFF70EFF054610B9ED
:1039F0000123C4F8143131466846FFF763FE2846B8
:103A000060B0BDE8F0810DEB060041462A462E4429
:103A1000FCF7A5FEE5E76FF00405F0E76FF0080599
:103A2000EDE700BF2DE9F047044604F1F4050F4629
:103A300091461E46DDF8208000F068FF29462046AA
:103A4000FFF74AFE08B1BDE8F08728462022012191
:103A5000FCF75EFED4F81831C4F82471C4F828913C
:103A600013B92023C4F81831424631462046BDE838
:103A7000F0470123FFF780BFB2F5806F00F2958019
:103A80002DE9F04F89B09A46129BB3F5807F00F282
:103A90009080D0F824311646044688464BB3D0F8BF
:103AA0001C31012B05D0D0F81421D0F820319A42D6
:103AB0001FDD514600232046129AFFF75DFF0146A5
:103AC00098B900231293002E5ED0DFF8EC9009F134
:103AD000400B0021204600F033FF202E35460146E2
:103AE00028BF202504F1F40790B1084609B0BDE8CD
:103AF000F08FBAF1000FE6D0129B002BE1D05146B7
:103B00001A462046FFF780FE01460028DBD0ECE78E
:103B100049464022204600F027FF01460028E4D114
:103B200039462022204600F01FFF01460028DCD144
:103B30006946204600F042FF01460028D5D12046C4
:103B400000F0FEFE01460028CFD159464022204613
:103B500000F00AFF01460028C7D16946202220460E
:103B600000F002FF01460028BFD13946204600F090
:103B700025FF01460028B8D140462A463946FCF7C1
:103B8000EEFD761BA844A4D151462046129AFFF7B9
:103B90003BFE01460028A8D10846D4F81431013371
:103BA000C4F8143109B0BDE8F08F6FF00201084687
:103BB00070476FF0040198E7DC4300202DE9F043E3
:103BC000202B1D460646884691468BB026D8DBB290
:103BD00002AF8DF80480B04658F8041B8DF805300C
:103BE00021B9404600F0ACFE044640B90123022250
:103BF0004046336001A900F0B7FE044638B13846AC
:103C00002021FFF75FFD20460BB0BDE8F0832A4678
:103C10004946404600F0A8FE0446F0E702AF1946C8
:103C2000104600233A4601F027F804460028E6D162
:103C30002023B9461D46CCE72DE9F041D0F8F830F5
:103C4000A6B0002BD8BF02AE31DD05460027D0F864
:103C50000C4102AEA4F101089022D5F8FC40314697
:103C6000D0F8000101AB0197B8FA88F8A0474FEAF5
:103C70005818044620B9019B53B9B8F1000F16D06B
:103C800030469021FFF71EFD204626B0BDE8F081AA
:103C9000014632462846FFF791FF58B9D5F804315E
:103CA000019A1344C5F80431B8F1000FE8D16FF060
:103CB0003C04E5E70446204626B0BDE8F08100BF9D
:103CC00070B50025044614222946C0F8F850FC308F
:103CD000FCF71EFD154B04F588761B6830469847A7
:103CE000204640F8045B00F011FE114B30461B6883
:103CF0009847C8B9D4F8F830AB420FDC03EB830225
:103D000004EB82022021C2F800010120C2E9421026
:103D100008490133C2F8FC10C4F8F830064B3046AD
:103D2000BDE870401B68184770BD00BF4C2F0020D5
:103D3000502F002001480000542F00202DE9F047AB
:103D4000202A88B078D83E4B00F5887904461B6855
:103D50004846174688469847054640BB40F201163C
:103D6000D4F8F830002B63D02046FFF765FF0546F6
:103D700000285FD1D4F8F830002B07DDD4E94102E8
:103D8000904203D3D4F80C21012A14D0013EE9D18A
:103D90006FF03B056E4620213046FFF793FC294B20
:103DA00048461B689847002818BF6FF01D05284635
:103DB00008B0BDE8F0871F28E8D96E4629462022C2
:103DC000304604F1040AFCF7A3FC3146504600F0EB
:103DD000F5FD05460028DED1504600F0ABFD50460B
:103DE00000F094FD2946504600F0AAFD0546002843
:103DF000D1D150462022314600F0B6FD05460028BC
:103E0000C9D1034632462021304600F035FF054631
:103E10000028C0D1D4F8F8303A46002BC8BF0023A0
:103E200040463146C8BFC4F80431FCF798FCB2E7FD
:103E30006FF03F056E46AEE76FF03B05B7E700BF9A
:103E4000502F0020542F0020002130B58DB02822A3
:103E500002A80191FCF75CFC02A800F035FF0446C3
:103E600010B120460DB030BD1B4D4FF0FF3128681A
:103E700000F036F960BB194BD3F8340E10F0010096
:103E800017D100F05DF9F8B9154A02A901A800F0B0
:103E9000A9FC0446012000F053F988B9286800F015
:103EA00027F90028DDD00F4800F0B0F920460DB00A
:103EB00030BD2868052400F01BF90028D1D0F2E7B6
:103EC000094800F0A3F9E9E7084800F09FF9DBE7AB
:103ED000074800F09BF9CEE7482F0020006084508F
:103EE000C84400202C5400000C540000EC53000087
:103EF000D453000030B583B000F03AF898B900F020
:103F000059F8B0B9164BC3F80C0AFFF79DFF0446E9
:103F100028B9144D2B6883B1204603B030BD052469
:103F2000204603B030BD032400F072F8204603B0F1
:103F300030BD0424204603B030BD02460146FFF7E1
:103F400061FB0028EBD16822074901ABFFF78CFB2E
:103F50000028E4D12046054B2B6003B030BD00BFE4
:103F600000508450C44400205C4400205AEA5A5A4D
:103F700000207047430504D54FF0FF32034BC3F8D0
:103F80000821024BC3F8080A704700BF0050845054
:103F9000014BC3F8040A70470050845008B100F088
:103FA00071B84FF47500704708B100F04FB84FF486
:103FB0007500704710B5114800F07EF800B110BDD3
:103FC0000F4800F079F80028F9D10E4C204600F097
:103FD00073F80028F3D10C4B0C481C6000F06CF80F
:103FE00001460028EBD100F02DF8044608B1204628
:103FF00010BD00F087F82046FAE700BF442F0020EC
:10400000382F0020402F0020482F00203C2F002078
:1040100008B5084800F05AF8074800F057F8074874
:1040200000F054F8064800F051F8BDE8084000F0F0
:104030000BB800BF442F0020382F0020402F002055
:104040003C2F002000207047704700BF10B402468C
:104050000B4C01E0134207D1D4F8003A13F48070FE
:10406000F8D0012042F4807229B1054BD3F8044105
:104070000C60C3F80841024BC3F8082A10BC704713
:10408000005084500246084901E01A4207D1D1F895
:10409000003A13F48070F8D0012042F48072024B91
:1040A000C3F8082A704700BF00508450FCF760B97D
:1040B0000A460021FCF72CBB08B5034B02681B68BD
:1040C00010689847002008BD682F002008B5034BF2
:1040D00002685B6810689847002008BD682F0020C0
:1040E000024B02689B681068184700BF682F0020C9
:1040F00008B5034B0268DB6810689847002008BDCC
:10410000682F002070B5094C094D2069AB689847AD
:1041100018B1084B08485B6898470021074AEB68CC
:1041200011602069BDE87040184700BF782F00205B
:10413000682F0020582F002044540000E84600203B
:10414000F8B51A4D1A4E0446B26828699047E8B986
:10415000184F3B684CB1A3B1012B19D0013B3B6018
:104160002869F36898470020F8BD43B90121124A35
:10417000C2F800151149D1F81029002AFBD10133EA
:104180003B60F368286998470020F8BD0C48F8BDEB
:104190000A4AD2F81039002BFBD1074A6FF07E4053
:1041A000C2F80035FFF7F4FE3B68D7E7782F002010
:1041B000682F0020E84600200040845000508450C2
:1041C000E98FFFFF014B1B68184700BF682F0020D5
:1041D000014B9B68184700BF682F0020014BDB682C
:1041E000184700BF682F0020BFF34F8F0549064BCB
:1041F000CA6802F4E0621343CB60BFF34F8F00BF85
:10420000FDE700BF00ED00E00400FA0530B44FF018
:10421000FE3200250B4B0C4C0C494968C3F80024B6
:10422000C3F80424C3F80824C3F80C24C3F81024EA
:10423000C3F81424C3F81824C3F81C24C4F8005588
:1042400030BC08470050845000408450582F002054
:1042500010B5044630B16368DB0602D50023236045
:10426000636010BD024B03485B689847F3E700BFEB
:10427000582F002064540000B0B1436893B1DB06AE
:104280000ED5012350E8002F194640E8001C9CF091
:10429000000FF7D1012AF5D0BFF35F8F00207047E0
:1042A00003487047034870476FF4E040704700BF11
:1042B000E98FFFFFEA8FFFFF034668B142683AB11A
:1042C000D20607D5BFF35F8F002210461A607047F1
:1042D00003487047034870476FF4E040704700BFE1
:1042E000EA8FFFFFE98FFFFF10B5044620B10022DF
:1042F00011232260636010BD0148FFF787FFF6E7D6
:104300008C54000000287BD0F0B50C4683B0002907
:1043100072D01D46002B6FD007461AB10122002330
:104320002A6003602B68002B62D02946204600F0EB
:104330008DFD034600285CD12146286800F068FD09
:104340000346002855D12A68082A6BD0042A6CD06D
:10435000A2F1020CBCFA8CFC4FEA5C1C0120344E2A
:10436000C6F8C401C6F84001C6F8C401626AC6F8BE
:104370003021D6F830118A42F6D100220193C6F8D6
:104380002C214FF0FF32C6F808216FF01B02C6F84F
:104390000021C6F80CC1D6F8040A40F48060FFF78B
:1043A000F7FD0A22C6F83821089B012B019B2AD071
:1043B00022692049A1FB02121209616A184601FB19
:1043C00002F202EB42021A49D2039209C1F8D82143
:1043D0000122C1F82C213A68296822F07F4242EA82
:1043E00001623A60296842EA01223A6003B0F0BDF6
:1043F000114B184603B0F0BD104B184603B0F0BD8A
:104400000E4B184670474FF47F02D2F80C1C013156
:1044100006D0D2F80C2C0749A1FB02121209CCE7F6
:104420001622CAE74FF0030C98E74FF0020C95E70D
:1044300000508450ABAAAAAA310CF100350CF1004F
:1044400070B50024C9004FF0010C2546A6464E1E4B
:1044500008E09E4514D00125B44516D89E46013487
:104460000CF1010C630950F8233004F01F01CB401C
:104470001F2918BF03F00103002CEAD10125EDE745
:1044800001359542E8D1024870BD002070BD00BFE3
:10449000360CF10000283FD02DE9F0414C1EB4F558
:1044A000047F28D23BB332B34FF0000E76467546F8
:1044B0007446CF0003F1FF38610950F8211004F071
:1044C0001F0C21FA0CF1BCF11F0F18BF01F0010104
:1044D000A4B1AB4218D08E4208BF0EF1010EA84520
:1044E00015D0314601350134BC4201D00E46E3E718
:1044F0000020BDE8F0810948BDE8F0814FF0010ED1
:104500000E4674467546D7E70125AE46EBE7724581
:10451000F1D331461D46E6E700487047370CF100FD
:104520002DE9F04F8FB08146DDE919460D46002E8A
:104530004CD1096904911C60002318990B60002A72
:1045400000F01D819A4B6A6AD3F83811D3F83031E4
:104550009A4247D10A2945D199F80330069304F1CC
:10456000080305930423049A0393924B904CA3FBF6
:10457000023B4FEA9B0B0BEB4B0BA2EB4B0B189B3D
:10458000049E1E60002E33D000274FF0010ADDF894
:10459000148000F06BFC00230793B9F1000F00F0CA
:1045A000D980002D00F0D680069BEBB1284606A9E5
:1045B00000F04CFC00283ED07F4B984218D103906D
:1045C00000F054FC03980FB0BDE8F08F4FF47F016A
:1045D000D1F80C0C01300CBF4FF40471D1F80C1C55
:1045E0000491A8E77548EAE77548734B9842E6D00E
:1045F000069B082B00F0C18000225B000693294631
:1046000006AB48460092FFF77DFE6D4B984200F0E6
:10461000B0800028D3D1D9F80020130A03F47F0317
:10462000134323F07F43C9F80030039B013B0393FE
:10463000A5D10020C3E72946069800F0E9FB002831
:10464000BAD10699082900F09080042900F08F80E3
:10465000A1F10201B1FA81F14909C4F8C4A1C4F879
:1046600040A1C4F8C4A16B6AC4F83031D4F8302139
:104670009342F6D10023C4F82C314FF0FF33C4F835
:1046800008316FF01B03C4F80031C4F80C11D4F8E2
:10469000040A40F48060FFF77BFC0A23C4F8383139
:1046A0002B69444AA2FB0313696A1B0901FB03F34C
:1046B00003EB4303DB039B09C4F8D831C4F82CA1F6
:1046C0000698D9F80010030221F07F4143EA006305
:1046D0000B43C9F8003007A800F08AFB079B354A56
:1046E00003F01A03034383D1A2FB0632D4F814313A
:1046F000B7EB920F0893D4F818310993D4F81C3112
:104700000A93D4F820310B93D4F824310C93D4F8C5
:1047100028310D9302D1BBF1000F1DD14046182264
:1047200008A9183E08F11808FFF7C0FC0137002E51
:104730007FF42FAF049BB3F5047F35D8059E19464F
:1047400030466A691F46FFF77BFE18B30023189AAC
:10475000136031E71B482FE740465A4608A9A6EBED
:104760000B06D844FFF7A2FCE0E7032175E702211E
:1047700073E72B6A002B3FF422AF13481FE7012297
:1047800029464846009606ABFFF7BCFD00283FF4DB
:10479000E6AE14E74FF4806339463046AA69FFF766
:1047A00079FE0028D2D144E7189B1E6020E700BFA5
:1047B00000508450ABAAAAAA020CF100300CF10000
:1047C000310CF100350CF100320CF10010B4DDE9D0
:1047D000013401940024DDF80CC0CDE902C410BC02
:1047E000FFF79EBE30B51546012487B005AB009398
:1047F0000022CDE9015404ABFFF792FE07B030BDB3
:104800002DE9F04188B0059200296AD01C46002BA2
:1048100067D01546002A64D0DFF8CC800E46D8F861
:1048200000004FF0FF31FFF75BFC00284AD12F4B0F
:10483000D3F8340E10F0010018D04FF0FF374FF4CA
:1048400008712B48FEF734FF04212A48FEF730FF99
:1048500029482821FEF72CFFD8F80000FFF748FC74
:10486000002833D1384608B0BDE8F081FFF768FC76
:10487000002832D1204800F027FAC0B91C4B02466C
:10488000029307AB039000931B491A48019405ABB0
:10489000FFF79CFF58B92368AB4208D30799074636
:1048A0002A4630460831FFF701FC256001E04FF051
:1048B000FF370120FFF744FC0028C0D00F48FFF766
:1048C000A5FCBCE70E48FFF7A1FCB0E70D48FFF7D9
:1048D0009DFC384608B0BDE8F0810B48FFF796FC18
:1048E000C8E74FF0FF37BDE7482F00200060845035
:1048F00000470020FC460020204900200C54000006
:10490000D4530000B0540000EC53000010B504462E
:1049100028B12046BDE81040F421FFF7C9BB044888
:10492000FFF774FC2046BDE81040F421FFF7C0BB40
:10493000C854000010B1F421FEF7BABE704700BFA2
:1049400008B561B1012907D1022100F05BF8002808
:1049500018BF6FF0360008BD6FF0360008BD0121AA
:1049600000F050F8F3E700BF30B505468818B0F501
:10497000801F0B461446A1B001D8802A0CD9B3F58C
:10498000801F17D922461946284600F07DF80446B4
:1049900084B9204621B030BD6846FFF787FB224628
:1049A0006946284600F070F8802104466846FFF703
:1049B0007FFBEDE76FF03604EBE700BF70B5E8B1C1
:1049C0000E46D9B1044600F031F80546B0B9236867
:1049D000012B0BD0022B01D0284670BD1C22304683
:1049E00004F10801FFF762FB284670BD2022304623
:1049F00004F10801FFF75AFB284670BD6FF0360539
:104A0000EAE700BF78B138B50D46F0210446FFF75C
:104A10004FFB402320462560E36500F06BFA003829
:104A200018BF012038BD0120704700BFF0B5056EEA
:104A3000A5B0044604AEE5B9002301270193304632
:104A40006760294602AA009300F022FA10B1012003
:104A500025B0F0BD2A46204602A900F075FA0028CC
:104A6000F5D1204600F078FB0028F0D1206625B073
:104A7000F0BD802D2A46304628BF802204F1640113
:104A8000FFF714FB256ED7E7002800F0CD802DE955
:104A9000F04F1546A5B0002A00F0B4800F4600295B
:104AA00000F0AC80B2F5803F0646006E7DD34FF635
:104AB000FF7806F1640914E08342BA464FF6FF74AA
:104AC00029D0B4FBF3FB03FB0BFBBBF1000F44D17C
:104AD000A5F57F454744FF3D002C59D1B5F5803FF2
:104AE00063D3F36D1C1AB4FBF3F203FB1244002CE6
:104AF000E2D0444528BF4446394622464844FFF7A1
:104B0000D5FA306EF36D2044834207EB040A306619
:104B1000A8EB0404D5D1802B28BF802349461A4630
:104B200004A8FFF7C3FA0023F16D02AACDE9003310
:104B300004A800F0ADF9002860D13046F26D02A95A
:104B400000F002FA002859D1F36D3066B4FBF3FB94
:104B500003FB0BFBBBF1000FBAD0002359465046B4
:104B6000CDE9003302AA00F093F9002846D15A4655
:104B7000304602A900F0E8F900283FD1A5F57F45AD
:104B8000A4EB0B04306EDA444744FF3D002CA5D063
:104B900019305146224606EB8000FFF787FA306E47
:104BA000B5F5803F204430669BD2F26D141AB4FBF9
:104BB000F2F302FB1344AC4228BF2C4634BB9042B4
:104BC00034D0B5FBF2F402FB04F46CB9D5B1336E0A
:104BD0002A46193306EB83003946FFF767FA336E2E
:104BE00000202B4433660AE0002321463846CDE9F5
:104BF000003302AA00F04CF9002833D0012025B080
:104C0000BDE8F08F284625B0BDE8F08F06F16403BB
:104C1000394622461844FFF749FA306EF26D2044B7
:104C20002D1B27443066CAE701207047802A28BF21
:104C3000802206F1640104A8FFF738FA0023F16D21
:104C400004A8CDE9003302AA00F022F90028D5D14A
:104C50003046F26D02A900F077F90028CED1F26D4E
:104C60003066AEE72246304602A900F06DF9002812
:104C7000C4D127442D1BA9E7F8B51C4605461148A9
:104C800016460F46FFF742FE21460E48FFF758FE34
:104C9000044620B10B48FFF74DFE2046F8BD3A46CA
:104CA00029460848FFF760FE04460028F2D1314645
:104CB0000448FFF783FE04460248FFF73BFE204608
:104CC000F8BD00BF484900201C2330B583B001A9BE
:104CD0000446019300F036F8054638B9019B1C2BB9
:104CE00007D0164D1C212046FFF7E2F9284603B0F5
:104CF00030BD0121D4E90032003B18BF0123E1613E
:104D00000AB143F00203A26832B9E26842B9C4E9C9
:104D100008328BB90A4DE5E7E26843F004033AB183
:104D20000022284643F00803C4E9083203B030BD2E
:104D30001546C4E90832D9E71546D7E7370CF00025
:104D40000E0CF000034618B111B10A681C2A01D0FC
:104D5000012070474FF47F02D2F8101C01310CBFC4
:104D600040F2DC51D2F8101C4FF47F020160D2F8FF
:104D7000141C01310CBF40F2DC51D2F8141C4FF46A
:104D80007F024160D2F8181C01310CBF40F634019B
:104D9000D2F8181C4FF47F028160D2F81C1C01313C
:104DA0000CBF40F63401D2F81C1C4FF47F02C160E6
:104DB000D2F8001C01310CBF9021D2F8001C4FF436
:104DC0007F020161D2F8041C01310CBF5121D2F8DD
:104DD000041C4FF47F024161D2F8081C002001310D
:104DE0000CBF40F23732D2F8082C9A61704700BFEE
:104DF000014608B54FF48060FFF7D6F80022034B58
:104E0000C3F8C821C3F82C2108BD00BF005084504E
:104E10000138072805D8DFE800F0120E040A040460
:104E2000040609487047CB6800204B6270478B68C6
:104E300000204B6270474B6800204B6270470B6844
:104E400000204B62704700BF310CF1000B6802E09C
:104E5000082B0B6006D8026A13424FEA4303F7D0CF
:104E60000020704700487047310CF100002310B556
:104E7000064C4FF48060C4F82C31C4F8C431FFF7FD
:104E800079F84FF0FF33C4F8083110BD005084505A
:104E90002DE9F041002482B015461E4601220DF195
:104EA00007030746DDF824808DF8074000F08EF9EF
:104EB000D0B99DF8073004462F602B71B8F1000F70
:104EC0000ED04EB10246089930460DF1070300F0AE
:104ED0007DF948B99DF80730C8F8006088F80430BB
:104EE000204602B0BDE8F0814FF47504204602B0C0
:104EF000BDE8F081E8B110B50468012C04D0022CA3
:104F000010D044B10C4810BD20220C490830FFF7E6
:104F1000CDF8002010BD142209490830FFF7C6F86B
:104F2000204610BD202207490830FFF7BFF80020B7
:104F300010BD4FF4730070470100F3000C550000E2
:104F4000D8540000EC5400002DE9F047002900F08F
:104F5000EB800446002800F0EB8003688846914609
:104F6000002B00F0B580013B012B00F2C9804FF00F
:104F7000FF3171484FF0020AFFF7B2F8002840F005
:104F8000B1800020FFF7DCF80746002840F0B4802D
:104F90006A4DD5F81069002EFBD14FF0FF30FEF7B7
:104FA000E9FFD5F8040A20F40060FEF7F1FF0123C1
:104FB0000722C5F81838C5F82038C5F80029C5F803
:104FC000C437C5F8A466A36CC5F8CC37E36CC5F844
:104FD000D037C5F8C0A723685BB1013B012B18D8B7
:104FE000636AC5F85C36236AC5F85836E369C5F8C4
:104FF0005436A269514BC3F850266269C3F84C2657
:105000002269C3F84826E268C3F84426A268C3F8B8
:105010004026B9F1000F56D063684FF40060012BB1
:1050200004BF464AC2F8843698F80430D8F8001015
:10503000424A5B0003F00203C2F80C3BC2F8281C92
:10504000C2F82C9CFEF7AAFF0746236863B1013B18
:10505000012B19D8394BD3F85C266262D3F8582655
:105060002262D3F85436E361344BD3F85026A26160
:10507000D3F84C266261D3F848262261D3F844263F
:10508000E260D3F84036A360002201212B4BD3F815
:10509000CC07A064D3F8D007E064C3F8C417C3F802
:1050A0008426C3F8C827C3F81828C3F82028AFBB44
:1050B0000120FFF745F868BB1F48FFF719F818BB38
:1050C0003846BDE8F08704221C4BC3F8C827BCE76C
:1050D0004FF0FF3118484FF0010AFFF701F80028A0
:1050E0003FF44FAF1648FFF791F80020FFF728F87C
:1050F000074600283FF44CAF1248FFF787F847E710
:10510000114F3846BDE8F0871048FFF77FF8384662
:10511000BDE8F0870E48FFF779F8CDE7102104F1DC
:105120000800FEF7C5FFC3E70A4F3846BDE8F08721
:105130004FF47307C4E700BF442F00200050845091
:10514000D4530000EC5300000100F3002C54000085
:105150000C5400000300F300A0B3034670B4D0E980
:105160000240D3E9041226BA05BA0CBA10BAC3E950
:105170000440D3E90612986A09BAC3E9026512BA73
:10518000996100BAD3E9084125BA0CBAC3E90725E9
:10519000D3E90B12C3E9094009BAD86B12BAD96234
:1051A000D3E90D4125BAC3E90C250CBA00BAD3E9FD
:1051B000101209BA12BAC3E90E40196400205A64E9
:1051C00070BC70474FF47300704700BF0020187028
:1051D000704700BF014B1B68184700BFA82F002075
:1051E000024B1860024B002019607047A42F00206A
:1051F000A82F0020054A0346106810B1034413602D
:105200007047034803441360704700BF4C4A0020B6
:10521000000C0020FEE700BFF8B500BFF8BC08BCDA
:105220009E467047F8B500BFF8BC08BC9E46704764
:105230000122FCF75DF81FBD1FB51F486946F7E75F
:105240001FB51E486946F3E71FB51D486946EFE7DD
:105250001FB51C486946EBE71FB51B486946E7E7E1
:105260001FB51A486946E3E71FB519486946DFE7E5
:105270001FB518486946DBE71FB517486946D7E7E9
:105280001FB516486946D3E71FB515486946CFE7ED
:105290001FB514486946CBE71FB513486946C7E7F1
:1052A0001FB512486946C3E71FB511486946BFE7F5
:1052B0001FB510486946BBE7451300004B130000BB
:1052C0007913000089160000C9160000311700008C
:1052D000A1170000E717000055180000F91800009A
:1052E0000919000035190000411300007115000074
:1052F000151600003919000054464D5F43525950AD
:10530000544F0054464D5F53505F504C4154464FEC
:10531000524D5F53595354454D5F524553455400C8
:1053200054464D5F53505F504C4154464F524D5F71
:10533000494F43544C0054464D5F53505F504C41CD
:1053400054464F524D5F4E565F434F554E54455253
:10535000000100000001010000000000351A0000FB
:105360000D1A0000A919000073190000811900002E
:105370005D190000A4090000503100208031002098
:105380000080000000800000FFFF0F00007C000094
:10539000008000000002FF002C0000005004FF000D
:1053A000100000003001FF0008000000200CFF008A
:1053B00004000000FF8FFFFFFF8FFFFFFE8FFFFF46
:1053C000FE8FFFFFFD8FFFFFFC8FFFFFFC8FFFFFB6
:1053D000FB8FFFFF4661696C20746F2061637175FC
:1053E000697265206D757465780A00004661696CA4
:1053F00020746F20696E63726561736520504D2063
:10540000636F756E7465720A000000004661696C16
:1054100020746F20646563726561736520504D2050
:10542000636F756E7465720A000000004661696CF6
:1054300020746F2072656C65617365206D7574658D
:10544000780A0000436F756C64206E6F74206C6F77
:10545000636B20706F7765722073617665206D7560
:10546000746578006D757465785F66726565206334
:10547000616C6C65642077697468204E554C4C20D3
:10548000706172616D6574657200000043616E2722
:105490007420696E697469616C697A65206D7574D0
:1054A00065782C20776173204E554C4C0D0A000016
:1054B0004661696C20746F20756E6C6F636B206D34
:1054C000757465780A0000000A6374782069732097
:1054D0004E554C4C0A0000000123456789ABCDEFC7
:1054E000FEDCBA9876543210F0E1D2C3D89E05C1E2
:1054F00007D57C3617DD703039590EF7310BC0FFF8
:1055000011155868A78FF964A44FFABE67E6096AB7
:1055100085AE67BB72F36E3C3AF54FA57F520E51D4
:105520008C68059BABD9831F19CDE05B00000000A0
:10553000B0BAFF7F010000000090D0038008000097
:10554000203000205031002090ED00E0001C0020B1
:105550007C2F0020882F0020802F0020782F002013
:10556000402F0020C5410000D1410000DD41000076
:1055700000000000E9410000EC460020110000009E
:10558000E94200005142000079420000B9420000A7
:105590009C2F0020602F0020942F0020000000008E
:1055A0008C2F0020F046002011000000F44600205F
:1055B00011000000F846002011000000E102000088
:1055C00061030000B02F0020000000000000000078
:1055D00000000000000000000000000000000000CB
:1055E00000000000000000000000000000000000BB
:1055F00000000000000000000000000000000000AB
:10560000000000000000000000000000000000009A
:10561000000000000000000000000000000000008A
:105620000000000000000000C50F0000A10F0000F6
:107C00007FE97FE9F8F7A0BC7FE97FE9F8F7B2BC2C
:107C10007FE97FE9F8F7F5BC7FE97FE9F8F7DABC9F
:107C20007FE97FE9F8F7BCBC00000000000000001D
:107C30000000000000000000000000000000000044
:10800000683C01204DD50000254B030021D5000020
:1080100021D5000021D5000021D5000021D5000088
:10802000000000000000000000000000C9CD0000BA
:1080300021D500000000000069CD000021D500001E
:1080400051CE000051CE000051CE000051CE0000B4
:1080500051CE000051CE000051CE000051CE0000A4
:1080600051CE000051CE000051CE000051CE000094
:1080700051CE000051CE000051CE000051CE000084
:1080800051CE000051CE000051CE000051CE000074
:1080900051CE000051CE000051CE000051CE000064
:1080A00051CE000051CE000051CE000051CE000054
:1080B00051CE000051CE000051CE000051CE000044
:1080C00051CE000051CE000051CE000051CE000034
:1080D00051CE000051CE000051CE000051CE000024
:1080E00051CE000051CE000051CE000051CE000014
:1080F00051CE000051CE000051CE000051CE000004
:1081000051CE000051CE000051CE000051CE0000F3
:1081100051CE000051CE000051CE000051CE0000E3
:1081200051CE000051CE000051CE000051CE0000D3
:1081300051CE000051CE000051CE000051CE0000C3
:1081400051CE000051CE000051CE000051CE0000B3
:1081500051CE0000FFFFFFFF81F0004102E000BFB1
:1081600083F0004330B54FEA41044FEA430594EAF7
:10817000050F08BF90EA020F1FBF54EA000C55EA32
:10818000020C7FEA645C7FEA655C00F0E2804FEA03
:108190005454D4EB5555B8BF6D420CDD2C4480EAE5
:1081A000020281EA030382EA000083EA010180EA15
:1081B000020281EA0303362D88BF30BD11F0004F63
:1081C0004FEA01314FF4801C4CEA113102D0404299
:1081D00061EB410113F0004F4FEA03334CEA1333D4
:1081E00002D0524263EB430394EA050F00F0A780EC
:1081F000A4F10104D5F1200E0DDB02FA0EFC22FAE7
:1082000005F2801841F1000103FA0EF2801843FADA
:1082100005F359410EE0A5F120050EF1200E012ACB
:1082200003FA0EFC28BF4CF0020C43FA05F3C01809
:1082300051EBE37101F0004507D54FF0000EDCF182
:10824000000C7EEB00006EEB0101B1F5801F1BD32B
:10825000B1F5001F0CD349085FEA30004FEA3C0C2F
:1082600004F101044FEA445212F5800F80F09A8025
:10827000BCF1004F08BF5FEA500C50F1000041EB29
:10828000045141EA050130BD5FEA4C0C404141EB2D
:108290000101013C28BFB1F5801FE9D291F0000F28
:1082A00004BF01460020B1FA81F308BF2033A3F1D7
:1082B0000B03B3F120020CDA0C3208DD02F1140CCE
:1082C000C2F10C0201FA0CF021FA02F10CE002F109
:1082D0001402D8BFC2F1200C01FA02F120FA0CFC02
:1082E000DCBF41EA0C019040E41AA2BF01EB04514B
:1082F000294330BD6FEA04041F3C1CDA0C340EDC49
:1083000004F11404C4F1200220FA04F001FA02F38B
:1083100040EA030021FA04F345EA030130BDC4F149
:108320000C04C4F1200220FA02F001FA04F340EA3E
:108330000300294630BD21FA04F0294630BD94F0EF
:10834000000F83F4801306BF81F480110134013DD6
:108350004EE77FEA645C18BF7FEA655C29D094EA47
:10836000050F08BF90EA020F05D054EA000C04BFC5
:108370001946104630BD91EA030F1EBF00210020B0
:1083800030BD5FEA545C05D14000494128BF41F04F
:10839000004130BD14F580043CBF01F5801130BDB3
:1083A00001F0004545F0FE4141F470014FF000003E
:1083B00030BD7FEA645C1ABF194610467FEA655CEF
:1083C0001CBF0B46024650EA013406BF52EA033591
:1083D00091EA030F41F4002130BD00BF90F0000F7F
:1083E00004BF0021704730B54FF4806404F13204BB
:1083F0004FF000054FF0000150E700BF90F0000F74
:1084000004BF0021704730B54FF4806404F132049A
:1084100010F0004548BF40424FF000013EE700BF6A
:1084200042004FEAE2014FEA31014FEA02701FBFFA
:1084300012F07F4393F07F4F81F06051704732F02C
:108440007F4208BF704793F07F4F04BF41F4002183
:10845000704730B54FF4607401F0004521F00041E1
:108460001CE700BF50EA010208BF704730B54FF06B
:1084700000050AE050EA010208BF704730B511F06C
:10848000004502D5404261EB41014FF4806404F1A4
:1084900032045FEA915C3FF4D8AE4FF003025FEA2A
