:020000040000FA
:10000000000C002055010000B7010000A9100000FD
:10001000B3100000BD100000D1100000C710000098
:10002000000000000000000000000000311E000081
:10003000D301000000000000F51D0000DB010000FE
:10004000DF010000E301000000000000E701000004
:1000500000000000EB0100000000000000000000B4
:10006000EF010000F3010000F7010000FB010000B8
:10007000FF01000003020000070200000B02000065
:100080000F0200001302000000000000000000004A
:10009000170200001B02000000000000000000002A
:1000A0001F02000023020000270200002B020000B4
:1000B0002F02000033020000370200003B02000064
:1000C0003F02000043020000470200004B02000014
:1000D0004F0200000000000053020000000000007A
:1000E00057020000000000005B0200005F020000F9
:1000F0000000000063020000000000006702000032
:100100000000000000000000000000006B02000082
:100110006F02000000000000730200007702000080
:10012000000000007B020000000000000000000052
:1001300000000000000000000000000000000000BF
:1001400000000000000000000000000000000000AF
:100150007F020000114C124DAC4209DA216862683E
:10016000A368043BA2BFC858D050FAE70C34F3E7A9
:100170000C4B0D4CA34208DA19685A680020043A67
:10018000A4BF8850FBE70833F4E772B60748084974
:10019000086000F0C3FF00F04BFF00008402000085
:1001A000A8020000A8020000C80200000000000031
:1001B00008ED00E0FEE7FFF7FEBF00F075BF00F0BE
:1001C00078BF00F07BBF00F083BF00F07CBF01F080
:1001D0002FBEFFF7FEBF01F00DBEFFF7FEBFFFF71A
:1001E000FEBFFFF7FEBFFFF7FEBFFFF7FEBFFFF743
:1001F000FEBFFFF7FEBFFFF7FEBFFFF7FEBFFFF733
:10020000FEBFFFF7FEBFFFF7FEBFFFF7FEBFFFF722
:10021000FEBFFFF7FEBFFFF7FEBFFFF7FEBFFFF712
:10022000FEBFFFF7FEBFFFF7FEBFFFF7FEBFFFF702
:10023000FEBFFFF7FEBFFFF7FEBFFFF7FEBFFFF7F2
:10024000FEBFFFF7FEBFFFF7FEBFFFF7FEBFFFF7E2
:10025000FEBFFFF7FEBFFFF7FEBFFFF7FEBFFFF7D2
:10026000FEBFFFF7FEBFFFF7FEBFFFF7FEBFFFF7C2
:10027000FEBFFFF7FEBFFFF7FEBFFFF7FEBFFFF7B2
:10028000FEBF00BF98550000202F0020F80000009E
:10029000A0550000401C002000000000A0550000F8
:1002A000201C00200000000020300020301A000038
:1002B000401C0020E0120000201C00202000000054
:0802C000001C002004000000F6
:1002E000024B0A460146186800F05CB8AC2F0020AB
:1002F00008B5074B044613B10021AFF30080054B4E
:100300001868836A03B19847204604F0B3FF00BF22
:10031000000000004405000070B50D4D00260D4C96
:10032000641BA410A64209D10B4D00260B4C04F00F
:10033000A3FF641BA410A64205D170BD55F8043B71
:1003400001369847EEE755F8043B01369847F2E747
:100350001030002010300020103000201430002019
:10036000024B0146186800F02BB800BFAC2F0020EC
:10037000884210B501EB020402D98442234607D813
:10038000431EA14208D011F8012B03F8012FF8E712
:10039000024401468A4200D110BD13F8014D02F813
:1003A000014DF7E738B502FB01F5294600F052F898
:1003B000044618B12A46002100F0AAF9204638BDAB
:1003C00038B50546002941D051F8043C0C1F002BDC
:1003D000B8BFE41800F0A8F81D4A136833B9636089
:1003E00014602846BDE8384000F0A4B8A34208D9FC
:1003F000206821188B4201BF19685B6809182160C9
:10040000EDE71A465B680BB1A342FAD911685018A0
:10041000A0420BD120680144501811608342E0D102
:1004200018685B68084453601060DAE702D90C234F
:100430002B60D6E7206821188B4202BF19685B68E1
:100440000918636008BF21605460CAE738BD00BF67
:10045000404A0020F8B5CD1C064625F003050835B6
:100460000C2D38BF0C25002D01DBA94203D90C232C
:1004700033600020F8BD00F057F821490A6814469F
:100480009CB9204F3B6823B92146304600F03CF828
:1004900038602946304600F037F8431C23D10C233E
:1004A0003046336000F046F8E3E723685B1B17D45F
:1004B0000B2B03D923601C44256004E06368A2422F
:1004C0000CBF0B605360304600F034F804F10B00B1
:1004D000231D20F00700C21A1CBF1B1AA350C9E736
:1004E00022466468CCE7C41C24F00304A042E3D095
:1004F000211A304600F008F80130DDD1CFE700BF07
:10050000404A00203C4A002038B50023054D0446EF
:1005100008462B6004F09EFE431C02D12B6803B1F9
:10052000236038BD444A0020014800F009B800BFEC
:10053000484A0020014800F004B800BF484A0020A3
:1005400070477047B02F0020009A394B9A420FD164
:10055000EFF314830CB41FB536486946002200F04F
:10056000EBFE0FBC0CBC9E460CBC83F31488744796
:100570000FDFFEE7009A2E4B9A420FD1EFF3148360
:100580000CB41FB52C486946002200F0D5FE0FBC04
:100590000CBC9E460CBC83F3148874470FDFFEE747
:1005A0000CB4029A224B9A4212D10CBC9C46EFF337
:1005B00014830CB463461FB520486946002200F03E
:1005C000BBFE0FBC0CBC9E460CBC83F31488744766
:1005D0000FDFFEE7009A164B9A4210D1EFF3148317
:1005E0000CB463461FB516486946002200F0A4FE0D
:1005F0000FBC0CBC9E460CBC83F3148874470FDF01
:10060000FEE7009A0A4B9A420FD1EFF314830CB421
:100610001FB50C486946002200F08EFE0FBC0CBCD2
:100620009E460CBC83F3148874470FDFFEE700007E
:10063000A5EDF5FE8D13000093130000C11300001B
:10064000A91500004D160000431810B501D21F2A4D
:1006500001D9002010BD013902F014030144102B10
:1006600080EA01043CD009DC8BB1042BF1D11F2CB2
:1006700040E840F315D941E840F10EE0142BE8D1F1
:100680001F2C40E8C0F30CD941E8C0F105E01F2C55
:1006900040E800F305D941E800F11C460B468C42C6
:1006A000D7D122F01402013A0A2AD2D801A151F876
:1006B00022F000BF03070000FD060000EF06000067
:1006C00053060000530600005306000053060000C6
:1006D0000907000003070000F7060000EF0600000E
:1006E0001F2C40E880F3DCD941E880F1D5E713F412
:1006F000001FAFD1ADE713F4801FFAE75B02A9D565
:10070000A7E713F4002FF4E713F4802FF1E700BFFD
:100710000346F0B5C9B252B9940803EB84041344FC
:10072000A34211D1F0BD03F8011B013AF3E79C0786
:10073000F9D14FF0013514464D43D618032CEBD9AF
:10074000371B3D60043CF9E704F8011BE8E703466A
:1007500070B54AB141EA0304E50713D4012A03D96D
:1007600041EA0304A40713D40024A518032D15D8C7
:1007700022F0030423440C44002102F003029142BE
:1007800012D170BD11F8014B013A03F8014BE0E7BB
:1007900031F8024B023A23F8024BDFE70D1B2E68BB
:1007A0001D1B2E60043CE0E70D5DCD540131E6E7F2
:1007B000034B1B685A680AB91868704701487047AC
:1007C000001C0020D1070000FFF7F2FF00470000E7
:1007D0002DE9F04F01251E4B8DB0D3F80090D9E9DB
:1007E00000329540013D1BB1984708B104F080FDEF
:1007F0004FF0010A4FF00041284604F059FD002651
:10080000044609F10807002CF4D0D9F80430B342AB
:1008100002D804F06DFDEDE70AFA06F814EA080FB5
:1008200012D03B680BB904F063FD6946404604F002
:1008300043FD3B686846DDF804B0984701465846DA
:1008400004F04AFD24EA080401360437DBE700BF60
:10085000001C00200000000000000000000000005C
:1008600001015F5F030100001F010000C1090000DA
:10087000000800000000000001000000010000006E
:100880000000000000000000102200200000000016
:1008900070000000585300008000000000070000B6
:1008A00001000000E10900000100000000015F5F9D
:1008B000040100001F030000510E000000050000AD
:1008C0000000000000000000030000000000000025
:1008D00000000000102A0020000000006353000008
:1008E00040000000000500000100000000000000C2
:1008F00010000000805300004100000000050000CF
:1009000001000000000000002000000096530000DD
:100910004200000000040000010000000000000090
:100920004000000000015F5F00000000FE030000C7
:10093000E11E0000000400000000000000000000B4
:10094000000000000000000000000000A0310020B6
:100950000000000001015F5F01000000FF030000D4
:10096000151F000000010000000000000000000052
:10097000000000000000000000000000A035002082
:040980000000000073
:1009A00038B50025054C29462046D4F80024C4F863
:1009B0000454FFF7ADFEC4F8005438BD441C0020B9
:1009C00008B500F0C9F838B90121044802F034F83C
:1009D000BDE8084002F0B6B808BD00BF401C0020CA
:1009E0002DE9F04F056804469FB0002D40F0AC8023
:1009F0002022294601A8FFF78BFE11AE20222946AE
:100A000009A8FFF785FE342229463046FFF780FE0D
:100A1000E36904F11C0217462BB34FF00409342399
:100A200032460021606804F04BFC342824D1119B2D
:100A3000402B21D80125CDE90160454E0DF1040878
:100A400004F1100A4D45D6F800041BD1E26A04F106
:100A50002C03002A3ED004250DF124084346002132
:100A600007EB850E49E0032352F8041D9946013B2C
:100A70000029D4D1002BF7D16FF0830630461FB088
:100A8000BDE8F08F5AF8043FC0F58061DA1C22F00F
:100A900003028A4204D9FFF783FF6FF08C06EDE76B
:100AA00000EB060B02442946C6F8002460685A464B
:100AB00004F006FC0135C8F80C0048F808BFC1E78F
:100AC000002DC9D053F8041D2A46013D0029F7D056
:100AD0001546C1E70325F5E757F804CFC0F5806A4E
:100AE0000CF1030222F00302524503F108031ED861
:100AF000311843E9021C012110447745ECD109B1BA
:100B0000C6F80004A368119AC6F80434114B49468C
:100B100053F8226001A82B4609AAB04700270646D1
:100B2000BD4208F1080807D1FFF73AFFA6E7002900
:100B3000B1D0C6F80004AEE7394658E90223606830
:100B400004F0C6FB0137EBE76FF0850696E700BFC0
:100B5000441C0020980E000008B54FF4E0720021FC
:100B60000248FFF7D5FD002008BD00BF502000203F
:100B70006FF0850070476FF0850070476FF085005B
:100B800070476FF0850070476FF0850070476FF019
:100B9000850070476FF0850070476FF085007047E3
:100BA0006FF0850070476FF0850070476FF085002B
:100BB00070476FF0850070476FF0850070476FF0E9
:100BC000850070476FF0850070476FF085007047B3
:100BD0006FF0850070476FF0850070476FF08500FB
:100BE00070476FF0850070476FF0850070476FF0B9
:100BF000850070476FF0850070476FF08500704783
:100C00006FF0850070476FF0850070476FF08500CA
:100C100070476FF0850070476FF0850070476FF088
:100C2000850070476FF0850070476FF08500704752
:100C30006FF0850070476FF0850070476FF085009A
:100C400070476FF0850070476FF0850070476FF058
:100C5000850070476FF0850070476FF08500704722
:100C60006FF0850070476FF0850070476FF085006A
:100C700070476FF0850070476FF0850070476FF028
:100C8000850070476FF0850070476FF085007047F2
:100C90006FF0850070476FF0850070476FF085003A
:100CA00070476FF0850070476FF0850070476FF0F8
:100CB000850070476FF0850070476FF085007047C2
:100CC0006FF0850070476FF0850070476FF085000A
:100CD00070476FF0850070476FF0850070476FF0C8
:100CE000850070476FF0850070476FF08500704792
:100CF000012908D1012B06D84368342B03D1D2E94E
:100D0000000101F0EBBE6FF0800070476FF08500CE
:100D1000704708B502F0E0FA002008BD70B5002564
:100D20000446A6B03C22294607A8CDE90255CDE9E4
:100D300004550695FFF7ECFC3C22294617A81695AA
:100D4000FFF7E6FCE269019504F11C0312B30426E7
:100D5000E26A04F12C034AB30425731E012B53D815
:100D6000012D51D80423002160680DEB030204F02B
:100D7000A7FA04281CD06FF08005284626B070BD65
:100D8000002EE5D053F8041D3246013E0029F7D06D
:100D90001646DDE70326F5E7002DDED053F8041DE7
:100DA0002A46013D0029F7D01546D6E70325F5E789
:100DB000022E15D16369402BDDD806AE32460121E3
:100DC000606804F07DFA63699842D4D1CDE902608D
:100DD00002A93DB92A46019802F090FA0546CCE7EF
:100DE0000021F6E7236A402BC5D816AACDE90423D3
:100DF000019804AA02F082FADDE9042305460021E5
:100E0000606804F065FAB8E70125B6E710B58CB064
:100E10000C46694604F050FA009B002B04DA0233BA
:100E20000BDA04F065FA0CE003D0A3F2F233012BE5
:100E3000F7D86846A047014600E00021019804F079
:100E40004BFA0CB010BD08B502F046FA002008BD00
:100E500070B50E4C0E4D0F4E4FF000414FF0FF306D
:100E600004F026FAC10604D531461020FFF7CEFF64
:100E7000F2E7820602D529462020F7E7430602D58D
:100E800021464020F2E704F033FAE5E70D0D0000BB
:100E90001D0D0000130D0000C70C0000CD0C00005C
:100EA000B50C0000BB0C0000AF0C0000C10C000032
:100EB000D30C0000D90C0000DF0C0000E50C000092
:100EC000CB0B0000D10B0000A70B0000AD0B000006
:100ED000B30B0000B90B0000BF0B0000C50B0000F6
:100EE000FB0B0000010C0000D70B0000DD0B000025
:100EF000E30B0000E90B0000EF0B0000F50B000016
:100F00009B0B0000A10B00007D0B0000830B000079
:100F1000710B0000770B0000890B00008F0B0000A5
:100F2000950B0000070C00000D0C0000130C0000D6
:100F3000190C00002B0C0000310C0000370C0000D5
:100F4000430C00003D0C0000250C0000490C000083
:100F50001F0C00004F0C0000550C00005B0C000043
:100F6000610C0000670C00006D0C0000730C0000A9
:100F7000790C00007F0C0000850C0000910C000033
:100F8000A30C00008B0C0000970C00009D0C0000CF
:100F9000A90C0000F10C0000EB0C000000000000A8
:100FA0000348044B834202D0034B03B118477047F8
:100FB0001830002018300020000000000548064BC3
:100FC0001B1AD90F01EBA301491002D0034B03B147
:100FD000184770471830002018300020000000002B
:100FE00010B5064C237843B9FFF7DAFF044B13B171
:100FF0000448AFF300800123237010BD803100202E
:10100000000000008C55000008B5044B1BB10449DA
:101010000448AFF30080BDE80840CFE700000000BF
:10102000843100208C550000A3F5803A704700BF42
:10103000174B002B08BF134B9D46FFF7F5FF002110
:101040008B460F461348144A121AFFF761FB0E4BEA
:10105000002B00D098470D4B002B00D09847002064
:10106000002104000D000D48002802D00C48AFF309
:101070000080FFF751F92000290000F009F9FFF77F
:1010800037F900BF00000800000000000000000069
:10109000000C002020300020504A002000000000FA
:1010A0000000000000F00ABEFFF7FCFFFEE700F0C2
:1010B00005BEFFF7FCFFFEE700F000BEFFF7FCFFF8
:1010C000FEE700F0FBBDFFF7FCFFFEE700F0F6BD1A
:1010D000FFF7FCFFFEE700004FF47F03D3F8302159
:1010E000D3F83431072A05D1023B032B02D8024A38
:1010F000D05C704700207047B55300004FF050237C
:10110000D3F85825034B02F00302D340024A136080
:10111000704700BF0020A107202F0020544A08B5C7
:10112000D2F8D03043F00203C2F8D030FFF7D4FF3A
:1011300058B1504BD3F8202A3AB90D21C3F8201AE0
:101140000121C3F81C19C3F81C290022D30003F5A0
:101150007F03D3F80013013107D0D3F80013013215
:10116000D3F80433202A0B60F0D1FFF7B5FF002835
:1011700076D1FFF7B1FF40B13F4B404AC3F830256D
:101180004FF050230122C3F858254FF47F03D3F8C2
:101190003021D3F83431072A09D1023B032B06D87A
:1011A000374AD35C1BB10022364BC3F84C25FFF7FE
:1011B00093FF50B14FF05023D3F80024D10742BF22
:1011C0000022C3F81421C3F818214FF47F03D3F889
:1011D0003021D3F83431072A09D14FF05023D3F806
:1011E0000024D20744BF6FF00102C3F80024FFF7C8
:1011F00073FF18B165221F4BC3F80C274FF47F0310
:10120000D3F83021D3F83431072A16D11D4BD3F847
:101210002034002B11DA4FF050230322C3F8182595
:1012200001229A60D3F80421002AFBD00022C3F8DF
:1012300004210122DA60C3F818250D4AD2F88C3057
:1012400043F44063C2F88C300F4A104B1168C3F866
:101250004415D269C3F84C25BDE80840FFF74EBFDE
:101260002922044BC3F80C270322C3F83C2780E74C
:1012700000ED00E000400050009003504400EFBE3D
:10128000B1530000002003500080FF0000600050B8
:1012900008B5114B83F30A8801F0FCFD58B901F041
:1012A000FBFF40B902F010F828B902F00FF828B19E
:1012B00002F00EF820B100F0A5FE05E002F00AF8F9
:1012C00000F0F4FD00F030FE00F0DCFD00F0EFFD7A
:1012D00000F0F2FC002008BD00040020084B094A81
:1012E0001B6810B55B68044619615A61D1E9022395
:1012F000D1E90001A047044600F03AF8204610BDAD
:10130000B4360020EDEEEEEE10B5094C23685B68B4
:101310005A69084B9A4208BF086000F0D1FC236864
:10132000834203D0BDE8104000F080BE10BD00BF76
:10133000B4360020EDEEEEEE70B505460E461446CE
:10134000EFF30583C3F308030BB100F05BFE54B168
:10135000064B1B68D3E90024234631462846BDE8E6
:10136000704000F01DBD2246F6E700BFA036002009
:101370008230012808B506D800F0F6FF18B9BDE89C
:10138000084000F03FBE08BD0020704740F2011049
:10139000704770B5054600F0E7FF0646284600F0A6
:1013A000E7FE044608B9002070BD014632462846D3
:1013B00000F014FF0028F6D12368D868F4E7000095
:1013C0002DE9F04F0C469DB009930546914600F07B
:1013D000CBFFE3B2089323140790C4F307280B93C1
:1013E00004D56FF080001DB0BDE8F08FB8F1040F98
:1013F000F7D8089B042BF4D84344042BF1D8002DD4
:10140000EFD000F0C3FF6B000A907CD515F0E00F21
:10141000EAB2E6D1624B53F82270002FE1D03B686C
:101420003946079A586800F0D9FE002840F0B2808B
:101430003846C5F3072100F0BFFE0028D1D1EFF3F5
:10144000108572B600F042FE044685F3108800282D
:1014500000F0A3800023036000F020FE0546012673
:101460004FEAC80B334659464846079A009600F0A3
:101470005BFF0028B5D1089B00964FEAC30A51468E
:101480000223079A099800F04FFF06460028A8D1CA
:10149000014620220CA800F096FD2022314614A817
:1014A00000F091FD5A4649460CA800F05BFD0DF195
:1014B00030095246099914A800F054FDCB46B246B3
:1014C000C24530D100230133984551D84FF0010A6D
:1014D0000DF15009089B9E424DD1099B3946CDE93B
:1014E000046314ABCDE902830CAB01930A9B204645
:1014F00000932A460B9B00F0A7FE2A4B2146384654
:101500009B6898476FE728460A9900F08DFE0446CD
:1015100000283FF466AF4368002B7FF462AFC768D2
:10152000002F9CD15DE701230093DBF80410079A9C
:101530005BF8080B00F0F8FE00287FF452AF0AF1C8
:10154000010ABDE7D2F808E0D068D9F8001070446D
:10155000814205D2D9F8040001448E45FFF441AF21
:101560000CF1010C0832C445ECD109F10809AAE7D5
:101570004A469C46F7E7CDF800A0D9F804100223AC
:10158000079A59F8080B00F0CFFE00287FF429AF26
:1015900001369FE76FF0810025E76FF0820022E7B8
:1015A000543B0020BC5300002DE9F04188B00546B3
:1015B0000F4600F0D9FE0646284600F0D9FD044645
:1015C00020B96FF0810008B0BDE8F08103689B6826
:1015D0009B0532D401463246284600F0FFFD002824
:1015E000EFD13946204600F0E7FD05460028E8D156
:1015F000304600F0CBFE0746EFF3108872B600F0DD
:1016000065FD064688F31088D0B100F047FD2146FD
:1016100002464FF0FF333046CDE90455CDE902557F
:10162000CDE9007500F010FE31462046064B9B6860
:10163000079308B0BDE8F04118476FF08000C2E79B
:101640006FF08200BFE700BFBC5300002DE9F041FE
:10165000044688B000F088FE24B114F0804605D01E
:101660006FF08004204608B0BDE8F08100F08EFEE7
:1016700001460746204600F0D7FD05460028EFD07A
:10168000D0F80C80B8F1000FEAD04368012BE7D006
:1016900041466FF001032246CDE90466CDE90266BA
:1016A000CDE9007600F0D0FD29464046034B9B680B
:1016B000079308B0BDE8F041184700BFBC530000D5
:1016C0000D4B73B51B6804465D680E46AB69103D53
:1016D000184201D100F096FC002E08DA2146284677
:1016E000064B1B69019302B0BDE870401847286B98
:1016F000204002B070BD00BFB4360020BC530000D3
:1017000073B50E46044610B1431E034201D000F0EB
:1017100079FC144B00221B6830215D6801233046A0
:1017200000930223103D00F0FFFD08B100F06AFCB9
:101730002B6B0BB900F066FC2B6B234201D100F040
:1017400061FC2146284600F0EDFC40B100F1140197
:101750003022304600F006FC002002B070BD6FF071
:101760008B00FAE7B43600202DE9F7430E46904689
:10177000994600F0C5FD044608B900F043FC6369D2
:10178000002B01DA00F03EFC032E01D900F03AFCF8
:1017900004EB86077D6AE5B10123002200934946E8
:1017A0000223404600F0C0FD08B100F02BFC7B6A2C
:1017B0004D46994528BF1D4604EBC6042A464046BF
:1017C000616C00F0CFFB636C2B4463647B6A5B1B32
:1017D0007B62284603B0BDE8F08370B50E4615461F
:1017E00000F08EFD044608B900F00CFC6369002B84
:1017F00001DA00F007FC032E01D900F003FC04EB32
:101800008601486A58B185422A4628BF024604EB41
:10181000C604636C801A134463644862104670BD4A
:101820002DE9F3410F4690461D4600F069FD044640
:1018300008B900F0E7FB6369002B01DA00F0E2FB76
:10184000032F01D900F0DEFB04EBC70604EB87048D
:10185000636BB26E9B1AAB4201D200F0D3FB012343
:10186000002229464046009300F05EFD08B100F0DA
:10187000C9FBD6E919032A464146184400F072FB19
:10188000B36E2B44B36602B0BDE8F081F8B50646EE
:101890000D4600F035FD044608B900F0B3FBE768DB
:1018A0000FB900F0AFFB6369991C22D05A1C23D1F9
:1018B000002D35D015F1820F14D102236360EFF3B0
:1018C000108672B6194B29462046DB6898470546B4
:1018D00086F310886368022B24D1204600F014FCA4
:1018E0002846F8BD15F1830FE9D000F08BFB0025E9
:1018F000E5E702236360FAE7002BF6DB204600F001
:10190000E1FD3B689B689B0501D50223636015F1EF
:10191000810FD4D1E369002BD1DB00F073FBCEE75C
:101920003546F4E700236360DAE700BFBC530000EC
:1019300008B500F033FCBDE80840082100F0D4BD34
:10194000094B10B51B685C68236A103C1B0701D467
:1019500000F058FBEFF3108272B6236B23F00803FC
:10196000236382F3108810BDB436002001F0D2BC8E
:1019700038B50D4600F0C4FC044608B900F042FB3F
:10198000E3681B689B689B0501D500F03BFB256263
:10199000256038BDC36A016B10B519400446343068
:1019A00000F0EAF90023E36210BD08B5103000F042
:1019B000E3F9002008BD000038B5EFF3108572B6DA
:1019C000046B0C4005D1054BC1621968343000F03E
:1019D000C7F985F31088204638BD00BFB436002013
:1019E000F8B50D4641B338B303682BB344681CB354
:1019F0005E69EFF3108772B6636CC1F88830236BB1
:101A0000616433432363E36A334209D0216B04F1F9
:101A10003400194000F0B0F9E36A23EA0603E362F8
:101A200087F31088064B05F11000196800F098F94B
:101A3000012300206B60F8BD6FF08000FBE700BF62
:101A4000B436002038B5084D284600F07BF92B68E5
:101A500004465B6853E9040101F0ECF808B100F0BA
:101A6000D1FA204638BD00BFB4360020836AF0B5F5
:101A7000194341F008018162002102684163936AC1
:101A8000146995681C44073323F007034361224B14
:101A9000C0E90711416415F40071436214BF0823C3
:101AA000D36924F0070404BF9B000833073323F0F5
:101AB000070396698361E31AD46803611C600024FC
:101AC0005C6059B94FF0180C02F1300404EB860445
:101AD000D66903F108078E4216D15E60C360002309
:101AE000526880F83930438700F1100380F838508D
:101AF000C3630AB9094A13606FF00102BDE8F04000
:101B00000749383000F0FCB80CFB014EDEF810E05D
:101B1000013147F804EBDEE7EDEEEEEEA0360020F3
:101B2000C907000001F00C032DE9F3410C2B14BF91
:101B3000054615464B0607460E4601F008041BD520
:101B4000AB6913F8028CB4FA84F35B09B3EBD81FCA
:101B500001D000F057FAB8F1400F24D0B8F1410F8E
:101B600025D100F023FC06460146514800F04CFA0E
:101B7000304602B0BDE8F08100F044FA4C4BDF1B68
:101B80000CB900F03FFA082F01D900F03BFAFFF73B
:101B9000FDFB286000F094F8464B1B688342E7D0B9
:101BA00000F044FAE4E7284600F0C4F9E0E7404BCF
:101BB000DB1B082B01D900F025FAB8F1100F73D800
:101BC00001A353F828F000BF8F1B00000D1C00007C
:101BD0006F1C0000151C0000791C00009F1C0000F9
:101BE0008B1C0000811C00002B1C0000391C000015
:101BF000451C0000951C0000551C00005D1C0000E9
:101C0000A91C0000631C0000691C00002868FFF785
:101C1000C0FBBEE7D5E90223D5E90001FFF7D0FB01
:101C20000190FFF7A5FB0198B3E7D5E90223D5E9B9
:101C30000001FFF799FDACE72868D5E90112FFF72D
:101C4000CCFDA6E7D5E90223D5E90001FFF7E8FDC1
:101C50000020E5E72868FFF76BFEF9E7FFF770FE65
:101C6000F6E7FFF783FEF3E7FFF78EFB91E7D5E991
:101C70000001FFF799FCD3E72868FFF7E7FCCFE7FF
:101C8000D5E90001FFF774FEE2E7D5E90001FFF7AF
:101C900037FD7EE7D5E90001FFF7F8FDD8E7D5E984
:101CA0000001FFF70DFD74E76FF0830071E700BFDF
:101CB000000C0020B436002041DF704700F0A2B9CC
:101CC000044B186810B14378012B00D1704780682D
:101CD000F8E700BFAC360020C9B20129064B4170BD
:101CE00005D11A682AB101781278914201D3034ACA
:101CF00010681860704700BFAC360020B036002076
:101D000070B50F4D04462868134618B1227806783E
:101D100096420BD3A0602C606068002200F092F91C
:101D20002046BDE870400121FFF7D6BF0546806818
:101D300010B106789642F9D3A060AC60ECE700BF22
:101D4000B036002038B50546FFF7BAFF044600F06C
:101D50006DF905B12C606068BDE8384000F094B9B9
:101D6000022301604B70024B1A68024B1A607047E5
:101D7000B0360020AC36002038B5044600680D4669
:101D800060B14378022B09D10121FFF7A5FF236839
:101D90002946586800F040F90023236038BD000050
:101DA00070B572B61446EFF30B855FF0000C002A95
:101DB0001FBF8CF30B886C46954683F30B880C4A47
:101DC0000123136062B60E46FFF788FA72B63146F9
:101DD000FFF79AFA5FF0000C002C1EBF8CF30B8803
:101DE000A54685F30B88024C0025256062B670BDC0
:101DF000B8360020402010EA0E0018D001B500F0DF
:101E000023FBBDE80440884211D072B6EFF309828B
:101E1000EFF30B8322E9F00F80E81C4091E81C40AF
:101E2000B2E8F00F82F3098883F30B8862B670473B
:101E3000EFF308807146EFF30982EFF30B830CB4E4
:101E400006B4FFF76FFE864606BC0CBC00F0080027
:101E500001F00801401A01DC0DDB70470CB42DE9DC
:101E6000F00F074C254626462746A046A146A24627
:101E7000A34630B4704730BCBDE8F00F06BC7047D5
:101E8000A5EDF5FE084BDA6882F07F4282F47F020E
:101E900042F48042DA6000221A765A76DA76DA77ED
:101EA000602283F82220704700ED00E07047EFF3D6
:101EB000148030F0040080F31488BFF36F8F7047F4
:101EC00008B501F013F8054B986001F015F880F3A0
:101ED0008888BDE8084001F015B800BF00ED02E0B9
:101EE000FFF7EEFF009A0A4B9A4210D104460122F6
:101EF0009443204621462246234625462646274629
:101F0000A046A146A246A346A446A6460447FEE72D
:101F1000A5EDF5FE08B500214FF0FF3003F0C8F93C
:101F20000028F8D130BFF6E70122014B1A60704754
:101F3000BC360020012313B5009304460189022317
:101F40000022406800F0F0F928B9054B1B68012B0E
:101F500001D100F0C5F90323236002B010BD00BF1A
:101F6000BC360020034670B54AB141EA0304E507D8
:101F700013D4012A03D941EA0304A40713D400248B
:101F8000A518032D15D822F0030423440C44002186
:101F900002F00302914212D170BD11F8014B013AD7
:101FA00003F8014BE0E731F8024B023A23F8024B09
:101FB000DFE70D1B2E681D1B2E60043CE0E70D5D66
:101FC000CD540131E6E70346F0B5C9B252B99408E1
:101FD00003EB84041344A34211D1F0BD03F8011BA9
:101FE000013AF3E79C07F9D14FF0013514464D4310
:101FF000D618032CEBD9371B3D60043CF9E704F8F5
:10200000011BE8E701F086B98546024A014B0CB492
:1020100008470000A5EDF5FE036923B119604FF0F4
:10202000EE334361704703681962704704484FF00C
:1020300080510160BFF34F8FBFF36F8F7047000077
:1020400004ED00E02DE9F84304681F460D4BA4F1B0
:10205000080644E90233483C05468846914600217B
:1020600040222046FFF7AFFF4FF0807346F8043C54
:102070006FF0020346E9037846F8209CEB602C6081
:10208000BDE8F883A5EDF5FE436883F30B8803688C
:10209000203383F30988C06870470000054A13683D
:1020A000013303F007031360034A0133801A03EB83
:1020B000C0007047C0360020C436002018B1024B63
:1020C000013803EBD0007047C436002010B5064835
:1020D00000F05AFB044628B18C220021FFF773FF61
:1020E00000236360204610BDC4360020014608B5B9
:1020F000034800F05AFB0028024818BF002008BD22
:10210000C43600200500008010B50146EFF31084AE
:1021100072B6034800F043FB84F31088002010BD22
:10212000C4360020F0B50346EFF3108672B60024E3
:10213000426C00F1440520466AB948B10568012C9B
:10214000D5F888200260284602BF1A6B8A431A63BA
:1021500086F31088F0BDD7683F687F698F4204BF5F
:102160002846013402F18805D2F88820E4E700000F
:1021700030B5094C024661680023084640B1056845
:102180006D68954205D11BB1826860609A6081607C
:1021900030BD03468068F1E7D43B0020054A034682
:1021A000506800B97047026852689A42FAD0806C51
:1021B000F7E700BFA4360020036807489A68DB6889
:1021C00012F4806F03D18B4228BF002070478B42EE
:1021D00008BF0020704700BF0300008038B50446E8
:1021E0002AB10B689B68DB0515D5002038BD0C4B68
:1021F0001B685D68102D01D1FFF704FF002255F820
:10220000103C99692C338A4203D053F8040FA04242
:1022100003D19142E9D10348E8E70132F3E700BF77
:10222000B43600200500008038B5FFF747FF0D46A3
:102230000446FFF75BFF28B9E369AB4218BF0024EF
:10224000204638BD0024FBE72DE9F84A04468946BC
:1022500017460021302214309B46099E0B9DFFF744
:10226000B2FE00231D4AC4E903931268301D526870
:1022700004F1440C103AA2600D9AC4F814B0C4F8EA
:102280008420089AE26104F120020A998B4210D15D
:102290000023184604F1300204F164012E1DDDF81C
:1022A00030C0083163450ED12368A7612362BDE8C1
:1022B000F88A50F8331042F8041F56F833104CF8DF
:1022C00033100133E1E756F833C042F804CF55F834
:1022D00033C0013341E902C0E1E700BFB43600205A
:1022E000064B1B685B68102B04D053F8103C0BB1F5
:1022F000586870474FF0FF30704700BFB436002079
:1023000010B5FFF7DBFE0446FFF7F0FE50B9FFF70C
:10231000E7FFE3685B681B685B68834218BF0024C3
:10232000204610BD0024FBE738B5049D144609B9CA
:10233000002038BD88B142180DD2022B14BF0222F2
:1023400006220DB942F008020CB142F0200200F062
:1023500080FC0028ECD00248EBE70248E9E700BF28
:102360000400008001000080074B10B51B685C680A
:10237000102C01D1FFF746FE54F8103C5868B0FA13
:1023800080F0400910BD00BFB436002038B50546C6
:1023900048B100F021FAB5EBD07F044601D0FFF739
:1023A00031FE204638BDFFF79BFFF4E72DE9F743E8
:1023B000002508238C2240F28C411C4800F0B6F91D
:1023C0001B4F1C4B7D605D6000F009FA1A4EDFF870
:1023D0006C90384600F0A0F80446E0B1D0F80080D8
:1023E000D8F81C302BB180234A46124900F0FCF883
:1023F0000546D8F8243013B1204600F057F920687C
:10240000211D00F0F8FB08B1FFF7FCFD294620462E
:1024100033689847DDE70A4B1A680A4B1A607368FD
:10242000019303B0BDE8F043184700BFC436002055
:10243000A4360020D43B0020BC530000543B0020B5
:10244000342F0020503B00202DE9F843FFF738FCE3
:10245000194F04463B68A0F138065D68174B2946C2
:102460001B68012B1FD0F0B1A5F11008B0451AD0A0
:10247000EFF309826B682033934201D9FFF7C2FD65
:10248000EFF3108972B67168D8F804308B4206D029
:1024900054F8380C00F0CEFB08B1FFF7B3FD6168CB
:1024A0003C6089F31088064B1B6813B1F26802B1D7
:1024B0001A602846BDE8F883B4360020B8360020FC
:1024C000503B0020002330B500F13002444252F866
:1024D000041F29B1D0F8841054F8125019444D60EB
:1024E0000833202BF3D130BD70B50D46044608B932
:1024F000FFF788FDEFF3108672B6236B2B4323633F
:10250000E36A1D4203D0034B20465B69984786F37C
:10251000108870BDBC530000F8B5054608B9FFF738
:1025200071FD2C4E346814F1290F50D82A4B1968CC
:1025300004F128038B424AD2D4E9063206200C3338
:1025400000FB0233226A02EB42021344626A02EB8E
:10255000820213449B00E31801D2994201D2FFF793
:1025600051FD23681D4A1B0C1B04934201D0FFF749
:1025700049FD2388B3F5817F01D3FFF743FD6368ED
:10258000002B01DAFFF73EFD154A176807F14C03EF
:102590001360144A1268934201D9FFF733FDD4E95E
:1025A000063206210C3301FB0233226A3C6002EB47
:1025B00042021344626A02EB82021344326802EB65
:1025C00083026B683260BB646F603846F8BD0027D9
:1025D000FBE700BF2C2F0020DC53000000005F5FF2
:1025E000282F0020D85300002DE9F04F85B08846F1
:1025F00091460746029300B109B9FFF703FDD7F8EA
:1026000000A0DAF818100AF1300303EB81030193FC
:10261000DAF81C40234B1D6854B10C2101FB045413
:102620001C60214B1B689C4201D9FFF7EBFC2C4638
:1026300000262546B346DAF81C305B4500D91CB9A4
:10264000304605B0BDE8F08F1822019B02FB0B312C
:102650000023AB604B69C5E900171E438B689A05E0
:1026600016D5B9F1000F02D0029A802A03D0039345
:10267000FFF7C8FC039B13F0E00FD9B202D159F861
:1026800021301BB10391FFF7BDFC039949F821509C
:10269000D8F804300BF1010BAB60C8F804500C35CE
:1026A000C9E700BF242F0020D45300002DE9F047D4
:1026B000054608B9FFF7A6FC18222E680027B36963
:1026C00006F1300404EB8304F3694FF0140902FBB4
:1026D00003440C2240F2011A336A02FB034409FB53
:1026E00007F1736A01EB0408BB4201D8BDE8F0872B
:1026F000AB6AD8F8102028461343AB620B59414609
:10270000984708B1FFF77EFC3388B3F5807F05D189
:10271000D8F80C0000F0FCFB0137E0E75345FBD193
:10272000D8F80C0000F004FCF6E700002DE9F041B9
:1027300016461D46044610B30BB302F1040803FB12
:1027400008F707F10C028A4219D10021FFF73BFC80
:10275000002004F10C031A46014601318D4210603D
:1027600002EB080C104608D10020A7EB08073B44F9
:10277000C4E90036A560BDE8F0816246EDE7014896
:10278000F9E700BF01000080034638B1006828B1B6
:1027900002681A60002340F8043B704770470268E3
:1027A0000B1F41F8042C0360704700F10C029142AA
:1027B00010D343688068043300FB0320814209D2B0
:1027C0000439881AB0FBF3F203FB1200B0FA80F070
:1027D00040097047002070474FF0FF307047704746
:1027E00001680E4A0346914215D1C169A2F1102237
:1027F000A2F1EF1291420ED18268012A0BD8C26871
:1028000012B101698A4206D0586928B19B691B1A26
:102810005842584170470120704700BF55AA00FF39
:102820000D4B70B59E68A6B13046FFF7D9FF044640
:1028300078B9F3686BB935690DB9204670BD284683
:10284000FFF7CEFF28B9EB68B34202D12E462D69BF
:10285000F2E70124F1E700BFDC3B00202DE9F04165
:10286000394E3468F368D4B1B468C4B1002861D07B
:1028700000295FD001FB00F5B5FBF0F0884259D18B
:10288000291D57D8AA070DD025F0030204321C4693
:1028900003E0616891424FD2A469002CF9D120462F
:1028A000BDE8F0812A46F2E7891A232904F12007BE
:1028B000D4E9050C1AD80123A360A0B1C0F818C050
:1028C000A36903B158610023C4E905333369DB0709
:1028D00002D5FFF7A5FFA0BB2A46002138463C469B
:1028E000FDF716FFDBE7C6F80CC0E9E702F12008A8
:1028F00004EB08032039C3E9011E2169DFF84CE02D
:10290000DC60196144F808E0AEF1102EAEF1EF1E64
:10291000C3F81CE001B1CB60C3E9050C40B1836191
:10292000996901B14B6101212361C4E90121CAE721
:10293000F360F5E70024B2E7D4F808E0BEF1000F39
:10294000B2D00120FDF7D4FCDC3B002055AA00FFEB
:10295000F8B5054600283AD0364E3368002B36D0FD
:10296000B268002A33D0834203D872681344984275
:1029700002D30120FDF7BCFCA0F120042046FFF7A4
:102980002FFF0028F5D155F8183C012BF1D145F85F
:10299000180C55E90570DFB1BB68CBB955F81C2C94
:1029A0007B68203213447B60386100B1C76020220D
:1029B00000212046FDF7ACFE386908B183682BB3CF
:1029C00033699B0703D5FFF72BFF0028D1D1F8BD52
:1029D00040B3836833BB4268636813442033636049
:1029E0000369D4E90521236192B9B9B942698169C2
:1029F0006261A161A2B19461A26902B1546103B1A3
:102A0000DC6020220021FDF783FED9E73C46E2E7A7
:102A10009161A1690029E9D04A61E7E7F160F8E72F
:102A2000F460E9E7F36845F8083C03B15C61F460E1
:102A3000C6E700BFDC3B002038B50D46142200215C
:102A400004461248FDF764FE1149124802F0F8FBF3
:102A5000232D1AD914F003031FBF043DED18C3F151
:102A60000403E4182A4600212046FDF751FE074BD7
:102A7000094AC3E900459C602260A2F11022203D72
:102A8000A2F1EF126560E261DC6038BDDC3B002042
:102A9000512900005D28000055AA00FF10B504462A
:102AA000406A10B1A16A00F029FE606A02F0C2FB20
:102AB0000020C4E9090010BD38B50446FFF7EEFF59
:102AC000236A2C22012B0CBF05466FF096050021CE
:102AD0002046FDF71DFE284638BD000037B50C4DD9
:102AE0000C462B78DB070FD500230A4601930146DD
:102AF00001AB281D00F06FF820B9019BA34218BF5D
:102B00006FF0930003B030BD6FF08800FAE700BFAC
:102B1000F03B002008B500F045F80948037813F0B1
:102B2000060F04D0082200210430FDF7F1FD0C212E
:102B3000034800F0E3FDBDE8084000F04BB800BFDB
:102B4000F03B002038B5104D297811F0010114D167
:102B50000822281DFDF7DCFD02222B7862F34203D8
:102B60002B7000F013F8044650B900F031F8044619
:102B700030B92B7843F001032B700024204638BD78
:102B8000FFF7C8FFFAE700BFF03B0020044A00202F
:102B900092F8803543F0010382F88035704700BF1A
:102BA000FC3B0020F8B5094C20252646012720468D
:102BB0002762FFF781FF013D04F12C04F7D196F85D
:102BC000803565F3000386F88035F8BDFC3B0020B6
:102BD00000207047704738B5002014461D4600F0AD
:102BE0005FFD28B92B68A34218BF6FF0930038BD72
:102BF0006FF09200FBE7F0B510B943F6DA30F0BDA4
:102C00000029FAD0012300220C2418250B60016A48
:102C10008A4201D10020F2E704FB02F3D0E90676F4
:102C200003EB870305FB063303449B6B1B07E4D4CC
:102C30000132EDE7EFF3148311F00F0F0CBF012207
:102C4000002262F3000383F31488BFF36F8F002028
:102C5000704712F020032DE9F0410746884609D05D
:102C6000EFF39483DC074FF012034CBF42F00802ED
:102C700022F00802100702F0060148BF43F00403E7
:102C8000062942D143F001052A4641463846FDF760
:102C9000DBFC00286BD147E800F2B844100E1202AA
:102CA00008F1FF3646E800F34FEA136129D51B020D
:102CB00027D5884225D047E800F446E800F600F022
:102CC00008FC240E84424FEA16662CD300F003FC65
:102CD000864228D8204600F0F7FB2A46C7F10101BA
:102CE00001443846FDF7B0FC58B10134A64211D872
:102CF000304600F0E7FB2A46A8EB0001FDF7A4FCF4
:102D0000A8BB6FF07F00BDE8F081910731D543F09B
:102D10000805B9E7204600F0D5FB074600F0DDFBCB
:102D20002A460146DDE700F0E7FB8442E9D300F0E4
:102D3000E5FB8642E5D8204600F0D8FB2A46C7F1DD
:102D4000010101443846FDF77FFC0028D9D0013449
:102D5000A64203D8304600F0C3FBCCE7204600F083
:102D6000BFFB074600F0CCFB2A460146EAE70020FD
:102D7000C9E74CF2DA20C6E7F0B53B4C87B03B48D8
:102D800000F030FB236801255A1C0193384B226068
:102D9000DA681B694FF4407603930023334801A996
:102DA00002920495ADF814608DF8163000F0DEFA4A
:102DB00018B143F6DA3007B0F0BD23688DF816007D
:102DC0005A1C01932B4B294802932B4B01A9CDE9A7
:102DD00003352260ADF8146000F0C8FA0028E8D18D
:102DE00023688DF816005A1C0193244B1F48029348
:102DF000234B01A9CDE903352260ADF8146000F042
:102E0000B5FA0028D5D1022740F2011623688DF8C3
:102E100016005A1C01931B4B144802931A4B01A92C
:102E2000226003930497ADF8146000F09FFA002825
:102E3000BFD123688DF816005A1C0193134B0B4821
:102E40000293134B01A92260CDE90337ADF814605A
:102E500000F08CFA04460028ABD12A4629460348E4
:102E600000F06AFA2046A6E780410020302F0020BB
:102E7000E0530000E002000060080000A00F000026
:102E8000A00F0000201C0020401C0020001C00207F
:102E9000041C002008B500F0BBF800F0C9F810B120
:102EA00043F6DA3008BD00F0DDF80028F8D1FFF76E
:102EB00063FF0028F6D0F3E708B500F05BF810B127
:102EC00043F6DA3008BD00F05FF80028F8D100F0D2
:102ED00067F80028F4D162B600F076F80028EFD148
:102EE00000F08AF80028EDD0EAE70000014B1868EE
:102EF000704700BFE0530000014B1B681868704723
:102F0000E0530000014B1B6858687047E053000015
:102F100040B2002807DB01234109044A00F01F00EA
:102F2000834042F821300020704700BF00E100E0FC
:102F300040B200280CDB01220649430900F01F00C3
:102F40008240203341F82320BFF34F8FBFF36F8FB0
:102F50000020704700E100E0054B03EB8000D0F853
:102F6000003223F0E04343F04053C0F80032704792
:102F7000002584500020034BD8765A6A42F4702210
:102F80005A62704700ED00E00349044BCA68002014
:102F900092B21343CB60704700ED00E00800FA05E1
:102FA000074A084B11680020C3F84415D269C3F8DA
:102FB0004C250222C3F84025C3F84825704700BFBE
:102FC0000080FF000060005000224FF0FF30094BEE
:102FD00002F1A0010132102A43F82100F8D1D3F800
:102FE0008022002022F00802C3F88022D3F8803229
:102FF000704700BF00E100E008B500F003FA0822C6
:10300000024BC3F880211A60002008BD00E100E0F7
:10301000064BD3F8D02022F00102C3F8D020D3F819
:10302000D02042F00202C3F8D020704700ED00E04B
:1030300010B5094C00F0EEF9D4E9010100F002FAF4
:103040000649074800F010FA2169E068013900F0EC
:1030500021FA002010BD00BFE0530000FFFF072051
:103060000080002008B500214FF0A04000F04CFA8D
:1030700000215F4800F048FA00214FF0502000F096
:1030800043FA00215B4800F03FFA00215A4800F063
:103090003BFA0021594800F037FA0021584800F067
:1030A00033FA0021574800F02FFA0021564800F06B
:1030B0002BFA0021554800F027FA0021544800F06F
:1030C00023FA0021534800F01FFA0021524800F073
:1030D0001BFA0021514800F017FA0021504800F077
:1030E00013FA00214F4800F00FFA00214E4800F07B
:1030F0000BFA00214D4800F007FA00214C4800F07F
:1031000003FA00214B4800F0FFF900214A4800F083
:10311000FBF90021494800F0F7F90021484800F088
:10312000F3F90021474800F0EFF90021464800F08C
:10313000EBF90021454800F0E7F90021444800F090
:10314000E3F90021434800F0DFF90021424800F094
:10315000DBF90021414800F0D7F90021404800F098
:10316000D3F900213F4800F0CFF900213E4800F09C
:10317000CBF900213D4800F0C7F900213C4800F0A0
:10318000C3F900213B4800F0BFF900213A4800F0A4
:10319000BBF90021394800F0B7F90021384800F0A8
:1031A000B3F90021374800F0AFF90021364800F0AC
:1031B000ABF90021354800F0A7F900220121344B7A
:1031C0001046C3F88024C3F88414C3F8C024C3F89D
:1031D000C414C3F8C824C3F8CC14FFF7BDFE0846D6
:1031E000FFF7BAFE2B4B1046C3F8001508BD00BF11
:1031F00000400050008000500090005000A000509F
:1032000000B0005000C0005000E0005000F000503E
:1032100000000150001001500040015000500150CA
:1032200000700150008001500090015000A001503A
:1032300000B0015000C0015000D0015000E001502A
:1032400000F0015000000250001002500020025017
:1032500000300250004002500060025000800250D6
:1032600000A0025000B0025000D0025000000350F5
:1032700000300350004003500060035000700350C2
:1032800000900350002584500028845000100850FE
:10329000003000500010005008B5FFF70DFE68B96F
:1032A00000F0AAF958B9074AD36823F008031B04B1
:1032B0001B0C43F0BF6343F40033D36008BD45F2F9
:1032C0002350FBE700ED00E000207047002070472E
:1032D0000020704770470000BFF34F8F0549064B31
:1032E000CA6802F4E0621343CB60BFF34F8F00BFA4
:1032F000FDE700BF00ED00E00400FA0503460846C4
:1033000011461BB1012B03D00320704700F008B910
:1033100000F034B9BFF34F8F0549064BCA6802F479
:10332000E0621343CB60BFF34F8F00BFFDE700BFE8
:1033300000ED00E00400FA05003A18BF0122003950
:1033400018BF012103688900074841EA4201186358
:1033500059605A6842F001025A60BFF34F8FBFF3C1
:103360006F8F0020704700BF04AAFF004B6830B584
:1033700013F01F042AD10A68072A27D8006823F00F
:103380001F034568446082600A7C02F001021A4310
:103390008B7CDB0003F018031A434B7C5B0003F0CB
:1033A00006031343C3608B68013B23F01F02CB6805
:1033B0005B0003F00E03134343F001030361456018
:1033C000BFF34F8FBFF36F8F204630BD0120FCE766
:1033D000036800205A68C9B258609960D8601861C3
:1033E0005A60704738B5054603681C68C4F3072463
:1033F0000CB9204638BD013C21462846FFF7E8FFBE
:10340000F6E700000722024BC3F80423704700BF11
:103410000030005000231720094A03F5C071013322
:10342000402B42F82100F8D100231720044A03F56D
:10343000E0710133402B42F82100F8D1704700BF02
:103440000030005010B540F20714064A800B890B7B
:10345000884200D910BDC3B203F5C07342F82340BF
:103460000130F5E70030005010B540F2071400F1CC
:10347000604001F16041064A400B490B884200D987
:1034800010BDC3B203F5E07342F823400130F5E705
:1034900000300050C0F30D03C3F58043B3FA83F34B
:1034A000C3F11B03064AC0F38730DBB240F48070DF
:1034B00043F48073C2F80005C2F80435704700BFBA
:1034C0000030005080037047800300F57F503F308C
:1034D0007047002070473F2070474FF4804070478E
:1034E00000F57F40C03040037047000043030148AF
:1034F00018447047FF1FF81F402070477F20704717
:103500004FF4005070470000044BC0F3073009022D
:1035100000F5007043F82010704700BF00300050E5
:10352000F8B543680C2B25D14B68042B22D14FF002
:10353000FF3304680E6820683360D8B1A168C9B150
:103540002622FFF786FBA8B961680B4BD3E9005C24
:10355000A9420AD3A26865448F18AF4205D82068F3
:10356000FDF7F5F800203060F8BD0130042803F1C4
:103570000803EBD10220F7E7F4530000436870B56D
:103580000C2B31D14B68042B2ED14FF0FF33046844
:10359000096820680B6048BB6268550903D0012D9B
:1035A0001DD14FF6FF7302F01F02D340DE0718D57E
:1035B000A468072C15D88B23E340DB0711D50C4BEF
:1035C0000C4E012D18BF334603EB8203D3F80022C3
:1035D00022F0E04242EA0472C3F8002200230B60AA
:1035E00070BD4FF0FF33FAE70220F9E70320F7E759
:1035F000002884500025845010B50C4C236813B16A
:103600000B4B1B682BB900F095FC30B90122084B1D
:103610001A6001230020236010BD0138072801D95A
:10362000044810BD044B53F8200010BD8441002015
:1036300088410020FE8FFFFF145400002DE9F04365
:10364000144C154F002818BF0446236883B0BB42B2
:103650001CD016460D4620464FF4147104F104099F
:1036600000F04CF804F58E78484600F045FB4046E3
:1036700000F0D2F82B464A4640460849009600F032
:10368000EDF900B9276003B0BDE8F083002003B076
:10369000BDE8F0838C410020A5BCC95A7D3D0000E7
:1036A00070B50E4D82B0002814BF8446AC461D464E
:1036B000DCF800000A4B98420DD100260CF58E7004
:1036C00033460096144600F0F3F9002818BF34463C
:1036D0002C6002B070BD0348FBE700BF8C410020A6
:1036E000A5BCC95AE88FFFFF38B131B100220144AF
:1036F0000346013081421A70FAD1704738B131B1B6
:10370000002201440346013088421A70FAD1704702
:1037100070B590B000287AD03E4C0D46402236213C
:1037200006462046FCF7F4FF40225C21A018FCF777
:10373000EFFF2B1D9C4203D204F144039D4252D360
:103740002B682268534023602B68226C534023640B
:103750006B686268534063606B68626C534063647B
:10376000AB68A2685340A360AB68A26C5340A364EB
:10377000EB68E2685340E360EB68E26C5340E3645B
:103780002B69226953402361226D2B6953402365C5
:1037900062696B69534063616B69626D5340636535
:1037A000AB69A2695340A361AB69A26D5340A365A5
:1037B000EB69E2695340E361EB69E26D5340E36515
:1037C0000021304601F0ECF8044628B9402230468A
:1037D000104901F0F9F8044640216846FFF78EFFD2
:1037E000204610B070BD631E04F13F01013D1F343F
:1037F00015F8010F13F8012F42401A7011F8012F2C
:103800002878A34282EA00020A70F1D1D8E76FF06B
:103810007304E5E7DC43002010B54FF49A720021F1
:103820000446FCF775FF42F21072044BC4F82021E5
:1038300004F596701B68BDE8104018474C2F002017
:103840002DE9F04F04468946924695B0002900F0D4
:10385000A780002A14BF0227012700238DF80C300F
:10386000002C00F09F80DFF8448104AE08F1400B8B
:103870000021204601F094F8034648B1304620214B
:103880000193FFF73BFF019B184615B0BDE8F08F91
:1038900040224146204601F097F803460028EDD12A
:1038A00004F1F40520222946204601F08DF8034654
:1038B0000028E3D10122204603A901F085F8034640
:1038C0000028DBD1022F62D020460CA901F0A6F817
:1038D00003460028D2D11946204601F061F803467C
:1038E0000028CBD140225946204601F06DF803460E
:1038F0000028C3D1202220460CA901F065F8034618
:103900000028BBD13146204601F088F80346002844
:10391000B4D131462046FFF7FBFE03460028ADD167
:1039200020222946204601F04FF803460028A5D161
:1039300020460CA901F072F8034600289ED10146EA
:10394000204601F02DF80346002897D14022594621
:10395000204601F039F8034600288FD12022204666
:103960000CA901F031F80346002887D129462046EA
:1039700001F054F80346002880D19DF80C20013254
:10398000D2B2BA428DF80C20FFF472AF76E75246FD
:103990004946204601F018F80346002894D06DE708
:1039A00001275AE76FF0730304AE67E7DC4300209A
:1039B0002DE9F0410446884615461F46D0F8180107
:1039C000E0B013B100EB40004008B5F5807F3ED871
:1039D0002844B0F5C07F3AD84FF4C0720021684641
:1039E000FCF796FE6946D4F82431D4F81821D4F8AF
:1039F0002801984770BBD4F8186157B1D4E9493011
:103A000072080DEB0601984720BBD4F8183106EB7D
:103A10005306B8F1000F00D08DB9324669462046F2
:103A2000FFF70EFF054610B90123C4F814313146E3
:103A30006846FFF763FE284660B0BDE8F0810DEBF5
:103A4000060041462A462E44FCF781FEE5E76FF06A
:103A50000405F0E76FF00805EDE700BF2DE9F0473A
:103A6000044604F1F4050F4691461E46DDF8208019
:103A700000F07CFF29462046FFF74AFE08B1BDE86A
:103A8000F087284620220121FCF742FED4F81831A5
:103A9000C4F82471C4F8289113B92023C4F818314C
:103AA000424631462046BDE8F0470123FFF780BF7C
:103AB000B2F5806F00F295802DE9F04F89B09A46FB
:103AC000129BB3F5807F00F29080D0F82431164627
:103AD000044688464BB3D0F81C31012B05D0D0F8F2
:103AE0001421D0F820319A421FDD51460023204690
:103AF000129AFFF75DFF014698B900231293002E3A
:103B00005ED0DFF8EC9009F1400B0021204600F078
:103B100047FF202E3546014628BF202504F1F40733
:103B200090B1084609B0BDE8F08FBAF1000FE6D0B9
:103B3000129B002BE1D051461A462046FFF780FE2B
:103B400001460028DBD0ECE749464022204600F041
:103B50003BFF01460028E4D139462022204600F0F0
:103B600033FF01460028DCD16946204600F056FFAD
:103B700001460028D5D1204600F012FF014600285A
:103B8000CFD159464022204600F01EFF01460028B2
:103B9000C7D169462022204600F016FF01460028C2
:103BA000BFD13946204600F039FF01460028B8D180
:103BB00040462A463946FCF7CAFD761BA844A4D1E4
:103BC00051462046129AFFF73BFE01460028A8D135
:103BD0000846D4F814310133C4F8143109B0BDE8F3
:103BE000F08F6FF00201084670476FF0040198E70C
:103BF000DC4300202DE9F043202B1D460646884675
:103C000091468BB026D8DBB202AF8DF80480B04667
:103C100058F8041B8DF8053021B9404600F0C0FE6D
:103C2000044640B9012302224046336001A900F056
:103C3000CBFE044638B138462021FFF75FFD204611
:103C40000BB0BDE8F0832A464946404600F0BCFE72
:103C50000446F0E702AF1946104600233A4601F049
:103C60003BF804460028E6D12023B9461D46CCE7A0
:103C70002DE9F041D0F8F830A6B0002BD8BF02AE45
:103C800031DD05460027D0F80C4102AEA4F1010851
:103C90009022D5F8FC403146D0F8000101AB0197E5
:103CA000B8FA88F8A0474FEA5818044620B9019B93
:103CB00053B9B8F1000F16D030469021FFF71EFD22
:103CC000204626B0BDE8F081014632462846FFF77F
:103CD00091FF58B9D5F80431019A1344C5F804315D
:103CE000B8F1000FE8D16FF03C04E5E70446204648
:103CF00026B0BDE8F08100BF70B50025044614224F
:103D000004F588762946C0F8F850FC30FCF700FD31
:103D1000082229463046FCF7FBFC144B30461B6852
:103D20009847204640F8045B00F020FE104B3046D8
:103D30001B689847C8B9D4F8F830AB420FDC03EBE6
:103D4000830204EB82022021C2F800010120C2E9B3
:103D5000421008490133C2F8FC10C4F8F830064B91
:103D60003046BDE870401B68184770BD4C2F0020DE
:103D7000502F002061480000542F00202DE9F0470B
:103D8000202A88B078D83E4B00F5887904461B6815
:103D90004846174688469847054640BB40F20116FC
:103DA000D4F8F830002B63D02046FFF761FF0546BA
:103DB00000285FD1D4F8F830002B07DDD4E94102A8
:103DC000904203D3D4F80C21012A14D0013EE9D14A
:103DD0006FF03B056E4620213046FFF78FFC294BE4
:103DE00048461B689847002818BF6FF01D052846F5
:103DF00008B0BDE8F0871F28E8D96E462946202282
:103E0000304604F1040AFCF783FC3146504600F0CA
:103E100005FE05460028DED1504600F0BBFD5046A9
:103E200000F0A4FD2946504600F0BAFD05460028E2
:103E3000D1D150462022314600F0C6FD054600286B
:103E4000C9D1034632462021304600F045FF0546E1
:103E50000028C0D1D4F8F8303A46002BC8BF002360
:103E600040463146C8BFC4F80431FCF770FCB2E7E5
:103E70006FF03F056E46AEE76FF03B05B7E700BF5A
:103E8000502F0020542F0020002130B58DB0282263
:103E900002A80191FCF73CFC02A800F045FF044693
:103EA00010B120460DB030BD1B4D4FF0FF312868DA
:103EB00000F036F960BB194BD3F8340E10F0010056
:103EC00017D100F05DF9F8B9154A02A901A800F070
:103ED000B9FC0446012000F053F988B9286800F0C5
:103EE00027F90028DDD00F4800F0B0F920460DB0CA
:103EF00030BD2868052400F01BF90028D1D0F2E776
:103F0000094800F0A3F9E9E7084800F09FF9DBE76A
:103F1000074800F09BF9CEE7482F0020006084504E
:103F2000C84400208C5400006C5400004C54000025
:103F30003454000030B583B000F03AF898B900F07E
:103F400059F8B0B9164BC3F80C0AFFF79DFF0446A9
:103F500028B9144D2B6883B1204603B030BD052429
:103F6000204603B030BD032400F072F8204603B0B1
:103F700030BD0424204603B030BD02460146FFF7A1
:103F80005DFB0028EBD16822074901ABFFF788FBF6
:103F90000028E4D12046054B2B6003B030BD00BFA4
:103FA00000508450C44400205C4400205AEA5A5A0D
:103FB00000207047430504D54FF0FF32034BC3F890
:103FC0000821024BC3F8080A704700BF0050845014
:103FD000014BC3F8040A70470050845008B100F048
:103FE00071B84FF47500704708B100F04FB84FF446
:103FF0007500704710B5114800F07EF800B110BD93
:104000000F4800F079F80028F9D10E4C204600F056
:1040100073F80028F3D10C4B0C481C6000F06CF8CE
:1040200001460028EBD100F02DF8044608B12046E7
:1040300010BD00F087F82046FAE700BF442F0020AB
:10404000382F0020402F0020482F00203C2F002038
:1040500008B5084800F05AF8074800F057F8074834
:1040600000F054F8064800F051F8BDE8084000F0B0
:104070000BB800BF442F0020382F0020402F002015
:104080003C2F002000207047704700BF10B402464C
:104090000B4C01E0134207D1D4F8003A13F48070BE
:1040A000F8D0012042F4807229B1054BD3F80441C5
:1040B0000C60C3F80841024BC3F8082A10BC7047D3
:1040C000005084500246084901E01A4207D1D1F855
:1040D000003A13F48070F8D0012042F48072024B51
:1040E000C3F8082A704700BF00508450FCF740B95D
:1040F0000A460021FCF70CBB08B5034B02681B689D
:1041000010689847002008BD682F002008B5034BB1
:1041100002685B6810689847002008BD682F00207F
:10412000024B02689B681068184700BF682F002088
:1041300008B5034B0268DB6810689847002008BD8B
:10414000682F002070B5094C094D2069AB6898476D
:1041500018B1084B08485B6898470021074AEB688C
:1041600011602069BDE87040184700BF782F00201B
:10417000682F0020582F0020A4540000E84600209B
:10418000F8B51A4D1A4E0446B26828699047E8B946
:10419000184F3B684CB1A3B1012B19D0013B3B60D8
:1041A0002869F36898470020F8BD43B90121124AF5
:1041B000C2F800151149D1F81029002AFBD10133AA
:1041C0003B60F368286998470020F8BD0C48F8BDAB
:1041D0000A4AD2F81039002BFBD1074A6FF07E4013
:1041E000C2F80035FFF7F4FE3B68D7E7782F0020D0
:1041F000682F0020E8460020004084500050845082
:10420000E98FFFFF014B1B68184700BF682F002094
:10421000014B9B68184700BF682F0020014BDB68EB
:10422000184700BF682F0020BFF34F8F0549064B8A
:10423000CA6802F4E0621343CB60BFF34F8F00BF44
:10424000FDE700BF00ED00E00400FA0530B44FF0D8
:10425000FE3200250B4B0C4C0C494968C3F8002476
:10426000C3F80424C3F80824C3F80C24C3F81024AA
:10427000C3F81424C3F81824C3F81C24C4F8005548
:1042800030BC08470050845000408450582F002014
:1042900010B5044650B1636813F0685F05D0064A54
:1042A000934202D000236260236010BD034B044898
:1042B0005B689847EFE700BF2C5F5CA9582F002090
:1042C000C4540000C8B143680D4A934213D013F0A0
:1042D000685F0ED0012350E8002F194640E8001C0B
:1042E0009CF0000FF7D1012AF5D0BFF35F8F0020BB
:1042F000704704487047044870476FF4E0407047C7
:104300002C5F5CA9E98FFFFFEA8FFFFF034680B1B6
:10431000426809498A420AD012F0685F05D0BFF3AB
:104320005F8F002210461A607047044870470448A7
:1043300070476FF4E04070472C5F5CA9E98FFFFF86
:10434000EA8FFFFF10B5044620B10023034A236023
:10435000626010BD0248FFF779FFF6E73A00003AC5
:10436000EC54000000287BD0F0B50C4683B0002947
:1043700072D01D46002B6FD007461AB101220023D0
:104380002A6003602B68002B62D02946204600F08B
:104390008DFD034600285CD12146286800F068FDA9
:1043A0000346002855D12A68082A6BD0042A6CD00D
:1043B000A2F1020CBCFA8CFC4FEA5C1C0120344ECA
:1043C000C6F8C401C6F84001C6F8C401626AC6F85E
:1043D0003021D6F830118A42F6D100220193C6F876
:1043E0002C214FF0FF32C6F808216FF01B02C6F8EF
:1043F0000021C6F80CC1D6F8040A40F48060FFF72B
:10440000E7FD0A22C6F83821089B012B019B2AD020
:1044100022692049A1FB02121209616A184601FBB8
:1044200002F202EB42021A49D2039209C1F8D821E2
:104430000122C1F82C213A68296822F07F4242EA21
:1044400001623A60296842EA01223A6003B0F0BD95
:10445000114B184603B0F0BD104B184603B0F0BD29
:104460000E4B184670474FF47F02D2F80C1C0131F6
:1044700006D0D2F80C2C0749A1FB02121209CCE796
:104480001622CAE74FF0030C98E74FF0020C95E7AD
:1044900000508450ABAAAAAA310CF100350CF100EF
:1044A00070B50024C9004FF0010C2546A6464E1EEB
:1044B00008E09E4514D00125B44516D89E46013427
:1044C0000CF1010C630950F8233004F01F01CB40BC
:1044D0001F2918BF03F00103002CEAD10125EDE7E5
:1044E00001359542E8D1024870BD002070BD00BF83
:1044F000360CF10000283FD02DE9F0414C1EB4F5F8
:10450000047F28D23BB332B34FF0000E7646754697
:104510007446CF0003F1FF38610950F8211004F010
:104520001F0C21FA0CF1BCF11F0F18BF01F00101A3
:10453000A4B1AB4218D08E4208BF0EF1010EA845BF
:1045400015D0314601350134BC4201D00E46E3E7B7
:104550000020BDE8F0810948BDE8F0814FF0010E70
:104560000E4674467546D7E70125AE46EBE7724521
:10457000F1D331461D46E6E700487047370CF1009D
:104580002DE9F04F8FB08146DDE919460D46002E2A
:104590004CD1096904911C60002318990B60002A12
:1045A00000F01D819A4B6A6AD3F83811D3F8303184
:1045B0009A4247D10A2945D199F80330069304F16C
:1045C000080305930423049A0393924B904CA3FB96
:1045D000023B4FEA9B0B0BEB4B0BA2EB4B0B189BDD
:1045E000049E1E60002E33D000274FF0010ADDF834
:1045F000148000F06BFC00230793B9F1000F00F06A
:10460000D980002D00F0D680069BEBB1284606A984
:1046100000F04CFC00283ED07F4B984218D103900C
:1046200000F054FC03980FB0BDE8F08F4FF47F0109
:10463000D1F80C0C01300CBF4FF40471D1F80C1CF4
:104640000491A8E77548EAE77548734B9842E6D0AD
:10465000069B082B00F0C18000225B0006932946D0
:1046600006AB48460092FFF77DFE6D4B984200F086
:10467000B0800028D3D1D9F80020130A03F47F03B7
:10468000134323F07F43C9F80030039B013B03939E
:10469000A5D10020C3E72946069800F0E9FB0028D1
:1046A000BAD10699082900F09080042900F08F8083
:1046B000A1F10201B1FA81F14909C4F8C4A1C4F819
:1046C00040A1C4F8C4A16B6AC4F83031D4F83021D9
:1046D0009342F6D10023C4F82C314FF0FF33C4F8D5
:1046E00008316FF01B03C4F80031C4F80C11D4F882
:1046F000040A40F48060FFF76BFC0A23C4F83831E9
:104700002B69444AA2FB0313696A1B0901FB03F3EB
:1047100003EB4303DB039B09C4F8D831C4F82CA195
:104720000698D9F80010030221F07F4143EA0063A4
:104730000B43C9F8003007A800F08AFB079B354AF5
:1047400003F01A03034383D1A2FB0632D4F81431D9
:10475000B7EB920F0893D4F818310993D4F81C31B1
:104760000A93D4F820310B93D4F824310C93D4F865
:1047700028310D9302D1BBF1000F1DD14046182204
:1047800008A9183E08F11808FFF7B0FC0137002E01
:104790007FF42FAF049BB3F5047F35D8059E1946EF
:1047A00030466A691F46FFF77BFE18B30023189A4C
:1047B000136031E71B482FE740465A4608A9A6EB8D
:1047C0000B06D844FFF792FCE0E7032175E70221CE
:1047D00073E72B6A002B3FF422AF13481FE7012237
:1047E00029464846009606ABFFF7BCFD00283FF47B
:1047F000E6AE14E74FF4806339463046AA69FFF706
:1048000079FE0028D2D144E7189B1E6020E700BF44
:1048100000508450ABAAAAAA020CF100300CF1009F
:10482000310CF100350CF100320CF10010B4DDE96F
:10483000013401940024DDF80CC0CDE902C410BCA1
:10484000FFF79EBE30B51546012487B005AB009337
:104850000022CDE9015404ABFFF792FE07B030BD52
:104860002DE9F04188B0059200296AD01C46002B42
:1048700067D01546002A64D0DFF8CC800E46D8F801
:1048800000004FF0FF31FFF74BFC00284AD12F4BBF
:10489000D3F8340E10F0010018D04FF0FF374FF46A
:1048A00008712B48FEF720FF04212A48FEF71CFF61
:1048B00029482821FEF718FFD8F80000FFF738FC38
:1048C000002833D1384608B0BDE8F081FFF758FC26
:1048D000002832D1204800F027FAC0B91C4B02460C
:1048E000029307AB039000931B491A48019405AB50
:1048F000FFF79CFF58B92368AB4208D307990746D6
:104900002A4630460831FFF7F1FB256001E04FF001
:10491000FF370120FFF734FC0028C0D00F48FFF715
:1049200095FCBCE70E48FFF791FCB0E70D48FFF798
:104930008DFC384608B0BDE8F0810B48FFF786FCD7
:10494000C8E74FF0FF37BDE7482F002000608450D4
:1049500000470020FC460020204900206C54000045
:1049600034540000105500004C54000010B50446AB
:1049700028B12046BDE81040F421FFF7B9BB044838
:10498000FFF764FC2046BDE81040F421FFF7B0BB00
:104990002855000010B1F421FEF7A6BE704700BFF5
:1049A00008B561B1012907D1022100F05BF80028A8
:1049B00018BF6FF0360008BD6FF0360008BD01214A
:1049C00000F050F8F3E700BF30B505468818B0F5A1
:1049D000801F0B461446A1B001D8802A0CD9B3F52C
:1049E000801F17D922461946284600F07DF8044654
:1049F00084B9204621B030BD6846FFF777FB2246D8
:104A00006946284600F070F8802104466846FFF7A2
:104A10006FFBEDE76FF03604EBE700BF70B5E8B170
:104A20000E46D9B1044600F031F80546B0B9236806
:104A3000012B0BD0022B01D0284670BD1C22304622
:104A400004F10801FFF752FB284670BD20223046D2
:104A500004F10801FFF74AFB284670BD6FF03605E8
:104A6000EAE700BF78B138B50D46F0210446FFF7FC
:104A70003FFB402320462560E36500F06BFA0038D9
:104A800018BF012038BD0120704700BFF0B5056E8A
:104A9000A5B0044604AEE5B90023012701933046D2
:104AA0006760294602AA009300F022FA10B10120A3
:104AB00025B0F0BD2A46204602A900F075FA00286C
:104AC000F5D1204600F078FB0028F0D1206625B013
:104AD000F0BD802D2A46304628BF802204F16401B3
:104AE000FFF704FB256ED7E7002800F0CD802DE905
:104AF000F04F1546A5B0002A00F0B4800F460029FB
:104B000000F0AC80B2F5803F0646006E7DD34FF6D4
:104B1000FF7806F1640914E08342BA464FF6FF7449
:104B200029D0B4FBF3FB03FB0BFBBBF1000F44D11B
:104B3000A5F57F454744FF3D002C59D1B5F5803F91
:104B400063D3F36D1C1AB4FBF3F203FB1244002C85
:104B5000E2D0444528BF4446394622464844FFF740
:104B6000C5FA306EF36D2044834207EB040A3066C9
:104B7000A8EB0404D5D1802B28BF802349461A46D0
:104B800004A8FFF7B3FA0023F16D02AACDE90033C0
:104B900004A800F0ADF9002860D13046F26D02A9FA
:104BA00000F002FA002859D1F36D3066B4FBF3FB34
:104BB00003FB0BFBBBF1000FBAD000235946504654
:104BC000CDE9003302AA00F093F9002846D15A46F5
:104BD000304602A900F0E8F900283FD1A5F57F454D
:104BE000A4EB0B04306EDA444744FF3D002CA5D003
:104BF00019305146224606EB8000FFF777FA306EF7
:104C0000B5F5803F204430669BD2F26D141AB4FB98
:104C1000F2F302FB1344AC4228BF2C4634BB904253
:104C200034D0B5FBF2F402FB04F46CB9D5B1336EA9
:104C30002A46193306EB83003946FFF757FA336EDD
:104C400000202B4433660AE0002321463846CDE994
:104C5000003302AA00F04CF9002833D0012025B01F
:104C6000BDE8F08F284625B0BDE8F08F06F164035B
:104C7000394622461844FFF739FA306EF26D204467
:104C80002D1B27443066CAE701207047802A28BFC1
:104C9000802206F1640104A8FFF728FA0023F16DD1
:104CA00004A8CDE9003302AA00F022F90028D5D1EA
:104CB0003046F26D02A900F077F90028CED1F26DEE
:104CC0003066AEE72246304602A900F06DF90028B2
:104CD000C4D127442D1BA9E7F8B51C460546114849
:104CE00016460F46FFF742FE21460E48FFF758FED4
:104CF000044620B10B48FFF74DFE2046F8BD3A466A
:104D000029460848FFF760FE04460028F2D13146E4
:104D10000448FFF783FE04460248FFF73BFE2046A7
:104D2000F8BD00BF484900201C2330B583B001A95D
:104D30000446019300F036F8054638B9019B1C2B58
:104D400007D0164D1C212046FFF7D2F9284603B0A4
:104D500030BD0121D4E90032003B18BF0123E161DD
:104D60000AB143F00203A26832B9E26842B9C4E969
:104D700008328BB90A4DE5E7E26843F004033AB123
:104D80000022284643F00803C4E9083203B030BDCE
:104D90001546C4E90832D9E71546D7E7370CF000C5
:104DA0000E0CF000034618B111B10A681C2A01D09C
:104DB000012070474FF47F02D2F8101C01310CBF64
:104DC00040F2DC51D2F8101C4FF47F020160D2F89F
:104DD000141C01310CBF40F2DC51D2F8141C4FF40A
:104DE0007F024160D2F8181C01310CBF40F634013B
:104DF000D2F8181C4FF47F028160D2F81C1C0131DC
:104E00000CBF40F63401D2F81C1C4FF47F02C16085
:104E1000D2F8001C01310CBF9021D2F8001C4FF4D5
:104E20007F020161D2F8041C01310CBF5121D2F87C
:104E3000041C4FF47F024161D2F8081C00200131AC
:104E40000CBF40F23732D2F8082C9A61704700BF8D
:104E5000014608B54FF48060FFF7C6F80022034B07
:104E6000C3F8C821C3F82C2108BD00BF00508450EE
:104E70000138072805D8DFE800F0120E040A040400
:104E8000040609487047CB6800204B6270478B6866
:104E900000204B6270474B6800204B6270470B68E4
:104EA00000204B62704700BF310CF1000B6802E03C
:104EB000082B0B6006D8026A13424FEA4303F7D06F
:104EC0000020704700487047310CF100002310B5F6
:104ED000064C4FF48060C4F82C31C4F8C431FFF79D
:104EE00069F84FF0FF33C4F8083110BD005084500A
:104EF0002DE9F041002482B015461E4601220DF135
:104F000007030746DDF824808DF8074000F08EF98E
:104F1000D0B99DF8073004462F602B71B8F1000F0F
:104F20000ED04EB10246089930460DF1070300F04D
:104F30007DF948B99DF80730C8F8006088F804305A
:104F4000204602B0BDE8F0814FF47504204602B05F
:104F5000BDE8F081E8B110B50468012C04D0022C42
:104F600010D044B10C4810BD20220C490830FFF786
:104F7000BDF8002010BD142209490830FFF7B6F82B
:104F8000204610BD202207490830FFF7AFF8002067
:104F900010BD4FF4730070470100F3006C55000022
:104FA000385500004C5500002DE9F047002900F06D
:104FB000EB800446002800F0EB80036888469146A9
:104FC000002B00F0B580013B012B00F2C9804FF0AF
:104FD000FF3171484FF0020AFFF7A2F8002840F0B5
:104FE000B1800020FFF7CCF80746002840F0B480DD
:104FF0006A4DD5F81069002EFBD14FF0FF30FEF757
:10500000D9FFD5F8040A20F40060FEF7E1FF012380
:105010000722C5F81838C5F82038C5F80029C5F8A2
:10502000C437C5F8A466A36CC5F8CC37E36CC5F8E3
:10503000D037C5F8C0A723685BB1013B012B18D856
:10504000636AC5F85C36236AC5F85836E369C5F863
:105050005436A269514BC3F850266269C3F84C26F6
:105060002269C3F84826E268C3F84426A268C3F858
:105070004026B9F1000F56D063684FF40060012B51
:1050800004BF464AC2F8843698F80430D8F80010B5
:10509000424A5B0003F00203C2F80C3BC2F8281C32
:1050A000C2F82C9CFEF79AFF0746236863B1013BC8
:1050B000012B19D8394BD3F85C266262D3F85826F5
:1050C0002262D3F85436E361344BD3F85026A26100
:1050D000D3F84C266261D3F848262261D3F84426DF
:1050E000E260D3F84036A360002201212B4BD3F8B5
:1050F000CC07A064D3F8D007E064C3F8C417C3F8A2
:105100008426C3F8C827C3F81828C3F82028AFBBE3
:105110000120FFF735F868BB1F48FFF709F818BBF7
:105120003846BDE8F08704221C4BC3F8C827BCE70B
:105130004FF0FF3118484FF0010AFEF7F1FF002849
:105140003FF44FAF1648FFF781F80020FFF718F83B
:10515000074600283FF44CAF1248FFF777F847E7BF
:10516000114F3846BDE8F0871048FFF76FF8384612
:10517000BDE8F0870E48FFF769F8CDE7102104F18C
:105180000800FEF7B5FFC3E70A4F3846BDE8F087D1
:105190004FF47307C4E700BF442F00200050845031
:1051A000345400004C5400000100F3008C54000003
:1051B0006C5400000300F300A0B3034670B4D0E9C0
:1051C0000240D3E9041226BA05BA0CBA10BAC3E9F0
:1051D0000440D3E90612986A09BAC3E9026512BA13
:1051E000996100BAD3E9084125BA0CBAC3E9072589
:1051F000D3E90B12C3E9094009BAD86B12BAD962D4
:10520000D3E90D4125BAC3E90C250CBA00BAD3E99C
:10521000101209BA12BAC3E90E40196400205A6488
:1052200070BC70474FF47300704700BF00201870C7
:10523000704700BF014B1B68184700BFA42F002018
:10524000024B1860024B002019607047A82F002005
:10525000A42F0020054A0346106810B103441360D0
:105260007047034803441360704700BF4C4A002056
:10527000000C0020FEE700BFF8B500BFF8BC08BC7A
:105280009E467047F8B500BFF8BC08BC9E46704704
:105290000122FCF751F81FBD1FB51F486946F7E70B
:1052A0001FB51E486946F3E71FB51D486946EFE77D
:1052B0001FB51C486946EBE71FB51B486946E7E781
:1052C0001FB51A486946E3E71FB519486946DFE785
:1052D0001FB518486946DBE71FB517486946D7E789
:1052E0001FB516486946D3E71FB515486946CFE78D
:1052F0001FB514486946CBE71FB513486946C7E791
:105300001FB512486946C3E71FB511486946BFE794
:105310001FB510486946BBE78D13000093130000CA
:10532000C1130000C116000001170000691700003A
:10533000DB170000211800008D1800003119000053
:10534000411900006D19000089130000A915000023
:105350004D1600007119000054464D5F43525950DC
:10536000544F0054464D5F53505F504C4154464F8C
:10537000524D5F53595354454D5F52455345540068
:1053800054464D5F53505F504C4154464F524D5F11
:10539000494F43544C0054464D5F53505F504C416D
:1053A00054464F524D5F4E565F434F554E544552F3
:1053B0000001010000010000000000006D1A000063
:1053C000451A0000E1190000AB190000B9190000EE
:1053D0009519000080310020503100208409000020
:1053E0000080000000800000FFFF0F00007C000034
:1053F000008000000002FF002C0000005004FF00AD
:10540000100000003001FF0008000000200CFF0029
:1054100004000000FF8FFFFFFF8FFFFFFE8FFFFFE5
:10542000FE8FFFFFFD8FFFFFFC8FFFFFFC8FFFFF55
:10543000FB8FFFFF4661696C20746F20616371759B
:10544000697265206D757465780A00004661696C43
:1054500020746F20696E63726561736520504D2002
:10546000636F756E7465720A000000004661696CB6
:1054700020746F20646563726561736520504D20F0
:10548000636F756E7465720A000000004661696C96
:1054900020746F2072656C65617365206D7574652D
:1054A000780A0000436F756C64206E6F74206C6F17
:1054B000636B20706F7765722073617665206D7500
:1054C000746578006D757465785F667265652063D4
:1054D000616C6C65642077697468204E554C4C2073
:1054E000706172616D6574657200000043616E27C2
:1054F0007420696E697469616C697A65206D757470
:1055000065782C20776173204E554C4C0D0A0000B5
:105510004661696C20746F20756E6C6F636B206DD3
:10552000757465780A0000000A6374782069732036
:105530004E554C4C0A0000000123456789ABCDEF66
:10554000FEDCBA9876543210F0E1D2C3D89E05C181
:1055500007D57C3617DD703039590EF7310BC0FF97
:1055600011155868A78FF964A44FFABE67E6096A57
:1055700085AE67BB72F36E3C3AF54FA57F520E5174
:105580008C68059BABD9831F19CDE05B0000000040
:1055900098BAFF7F010000000090D0035031002036
:1055A000203000206008000090ED00E0001C00208A
:1055B0007C2F0020882F0020802F0020782F0020B3
:1055C000402F002005420000114200001D42000053
:1055D0000000000029420000EC4600203A00003A9A
:1055E0004543000091420000C54200000D43000009
:1055F0009C2F0020602F0020942F0020000000002E
:105600008C2F0020F04600203A00003AF44600209B
:105610003A00003AF84600203A00003A61030000E0
:10562000E1020000B02F0020000000000000000098
:10563000000000000000000000000000000000006A
:10564000000000000000000000000000000000005A
:10565000000000000000000000000000000000004A
:10566000000000000000000000000000000000003A
:10567000000000000000000000000000000000002A
:10568000000000000000000009100000E10F000011
:107C00007FE97FE9F8F7A0BC7FE97FE9F8F7B2BC2C
:107C10007FE97FE9F8F7F5BC7FE97FE9F8F7DABC9F
:107C20007FE97FE9F8F7BCBC00000000000000001D
:107C30000000000000000000000000000000000044
:108000008845012061D800008951030035D800005F
:1080100035D8000035D8000035D8000035D800002C
:10802000000000000000000000000000E9D0000097
:1080300035D800000000000089D0000035D80000CD
:1080400071D1000071D1000071D1000071D1000028
:1080500071D1000071D1000071D1000071D1000018
:1080600071D1000071D1000071D1000071D1000008
:1080700071D1000071D1000071D1000071D10000F8
:1080800071D1000071D1000071D1000071D10000E8
:1080900071D1000071D1000071D1000071D10000D8
:1080A00071D1000071D1000071D1000071D10000C8
:1080B00071D1000071D1000071D1000071D10000B8
:1080C00071D1000071D1000071D1000071D10000A8
:1080D00071D1000071D1000071D1000071D1000098
:1080E00071D1000071D1000071D1000071D1000088
:1080F00071D1000071D1000071D1000071D1000078
:1081000071D1000071D1000071D1000071D1000067
:1081100071D1000071D1000071D1000071D1000057
:1081200071D1000071D1000071D1000071D1000047
:1081300071D1000071D1000071D1000071D1000037
:1081400071D1000071D1000071D1000071D1000027
:1081500071D10000FFFFFFFF81F0004102E000BF8E
:1081600083F0004330B54FEA41044FEA430594EAF7
:10817000050F08BF90EA020F1FBF54EA000C55EA32
:10818000020C7FEA645C7FEA655C00F0E2804FEA03
:108190005454D4EB5555B8BF6D420CDD2C4480EAE5
:1081A000020281EA030382EA000083EA010180EA15
:1081B000020281EA0303362D88BF30BD11F0004F63
:1081C0004FEA01314FF4801C4CEA113102D0404299
:1081D00061EB410113F0004F4FEA03334CEA1333D4
:1081E00002D0524263EB430394EA050F00F0A780EC
:1081F000A4F10104D5F1200E0DDB02FA0EFC22FAE7
:1082000005F2801841F1000103FA0EF2801843FADA
:1082100005F359410EE0A5F120050EF1200E012ACB
:1082200003FA0EFC28BF4CF0020C43FA05F3C01809
:1082300051EBE37101F0004507D54FF0000EDCF182
:10824000000C7EEB00006EEB0101B1F5801F1BD32B
:10825000B1F5001F0CD349085FEA30004FEA3C0C2F
:1082600004F101044FEA445212F5800F80F09A8025
:10827000BCF1004F08BF5FEA500C50F1000041EB29
:10828000045141EA050130BD5FEA4C0C404141EB2D
:108290000101013C28BFB1F5801FE9D291F0000F28
:1082A00004BF01460020B1FA81F308BF2033A3F1D7
:1082B0000B03B3F120020CDA0C3208DD02F1140CCE
:1082C000C2F10C0201FA0CF021FA02F10CE002F109
:1082D0001402D8BFC2F1200C01FA02F120FA0CFC02
:1082E000DCBF41EA0C019040E41AA2BF01EB04514B
:1082F000294330BD6FEA04041F3C1CDA0C340EDC49
:1083000004F11404C4F1200220FA04F001FA02F38B
:1083100040EA030021FA04F345EA030130BDC4F149
:108320000C04C4F1200220FA02F001FA04F340EA3E
:108330000300294630BD21FA04F0294630BD94F0EF
:10834000000F83F4801306BF81F480110134013DD6
:108350004EE77FEA645C18BF7FEA655C29D094EA47
:10836000050F08BF90EA020F05D054EA000C04BFC5
:108370001946104630BD91EA030F1EBF00210020B0
:1083800030BD5FEA545C05D14000494128BF41F04F
:10839000004130BD14F580043CBF01F5801130BDB3
:1083A00001F0004545F0FE4141F470014FF000003E
:1083B00030BD7FEA645C1ABF194610467FEA655CEF
:1083C0001CBF0B46024650EA013406BF52EA033591
:1083D00091EA030F41F4002130BD00BF90F0000F7F
:1083E00004BF0021704730B54FF4806404F13204BB
:1083F0004FF000054FF0000150E700BF90F0000F74
:1084000004BF0021704730B54FF4806404F132049A
:1084100010F0004548BF40424FF000013EE700BF6A
:1084200042004FEAE2014FEA31014FEA02701FBFFA
:1084300012F07F4393F07F4F81F06051704732F02C
