:020000040000FA
:10800000984501209DD800009F51030071D80000C1
:1080100071D8000071D8000071D8000071D800003C
:1080200000000000000000000000000025D100005A
:1080300071D8000000000000C5D0000071D8000019
:10804000ADD10000ADD10000ADD10000ADD1000038
:10805000ADD10000ADD10000ADD10000ADD1000028
:10806000ADD10000ADD10000ADD10000ADD1000018
:10807000ADD10000ADD10000ADD10000ADD1000008
:10808000ADD10000ADD10000ADD10000ADD10000F8
:10809000ADD10000ADD10000ADD10000ADD10000E8
:1080A000ADD10000ADD10000ADD10000ADD10000D8
:1080B000ADD10000ADD10000ADD10000ADD10000C8
:1080C000ADD10000ADD10000ADD10000ADD10000B8
:1080D000ADD10000ADD10000ADD10000ADD10000A8
:1080E000ADD10000ADD10000ADD10000ADD1000098
:1080F000ADD10000ADD10000ADD10000ADD1000088
:10810000ADD10000ADD10000ADD10000ADD1000077
:10811000ADD10000ADD10000ADD10000ADD1000067
:10812000ADD10000ADD10000ADD10000ADD1000057
:10813000ADD10000ADD10000ADD10000ADD1000047
:10814000ADD10000ADD10000ADD10000ADD1000037
:10815000ADD10000FFFFFFFF81F0004102E000BF52
:1081600083F0004330B54FEA41044FEA430594EAF7
:10817000050F08BF90EA020F1FBF54EA000C55EA32
:10818000020C7FEA645C7FEA655C00F0E2804FEA03
:108190005454D4EB5555B8BF6D420CDD2C4480EAE5
:1081A000020281EA030382EA000083EA010180EA15
:1081B000020281EA0303362D88BF30BD11F0004F63
:1081C0004FEA01314FF4801C4CEA113102D0404299
:1081D00061EB410113F0004F4FEA03334CEA1333D4
:1081E00002D0524263EB430394EA050F00F0A780EC
:1081F000A4F10104D5F1200E0DDB02FA0EFC22FAE7
:1082000005F2801841F1000103FA0EF2801843FADA
:1082100005F359410EE0A5F120050EF1200E012ACB
:1082200003FA0EFC28BF4CF0020C43FA05F3C01809
:1082300051EBE37101F0004507D54FF0000EDCF182
:10824000000C7EEB00006EEB0101B1F5801F1BD32B
:10825000B1F5001F0CD349085FEA30004FEA3C0C2F
:1082600004F101044FEA445212F5800F80F09A8025
:10827000BCF1004F08BF5FEA500C50F1000041EB29
:10828000045141EA050130BD5FEA4C0C404141EB2D
:108290000101013C28BFB1F5801FE9D291F0000F28
:1082A00004BF01460020B1FA81F308BF2033A3F1D7
:1082B0000B03B3F120020CDA0C3208DD02F1140CCE
:1082C000C2F10C0201FA0CF021FA02F10CE002F109
:1082D0001402D8BFC2F1200C01FA02F120FA0CFC02
:1082E000DCBF41EA0C019040E41AA2BF01EB04514B
:1082F000294330BD6FEA04041F3C1CDA0C340EDC49
:1083000004F11404C4F1200220FA04F001FA02F38B
:1083100040EA030021FA04F345EA030130BDC4F149
:108320000C04C4F1200220FA02F001FA04F340EA3E
:108330000300294630BD21FA04F0294630BD94F0EF
:10834000000F83F4801306BF81F480110134013DD6
:108350004EE77FEA645C18BF7FEA655C29D094EA47
:10836000050F08BF90EA020F05D054EA000C04BFC5
:108370001946104630BD91EA030F1EBF00210020B0
:1083800030BD5FEA545C05D14000494128BF41F04F
:10839000004130BD14F580043CBF01F5801130BDB3
:1083A00001F0004545F0FE4141F470014FF000003E
:1083B00030BD7FEA645C1ABF194610467FEA655CEF
:1083C0001CBF0B46024650EA013406BF52EA033591
:1083D00091EA030F41F4002130BD00BF90F0000F7F
:1083E00004BF0021704730B54FF4806404F13204BB
:1083F0004FF000054FF0000150E700BF90F0000F74
:1084000004BF0021704730B54FF4806404F132049A
:1084100010F0004548BF40424FF000013EE700BF6A
:1084200042004FEAE2014FEA31014FEA02701FBFFA
:1084300012F07F4393F07F4F81F06051704732F02C
:108440007F4208BF704793F07F4F04BF41F4002183
:10845000704730B54FF4607401F0004521F00041E1
:108460001CE700BF50EA010208BF704730B54FF06B
:1084700000050AE050EA010208BF704730B511F06C
:10848000004502D5404261EB41014FF4806404F1A4
:1084900032045FEA915C3FF4D8AE4FF003025FEA2A
:1084A000DC0C18BF03325FEADC0C18BF033202EBAE
:1084B000DC02C2F1200300FA03FC20FA02F001FA08
:1084C00003FE40EA0E0021FA02F11444BDE600BFAB
:1084D00070B54FF0FF0C4CF4E06C1CEA11541DBF5A
:1084E0001CEA135594EA0C0F95EA0C0F00F0DEF825
:1084F0002C4481EA030621EA4C5123EA4C5350EA0A
:10850000013518BF52EA033541F4801143F480135A
:1085100038D0A0FB02CE4FF00005E1FB02E506F0EB
:108520000042E0FB03E54FF00006E1FB03569CF040
:10853000000F18BF4EF0010EA4F1FF04B6F5007F46
:1085400064F5407404D25FEA4E0E6D4146EB0606B8
:1085500042EAC62141EA55514FEAC52040EA5E5041
:108560004FEACE2EB4F1FD0C88BFBCF5E06F1ED8EB
:10857000BEF1004F08BF5FEA500E50F1000041EB22
:10858000045170BD06F0004646EA010140EA0200CF
:1085900081EA0301B4EB5C04C2BFD4EB0C0541EAF1
:1085A000045170BD41F480114FF0000E013C00F306
:1085B000AB8014F1360FDEBF002001F0004170BD2A
:1085C000C4F10004203C35DA0C341BDC04F1140443
:1085D000C4F1200500FA05F320FA04F001FA05F2CF
:1085E00040EA020001F0004221F0004110EBD3709C
:1085F00021FA04F642EB06015EEA430E08BF20EAC8
:10860000D37070BDC4F10C04C4F1200500FA04F36A
:1086100020FA05F001FA04F240EA020001F00041FC
:1086200010EBD37041F100015EEA430E08BF20EA6F
:10863000D37070BDC4F1200500FA05F24EEA020EB7
:1086400020FA04F301FA05F243EA020321FA04F0E6
:1086500001F0004121FA04F220EA020000EBD3709D
:108660005EEA430E08BF20EAD37070BD94F0000F9D
:108670000FD101F00046400041EB010111F4801FD1
:1086800008BF013CF7D041EA060195F0000F18BF82
:10869000704703F00046520043EB030313F4801FBE
:1086A00008BF013DF7D043EA0603704794EA0C0F78
:1086B0000CEA135518BF95EA0C0F0CD050EA41068E
:1086C00018BF52EA4306D1D181EA030101F000410B
:1086D0004FF0000070BD50EA410606BF1046194633
:1086E00052EA430619D094EA0C0F02D150EA01363F
:1086F00013D195EA0C0F05D152EA03361CBF104680
:1087000019460AD181EA030101F0004141F0FE411E
:1087100041F470014FF0000070BD41F0FE4141F4A2
:10872000780170BD70B54FF0FF0C4CF4E06C1CEAA2
:1087300011541DBF1CEA135594EA0C0F95EA0C0F57
:1087400000F0A7F8A4EB050481EA030E52EA033512
:108750004FEA013100F088804FEA03334FF0805533
:1087600045EA131343EA12634FEA022245EA111560
:1087700045EA10654FEA00260EF000419D4208BF11
:10878000964244F1FD0404F5407402D25B084FEABE
:108790003202B61A65EB03055B084FEA32024FF46A
:1087A00080104FF4002CB6EB020E75EB030E22BFC7
:1087B000B61A754640EA0C005B084FEA3202B6EB87
:1087C000020E75EB030E22BFB61A754640EA5C0036
:1087D0005B084FEA3202B6EB020E75EB030E22BFC6
:1087E000B61A754640EA9C005B084FEA3202B6EBC7
:1087F000020E75EB030E22BFB61A754640EADC0086
:1088000055EA060E18D04FEA051545EA16754FEAE7
:1088100006164FEAC30343EA52734FEAC2025FEA05
:108820001C1CC0D111F4801F0BD141EA00014FF094
:1088300000004FF0004CB6E711F4801F04BF014365
:108840000020B4F1FD0C88BFBCF5E06F3FF6AFAE81
:10885000B5EB030C04BFB6EB020C5FEA500C50F111
:10886000000041EB045170BD0EF0004E4EEA113194
:1088700014EB5C04C2BFD4EB0C0541EA045170BD9B
:1088800041F480114FF0000E013C90E645EA060EDF
:108890008DE60CEA135594EA0C0F08BF95EA0C0F0D
:1088A0003FF43BAF94EA0C0F0AD150EA01347FF455
:1088B00034AF95EA0C0F7FF425AF104619462CE72C
:1088C00095EA0C0F06D152EA03353FF4FDAE10468F
:1088D000194622E750EA410618BF52EA43067FF4E0
:1088E000C5AE50EA41047FF40DAF52EA43057FF470
:1088F000EBAE12E74A0011D212F5001211D20DD5DB
:108900006FF47873B3EB62520ED44FEAC12343F095
:10891000004343EA505323FA02F070474FF000003F
:10892000704750EA013002D14FF0FF3070474FF0EE
:108930000000704753B94AB9002908BF00281CBF7E
:108940004FF0FF314FF0FF3000F00CB8ADF1080CE4
:108950006DE904CE00F008F8DDF804E0DDE902235B
:1089600004B07047704700BF2DE9F04786468C463B
:108970000846089E154674461946002B40F0C180F3
:108980008542B2FA82F245D94AB1C2F1200300FA17
:1089900002FC954094402EFA03F343EA0C0C4FEA94
:1089A000154EA8B2230CBCFBFEF80EFB18CC08FB3E
:1089B00000F943EA0C43994528D9EB1808F1FF3731
:1089C00004D2994502D9A8F102072B44A3EB09036D
:1089D000A4B2B3FBFEFC0EFB1C330CFB00F044EA1C
:1089E0000344A04214D92C190CF1FF3304D2A04245
:1089F00002D9ACF102032C44241A43EA07401EB109
:108A0000D440002334607360BDE8F0874746DDE75B
:108A10006346F1E792BB431B01214FEA154EAFB20B
:108A2000200CB3FBFEFC0EFB1C330CFB07F840EAEA
:108A30000343984561D9EB180CF1FF3004D29845F7
:108A400002D9ACF102002B44A3EB0803A4B2B3FBA0
:108A5000FEFC0EFB1C330CFB07F744EA0344A74261
:108A60004DD92C190CF1FF3304D2A74202D9ACF135
:108A700002032C44E41B43EA0040C0E7C2F1200398
:108A80009540944020FA03F12EFA03F34FEA154E75
:108A90009040AFB20343B1FBFEFC0EFB1C10190C5F
:108AA0000CFB07F841EA0041884522D969180CF10E
:108AB000FF3004D2884502D9ACF102002944A1EB71
:108AC00008019BB2B1FBFEFC0EFB1C110CFB07F76F
:108AD00043EA01439F420ED9EB180CF1FF3104D257
:108AE0009F4202D9ACF102012B44DB1B41EA004159
:108AF00093E76046E3E76146F7E76046A4E763462D
:108B0000B8E7834206D916B9002108467CE7C6E9D2
:108B100000E0F9E7B3FA83F78FB9834201D37245D6
:108B200008D8BEEB020460EB030301209C461EB98B
:108B3000002169E73846FAE7C6E9004CF8E7C7F1D3
:108B4000200CBB400EFA07F522FA0CF42EFA0CF1B9
:108B5000BA401C4320FA0CF3B8404FEA14490143D1
:108B60001FFA84FEB3FBF9F809FB18300B0C08FB65
:108B70000EFA43EA00439A4540D9E31808F1FF3062
:108B800004D29A4502D9A8F102002344A3EB0A03B8
:108B900089B2B3FBF9F809FB183308FB0EFE41EA72
:108BA00003418E452CD9611808F1FF3304D28E455C
:108BB00002D9A8F10203214443EA0040A1EB0E01CF
:108BC000A0FB02984145CE46434602D306D14D450F
:108BD00004D20138B9EB020E68EB0403002EA7D0D3
:108BE000B5EB0E0261EB030101FA0CFC22FA07F36C
:108BF000F9404CEA0303C6E9003199E74046C5E76E
:108C00004346D9E7000000002DE9F04F89B0D0E9D4
:108C10000063039383890D4687680593B3683046E4
:108C20005B68039906AA9847002831DBDDE9064B0B
:108C3000A7FB042307FB0B3804924FF0FF3A1AA35B
:108C4000D3E9002341460498FFF774FE049BDFF844
:108C500060909A4579EB080307461CD3A5FB0443B3
:108C600005FB0B3510A3D3E9002329462046FFF767
:108C700061FEA24579EB050503460CD38742B26835
:108C80000CD3059930460091146803993A46A047E1
:108C900009B0BDE8F08F6FF08500F9E76FF01500BF
:108CA000F6E700BFAFF3008000CA9A3B0000000067
:108CB000FFC99A3B0000000038B51D4D1D4C002235
:108CC0002978206800F04AFC0021012029F024FFC7
:108CD00001222978206800F041FC0021012029F0C0
:108CE0001BFF00222978206800F038FC00210120B9
:108CF00029F012FF43F698220F4B104C196891424D
:108D000001D9206838BD1868FFF768FB06A3D3E9CE
:108D10000023FFF7DDFB0022094BFFF7D9FBFFF72C
:108D2000E9FD2060EDE700BF6ABC74931804D63FEC
:108D3000C803012034D8002024D8002020D80020E7
:108D40000000E03F90B587B0044600AF89B16C46A3
:108D500088B06A46114B1248C2E9053103234FF42B
:108D6000C25142F8103F2BF019F8A5461C37BD46FA
:108D700090BD0C4B4FF486517B61022307F110022A
:108D80003B6107482BF00AF8204607F095FE064B9A
:108D9000186001202DF04CFFE8E700BF26450400D5
:108DA000742B0400394504000CD8002098B56C469B
:108DB00000AF88B06A460C4B0C48C2E9053103236A
:108DC0004FF4C65142F8103F2AF0E8FFA546084C80
:108DD00001202DF030FF206818B107F095FE002328
:108DE0002360BD4698BD00BF44450400742B0400B9
:108DF0000CD80020022290B585B000AFC7E901274A
:108E00000122114BFA60187059703B600F4B1868C3
:108E100083680F491C6807F108020023A04700B2CD
:108E200070B16C4688B06A460A4B4FF4C251C2E931
:108E300005300323084842F8103F2AF0AFFFA5464B
:108E40001437BD4690BD00BFC403012008D80020E0
:108E5000582D04005E450400742B040010B50B4C23
:108E600086B021460A48FFF7CFFE21460948FFF7A2
:108E7000CBFE094B4FF4865105930223074804AA01
:108E800004932AF08BFF06B010BD00BF60E316000C
:108E9000842D0400742D040073450400742B040019
:108EA0002DE9F04788B08046684602F10803DB08E8
:108EB000A0EBC30302AF9D4602AE304615462CF030
:108EC00004FA0023E94688B0735502AC374BE561DC
:108ED000C4E905382546042345F8103F2A464FF4D7
:108EE000035133482AF05AFF324B2A46C4E905366B
:108EF0004FF40073A383304B4FF4E65123612C48A9
:108F00002AF04CFF3378CD46303BDBB2032B3ED802
:108F10002A4A52F823602A4A52F8235031462948F7
:108F2000FFF772FE29462848FFF76EFEE84688B034
:108F300002AC4FF47A7AB6FBFAF64FF00309A66159
:108F40002646224B4FF4C651636146F8109F3246C5
:108F500017482AF023FFB5FBFAF51D4B32464FF4B4
:108F6000C65113486361A561C4F810902AF016FF3A
:108F7000C546002200231748CDE9002340F6F6023B
:108F800000232AF0E7FA1837BD46BDE8F087124BF8
:108F900040F2DC557B6102234FF4865104483B616B
:108FA00007F110022AF0FAFE2E46B7E78F450400BB
:108FB000742B0400B145040003000001482D040097
:108FC000382D0400842D0400742D04001346040081
:108FD0002B46040000860020BA4504002DE9F04F1E
:108FE0004FF0000AD04687B05F4CDFF8809102AFA7
:108FF00099F8005095B901210C20FFF7FBFE294696
:109000000A20FFF7F7FE07210B20FFF7F3FE2946A2
:109010000920FFF7EFFE012389F80030214654486C
:10902000FFF7F2FD00B2002810DA88B002AA514B17
:109030004FF4C251C2E9053003234F4842F8103FB4
:109040002AF0ACFE1437BD46BDE8F08FFFF734FEC2
:109050004FF0080B064601232046484A4849CDF800
:1090600000B02AF09EFE504505465ED00023CDF8A4
:1090700000B019464FF4FA7230462AF092FEFF22F1
:10908000824012F0800F0CBF4FF0300C4FF0310CCB
:1090900012F0400F14BF3121302112F0200F03468F
:1090A000F96014BF3121302112F0100F14BF4FF0BE
:1090B000310B4FF0300B12F0080F14BF4FF0310E90
:1090C0004FF0300E12F0040F14BF3120302012F098
:1090D000020FB9600CBF30213121002B14BF3023A7
:1090E0003123C7F800D090B05FFA82FA7B6002AA01
:1090F000244BC2E90CE0C2E90536FB689163536278
:10910000BB6846F2C001C2E90A3B7B68C2E9075C62
:10911000D3630C23184842F8103F2AF03FFE514613
:10912000D7F800D0E8B2FFF765FEB8F1000F0CD118
:10913000134B9C4213D9A4F51C54103C40F21F5011
:10914000002129F0E9FCAA4652E70F4B04F51C5414
:1091500010349C42F2D94FF00008084CEEE74FF073
:1091600001081C46EAE700BF60E31600C6030120C1
:10917000642D040044460400742B040080841E0007
:1091800040420F00774604007F841E00B0B586B0D1
:109190006C4600AF6A4B07F110027B6102234FF46B
:1091A000865168483B612AF0F9FD88B06A46664BF3
:1091B0004FF4E6515361654B624893614FF400737D
:1091C0009383634B42F8103F2AF0E8FDA5460DF06B
:1091D000DFFC00B268B188B06A465E4B4FF4C25102
:1091E000C2E905300323574842F8103F2AF0D6FD64
:1091F000A5461A221921584800F0D8F9574D584869
:10920000286039F01DF850B9564B4FF482517B61FC
:1092100002234C483B6107F110022AF0BFFD52487F
:10922000524B186039F00CF850B9514B4FF4825141
:109230007B61022343483B6107F110022AF0AEFD37
:109240004C4B186838F0FCFF50B94B4B4FF482512F
:109250007B6102233B483B6107F110022AF09EFD2F
:109260004FF4805300224549454830F0A4FF13F0E5
:1092700097F912F0D9FD14F04DF90446414914F064
:10928000B1FD002209211823204630F017FB286881
:1092900083685B68984719F069FE3B493B4800F0DA
:1092A000C7F800B270B16C4688B06A46384B4FF4CC
:1092B000C651C2E905300323224842F8103F2AF084
:1092C0006DFDA546334C204638F0BAFFA8B9236897
:1092D0006C4688B06A4630491A48C2E905134FF413
:1092E000007393831A4B4FF4E25142F8103F2AF077
:1092F00055FDA5461837BD46B0BD204638F0A0FF45
:109300000028E4D0254B4FF486517B6102230D48A1
:109310003B6107F110022AF041FD0021002901F113
:10932000010401F00101B8BF494200200DF05CFCCE
:1093300024B200214FF4004029F0EEFB2146EDE776
:10934000BB460400742B0400C1460400D24604004E
:1093500003000001EB4604009C27040004D8002011
:1093600074280400094704005C28040008D8002081
:109370002C470400788100204A470400C4E3002001
:10938000E8D7002074470400608100206481002039
:109390007C4704002C280400A4470400C7470400AD
:1093A0002DE9F041E84600AF88B016461C46054658
:1093B0006A460B8A0C49D061C2E90513042342F8BE
:1093C000103F00234FF40351084802F093FB084B71
:1093D000C5461B681BB122463146284698472046A1
:1093E000BD46BDE8F08100BFF0470400642C0400D6
:1093F00010D8002098B500AF78B16C4688B06A46A6
:10940000084BC2E90530032342F8103F00234FF414
:10941000C251054802F06EFBA546044827F088FCBF
:10942000BD4698BD12480400642C0400C486002088
:109430002DE9F04188B0044602AF0D466E464FF06C
:109440000208254BC7F810807B6100234FF486513A
:10945000224807F1100202F04DFB002C3AD02046C2
:1094600007F08CFD2A681E4B1E481A6006F0E6F9CC
:10947000044698B188B002AA1B4BC2E90534032305
:1094800042F8103F00234FF4C251144802F032FB5F
:10949000B54620461837BD46BDE8F0813C46134D21
:1094A0004FF0FF324FF0FF33114827F085FC0FCD0E
:1094B0000FC42B68424623600123384600930D49B0
:1094C0000D4B06F0A7FE04460028E2D088B002AAA1
:1094D0000A4BD2E70A4CDCE727480400642C04005E
:1094E00010D80020F59300003E480400B02C040082
:1094F000C4860020D82D0400D02D04005448040058
:109500000900AD0B38B50F4C0F4D23782BB9012353
:1095100023702DF0ACFA286038BD2DF0A8FA002297
:109520000A4B186022701B682A689B1A084A13604D
:109530001368084AA3FB0232DB0B43EA4243064AA4
:109540001360E9E7C703012030D800202CD80020A1
:1095500028D8002040420F0024D80020012310B555
:1095600003FA01F143681B6819420ED10B4940F21E
:10957000FE430B4A0B482AF099FE0B482AF096FE50
:1095800040F2FE4106482AF08AFE22B18368DB6879
:10959000BDE81040184783681B69F9E7C448040018
:1095A00093480400024904001F4904002DE9F041DA
:1095B0001546334A04461060324A1170012742684A
:1095C00007FA01F31268D0F808C0134206690ED1F9
:1095D0002D494FF437732D4A2D482AF067FE2D4848
:1095E0002AF064FE4FF4377128482AF058FE32689A
:1095F00022EA03023260DCF800304FF40032984770
:10960000636807FA05F61B68A1681E422269DFD06D
:109610001368204623EA060313600B684FF4803278
:1096200029469847D4E90123126816420CD11649FD
:1096300040F27E23154A16482AF038FE15482AF0D3
:1096400035FE40F27E21CFE7D3F818804FF0A072AC
:109650004FF0C06329462046C04770B90E4B0F49F2
:10966000C1E90136A368DB691BB13A462046984739
:1096700008B140F29B20BDE8F08140F29A20FAE761
:1096800034D80020C8030120C448040093480400D3
:10969000024904001F4904000595000014D8002069
:1096A0002DE9F04F95B000AF0446C7E90812D7F88E
:1096B00078B0BB6158B9AA494FF46573A94AAA4862
:1096C0002AF0F4FD4FF46571A6482AF0E8FDCBF3CB
:1096D000C0033B613B6A53B90378467880783D6AA2
:1096E00000EB83002044AE421AD8031B3B6294F87F
:1096F0000290E3784E467B61B9F1000F02D01BF077
:10970000010F16D17B6953BB7B6A1BB12046BA6936
:10971000396A98473D6A28465437BD46BDE8F08F00
:1097200000F1010840462BF091FD01304044013525
:10973000D9E7636894F800A0FB617B6A4FEA8A026C
:10974000FA6004EB8A0A002B40F00581D04600261F
:109750003D6A09EB0A0398454ED1CA4413E01BF059
:10976000020FD1D094F800A04FEA8A03FB6063682F
:1097700004EB8A0AFB617B6A002B78D13D6AB9F160
:10978000000F4ED14E461BF0050F0CBF02230123E4
:109790007B627B690AEB43090BF002033B62CA451B
:1097A000B9D01AF8021B1AF8013C54F823806F4B09
:1097B000984502D36E4B984539D33B69002B43D073
:1097C000F8692AF031FB00283ED0E8468AB06A46A4
:1097D000684B5361FB69C2E906314FF4007313848F
:1097E000654B42F8103F00234FF41251634802F0DA
:1097F00081F9023DC546D2E718F8012B7B6254F887
:1098000022002BF023FDFA6F7B6A01303AB1D7F8C2
:10981000802096423EBFFA6F22F8160001360544BA
:1098200099E71BF004061CBF7E6ACA44ABE73B699C
:1098300023B1F8692AF0F8FA0028C6D11BF0010F0D
:1098400005D17B6AED1AAAE73B6A002BA7D04046F8
:109850002BF0FCFCFB6F43B1D7F880309E423FBF3A
:10986000FA6F431C22F816300136054497E7B9F128
:10987000000F00F085801BF0040600F08480C846CD
:10988000002607F140004A4651462BF01EFD7B6939
:10989000CA445B00BB607B690AEB43037B610BF04E
:1098A00002037B607B699A456FD123781BF0020F1E
:1098B0007B61637818BF002106EB030208BF4FEA03
:1098C00058011BF0010FD2B240F0E2801BF0040FF0
:1098D00014BF404600203B61A37894F803B0FB61BD
:1098E0006270A070E1702046BA69F9687B6A984797
:1098F000051EFFF610AF7B69414623703B69BA69CC
:109900006370FB6984F803B0A37007F140007B6AC1
:109910009847B0F10008C0F2E8803B6A5046A3EBDC
:109920000901FB68BA69C91ABB68C91A7B6A9847FA
:109930000028C0F2DC804FF0000BA84408EB0005C3
:1099400007F1300AB345C0F2A5800021BA69084684
:109950007B6A9847DFE64FF0000807F1300092E796
:10996000C649040031490400024904008C26040061
:1099700070E30400E149040004000001D42B04005A
:109980004E46C84683E7B04681E71AF8021B594B9A
:109990001AF8015C54F825209A4202D3564B9A4299
:1099A00016D33B692BB1F8692AF03EFA00287FF400
:1099B00079AF7B68002B4AD00F2E3ED94F494FF428
:1099C00089634F4A4F482AF071FC4FF489617BE666
:1099D0003B692BB1F8692AF027FA00287FF462AFBF
:1099E0001BF0010F0BD00F2E27D9444940F23E4304
:1099F000434A44482AF05AFC40F23E4164E61BF0D8
:109A0000040F3FF44FAFB8F10F0F09D93E4940F2B0
:109A100041433B4A3B482AF049FC40F2414153E66E
:109A200008F1280307F1280108F1010203EB0108FE
:109A300008F8105C5FFA82F834E706F1280307F1B2
:109A40002801721C5E1806F8205CD6B22AE7B8F12D
:109A50000F0F09D92C4940F24B43294A29482AF0D3
:109A600025FC40F24B412FE608F1280307F12800BE
:109A700008F10102181807F1500308F1020853FA1F
:109A800082F200F8101C5FFA88F802F8105C09E70F
:109A9000002020E71BF80A3054F8239087F82F3075
:109AA000FB6FFBB133F81B800121BA697B6A07F1B8
:109AB0002F00984700281ADB0544B8F1000F06D1A3
:109AC00048462BF0C3FB00F101081FFA88F8414615
:109AD0004846BA697B6A9847002808DB05440BF1C1
:109AE000010B2FE7D7F87C80DEE7454613E60546F5
:109AF00011E600BF8C26040070E30400844A0400D1
:109B00003149040002490400A34A0400014B1B68C8
:109B1000184700BF8C810020014B1860704700BFC0
:109B20008C81002007B50B460021024600910348B6
:109B300000F0E8FC03B05DF804FB00BF0D9B0000E3
:109B400030B5002587B0CDE903010446009503A98F
:109B50000548059500F0D6FCDDE904309842B8BF11
:109B6000255407B030BD00BF773E030070B50C46EA
:109B7000002934D002680B1F9B1AD90823F0070371
:109B800013445D88E8070DD4AF23154A15491648DC
:109B90002AF08CFB214615482AF088FBAF2110489B
:109BA0002AF07DFB10462AF09DF9084432F8306017
:109BB000801B81420BD0B723094A0D490A482AF07D
:109BC00075FB21460B482AF071FBB721E7E725F02A
:109BD00001055D801046BDE870402AF040BA70BDB6
:109BE000D44A0400F54A040002490400064B04006C
:109BF0003E4B0400644B04002DE9F8434B1E0B4020
:109C00000F461446066810D0C1F1000909EA01099F
:109C10004A46591E042A28BF042219420CD11F4665
:109C2000E4B900252846BDE8F883042913D8BDE827
:109C3000F84311462AF044BA2C494FF4A2732C4A37
:109C40002C482AF033FB2C482AF030FB4FF4A27149
:109C500027482AF024FB99460422E1E7B368B3EBD6
:109C6000D40FDED904F10B013944891A3046C908F2
:109C70002AF08EF980460028D3D009F1040505EBBF
:109C8000C0057B1E35441D447F423D40A5EB0905C0
:109C90002C442B1F07349B1B24F00704A41BB0EBA0
:109CA000D30F4FEAD3074FEAE40408D201463A46FD
:109CB00030462AF0BAF9414630462AF018F93946BA
:109CC00030462AF00FF93844844207D23046224603
:109CD0002AF0ABF9214630462AF009F906EBC7060F
:109CE000738843F0010373809CE700BFA04B04001E
:109CF000D44A040002490400BB4B04002DE9F74F8D
:109D0000914698460E460468009031B9424649464D
:109D100003B0BDE8F04FFFF76FBFB8F1000F06D1F9
:109D2000FFF724FF0027384603B0BDE8F08F02F1AB
:109D3000FF3B1BEA020F0ED0444940F28913444A0C
:109D400044482AF0B3FA44482AF0B0FA40F28911A4
:109D50003F482AF0A4FAA368B3EBD80FE2D90D1F4D
:109D60002D1BED08294620462AF0BCF8EF003A1DCD
:109D70002244B21A0192019908F10B020A440346E7
:109D80004FEAD20AB9F1000F02D016EA0B0F40D108
:109D90009A450FD010D22946204605EB0A022744E7
:109DA0002AF043F97B88114643F0010320467B806B
:109DB0002AF055F93746B6E705EB030B04EBCB0168
:109DC0004988CA0725D4594620462AF08BF81844FA
:109DD00050451ED32046AAEB03082AF0CCF859467A
:109DE00020462AF07FF8404508D9204605EB0A02B4
:109DF0002AF01BF9114620462AF079F827445A46E2
:109E0000294620462AF0FBF87B8843F001037B803B
:109E1000D0E7424649460098FFF7EEFE0746002885
:109E200080D0294620462AF05DF8019B3146C3EBDD
:109E3000C002043A424528BF424638462BF045FA54
:109E400031460098FFF792FE6DE700BFA04B04007B
:109E5000D44A040002490400BB4B0400B2F5802F31
:109E6000F8B504460ED33A4940F2EB13394A3A4862
:109E70002AF01CFA39482AF019FA40F2EB11354859
:109E80002AF00DFA042A0CD835494FF4F973314AF7
:109E900031482AF00BFA33482AF008FA4FF4F971E6
:109EA000EDE7043AC81D0A4420F0070022F007023B
:109EB000121A172A4FEAD2030CD82B4940F2FB138F
:109EC000244A25482AF0F2F926482AF0EFF940F210
:109ED000FB11D4E7B3FA83F120600024C1F120061E
:109EE000C1F1240189000731C9084D1C9D428360DE
:109EF000C4600CD91D494FF40373164A16482AF062
:109F0000D5F918482AF0D2F94FF40371B7E700F1F8
:109F10000C0505EB860645F8044FB542FBD14D0014
:109F200045F0010545805D1A00EBC1066F00048015
:109F30007780861820F8311000EBC30374808552B7
:109F40005A8842F001025A80BDE8F84029F0CFBF9C
:109F5000D84B0400D44A040002490400EE4B04002C
:109F6000054C0400264C04003F4C0400684C0400DF
:109F70002DE9F84F0446A38B08461907154612D45D
:109F8000022803F0070164D120462AF0C2F888B104
:109F90000138042800F23481DFE810F05B00320160
:109FA0008100D100010101280CBF43F0100143F0F2
:109FB0002001A1831434204626F0B2FB002840F093
:109FC0009B819849C223984A98482AF06FF9214604
:109FD000B0E003F00702501F01281ED80020062A17
:109FE0002768C4E9000014D13A4603E0E08B013051
:109FF000E0831268002AF9D123F0070343F002023C
:10A000002046A2832AF085F890B342F02002A28372
:10A010002EE023F007039AB2F2E7042A33D123F0AB
:10A0200007039AB22046A2832AF073F810B142F0D7
:10A030002002A283A38B03F00709894540F0EA8040
:10A04000A18BCA0640F14F8121F01003A38301F0D8
:10A050000701D4F81880A38BB8F1000FB9DA0022F9
:10A06000276823F00703C4E9002243F00103A38318
:10A07000A38B03F00709894540F0CD80002FDFD086
:10A080000026B24644E06A4940F21B13694A674819
:10A090002AF00CF940F21B1166482AF000F949B188
:10A0A00065494FF4AB73634A60482AF0FFF84FF4F8
:10A0B000AB71F1E723684BB9604940F257135D4A31
:10A0C0005A482AF0F3F840F25711E5E723691E6871
:10A0D0004EB95B494FF4AD73564A54482AF0E6F83E
:10A0E0004FF4AD71D8E70F4688464FF00609A38BB1
:10A0F00023F0070343F006039BB2A383A268002A60
:10A1000040F08B80002F40F08B80002E98D0BA4614
:10A1100043F0080304F1140B5846A38326F000FB18
:10A12000002840F097803F49C2233F4A3F482AF029
:10A13000BDF8594643482AF0B9F8C221AEE00229D9
:10A1400009D0414940F25D133A4A38482AF0AEF846
:10A1500040F25D11A0E7E78B4FB13C494FF4AF737C
:10A16000344A32482AF0A2F84FF4AF7194E72369D9
:10A170005E684EB9324940F261132E4A2B482AF0EC
:10A1800095F840F2611187E7A38BB84623F00703E7
:10A1900043F004039BB24FF00409A383AEE7012907
:10A1A00009D02B494FF4B273224A20482AF07EF896
:10A1B0004FF4B27170E723684BB9204940F2651340
:10A1C0001C4A1A482AF072F840F2651164E72369C4
:10A1D0009E684EB91A494FF4B473164A13482AF0D0
:10A1E00065F84FF4B47157E70027A38BB84623F006
:10A1F000070343F005039BB24FF00509A3837DE7F6
:10A200000B4940F26B130B4A08482AF04FF840F212
:10A210006B1141E70027002670E74FF0010A77E74E
:10A22000924675E7634D0400364D04000249040070
:10A23000807C0400934C0400B54C0400C14C040025
:10A24000E44C04007A4D0400FB4C0400114D040062
:10A25000204D040085F31188BFF36F8FBAF1000F12
:10A260001ED1002F2FD116B120462649B0474FF0FE
:10A270002003EFF3118583F31288BFF36F8F5846E5
:10A2800026F040FA38BB94231F4A204920482AF080
:10A290000DF859461F482AF009F894211A48FCE69F
:10A2A000A1680029DDD00D680029DAD043464A466E
:10A2B0002046D1F804A0D0471DB12B6829461D4681
:10A2C000F2E72B46FAE7394643464A4620463F68BE
:10A2D00029F04BFFC5E7584626F030FAA38B23F050
:10A2E0000803A383ACE68B067FF564AE21F0200360
:10A2F000A38301F0070147E685F31188BFF36F8F51
:10A30000BDE8F88F19A30000364D04008F4D0400FE
:10A3100002490400A44D0400F8B504460D4600F1BE
:10A3200014064FF02003EFF3118783F31288BFF375
:10A330006F8F304626F0E6F968B994230B4A0C4932
:10A340000C4829F0B3FF31460B4829F0AFFF9421A8
:10A35000064829F0A4FF304626F0F0F9A5613A46F8
:10A360002046BDE8F8400121FFF702BE364D04004B
:10A370008F4D040002490400A44D04002DE9F0476C
:10A3800004460F4629F0E1FE051E67DB04F11409BF
:10A390004FF02003EFF3118A83F31288BFF36F8F1E
:10A3A000484626F0AFF9804660B99423374A3849C9
:10A3B000384829F07BFF4946374829F077FF942138
:10A3C000324840E0484626F0B9F94FF6FF72E38B79
:10A3D000A68B934206F0070643D0022E13D13546D2
:10A3E0000133E383484626F09BF900283FD1C2237E
:10A3F000264A2A49274829F059FF4946284829F082
:10A4000055FFC221DCE7062E13D8DFE806F0092D40
:10A410001212090409006FF085054FF00008E1E70A
:10A4200000233B60636883B9C4E9007786B1354691
:10A43000F3E71C4917484FF4E4731B4A29F036FF31
:10A440004FF4E471184829F02AFF1F606760EDE7B8
:10A45000524602212046FFF78BFD35462846BDE8CF
:10A46000F0876FF00A05D8E76FF00405D5E78AF3A7
:10A470001188BFF36F8FB8F1000FEFD00023324681
:10A480003946204629F071FEE8E700BF364D04004A
:10A490008F4D040002490400A44D0400634D0400E4
:10A4A0007A4D0400204D0400934C040008B5426826
:10A4B000034602F00302022A81600AD0032A4FF009
:10A4C000000103D0012A0AD1596006E018685960DA
:10A4D00008BD186800225A6058B90020F8E70649FC
:10A4E00006484523064A29F0E1FE4521044829F0A3
:10A4F000D6FE29F06BFBF0E7807C040002490400E3
:10A50000BC4D04002DE9F04F81468B4617461C4692
:10A51000002595B0387808B9284657E37B1C2528D4
:10A52000039306D05946C8470028C0F24F8301352F
:10A53000FBE1182200210EA82AF0D2FE7B78252B01
:10A540007DD0002398469E469C461E46781C0146B8
:10A5500010F8012B2B2A00F0A18000F29880202A0D
:10A5600000F09F80232A00F09F802BB19DF840309F
:10A5700043F040038DF84030B8F1000F05D09DF84E
:10A58000403043F020038DF84030BEF1000F05D07D
:10A590009DF8403043F010038DF84030BCF1000FBF
:10A5A00005D09DF8403043F008038DF840302EB1BF
:10A5B0009DF8403043F004038DF840309DF8403062
:10A5C00003F04400442803D16FF386138DF8403024
:10A5D0009DF840302A2A43F080038DF840307FD127
:10A5E0009DF841204B1C42F001028DF841201A7861
:10A5F0002E2A0CBF012100219DF8412061F3410268
:10A600008DF8412078D15A782A2A6ED000224FF056
:10A610000A0C0133194611F8010BA0F13006092E7E
:10A6200040F295809DF840101292C1F3400040EA3C
:10A63000D2700A4660F341028DF840205CE0BA1CFB
:10A6400003928DF843309DF84130DA0740F12E81B6
:10A6500054F8048BB8F1000F07DA9DF84020C8F1D8
:10A66000000842F004028DF840205E0740F1278187
:10A6700054F804ABBAF1000F80F226819DF8413006
:10A680006FF341038DF841304FF0FF3A1CE12D2A62
:10A690000DD0302A7FF469AF012358E74FF0010C49
:10A6A00055E74FF0010E52E74FF001084FE7012642
:10A6B0004DE703460EFB0262303A184610F8016B74
:10A6C000A6F1300CBCF1090FF3D999428FD09DF857
:10A6D00040101192D20F62F341018DF8401086E7CD
:10A6E0000B4600224FF00A0EE7E79DF841200233A7
:10A6F00042F004028DF841201A786C2A47D02BD8FA
:10A70000682A31D06A2A4BD04C2A51D01A4612F806
:10A71000013B782B03928DF843309DF8412000F2E5
:10A72000BE806D2B51D8692B00F2B980572B67D8AA
:10A73000412B03D0453B022B00F2B18004229DF84F
:10A74000423062F302038DF84230012373E00CFBC8
:10A7500002020B46303A5DE7742A25D07A2AD5D119
:10A7600006219DF841200CE05A78682A9DF8412086
:10A7700006D1012161F3C6028DF841200233C5E7FD
:10A78000022161F3C6028DF841200133BEE75A78F9
:10A790006C2A9DF8412001D10421EBE70321F0E769
:10A7A00005219DF84120ECE707219DF84120E8E7CD
:10A7B000BDF8402022F4F04222F0020242F480422E
:10A7C00042F00202ADF84020DFE76E3BD9B2012330
:10A7D0008B4040F282410B4237D113F0240F51D10C
:10A7E000D8075CD503219DF8423061F302038DF850
:10A7F000423002F07803A3F140014B424B411AE092
:10A800000120A3F15801C9B200FA01F111F4624F1D
:10A8100094D140F6010631421DD111F4043F3ED0DF
:10A820009DF8423060F3020302F07802402A8DF86E
:10A83000423034D000239DF84020C2F340010B4346
:10A8400063F341028DF84020FDE602219DF842307D
:10A8500061F30203E8E702209DF8421002F078025B
:10A8600060F30201402A8DF8421002BF9DF84010AB
:10A8700041F001018DF84010632BDBD1131E18BF8E
:10A880000123D8E703219DF8423012F0780F61F3DD
:10A8900002038DF8423014BF01230023CBE79DF85B
:10A8A000403043F001038DF84030C3E79DF940206C
:10A8B000002AACBF4FF0FF38DDF84480D5E698079A
:10A8C0007FF5E2AEDDF848A00023CDE911339DF815
:10A8D00042309DF8411003F00703012BC1F3C3017F
:10A8E00033D1CB1E042B04D8DFE803F021464621E8
:10A8F0002100236801294FEAE372CDE90E321CD111
:10A900009DF93830DA17CDE90E3204349DF8403025
:10A9100013F0030650D03A4659464846039B29F0A7
:10A92000A7FC0028C0F252810544039FF2E554F8C9
:10A93000043BDA17CDE90E32E8E70229E5D11AB275
:10A9400043F3C033CDE90E23DFE7022B24D1CB1E26
:10A95000042B04D8DFE803F01810101818000129A0
:10A960004FF0000254F8043B14D00229CDE90E3216
:10A97000CCD19BB20E93C9E7073424F00704F4E866
:10A980000223CDE90E23C1E754F8043B0E930023C4
:10A990000F93BBE7DBB2CDE7042B08D1073424F0DB
:10A9A0000704D4E900230834CDE90E23AEE7032BD6
:10A9B000ACD154F8043BDDE79DF843007828B4D8C7
:10A9C00062281CD825283FF4ADAD5828ADD1DDE96B
:10A9D0000E010DF13603009310AA08AB29F002FC1A
:10A9E000BAF1000F074680F29980002F9DD00DF13B
:10A9F0003603D81B002E00F0C0800130BDE0633864
:10AA0000152892D801A252F820F000BFE1AA000058
:10AA1000F3AA00002BA900002BA900002BA900001D
:10AA20002BA90000F3AA00002BA900002BA900000D
:10AA30002BA900002BA900007FAB000017AB000082
:10AA40003DAB00002BA900002BA9000065AA000067
:10AA50002BA9000017AB00002BA900002BA90000B8
:10AA600017AB0000BAF1000F0E9F35DB5146384698
:10AA70002AF0F3FB07EB000A002F3FF456AF002645
:10AA80009DF8423013F01002059200F092800230DF
:10AA90005B06119A48BF129B104448BFC018B8F11A
:10AAA000000F049240F39F809DF84020A8EB00081F
:10AAB000C2F380035007069300F19580510640F1E0
:10AAC00088803EB159463046C84700287EDB069B49
:10AAD00001351E4630227DE038462AF0B7FBC9E733
:10AAE0000E9B002601208DF8203008AF0DF1210AC1
:10AAF000C6E719075ABFC3F300135E012B26DDE931
:10AB00000E23002BBFF663AF524263EB43032D26A7
:10AB1000CDE90E235BE7002659E700269DF840208B
:10AB20000DF13603DB1B6FF386129A458DF840203A
:10AB30007FF65BAFAAEB0303119356E70E9890B331
:10AB40000DF136030093002108AB10AA29F04AFB4F
:10AB5000BDF84230BAF1000F03F0EF0343F4F043C5
:10AB600043F010030746ADF84230D6DA00283FF430
:10AB7000DCAE00260DF13603181A9A4680E70E9BCC
:10AB800007293FF6D2AEDFE801F00C04060C0808F6
:10AB90000C0C1D70C9E61D80C7E6EA17C3E9005218
:10ABA000C3E61D60C1E62F4F064607F1050A0520E2
:10ABB00066E71A0748BF01306AE710460793069216
:10ABC0005946C847DDE90623002804DA15B0BDE878
:10ABD000F08F202243461946002903F1FF33ECDCB5
:10ABE000454498466D1A2EB159463046C84700284C
:10ABF000ECDB01359DF84230DA0601D41B0705D5A0
:10AC000059463020C8470028E0DB0135059B33B1A9
:10AC100059469DF84300C8470028D7DB0135049EFC
:10AC20002E4405E059463020C8470028CEDB0135C8
:10AC3000731B002BF6DC53463A465946484629F02A
:10AC400017FB0028C2DB0544A844A8EB0503002B32
:10AC50007FF76BAE59462020C8470028B6DB013588
:10AC6000F3E700BFDF4D040038B50D46044620224F
:10AC700000212AF035FB0022EB68E361AB68A36199
:10AC80002B6823626B68A26263622A6923B1591E32
:10AC9000194208BF42F0010222610122002104F1A1
:10ACA0002C0037F04BFB48B1054906482E23064AD5
:10ACB00029F0FCFA2E21044829F0F1FA38BD00BF32
:10ACC0000B4E040002490400E54D04002DE9F04F4D
:10ACD00087B0CDE90123436A0446013B8B420F460E
:10ACE000C0F0A0800026B24600F114054FF020030A
:10ACF000EFF3118B83F31288BFF36F8F2846D94689
:10AD000025F000FD58B99423494A4A494A4829F098
:10AD1000CDFA2946494829F0C9FA942150E028463D
:10AD200025F00CFD05A9204629F0CDFA05998046AD
:10AD3000B94228D32268236A204613F8221003EB75
:10AD4000820A21F0030103F8221021683A4629F013
:10AD5000DCFA4FF000082060284625F0E1FC20B323
:10AD600089F31188BFF36F8FB8F1000F5CD046B143
:10AD70009DF81330002BB9D0A36913B1314620469A
:10AD800098470026B2E718B1204629F0CCFAE3E74D
:10AD9000DDE90132134336D0039137F07EFA03998F
:10ADA00088BB284625F0BCFC68B9C223204A244948
:10ADB000214829F07BFA2946224829F077FAC22156
:10ADC0001B4829F06CFA8BF31188BFF36F8F04F1E5
:10ADD0002C00DDE9012325F0EFFF80464FF0200332
:10ADE000EFF3118983F31288BFF36F8F284625F0A4
:10ADF00089FC002887D0B8FA88F8284625F09EFC00
:10AE00004FEA5818A8E7226920460DF11303C2F350
:10AE1000400229F0ABFAB0F10008064618BF4FF027
:10AE2000010899E74FF0000A504607B0BDE8F08FDF
:10AE3000364D04008F4D040002490400A44D040067
:10AE4000634D04007A4D04002DE9F0410446C369C6
:10AE500008460E46984704F1140507464FF02003B4
:10AE6000EFF3118883F31288BFF36F8F284625F024
:10AE700049FC68B99423194A19491A4829F016FA65
:10AE80002946194829F012FA9421144829F007FAA2
:10AE9000284625F053FC33783A4643F001033370DB
:10AEA0006168204629F031FA6060204629F051FAA5
:10AEB000284625F035FC58B9C223084A0B490948F1
:10AEC00029F0F4F929460A4829F0F0F9C221DCE713
:10AED00088F31188BFF36F8FBDE8F081364D040011
:10AEE0008F4D040002490400A44D0400634D04008A
:10AEF0007A4D04002DE9F843044600F114074FF0A1
:10AF00002003EFF3118883F31288BFF36F8F384665
:10AF100025F0F8FB054668B99423334A3349344891
:10AF200029F0C4F93946334829F0C0F994212E4854
:10AF300029F0B5F9384625F001FCD4E901329A42EE
:10AF400088BF636A9B1A002B3FD0216A11F8223018
:10AF500001EB820913F003003AD0022803D151F823
:10AF60002260B60805D1D8071FD44846E369984740
:10AF70000646A1683246204629F0C7F9E168A0607C
:10AF80003246204629F0C1F9E060384625F0C8FB7A
:10AF900000BBC223144A1849154829F087F93946DD
:10AFA000164829F083F9C221C1E743F0020301F8F2
:10AFB0002230E3694846A56898472946024620465C
:10AFC00029F0A3F90025A060DFE71D46A946DCE7CC
:10AFD0000546FBE788F31188BFF36F8F002D8ED1F4
:10AFE0004846BDE8F88300BF364D04008F4D04008D
:10AFF00002490400A44D0400634D04007A4D04008E
:10B000002DE9F0410446C36908460D46984704F10E
:10B01000140607464FF02003EFF3118883F31288DC
:10B02000BFF36F8F304625F06DFB68B99423234A38
:10B030002349244829F03AF93146234829F036F9C2
:10B0400094211E4829F02BF9304625F077FB2B7808
:10B050006FF300032B7023699B0705D5E268236A11
:10B0600003EB82039D4219D12B783A466FF34103DB
:10B070002B70E168204629F048F9E060304625F061
:10B080004FFB80B9C2230D4A10490E4829F00EF932
:10B0900031460F4829F00AF9C221D2E72B6867F33D
:10B0A0009F032B60EAE788F31188BFF36F8F04F1E9
:10B0B0002C00BDE8F04125F03BBE00BF364D04003A
:10B0C0008F4D040002490400A44D0400634D0400A8
:10B0D0007A4D040048B1054B054A1B68B3FBF2F3F7
:10B0E0005843044B43F0010318477047B0830020D6
:10B0F00040420F00302D04000F2A70B505461E4651
:10B1000008460BD91D491E4840F2E7131D4A29F095
:10B11000CDF840F2E7111B4829F0C1F894000BF07C
:10B1200085F804F5C072AEB150B9174940F24E230C
:10B13000164A134829F0BAF840F24E211348EBE7BB
:10B1400002F1804245F0004502F52832C0F88050F7
:10B15000156070BD48B90C4940F263230B4A08489A
:10B1600029F0A4F840F26321E8E702F1804202F5F9
:10B170002832C0F880601660EBE700BF4A4E04003A
:10B1800002490400184E04008D4E0400554E040080
:10B19000F0B583B000AF381D0CF052F8244B984244
:10B1A00043D10BF02BFA041E13DA38790CF04EF869
:10B1B0006D4688B06A461F4BC2E90534032342F846
:10B1C000103F00234FF4C2511B4800F093FCAD46E2
:10B1D00027E040F60703194D7C71AE68FB80746868
:10B1E0007B6814B96FF05704E2E708212846144A37
:10B1F000A047041EDCDB3369002BF3D001220821B9
:10B2000028469847041ED3DB012338790D4A03FAF8
:10B2100000F1C2F80415FA797979FFF76DFF002C77
:10B22000C6D120460C37BD46F0BD6FF01204BFE713
:10B230000000AD0B914E0400842C0400442804004F
:10B24000F9B200000070014070B5049EC6F30744D7
:10B25000F5B2C6F3072630460AF0CEFF0F2C0BD905
:10B260001B491C4840F2E1131B4A29F01FF840F229
:10B27000E111194829F013F8A400E4B250B91749B4
:10B2800014484FF41773164A29F010F84FF4177149
:10B290001348EFE70022134BC0F880201A51012316
:10B2A000114AAB40C2F8083530460BF0C5F92846C4
:10B2B0000BF0CCFF0D4B984208D00D490548742384
:10B2C0000C4A28F0F3FF74210A48D3E770BD00BF91
:10B2D0004A4E040002490400184E0400B94E04000E
:10B2E000554E040080A00240007001400000AD0BEC
:10B2F000F44E0400BD4E04002DE9F7431446836864
:10B300001B694BB927492848CA23284A28F0CEFF91
:10B31000CA21264828F0C3FF002298470646002885
:10B32000F0D1C4F3072948460AF09AFF5FFA84F87F
:10B3300033464946220E07464046FFF7DDFEC4F37A
:10B34000074548460AF058FF0F2D0AD918491648F4
:10B3500040F2E113174A28F0A9FF40F2E111154825
:10B36000D8E7154AAD00EDB248F00043535150B94B
:10B3700012490D484FF41273114A28F097FF4FF409
:10B3800012710F48C6E7C0F880300E4B07F1320249
:10B39000009348463346019452000BF03FF803B047
:10B3A000BDE8F0830B4E040002490400BD4E0400CA
:10B3B0004A4E0400184E040080A00240B94E04001A
:10B3C000554E040049B200002BF083BC13B501AA0E
:10B3D0002BF066FC044668B116230E4A0E490F484E
:10B3E00028F064FF21460E4828F060FF1621094826
:10B3F00028F055FF019B5BB11723064A094907480E
:10B4000028F054FF0199084828F050FF1721EEE773
:10B4100002B010BD114F04004B4F0400024904005C
:10B420006B4F0400854F0400914F040030B500229B
:10B4300089B00F490F4837F052F80022002300244A
:10B44000CDE906230E230C4DCDE903344FF4006201
:10B450002846CDE90144094B0949009425F088F8B4
:10B460000849284636F01FFF204609B030BD00BF0E
:10B47000CDB50000C88D0020388900209DB800009F
:10B4800098190120AB4F04002DE9F0470446074608
:10B490004FF00109DFF8508014B93846BDE8F08755
:10B4A00094FAA4F5B5FA85F509FA05F32E0108EB2F
:10B4B00005156FEA030A24EA03042B7B002BEBD06B
:10B4C00058F806301B694BB9464473680422284675
:10B4D000196807EA0A0700F0E7FADDE72846984707
:10B4E0000028D9D1F0E700BF942C04002DE9F047E3
:10B4F000DFF8B8902E4C8046A9EB04039F2B0F4633
:10B500000BD92C4940F215132B4A2C4828F0CEFEBB
:10B5100040F21511284828F0C2FE294828F0DDFF26
:10B52000064660B300252846BDE8F087237B73B14B
:10B530002368DB680BB12046984723681B69B3B9C1
:10B54000636804222046196800F0AEFA0136103410
:10B550004C4518D91B494FF49173174A174828F0E6
:10B56000A5FE194828F0A2FE4FF49171D2E72046BB
:10B5700098470028E4D00AFA06F31D43E6E705469B
:10B580004FF0010AE4E7D1D3B8F1000FCBD0002D82
:10B59000C8D02846FFF778FF0546002FF7D00021D6
:10B5A0004FF4A47027F0B8FAF1E700BFA42C040010
:10B5B000942C0400E04F0400B34F0400024904003F
:10B5C0004CD800200450040025500400014825F008
:10B5D000AFBB00BFF4860020014B53F8200070473A
:10B5E000FC2D040008B5034608462BB1044A13603D
:10B5F00000F0FCFC002008BD6FF01500FBE700BF69
:10B600009081002010B5044C237813B9034825F02D
:10B610008FFB0123237010BDC9030120F486002095
:10B6200010B50446064828F058FF3CB1054BD3E856
:10B63000EF1F0139C3E8E21F002AF8D110BD00BF97
:10B6400044D8002048D8002000200146034BD3E80E
:10B65000EF0FC3E8E21F002AF9D1704744D8002059
:10B6600070B5FFF7F1FF05460F4C104EB44219D9E3
:10B670000F4940F2CD130F4A0F4828F017FE0F482C
:10B6800028F014FE40F2CD110A4828F008FE636845
:10B690005B792BB123685B6813B129462046984734
:10B6A0001034E3E7F3D370BD942C0400A42C040001
:10B6B00004500400B34F0400024904002550040064
:10B6C00010B5044C04492046FFF7CEFA034B1C602A
:10B6D00010BD00BFB8850020E82D04003CD8002034
:10B6E00008B50023064A4FF400411370054A064886
:10B6F0001360FFF777FFBDE80840FFF7E1BF00BF29
:10B70000CA03012044D80020D74403000146002288
:10B7100000230148FFF7DABAB88500200148FFF797
:10B72000E9BB00BFB8850020024B01461868FFF74F
:10B7300067BC00BF3CD80020014828F071BE00BFA4
:10B74000B885002070B52E4B1878002857D0FFF729
:10B75000E5FF054640B32B4BD3E8EF1F0139C3E8A3
:10B76000E21F002AF8D1284C284EB44218D92849A3
:10B7700040F2C113274A284828F098FD274828F0AE
:10B7800095FD40F2C111234828F089FD63685B797B
:10B7900023B12368294620461B6898471034E4E704
:10B7A000F4D32846FFF7C0FF1D4B1E4C1B68002B2F
:10B7B00019DD36F06CFE4FF47A72A0FB020302FB37
:10B7C0000131C30B43EA4143D4E900209B1A40F204
:10B7D000E9324FEAD13161EB0001934271F100018E
:10B7E00001D3FFF73DFFD4E9003213F57A7342F13C
:10B7F0000002C4E90032BDE87040FFF79DBF70BD94
:10B80000C903012048D80020942C0400A42C040073
:10B8100004500400B34F0400024904002550040002
:10B8200044D80020C08D002070B5154D297829BB63
:10B830000120FFF75BFE134C134EB44217D9134996
:10B840004FF4C273124A134828F030FD124828F012
:10B850002DFD4FF4C2710E4828F021FD63685B791D
:10B860001BB1236820469B6898471034E5E7F5D361
:10B87000FFF768FF0028FBD101232B7070BD00BFCC
:10B88000CA030120942C0400A42C040004500400DA
:10B89000B34F040002490400255004002DE9F0478D
:10B8A0002F4B304FFB1A1B090BD12F4940F2473366
:10B8B0002E4A2F4828F0FAFC40F247312B4828F056
:10B8C000EEFC00210846FFF711FE044640B340F2AB
:10B8D00067684FF0000927F053F9264B186030B124
:10B8E000254B1B68092B02DD244825F021FA002591
:10B8F000DFF888A044B12046FFF7C6FD044618B91A
:10B900004FF0FF384FF0FF39FFF71CFF064628B90C
:10B910005DB942464B46504625F04EFA3546E9E7BA
:10B920004FF0FF384FF0FF39D5E70D4D08E0F0D26A
:10B930002B689B691BB10022284611469847103599
:10B94000BD42F4D90E4940F23B33084A084828F07A
:10B95000ADFC0C4828F0AAFC40F23B31AEE700BF3A
:10B96000942C0400A42C040044500400B34F0400A1
:10B970000249040040D8002048D80020F486002066
:10B98000045004002550040013B52B4828F0A5FDF1
:10B990002A4B1B78002B34D04FF02003EFF3118497
:10B9A00083F31288BFF36F8F254824F0ABFE68B98C
:10B9B0009423244A2449254828F078FC2049244827
:10B9C00028F074FC94211F4828F069FC1C4824F0DE
:10B9D000B5FEFFF7B7FE1A4824F0A2FE58B9C223FD
:10B9E000184A1C49194828F061FC15491A4828F0E2
:10B9F0005DFCC221E7E784F31188BFF36F8F02B0CB
:10BA000010BD164B1B68002BF9D050B90022002343
:10BA10001348CDE900234FF40042002327F09AFD9C
:10BA2000EDE70A28EBD10E4836F065FD0D4802B06F
:10BA3000BDE8104025F07CB948D80020CA03012099
:10BA400038D80020364D04008F4D04000249040010
:10BA5000A44D0400634D04007A4D040040D800203A
:10BA6000C88D0020F486002010B5064B04461B68E4
:10BA700098472146A0600448FFF7E6F9BDE810406A
:10BA8000FFF782BF90810020B8850020044A054B53
:10BA90009B1AB1EBD30F34BF52F83100002070472E
:10BAA000742B0400942C04000E4B10B5C31A1B1108
:10BAB0000133DBB248B90C490C48DE230C4A28F0AC
:10BAC000F5FBDE210A4828F0EAFB4468237143684D
:10BAD0009A7101224368196043685A71BDE81040A9
:10BAE000FFF790BD942C0400E450040002490400C8
:10BAF000AC5004002DE9F04FC1F3CB448FB0C1F33B
:10BB000049260D469046994605901734002E3DD0A3
:10BB10004FF0040B4FF00A0A002209AF31460BAB7D
:10BB20004046CDF808B00197CDF800A0CDE90B2232
:10BB30000D920796FDF7B4FDC0F30903181920F024
:10BB4000070080081E4663F352250693FFF7DEFDCB
:10BB5000044608B30022069B10300B900C930D9204
:10BB60004046CDE9017B124A0799CDF800A00BAB06
:10BB7000FDF796FD00280FDA0E490F4849230F4ABA
:10BB800028F094FB49210D4828F089FB24F0070098
:10BB90008008FFF7BBFD044666F352254B462A4654
:10BBA000204605990FB0BDE8F04F28F0BABC00BFA1
:10BBB000F74403003051040002490400045104001A
:10BBC0000EB403B503AB53F8042B014604480193AC
:10BBD00028F0CEFC02B05DF804EB03B0704700BF64
:10BBE00001BC0000CA0605D48B064CBF02490349BC
:10BBF000FFF7E6BF704700BFB46F040084D80400AD
:10BC000038B54B6805461A68CB680C469A4202D193
:10BC1000084628F0B4FC6368D3E8EF2F511CC3E852
:10BC2000E01F0028F8D1A3689D5463681A68E36890
:10BC30009A4209D9054906487923064A28F036FB75
:10BC40007921044828F02BFB002038BD68510400FE
:10BC500002490400395104002DE9F04F89B09B4698
:10BC6000DDE915769DF8483004460493DDE9139329
:10BC70000593049B0D460692002B00F0878006F08A
:10BC80000803079328F035FC06F0020A0246002854
:10BC90004BD020468D49FFF793FF8046BAF1000F45
:10BCA00008D016F0440F42D12A4620468849FFF7B3
:10BCB00087FF804406F001035BB1864B049A20465F
:10BCC00053F82220844B8549002A08BF1A46FFF703
:10BCD00077FF06F00803002B55D0814B049A2046CD
:10BCE00053F822207F49FFF76BFF0546069B2BB1D7
:10BCF0001A4620467C49FFF763FF0544BBF1000F5D
:10BD000005D05A4620467949FFF75AFF0544454475
:10BD1000B9F1000F4AD1002F61D1F30700F1CF80B4
:10BD200031462046FFF75EFFC3E08046B6E7704B22
:10BD300018680028BDD06F4B4FF47A7E1B684FF413
:10BD40006162B5FBF3F5B5FBF0F300FB13550EFB99
:10BD500005F5B3FBF2FAB5FBF0FC3C2102FB1A320D
:10BD600000FB1C55B2FBF1F30EFB05F5B5FBF0F53E
:10BD700001FB132220460092CDE901C552465E49DF
:10BD8000FFF71EFF95E706F00805AFE7BBF1010FCF
:10BD900007D1B9F1000F1DD1002F00F08A800025D6
:10BDA0001DE0B9F1000FF7D0544814E054484B4659
:10BDB0002246544928F007F800280EDA5249534821
:10BDC0004FF40073524A28F071FA4FF40071504852
:10BDD00028F065FA4A48049DE9E7002F65D0DFF8AE
:10BDE0003491DFF834A1102F31462046B8464FF089
:10BDF000000B28BF4FF01008FFF7F4FE5D4542DC52
:10BE0000059B514620461A78FFF7DAFE4FF0010BEA
:10BE10001BF0070F03D149462046FFF7D1FED84556
:10BE200038D9059B5146204613F80B20FFF7C8FE72
:10BE30000BF1010BBBF1100FEAD14FF0000B2046C4
:10BE40003649FFF7BDFE5A46059B20469A5CA2F193
:10BE500020015F2928BF2E223149FFF7B1FE0BF1E7
:10BE6000010BBBF1100F1AD01BF0070F03D149468D
:10BE70002046FFF7A5FED8455A46E5D84946204654
:10BE8000FFF79EFEEBE749462046FFF799FE0BF1D0
:10BE9000010BB3E720462349FFF792FEC8E7059B55
:10BEA000B7EB0807434405939DD1049B002B7FF417
:10BEB00034AF204609B0BDE8F04F28F060BB204603
:10BEC000054A0649FFF77CFE2AE700BF9D510400A2
:10BED000A15104000C2E040098510400B745040041
:10BEE000202E0400C6510400CC510400D05104009F
:10BEF00054D8002050D80020AA51040099450300CE
:10BF000001BC000071450300D55104000249040042
:10BF10003951040089850400DE510400E451040015
:10BF2000B8460400878504002DE9F0410F884B686E
:10BF300005460C4690468E6886B0C7F382175BB103
:10BF4000134A9B1A43F3CF0100291FDB2078C0F36B
:10BF5000C200FFF79BFD0346214651F8102B608875
:10BF6000C2F34922002A01EB020408BF0021C0F3FA
:10BF7000CB00CDE90308CDE9011400223146284663
:10BF80000097FFF769FE06B0BDE8F0810023E3E704
:10BF9000742B040042F20F7373B58B4228BF0B461B
:10BFA00005680446052168460D4A27F084FF0646C9
:10BFB000636828460B225B680A4928F0CCFA63685C
:10BFC0003246694628465B6828F0C5FA63681B223A
:10BFD00028465B68044928F0BEFA02B070BD00BF75
:10BFE000035E040002520400E65104000021012314
:10BFF000064A904206D8064A01B901231360054B50
:10C0000018607047012140085B00F2E740420F00D2
:10C0100050D8002054D80020014B002019607047F0
:10C020006CD800200122024B02481A7028F0A7BAEF
:10C03000CC030120502E04000148FFF7ABBF00BF26
:10C04000502E040010B5064B0C461868FFF7C4FAD2
:10C050002146BDE8104003460F220248184700BFA2
:10C060006CD80020502E0400F8B50D460446064F4B
:10C070004618B44201D12846F8BD14F8011BBB682C
:10C0800001485B689847F4E7E427040008B50748CF
:10C0900036F0D6F848B9064906486F23064A28F014
:10C0A00005F96F21044828F0FAF808BDE4270400D8
:10C0B0006C520400024904002E5204007FB570B98E
:10C0C000124B1348059302234FF4825104AA0493A0
:10C0D00028F070FA6FF0150007B05DF804FB836874
:10C0E00063B90C4B0A48059302234FF4825104AA0A
:10C0F000049328F05FFA6FF00400EDE71B681BB1B2
:10C1000007B05DF804EB18471846E5E7A0520400B5
:10C11000042C0400B152040030B587B008B101B15D
:10C120006AB9134B1348059302234FF4825104AAB2
:10C13000049328F03FFA6FF0150007B030BD846813
:10C140000CB1E56865B90C4B0A48059302234FF41E
:10C15000825104AA049328F02DFA6FF00400ECE752
:10C1600041F8040BE36807B0BDE83040184700BF52
:10C17000CF520400042C0400B152040030B5134621
:10C18000044687B068B91A4B1A48059302234FF446
:10C19000825104AA049328F00DFA6FF0150007B03D
:10C1A00030BD006860B9144B1248059302234FF468
:10C1B000825104AA049328F0FDF96FF00100EEE724
:10C1C00082680AB1956865B90C4B0A480593022349
:10C1D0004FF4825104AA049328F0ECF96FF00400A4
:10C1E000DDE70A46AC46616807B0BDE8304060470D
:10C1F000FB520400042C04000C530400B152040050
:10C2000008B504220021024829F06AF8002008BD80
:10C21000000007200023012213B50446CDE90032B7
:10C22000074BD0E9091223F08FFAA36E1B6823B1E4
:10C23000E06E02B0BDE81040184702B010BD00BF6C
:10C24000B56F040030B50C460E4985B00291D0F8A8
:10C2500098110546CDE9003100F1E0014FF0FF33C0
:10C26000204623F0B7FA50B9012384F86430D5F89A
:10C27000943123B1204605B0BDE83040184705B0E1
:10C2800030BD00BFAB46030038B50C46114605462D
:10C2900028F00DFA034638B92846044928F007FA71
:10C2A00003460020236038BD0120FBE7B56F040082
:10C2B0002DE9F04F012381460569466885B005F5F3
:10C2C0005577D7E8EF2F002A03D1C7E8E13F0029CF
:10C2D000F7D140F0B880B368B26A043B2632B3EBC2
:10C2E000420F4FEA420126BFB3FBF1F3B3FA83F3E7
:10C2F00000234FF0010428BFC3F12003013B9C4001
:10C3000005F5D87800F099801022082170689A40CD
:10C3100002EB4402043099400932C5F84802063164
:10C3200022F003020A44B16A01FA03FC510001EB56
:10C330004C01C5F84C12B16A994000EB4103C5F8B5
:10C3400040320333134423F00303C5F83C327368CF
:10C35000C5F84442C5F838323C4B4046C5E9A363B2
:10C36000316800F003FA044630BBD9F804A0D9F8CC
:10C370001090DAE9073409F52A7B012B584608BFEB
:10C38000103C25F049F80023DAF8240030494FF436
:10C39000806201EB802100935846234625F056F831
:10C3A00009F526702B4924F06BFFDAF81400836836
:10C3B0005C681CB96FF05704002137E04B46264AF1
:10C3C000DAF81810A04704460028F5D1DAF814006E
:10C3D00083681B69002BEDD00122DAF8181098470A
:10C3E00004460028E8D11D4B2846C5F894311C4B63
:10C3F000C5F898311B4B0393D5F8F8310293D5F863
:10C40000F031CDE90083D5F85032B26AD5F8501337
:10C4100000F076F904460028CED105F1E00023F0C3
:10C4200077FB0028C5F858030ADB0221384628F0BC
:10C430008AF9204605B0BDE8F08F6FF00B04BBE72A
:10C440006FF01504B8E76FF07704F2E72F470300A9
:10C4500098210120E7460300DB46030015C20000D7
:10C4600001470300774703002DE9F84306464FF0E4
:10C4700001090569D0F8048005F55577D7E8EF3F45
:10C48000022B03D1C7E8E29F002AF7D149D1264801
:10C4900005F1400128F0EAFE20B16FF00F042046BC
:10C4A000BDE8F883204805F1B00128F0DFFE002840
:10C4B000F3D12846D5F8501328F0B1F9044670BBE3
:10C4C00071683669486983681B6933B32246896994
:10C4D0009847044618BB06F52A764946304625F0AB
:10C4E0001DF8304605F5D87601F052FA3046D8F8F6
:10C4F000001028F0D1F9044688B90146E8223046F8
:10C5000028F0EEFE21464FF4D872284628F0E8FEC7
:10C510002146384628F017F9C1E76FF05704022189
:10C52000F7E76FF07704BAE7B56F040013B5044678
:10C530000846216901F55571D1E8AF1F022910D1D4
:10C5400093B1A0B10121CDE900311346D0E9091220
:10C5500023F0FAF8074B984208BF6FF00B0002B0C7
:10C5600010BD6FF00F00FAE76FF04C00F7E76FF0C7
:10C570000100F4E72EF8FFFF2DE9F7438846154642
:10C58000066906F55573D3E8AF3F022B5FD11368F8
:10C5900023B96FF0150003B0BDE8F0831B78002BC2
:10C5A000F7D0D6F85093B9F1000F33D106F5CE7716
:10C5B0004FF0FF324FF0FF33384624F0F9F83046A1
:10C5C0002A6801A9FFF760FE019C1CB9384628F0D3
:10C5D000B8F8DEE705F10803A3666B6984F8649098
:10C5E000E366E46360B1384628F0ABF82146304694
:10C5F000236E2A68FFF726FE0020C8F80040CAE72D
:10C600002022296804F1400028F00CFE384628F06A
:10C6100098F8F1E730460F4928F049F80446002819
:10C62000B7D005F1080383666B69C063C366002356
:10C6300080F8643020222968403028F0F3FD22463B
:10C640000121304600F03EF80028D5D0A1E76FF078
:10C650000F00A0E7B56F04002DE9F04F05460E4628
:10C6600090460027D0F8A4A085B0AAF5A47421466E
:10C67000304628F0FBFDE0B9114BA4F1400B0293CA
:10C68000DAF810303246CDE9008329464FF0FF3307
:10C690005846AAF5C47923F09DF860B970230122A9
:10C6A00003FB079383F86420DAF80C300BB158468B
:10C6B0009847703417B105B0BDE8F08F0127D6E771
:10C6C0001B4803001FB5144690B18AB1012912D14D
:10C6D0000A4B00F1E0010293D0F898314032019307
:10C6E0004FF0FF332046009323F074F804B010BDE0
:10C6F0006FF01500FAE70020F8E700BF1B480300C1
:10C700002DE9F04385B00F46DDE90C811446DDE9E3
:10C710000E251E4628B321B3DFF84CC000F1E00916
:10C72000002D08BF654697B9CDE9024400F5C474F1
:10C73000204635F072FD02ABCDE900432A46334670
:10C740004146484623F00AFA05B0BDE8F0830022CE
:10C7500041460C9248462A4605B0BDE8F04323F016
:10C760000DBB6FF01500EFE759C60000F0B50E469F
:10C77000044689B000286FD001230246C36300231A
:10C78000D0F89810364F403040F80C7C42F8301FFB
:10C79000CDE901334FF0FF330093C36D2AF0F3FB73
:10C7A000304A06AB92E8030083E8030018460CF019
:10C7B00059FC0546D8B904F134000CF033FC0546A9
:10C7C000A8B93946284805AA2AF0B5FB054670B92C
:10C7D000059B9A6872B10C33D4F89400C4F8A03069
:10C7E00028F04CF8C4F8D40030B96FF00B05284697
:10C7F00009B0F0BD0346EFE7D4F8940028F03EF806
:10C80000C4F8D8000028F0D0D4F88C30D4F8A010A8
:10C81000C4F8A8300423C4F8AC30C4F8C4300223F0
:10C82000A362124BB4F89420D4F8D470C4F8B810B2
:10C83000C4F8D010D4F89010236204F1A403A4F833
:10C84000B020C4F8A470C4F8C010A4F8C820C4F87C
:10C85000BC00A661E362CAE76FF01505C7E700BF39
:10C8600036530400C42C0400405304008C2E0400F2
:10C870002DE9F84305464FF02003EFF3118683F3CB
:10C880001288BFF36F8F204823F03CFF68B99423D0
:10C890001E4A1F491F4827F009FD1B491E4827F063
:10C8A00005FD9421194827F0FAFC4FF00C091648B1
:10C8B00023F044FF194B1A4F1C68DFF868807CB9DD
:10C8C000114823F02DFFC8B9C223104A1649114858
:10C8D00027F0ECFC0C49154827F0E8FCC221E1E701
:10C8E000D4E90123002D18BF13462BB198F814206A
:10C8F00009FB02F2B85C98472468E0E786F31188E8
:10C90000BFF36F8FBDE8F88370D80020364D040068
:10C910008F4D040002490400A44D040090D800206B
:10C9200084D8002034E30020634D04007A4D0400D5
:10C93000012270B5164B1C7D04F01F039A40D043B2
:10C94000144B610903EB8103D3E8EF1F01EA0005F3
:10C95000C3E8E65F002EF7D10A4213D00E4B0F4D0D
:10C960008BB10C236343EA185178E85C27F09AFDF9
:10C970000020FFF77DFF0C235C4300232A192B5175
:10C98000C2E9013370BD83F31188BFF36F8FEFE706
:10C9900034E3002098D80020A544030084D8002068
:10C9A0002DE9F041454B07461D7D4FF02003EFF385
:10C9B000118883F31288BFF36F8F414823F0A2FEE2
:10C9C00068B994233F4A4049404827F06FFC3C49EE
:10C9D0003F4827F06BFC94213A4827F060FC0C2478
:10C9E0006C43374823F0AAFE3A4B3B4E195D1A19A7
:10C9F000B9B107CA06EB040C8CE8070000221A55EF
:10CA00002F4823F08DFE0446B0B9C2232D4A334986
:10CA10002E4827F04BFC2A49314827F047FCC22119
:10CA2000DAE73946284600F065F80028E8D007C85C
:10CA3000344484E80700E3E788F31188BFF36F8F7D
:10CA40000C236B43F218F35CABB37B1C0FD04FF499
:10CA5000004C0021D2F808E022480023EEFB0C0134
:10CA6000214AFBF767FF0121381A26F087FB25F0E2
:10CA700005FA0120FFF7FCFE1C4B6A0903EB820359
:10CA8000012205F01F018A40D3E8EF0F1043C3E8ED
:10CA9000E10F0029F8D1164B33B10C236B43F21888
:10CAA0005178F05C27F0F2FCFFF742FF25F052FAD4
:10CAB0002046BDE8F0811C46FAE700BF34E30020C1
:10CAC00074D80020364D04008F4D04000249040044
:10CAD000A44D040078D8002084D80020634D0400C1
:10CAE0007A4D04003F420F0040420F0098D80020CA
:10CAF0008D4403002DE9F04F85B00E4603A900F0E8
:10CB000043F84FF4004704464FF0000B1B4B039DC6
:10CB1000D3F800A0431E1BB203EB4303DFF8608091
:10CB200005EB830524B9A146484605B0BDE8F08F62
:10CB3000C446594668680023E0FB07C1114A6046B5
:10CB4000FBF7F8FEC44659460190A8680023E0FBB5
:10CB500007C10C4A6046FBF7EDFEBAF1FF3FA9465C
:10CB600001D0824505D9731CDED0019B1844B04228
:10CB7000DAD9013CA4B20C3DD4E700BFC08100204B
:10CB80003F420F0040420F0008B9024B0B600020EB
:10CB9000704700BFB02E04000449431E0F3013F845
:10CBA000012F8A5C83421A70F9D170474B530400FD
:10CBB000F0B50746264E8DB001AD0C460FCE0FC521
:10CBC0000FCE0FC596E8070085E807003846002F0E
:10CBD00039D0002C39D0381F0246214610344B780A
:10CBE0000D781B0443EA0563CD7804312B4311F81B
:10CBF000025C8C4243EA052342F8043FEFD1042152
:10CC0000144C8A07036916D1C3F30742A55C1A0EB8
:10CC1000A25C42EA0562C3F30725655DDBB2E35C13
:10CC200042EA054242EA032221F0030330336B4417
:10CC300053F82C3C534050F8042F013153402C2919
:10CC40000361DED101200DB0F0BD2046FBE700BF3F
:10CC5000CC2C04004B5304002DE9F04F002703684F
:10CC60009DB002934368DFF8BCA103938368DDE9BC
:10CC700002460493C36805930369DDE904BE069385
:10CC8000436907938369DDE9062C0893C3699846D5
:10CC90000993089B0093CD590CAB2DBA5AF8049B0D
:10CCA000DD514FEAF223A94483EAB213009D83EADF
:10CCB00072634B4425EA020502EA0C0985EA09057C
:10CCC0002B44434486EA0B054FEA743888EAB408DB
:10CCD000254006EA0B0985EA090588EAB4580437B5
:10CCE000A844402F03EB0E054344DE46DDF80080E8
:10CCF00040F088804FF0100A4B490A9151460AF1E2
:10CD0000010A0DF1700E0AF00F070EEB870757F8B6
:10CD1000407C01F00F094FEAB748019788EAF718FD
:10CD200001F10E0707F00F070EEB870757F8407C5D
:10CD300009314FEAF74E8EEA774ECDF82CE001F03C
:10CD40000F010DF1700E0EEB81010EEB890959F800
:10CD500040EC51F8401CBAF1400F7144DDF804E09A
:10CD600088EADE08DDF82CE041448EEA972E714413
:10CD700005EA02084FEAF52E2CEA050787EA0807BC
:10CD80008EEAB51EDDF828808EEA756E774458F875
:10CD900004EF49F8401C77440F4400994FEA733E72
:10CDA000394484EA0607CDF828808EEAB30E07EAF4
:10CDB000030704EA06088EEAB35E87EA08077744A9
:10CDC0000F4401EB0B0ECDF800C0B34622D10299FF
:10CDD0003944016003991944049B416023448360F2
:10CDE000059B3344C360069B73440361079B2B443C
:10CDF0004361089B13448361099B6344C3611DB075
:10CE0000BDE8F08FB346CDF800C0264694461C46D8
:10CE10002A4640E7944626462A461C4675463B4627
:10CE20006CE700BFB02E0400EC2E040010B50446E1
:10CE3000C8B17022002127F06CFD0B4B0B4A0C4946
:10CE4000C4E900230B4B0C48C4E902130B4BC4E9A3
:10CE5000040301200A4BA36103F17453A3F52303D8
:10CE6000A3F69243E36110BD85AE67BB67E6096A2E
:10CE700072F36E3C3AF54FA57F520E518C68059BBC
:10CE8000ABD9831F014910220A60704710ED00E002
:10CE900072B6404080F31188BFF36F8FBFF34F8F9E
:10CEA00030BF62B6BFF36F8F704700BF72B64940A4
:10CEB00081F3118820BF80F3118862B6704700BFEC
:10CEC0002DE9F04781460C4600AF00294CD0D1E94E
:10CED00000126E468AB0A3686D464FF0050AA84658
:10CEE0002548C5E90723C5E9050148F810AF002327
:10CEF00042464FF421512148FEF7FCFDD4E90312CC
:10CF0000B5466369AD461E48C5E90723C5E9050175
:10CF1000C5F810A0002342464FF421511748FEF7F0
:10CF2000E9FDB54688B0E3696D464FF0030AA846AF
:10CF3000144AC5E9052348F810AF002342464FF4D0
:10CF4000C2510E48FEF7D6FDB546A369AD460E4A5E
:10CF5000C5F810A0C5E90523002342464FF4C2518D
:10CF60000648FEF7C7FDB5462146484622F01AFF9F
:10CF7000BD46BDE8F08700BF4B5404004C2C0400B4
:10CF80007A540400A9540400B854040040B20028A4
:10CF900007DB01234109034A00F01F00834042F8E8
:10CFA0002130704700E100E040B200280CDB012294
:10CFB0000649430900F01F008240203341F8232036
:10CFC000BFF34F8FBFF36F8F704700BF00E100E0EA
:10CFD000054B420953F82220012300F01F0003FAF9
:10CFE00000F01040704700BF00E100E038B54B1C76
:10CFF000072B04460D460FD95B23104A10491148F0
:10D0000027F054F9294610480723224627F04EF905
:10D010005B210A4827F043F940B20028ACBF00F179
:10D0200060400A4A4FEA4313DBB2ABBF00F56140F0
:10D0300000F00F0080F80033135438BDE6540400AC
:10D040001C550400024904003755040014ED00E0AB
:10D0500030BFFFF7FDBF00BF0B4A08B50B4B22F0F6
:10D060007F029A60BFF34F8FBFF36F8FD3F8882092
:10D0700022F47002C3F8882022F066FF25F0BEFE7D
:10D0800000F000FC22F0A0FF0080000000ED00E0B6
:10D09000094A0A49936809689867D96708494B683B
:10D0A00043F080534B60002383F31188BFF36F8FED
:10D0B0009368D86F704700BF34E300209C4204009F
:10D0C00000ED00E015498A6882F881E04FF03000F9
:10D0D0001044EFF3098C80E8F01F202080F31288C1
:10D0E000BFF36F8F0E4F4FF00066CA698A603E60D3
:10D0F00092F981E0906F0023936780F3118802F129
:10D10000300090E8F01F8CF3098802F1000004B5AC
:10D1100028F04CF8BDE804407047000034E30020DC
:10D1200004ED00E01EF0040F0CBFEFF30880EFF3F6
:10D130000980816911F8021C0229FFD001B528F08D
:10D1400026F801BD42F8203C009B0D4942F81C3CEA
:10D15000019B21F0010142F8183C029B42F8081C97
:10D1600042F8143C4FF0807342F8043C002383677C
:10D170004FF43C43203A0265C0F88030704700BF4E
:10D18000D13E0300084B9860836E83F30B881046F2
:10D1900081F30988002163B681F31188BFF36F8F93
:10D1A0000022002326F094FE34E3002001B572B67D
:10D1B0000B4A906900281EBF0021916135F07AF872
:10D1C00062B6EFF30580A0F110004FEAC0000549F8
:10D1D000014409C99847BDE80140034908470000D8
:10D1E00034E300208C280400EDD10000044B996842
:10D1F000D869884203D003494FF080520A607047D3
:10D2000034E3002004ED00E02DE9F04186B006464D
:10D210000D4600AF02244B4B4FF482517B614A48CC
:10D220003C6107F1100227F0C5FF484B9B6ADB0603
:10D2300009D5474B4FF48251C7E90443424807F1EF
:10D24000100227F0B7FF414B9B6A18070AD5414BE4
:10D250004FF482517B6102233B483B6107F110028E
:10D2600027F0A8FF394CA36A990722D5E8463A4B24
:10D2700007F110027B6102234FF482513B61324877
:10D2800027F098FF636BA26A120612D588B06A462F
:10D2900032492D48C2E9051303234FF4C25142F825
:10D2A000103F27F087FFC5461EB1A36A23F0800315
:10D2B000A362264B9B6ADB070AD5294B4FF48251A8
:10D2C0007B61022320483B6107F1100227F072FFC7
:10D2D0001E4B9B6A9E060AD5224B4FF482517B61FE
:10D2E000022319483B6107F1100227F063FF174B37
:10D2F0009A6AD40602D49A6A900711D59B6AD90615
:10D300000ED519494FF4AE73184A194826F0CEFFCE
:10D31000184826F0CBFF4FF4AE71144826F0BFFF3B
:10D3200000200A4B18379A6A920642BF5A6A22F4C2
:10D3300000525A629A6A42F0FF029A622870BD4611
:10D34000BDE8F081775504004C2C040000ED00E0AE
:10D350008D550400C0550400D3550400EB5504005E
:10D360000156040020560400895604004F5604005C
:10D3700002490400D35604002DE9F04186B0064668
:10D380000D4600AF02243E4B4FF482517B613D4875
:10D390003C6107F1100227F00DFF3B4B9B6AD9045B
:10D3A00009D53A4B4FF48251C7E90443354807F198
:10D3B000100227F0FFFE344B9B6A1A050AD5344B46
:10D3C0004FF482517B6102232E483B6107F110022A
:10D3D00027F0F0FE2C4CA36A9B0522D5E8462D4B86
:10D3E00028487B61022307F110023B614FF4825110
:10D3F00027F0E0FEA36BA26A100412D588B06A463B
:10D4000025492048C2E9051303234FF4C25142F8CD
:10D41000103F27F0CFFEC5461EB1A36A23F4004398
:10D42000A362194B9B6A59050AD51C4B4FF48251D4
:10D430007B61022313483B6107F1100227F0BAFE1B
:10D44000114B9A6AD20515D5154B7B6102234FF417
:10D4500082510C483B6107F1100227F0ABFE00201F
:10D46000094A1837936A43F47F4393622870BD4694
:10D47000BDE8F0819B6A9B04F1D50A4BE5E700BF4C
:10D48000375704004C2C040000ED00E04D57040019
:10D49000C05504005E570400775704008C57040001
:10D4A000A75704002056040010B586B002243A4B5A
:10D4B0004FF48251394804AA0593049427F07AFE68
:10D4C000374B9B6A9B0108D5364B4FF4825133484A
:10D4D00004AACDE9044327F06DFE314B9B6ADC01C1
:10D4E00009D5314B4FF48251059302232B4804AAEE
:10D4F000049327F05FFE2A4B9C6A14F4801409D031
:10D5000002242A4B4FF48251244804AA0593049420
:10D5100027F050FE224B9B6A180309D5244B4FF489
:10D520008251059302231D4804AA049327F042FE6A
:10D530001B4B9B6A590309D51E4B4FF4825105932F
:10D540000223164804AA049327F034FE144B9B6A66
:10D550009A0309D5184B4FF48251059302230F48C3
:10D5600004AA049327F026FE0D4B9B6ADB0309D522
:10D57000124B4FF4825105930223084804AA0493E6
:10D5800027F018FE064A2046936A6FEA03436FEAC3
:10D590001343936206B010BDBF5704004C2C040027
:10D5A00000ED00E0D7570400EA57040004580400D7
:10D5B0002E5804004C580400715804008B58040085
:10D5C0002DE9F0478AB0904B0546D3F804A0884671
:10D5D0001646002300AFCAF3080983F31188BFF38E
:10D5E0006F8F02F07F43B3F17F4F0ED087494FF426
:10D5F0008463874A874826F059FE874826F056FEFE
:10D600004FF48461824826F04AFE12F00104EDD105
:10D61000530604D410070FD44FF001080FE07F4BDE
:10D620004FF48251FB6102237D48BB6107F1180270
:10D6300027F0C0FD710700D545464FF00008002DCA
:10D64000D4D00023FB71A9F10303092B00F2BA80A7
:10D65000DFE803F005ADB090B8B8B8B8B8B3E946A4
:10D660004FF0020A6F4B07F11802FB614FF4825131
:10D670006B48C7F818A027F09DFD0023624EFB7190
:10D68000F36A9A070AD5684BC7E906A34FF482519B
:10D69000634807F1180227F08DFD41E0F36A002B83
:10D6A00001DA624BF0E7F36A5B0073D5604B07F178
:10D6B0001802C7E906A34FF48251594827F07AFDB2
:10D6C0007369AA6943F480737361BFF34F8FBFF32B
:10D6D0006F8F736932F8022C23F480737361BFF388
:10D6E0004F8FBFF36F8F4DF602739A4208D0B36A23
:10D6F000DBB293B30120F91DFFF786FD04460FE06E
:10D7000088B02B686A464B494548C2E90513032394
:10D710004FF4C25142F8103F27F04CFDCD462C6823
:10D72000FB79B3B92022294607F1080027F0CDFD87
:10D730007B6AB8F1000F61D0C3F3080222B96FEA27
:10D7400053236FEA43237B62204607F10801FFF76A
:10D75000B7FB2837BD46BDE8F087B36A13F47F4FA7
:10D7600004D00120F91DFFF707FEC7E7B36AB3F540
:10D77000803F02D3FFF798FEC0E72F4940F2F22323
:10D78000234A244826F092FD2C4826F08FFD40F2D3
:10D79000F22137E7284940F2F6231D4A1D4826F0BA
:10D7A00085FD274826F082FD40F2F6212AE7002079
:10D7B000F91DA1E70020F91DD5E7224BFB610223EB
:10D7C000BB6163E7204A6E461AF4F87F8AB01F4BAC
:10D7D00018BF13466A461E491148C2E90513A9F14C
:10D7E0001003D3614FF4007313841A4B4FF411519B
:10D7F00042F8103F27F0DEFCB54691E723F4FF73B3
:10D8000023F001039FE700BF00ED00E0E4580400AF
:10D810004F56040002490400F7580400355904002B
:10D820004C2C0400585904006F590400905904000E
:10D830009E590400BD590400807C0400D95904009D
:10D84000FD5904002D5A0400CB580400B6580400BA
:10D85000515A040004000001044B5A6942F01002BE
:10D860005A615A6942F480625A61704700ED00E0E3
:10D87000EFF30880EFF3098101B57246FFF7A0FED0
:10D8800001BD00BF002320210348C2180133452BEE
:10D8900082F80013F9D1704700E100E0002080F326
:10D8A0001488BFF36F8F002080F30A8880F30B8801
:10D8B000FDF78AFD00200E490860BFF34F8F0D4829
:10D8C00080F3088800F03EF8202080F311880A4891
:10D8D0004FF40061401880F30988EFF314800221AF
:10D8E000084380F31488BFF36F8FFFF7B5FB000088
:10D8F00094ED00E09845012058340120BFF34F8F8C
:10D900000549064BCA6802F4E0621343CB60BFF3DB
:10D910004F8F00BFFDE700BF00ED00E00400FA05F7
:10D92000002318460649D1F89020C2F307229342FB
:10D9300000DB7047C1F89830C1F8A0000133F6E76A
:10D9400000ED00E010B572B6002484F31388FFF7F1
:10D95000E7FF23464FF0FF300C4A03F1200101336B
:10D96000102B42F82100F8D100234FF0FF30074A76
:10D9700003F160010133102B42F82100F8D162B6A7
:10D98000BFF34F8FBFF36F8F10BD00BF00E100E00A
:10D99000084B9B6883420BD1EFF3058343B1064BE1
:10D9A0005A6842F080525A605A6A22F400425A621F
:10D9B00025F0ECB834E3002000ED00E01FB5094C81
:10D9C000094A23460121094800F02AF9002303935C
:10D9D000074B0121E41A01A80193029400F044F9D5
:10D9E00004B010BD0000072000800020B02F04000C
:10D9F000B088002010B50C7A0B6804F01F0223F0E9
:10DA00001F031A43CB68640923F01F03054943EA47
:10DA1000440343F00103C1F89800C1F89C20C1F809
:10DA2000A03010BD00ED00E080B500AF88B06A46C0
:10DA3000074BC2E90530032342F8103F00234FF49F
:10DA4000C2510448FEF756F86FF01500BD4680BD80
:10DA5000685A0400342C04002DE9F04F14460646A1
:10DA60004FF0000987B05F4D00AF79607B68994542
:10DA700035DAD6F80480B8F1000F54D0B8F11F0F92
:10DA80001BD918F01F0F18D1D6F800B01BF01F0FCC
:10DA900013D1584627F093FB824608EB0B00013860
:10DAA00027F08DFB82451FD06FF0150A6C4688B0B9
:10DAB0006A464D49C2E9051A05E06C4688B06A46D7
:10DAC0004A4BC2E90539032342F8103F00234FF4C3
:10DAD000C2514748FEF70EF8A5466FF015042046E0
