:020000040000FA
:108000008845012061D800008951030035D800005F
:1080100035D8000035D8000035D8000035D800002C
:10802000000000000000000000000000E9D0000097
:1080300035D800000000000089D0000035D80000CD
:1080400071D1000071D1000071D1000071D1000028
:1080500071D1000071D1000071D1000071D1000018
:1080600071D1000071D1000071D1000071D1000008
:1080700071D1000071D1000071D1000071D10000F8
:1080800071D1000071D1000071D1000071D10000E8
:1080900071D1000071D1000071D1000071D10000D8
:1080A00071D1000071D1000071D1000071D10000C8
:1080B00071D1000071D1000071D1000071D10000B8
:1080C00071D1000071D1000071D1000071D10000A8
:1080D00071D1000071D1000071D1000071D1000098
:1080E00071D1000071D1000071D1000071D1000088
:1080F00071D1000071D1000071D1000071D1000078
:1081000071D1000071D1000071D1000071D1000067
:1081100071D1000071D1000071D1000071D1000057
:1081200071D1000071D1000071D1000071D1000047
:1081300071D1000071D1000071D1000071D1000037
:1081400071D1000071D1000071D1000071D1000027
:1081500071D10000FFFFFFFF81F0004102E000BF8E
:1081600083F0004330B54FEA41044FEA430594EAF7
:10817000050F08BF90EA020F1FBF54EA000C55EA32
:10818000020C7FEA645C7FEA655C00F0E2804FEA03
:108190005454D4EB5555B8BF6D420CDD2C4480EAE5
:1081A000020281EA030382EA000083EA010180EA15
:1081B000020281EA0303362D88BF30BD11F0004F63
:1081C0004FEA01314FF4801C4CEA113102D0404299
:1081D00061EB410113F0004F4FEA03334CEA1333D4
:1081E00002D0524263EB430394EA050F00F0A780EC
:1081F000A4F10104D5F1200E0DDB02FA0EFC22FAE7
:1082000005F2801841F1000103FA0EF2801843FADA
:1082100005F359410EE0A5F120050EF1200E012ACB
:1082200003FA0EFC28BF4CF0020C43FA05F3C01809
:1082300051EBE37101F0004507D54FF0000EDCF182
:10824000000C7EEB00006EEB0101B1F5801F1BD32B
:10825000B1F5001F0CD349085FEA30004FEA3C0C2F
:1082600004F101044FEA445212F5800F80F09A8025
:10827000BCF1004F08BF5FEA500C50F1000041EB29
:10828000045141EA050130BD5FEA4C0C404141EB2D
:108290000101013C28BFB1F5801FE9D291F0000F28
:1082A00004BF01460020B1FA81F308BF2033A3F1D7
:1082B0000B03B3F120020CDA0C3208DD02F1140CCE
:1082C000C2F10C0201FA0CF021FA02F10CE002F109
:1082D0001402D8BFC2F1200C01FA02F120FA0CFC02
:1082E000DCBF41EA0C019040E41AA2BF01EB04514B
:1082F000294330BD6FEA04041F3C1CDA0C340EDC49
:1083000004F11404C4F1200220FA04F001FA02F38B
:1083100040EA030021FA04F345EA030130BDC4F149
:108320000C04C4F1200220FA02F001FA04F340EA3E
:108330000300294630BD21FA04F0294630BD94F0EF
:10834000000F83F4801306BF81F480110134013DD6
:108350004EE77FEA645C18BF7FEA655C29D094EA47
:10836000050F08BF90EA020F05D054EA000C04BFC5
:108370001946104630BD91EA030F1EBF00210020B0
:1083800030BD5FEA545C05D14000494128BF41F04F
:10839000004130BD14F580043CBF01F5801130BDB3
:1083A00001F0004545F0FE4141F470014FF000003E
:1083B00030BD7FEA645C1ABF194610467FEA655CEF
:1083C0001CBF0B46024650EA013406BF52EA033591
:1083D00091EA030F41F4002130BD00BF90F0000F7F
:1083E00004BF0021704730B54FF4806404F13204BB
:1083F0004FF000054FF0000150E700BF90F0000F74
:1084000004BF0021704730B54FF4806404F132049A
:1084100010F0004548BF40424FF000013EE700BF6A
:1084200042004FEAE2014FEA31014FEA02701FBFFA
:1084300012F07F4393F07F4F81F06051704732F02C
:108440007F4208BF704793F07F4F04BF41F4002183
:10845000704730B54FF4607401F0004521F00041E1
:108460001CE700BF50EA010208BF704730B54FF06B
:1084700000050AE050EA010208BF704730B511F06C
:10848000004502D5404261EB41014FF4806404F1A4
:1084900032045FEA915C3FF4D8AE4FF003025FEA2A
:1084A000DC0C18BF03325FEADC0C18BF033202EBAE
:1084B000DC02C2F1200300FA03FC20FA02F001FA08
:1084C00003FE40EA0E0021FA02F11444BDE600BFAB
:1084D00070B54FF0FF0C4CF4E06C1CEA11541DBF5A
:1084E0001CEA135594EA0C0F95EA0C0F00F0DEF825
:1084F0002C4481EA030621EA4C5123EA4C5350EA0A
:10850000013518BF52EA033541F4801143F480135A
:1085100038D0A0FB02CE4FF00005E1FB02E506F0EB
:108520000042E0FB03E54FF00006E1FB03569CF040
:10853000000F18BF4EF0010EA4F1FF04B6F5007F46
:1085400064F5407404D25FEA4E0E6D4146EB0606B8
:1085500042EAC62141EA55514FEAC52040EA5E5041
:108560004FEACE2EB4F1FD0C88BFBCF5E06F1ED8EB
:10857000BEF1004F08BF5FEA500E50F1000041EB22
:10858000045170BD06F0004646EA010140EA0200CF
:1085900081EA0301B4EB5C04C2BFD4EB0C0541EAF1
:1085A000045170BD41F480114FF0000E013C00F306
:1085B000AB8014F1360FDEBF002001F0004170BD2A
:1085C000C4F10004203C35DA0C341BDC04F1140443
:1085D000C4F1200500FA05F320FA04F001FA05F2CF
:1085E00040EA020001F0004221F0004110EBD3709C
:1085F00021FA04F642EB06015EEA430E08BF20EAC8
:10860000D37070BDC4F10C04C4F1200500FA04F36A
:1086100020FA05F001FA04F240EA020001F00041FC
:1086200010EBD37041F100015EEA430E08BF20EA6F
:10863000D37070BDC4F1200500FA05F24EEA020EB7
:1086400020FA04F301FA05F243EA020321FA04F0E6
:1086500001F0004121FA04F220EA020000EBD3709D
:108660005EEA430E08BF20EAD37070BD94F0000F9D
:108670000FD101F00046400041EB010111F4801FD1
:1086800008BF013CF7D041EA060195F0000F18BF82
:10869000704703F00046520043EB030313F4801FBE
:1086A00008BF013DF7D043EA0603704794EA0C0F78
:1086B0000CEA135518BF95EA0C0F0CD050EA41068E
:1086C00018BF52EA4306D1D181EA030101F000410B
:1086D0004FF0000070BD50EA410606BF1046194633
:1086E00052EA430619D094EA0C0F02D150EA01363F
:1086F00013D195EA0C0F05D152EA03361CBF104680
:1087000019460AD181EA030101F0004141F0FE411E
:1087100041F470014FF0000070BD41F0FE4141F4A2
:10872000780170BD70B54FF0FF0C4CF4E06C1CEAA2
:1087300011541DBF1CEA135594EA0C0F95EA0C0F57
:1087400000F0A7F8A4EB050481EA030E52EA033512
:108750004FEA013100F088804FEA03334FF0805533
:1087600045EA131343EA12634FEA022245EA111560
:1087700045EA10654FEA00260EF000419D4208BF11
:10878000964244F1FD0404F5407402D25B084FEABE
:108790003202B61A65EB03055B084FEA32024FF46A
:1087A00080104FF4002CB6EB020E75EB030E22BFC7
:1087B000B61A754640EA0C005B084FEA3202B6EB87
:1087C000020E75EB030E22BFB61A754640EA5C0036
:1087D0005B084FEA3202B6EB020E75EB030E22BFC6
:1087E000B61A754640EA9C005B084FEA3202B6EBC7
:1087F000020E75EB030E22BFB61A754640EADC0086
:1088000055EA060E18D04FEA051545EA16754FEAE7
:1088100006164FEAC30343EA52734FEAC2025FEA05
:108820001C1CC0D111F4801F0BD141EA00014FF094
:1088300000004FF0004CB6E711F4801F04BF014365
:108840000020B4F1FD0C88BFBCF5E06F3FF6AFAE81
:10885000B5EB030C04BFB6EB020C5FEA500C50F111
:10886000000041EB045170BD0EF0004E4EEA113194
:1088700014EB5C04C2BFD4EB0C0541EA045170BD9B
:1088800041F480114FF0000E013C90E645EA060EDF
:108890008DE60CEA135594EA0C0F08BF95EA0C0F0D
:1088A0003FF43BAF94EA0C0F0AD150EA01347FF455
:1088B00034AF95EA0C0F7FF425AF104619462CE72C
:1088C00095EA0C0F06D152EA03353FF4FDAE10468F
:1088D000194622E750EA410618BF52EA43067FF4E0
:1088E000C5AE50EA41047FF40DAF52EA43057FF470
:1088F000EBAE12E74A0011D212F5001211D20DD5DB
:108900006FF47873B3EB62520ED44FEAC12343F095
:10891000004343EA505323FA02F070474FF000003F
:10892000704750EA013002D14FF0FF3070474FF0EE
:108930000000704753B94AB9002908BF00281CBF7E
:108940004FF0FF314FF0FF3000F00CB8ADF1080CE4
:108950006DE904CE00F008F8DDF804E0DDE902235B
:1089600004B07047704700BF2DE9F04786468C463B
:108970000846089E154674461946002B40F0C180F3
:108980008542B2FA82F245D94AB1C2F1200300FA17
:1089900002FC954094402EFA03F343EA0C0C4FEA94
:1089A000154EA8B2230CBCFBFEF80EFB18CC08FB3E
:1089B00000F943EA0C43994528D9EB1808F1FF3731
:1089C00004D2994502D9A8F102072B44A3EB09036D
:1089D000A4B2B3FBFEFC0EFB1C330CFB00F044EA1C
:1089E0000344A04214D92C190CF1FF3304D2A04245
:1089F00002D9ACF102032C44241A43EA07401EB109
:108A0000D440002334607360BDE8F0874746DDE75B
:108A10006346F1E792BB431B01214FEA154EAFB20B
:108A2000200CB3FBFEFC0EFB1C330CFB07F840EAEA
:108A30000343984561D9EB180CF1FF3004D29845F7
:108A400002D9ACF102002B44A3EB0803A4B2B3FBA0
:108A5000FEFC0EFB1C330CFB07F744EA0344A74261
:108A60004DD92C190CF1FF3304D2A74202D9ACF135
:108A700002032C44E41B43EA0040C0E7C2F1200398
:108A80009540944020FA03F12EFA03F34FEA154E75
:108A90009040AFB20343B1FBFEFC0EFB1C10190C5F
:108AA0000CFB07F841EA0041884522D969180CF10E
:108AB000FF3004D2884502D9ACF102002944A1EB71
:108AC00008019BB2B1FBFEFC0EFB1C110CFB07F76F
:108AD00043EA01439F420ED9EB180CF1FF3104D257
:108AE0009F4202D9ACF102012B44DB1B41EA004159
:108AF00093E76046E3E76146F7E76046A4E763462D
:108B0000B8E7834206D916B9002108467CE7C6E9D2
:108B100000E0F9E7B3FA83F78FB9834201D37245D6
:108B200008D8BEEB020460EB030301209C461EB98B
:108B3000002169E73846FAE7C6E9004CF8E7C7F1D3
:108B4000200CBB400EFA07F522FA0CF42EFA0CF1B9
:108B5000BA401C4320FA0CF3B8404FEA14490143D1
:108B60001FFA84FEB3FBF9F809FB18300B0C08FB65
:108B70000EFA43EA00439A4540D9E31808F1FF3062
:108B800004D29A4502D9A8F102002344A3EB0A03B8
:108B900089B2B3FBF9F809FB183308FB0EFE41EA72
:108BA00003418E452CD9611808F1FF3304D28E455C
:108BB00002D9A8F10203214443EA0040A1EB0E01CF
:108BC000A0FB02984145CE46434602D306D14D450F
:108BD00004D20138B9EB020E68EB0403002EA7D0D3
:108BE000B5EB0E0261EB030101FA0CFC22FA07F36C
:108BF000F9404CEA0303C6E9003199E74046C5E76E
:108C00004346D9E7000000002DE9F04F89B0D0E9D4
:108C10000063039383890D4687680593B3683046E4
:108C20005B68039906AA9847002831DBDDE9064B0B
:108C3000A7FB042307FB0B3804924FF0FF3A1AA35B
:108C4000D3E9002341460498FFF774FE049BDFF844
:108C500060909A4579EB080307461CD3A5FB0443B3
:108C600005FB0B3510A3D3E9002329462046FFF767
:108C700061FEA24579EB050503460CD38742B26835
:108C80000CD3059930460091146803993A46A047E1
:108C900009B0BDE8F08F6FF08500F9E76FF01500BF
:108CA000F6E700BFAFF3008000CA9A3B0000000067
:108CB000FFC99A3B0000000038B51D4D1D4C002235
:108CC0002978206800F0C8FB0021012029F006FF68
:108CD00001222978206800F0BFFB0021012029F043
:108CE000FDFE00222978206800F0B6FB002101205B
:108CF00029F0F4FE43F698220F4B104C196891426C
:108D000001D9206838BD1868FFF768FB06A3D3E9CE
:108D10000023FFF7DDFB0022094BFFF7D9FBFFF72C
:108D2000E9FD2060EDE700BF6ABC74931804D63FEC
:108D3000BD03012028D8002018D8002014D8002016
:108D40000000E03F90B587B0044600AF89B16C46A3
:108D500088B06A46114B1248C2E9053103234FF42B
:108D6000C25142F8103F2AF0FBFFA5461C37BD4612
:108D700090BD0C4B4FF486517B61022307F110022A
:108D80003B6107482AF0ECFF204607F077FE064BD0
:108D9000186001202DF041FFE8E700BF22450400E4
:108DA000602B04003545040000D8002098B56C46BF
:108DB00000AF88B06A460C4B0C48C2E9053103236A
:108DC0004FF4C65142F8103F2AF0CAFFA546084C9E
:108DD00001202DF025FF206818B107F077FE002351
:108DE0002360BD4698BD00BF40450400602B0400D1
:108DF00000D8002010B50B4C86B021460A48FFF77A
:108E000003FF21460948FFF7FFFE094B4FF4865147
:108E100005930223074804AA04932AF0A1FF06B091
:108E200010BD00BF60E31600682D0400582D04003B
:108E30005A450400602B04002DE9F04788B08046B5
:108E4000684602F10803DB08A0EBC30302AF9D46AE
:108E500002AE304615462CF02DFA0023E94688B0C4
:108E6000735502AC374BE561C4E905382546042348
:108E700045F8103F2A464FF4035133482AF070FF5B
:108E8000324B2A46C4E905364FF40073A383304BB6
:108E90004FF4E65123612C482AF062FF3378CD4627
:108EA000303BDBB2032B3ED82A4A52F823602A4AD1
:108EB00052F8235031462948FFF7A6FE2946284894
:108EC000FFF7A2FEE84688B002AC4FF47A7AB6FB10
:108ED000FAF64FF00309A6612646224B4FF4C6511D
:108EE000636146F8109F324617482AF039FFB5FBF8
:108EF000FAF51D4B32464FF4C65113486361A56124
:108F0000C4F810902AF02CFFC54600220023174811
:108F1000CDE9002340F6F60200232AF0FDFA1837C7
:108F2000BD46BDE8F087124B40F2DC557B61022361
:108F30004FF4865104483B6107F110022AF010FFFC
:108F40002E46B7E776450400602B040098450400E0
:108F500003000001382D0400282D0400682D0400B2
:108F6000582D0400FA45040012460400F88500203C
:108F7000A14504002DE9F04F4FF0000AD04687B01C
:108F8000534CDFF8509102AF21465348FFF73CFEA7
:108F900000B2002810DA88B002AA504B4FF4C25138
:108FA000C2E9053003234E4842F8103F2AF0D8FEAC
:108FB0001437BD46BDE8F08FFFF77EFE4FF0080B7B
:108FC0000646012349462046464ACDF800B02AF01D
:108FD000DDFE504505465ED00023CDF800B01946B1
:108FE0004FF4FA7230462AF0D1FEFF22824012F08E
:108FF000800F0CBF4FF0300C4FF0310C12F0400FCF
:1090000014BF3121302112F0200F0346F96014BF44
:109010003121302112F0100F14BF4FF0310B4FF0FF
:10902000300B12F0080F14BF4FF0310E4FF0300E1E
:1090300012F0040F14BF3120302012F0020FB9607B
:109040000CBF30213121002B14BF30233123C7F84E
:1090500000D090B05FFA82FA7B6002AA224BC2E98C
:109060000CE0C2E90536FB6891635362BB6846F2C7
:10907000C001C2E90A3B7B68C2E9075CD3630C23E9
:10908000174842F8103F2AF06BFE5146D7F800D03F
:10909000E8B200F0B3FAB8F1000F0BD14C4513D988
:1090A000A4F51C54103C40F21F50002129F016FD7D
:1090B000AA4669E70D4B04F51C5410349C42F2D9C2
:1090C0004FF00008074CEEE74FF00108014CEAE7CB
:1090D00060E3160040420F00482D04002B460400B8
:1090E000602B040080841E005E4604007F841E0006
:1090F000B0B586B06C4600AF88B06A46554B4FF4A9
:10910000E6515361544B554893614FF40073938378
:10911000534B42F8103F2AF023FEA5460DF01AFDEE
:1091200000B268B188B06A464E4B4FF4C251C2E9F2
:1091300005300323494842F8103F2AF011FEA546A6
:109140001A221921484800F0AFF9484D48482860D4
:1091500039F06BF850B9474B4FF482517B610223D1
:109160003E483B6107F110022AF0FAFD00F016FAC2
:109170004FF4805300224049404831F011F813F079
:10918000F1F912F033FE14F0A7F904463C4914F04B
:109190000BFE002209211823204630F084FB2868AA
:1091A00083685B68984719F0C3FE2AF0DCFD3549F7
:1091B000354800F0BBF800B270B16C4688B06A4622
:1091C000324B4FF4C651C2E905300323234842F81D
:1091D000103F2AF0C5FDA5462D4C204639F025F854
:1091E000A8B923686C4688B06A462A491B48C2E978
:1091F00005134FF400739383194B4FF4E25142F877
:10920000103F2AF0ADFDA5461837BD46B0BD20463B
:1092100039F00BF80028E4D01F4B4FF486517B61E6
:1092200002230E483B6107F110022AF099FD00214C
:10923000002901F1010401F00101B8BF49420020F9
:109240000DF0B4FC24B200214FF4004029F046FC9C
:109250002146EDE7A2460400B3460400602B04005B
:1092600003000001CC46040088270400FCD700203E
:1092700060280400EA460400BCE30020E0D7002098
:109280000D47040060810020648100201D47040018
:109290001828040045470400684704002DE9F04100
:1092A000E84600AF88B016461C4605466A460B8A5B
:1092B0000C49D061C2E90513042342F8103F002392
:1092C0004FF40351084802F0F7FB084BC5461B68F2
:1092D0001BB122463146284698472046BD46BDE888
:1092E000F08100BF96470400582C040004D80020E9
:1092F00098B500AF78B16C4688B06A46084BC2E9B1
:109300000530032342F8103F00234FF4C2510548B3
:1093100002F0D2FBA546044827F0ECFCBD4698BD00
:10932000B8470400582C0400BC8600202DE9F04109
:1093300088B0044602AF0D466E464FF00208254B3A
:10934000C7F810807B6100234FF48651224807F153
:10935000100202F0B1FB002C3AD0204607F0F0FDDD
:109360002A681E4B1E481A6006F04AFA044698B155
:1093700088B002AA1B4BC2E90534032342F8103F10
:1093800000234FF4C251144802F096FBB546204624
:109390001837BD46BDE8F0813C46134D4FF0FF3213
:1093A0004FF0FF33114827F0E9FC0FCD0FC42B68B5
:1093B000424623600123384600930D490D4B06F0C9
:1093C0000BFF04460028E2D088B002AA0A4BD2E77D
:1093D0000A4CDCE7CD470400582C040004D80020D8
:1093E000F1920000E4470400A02C0400BC86002099
:1093F000BC2D0400B42D0400FA4704000900AD0B95
:1094000038B50F4C0F4D23782BB9012323702DF065
:1094100023FB286038BD2DF01FFB00220A4B18608B
:1094200022701B682A689B1A084A13601368084A4E
:10943000A3FB0232DB0B43EA4243064A1360E9E72F
:10944000BC03012024D8002020D800201CD80020F4
:1094500040420F0018D80020012310B503FA01F193
:1094600043681B6819420ED10B4940F2FE430B4A78
:109470000B482AF010FF0B482AF00DFF40F2FE4186
:1094800006482AF001FF22B18368DB68BDE810407E
:10949000184783681B69F9E76A48040039480400E3
:1094A000A8480400C54804002DE9F0411546334A98
:1094B00004461060324A11700127426807FA01F32E
:1094C0001268D0F808C0134206690ED12D494FF436
:1094D00037732D4A2D482AF0DEFE2D482AF0DBFE98
:1094E0004FF4377128482AF0CFFE326822EA03028F
:1094F0003260DCF800304FF400329847636807FAB6
:1095000005F61B68A1681E422269DFD01368204659
:1095100023EA060313600B684FF48032294698470C
:10952000D4E90123126816420CD1164940F27E2379
:10953000154A16482AF0AFFE15482AF0ACFE40F254
:109540007E21CFE7D3F818804FF0A0724FF0C063B0
:1095500029462046C04770B90E4B0F49C1E9013674
:10956000A368DB691BB13A462046984708B140F230
:109570009B20BDE8F08140F29A20FAE728D800202D
:10958000BD0301206A48040039480400A8480400CB
:10959000C54804000194000008D800207FB5114898
:1095A000114B186038F041FE034648B90F4A059246
:1095B000022204924FF482510D4804AA02F07CFA70
:1095C0000C4838F032FE034648B90B4A0592022295
:1095D00004924FF48251064804AA02F06DFA07B0D3
:1095E0005DF804FB482804002CD80020D74804006C
:1095F000682B040088270400F548040090B587B064
:1096000000AF3B1DBB600223FB6007F108033B6119
:1096100001237B610F4B38717971186883680E499B
:109620001C6807F110020023A04700B278B16C4615
:1096300088B06A46094BC2E90530032342F8103F5F
:1096400000234FF4C251064802F036FAA5461C37F3
:10965000BD4690BD2CD80020CC2D04001F4904002D
:10966000682B04002DE9F04F95B000AF0446C7E920
:109670000812D7F878B0BB6158B9AA494FF465739E
:10968000A94AAA482AF007FE4FF46571A6482AF0B5
:10969000FBFDCBF3C0033B613B6A53B903784678CB
:1096A00080783D6A00EB83002044AE421AD8031B49
:1096B0003B6294F80290E3784E467B61B9F1000F6B
:1096C00002D01BF0010F16D17B6953BB7B6A1BB123
:1096D0002046BA69396A98473D6A28465437BD46DC
:1096E000BDE8F08F00F1010840462BF0A4FD0130E9
:1096F00040440135D9E7636894F800A0FB617B6AB8
:109700004FEA8A02FA6004EB8A0A002B40F00581D6
:10971000D04600263D6A09EB0A0398454ED1CA445B
:1097200013E01BF0020FD1D094F800A04FEA8A0397
:10973000FB60636804EB8A0AFB617B6A002B78D1CB
:109740003D6AB9F1000F4ED14E461BF0050F0CBF1C
:10975000022301237B627B690AEB43090BF00203BE
:109760003B62CA45B9D01AF8021B1AF8013C54F8FA
:1097700023806F4B984502D36E4B984539D33B6994
:10978000002B43D0F8692AF044FB00283ED0E8467D
:109790008AB06A46684B5361FB69C2E906314FF4EF
:1097A00000731384654B42F8103F00234FF41251AD
:1097B000634802F081F9023DC546D2E718F8012B53
:1097C0007B6254F822002BF036FDFA6F7B6A013081
:1097D0003AB1D7F8802096423EBFFA6F22F81600C1
:1097E0000136054499E71BF004061CBF7E6ACA4493
:1097F000ABE73B6923B1F8692AF00BFB0028C6D11F
:109800001BF0010F05D17B6AED1AAAE73B6A002B1A
:10981000A7D040462BF00FFDFB6F43B1D7F8803047
:109820009E423FBFFA6F431C22F8163001360544B2
:1098300097E7B9F1000F00F085801BF0040600F0F7
:109840008480C846002607F140004A4651462BF066
:1098500031FD7B69CA445B00BB607B690AEB430353
:109860007B610BF002037B607B699A456FD12378A3
:109870001BF0020F7B61637818BF002106EB030227
:1098800008BF4FEA58011BF0010FD2B240F0E2804E
:109890001BF0040F14BF404600203B61A37894F8EE
:1098A00003B0FB616270A070E1702046BA69F9688C
:1098B0007B6A9847051EFFF610AF7B69414623700F
:1098C0003B69BA696370FB6984F803B0A37007F160
:1098D00040007B6A9847B0F10008C0F2E8803B6A1C
:1098E0005046A3EB0901FB68BA69C91ABB68C91ADB
:1098F0007B6A98470028C0F2DC804FF0000BA84438
:1099000008EB000507F1300AB345C0F2A58000213D
:10991000BA6908467B6A9847DFE64FF0000807F10E
:10992000300092E7D949040044490400A8480400E3
:10993000782604007CE30400F449040004000001DC
:10994000C82B04004E46C84683E7B04681E71AF8A4
:10995000021B594B1AF8015C54F825209A4202D395
:10996000564B9A4216D33B692BB1F8692AF051FA4B
:1099700000287FF479AF7B68002B4AD00F2E3ED9A8
:109980004F494FF489634F4A4F482AF084FC4FF403
:1099900089617BE63B692BB1F8692AF03AFA002825
:1099A0007FF462AF1BF0010F0BD00F2E27D9444973
:1099B00040F23E43434A44482AF06DFC40F23E41A7
:1099C00064E61BF0040F3FF44FAFB8F10F0F09D955
:1099D0003E4940F241433B4A3B482AF05CFC40F29E
:1099E000414153E608F1280307F1280108F101027B
:1099F00003EB010808F8105C5FFA82F834E706F11F
:109A0000280307F12801721C5E1806F8205CD6B204
:109A10002AE7B8F10F0F09D92C4940F24B43294AE4
:109A200029482AF038FC40F24B412FE608F1280380
:109A300007F1280008F10102181807F1500308F196
:109A4000020853FA82F200F8101C5FFA88F802F854
:109A5000105C09E7002020E71BF80A3054F8239037
:109A600087F82F30FB6FFBB133F81B800121BA69F7
:109A70007B6A07F12F00984700281ADB0544B8F1EC
:109A8000000F06D148462BF0D6FB00F101081FFA63
:109A900088F841464846BA697B6A9847002808DB3F
:109AA00005440BF1010B2FE7D7F87C80DEE7454634
:109AB00013E6054611E600BF782604007CE30400A7
:109AC000974A040044490400A8480400B64A040028
:109AD000014B1B68184700BF80810020014B1860B4
:109AE000704700BF8081002007B50B460021024669
:109AF0000091034800F0E8FC03B05DF804FB00BFF0
:109B0000D19A000030B5002587B0CDE903010446A5
:109B1000009503A90548059500F0D6FCDDE9043061
:109B20009842B8BF255407B030BD00BF613E030066
:109B300070B50C46002934D002680B1F9B1AD90857
:109B400023F0070313445D88E8070DD4AF23154ABB
:109B5000154916482AF09FFB214615482AF09BFB21
:109B6000AF2110482AF090FB10462AF0B0F90844C3
:109B700032F83060801B81420BD0B723094A0D496F
:109B80000A482AF088FB21460B482AF084FBB721BB
:109B9000E7E725F001055D801046BDE870402AF03A
:109BA00053BA70BDE74A0400084B0400A8480400FB
:109BB000194B0400514B0400774B04002DE9F84386
:109BC0004B1E0B400F461446066810D0C1F1000929
:109BD00009EA01094A46591E042A28BF04221942EB
:109BE0000CD11F46E4B900252846BDE8F8830429B6
:109BF00013D8BDE8F84311462AF057BA2C494FF460
:109C0000A2732C4A2C482AF046FB2C482AF043FB2E
:109C10004FF4A27127482AF037FB99460422E1E766
:109C2000B368B3EBD40FDED904F10B013944891AC0
:109C30003046C9082AF0A1F980460028D3D009F19E
:109C4000040505EBC0057B1E35441D447F423D40A5
:109C5000A5EB09052C442B1F07349B1B24F007049C
:109C6000A41BB0EBD30F4FEAD3074FEAE40408D2AA
:109C700001463A4630462AF0CDF9414630462AF0B0
:109C80002BF9394630462AF022F93844844207D26B
:109C9000304622462AF0BEF9214630462AF01CF909
:109CA00006EBC706738843F0010373809CE700BF8F
:109CB000B34B0400E74A0400A8480400CE4B04005C
:109CC0002DE9F74F914698460E460468009031B949
:109CD0004246494603B0BDE8F04FFFF76FBFB8F109
:109CE000000F06D1FFF724FF0027384603B0BDE878
:109CF000F08F02F1FF3B1BEA020F0ED0444940F205
:109D00008913444A44482AF0C6FA44482AF0C3FA60
:109D100040F289113F482AF0B7FAA368B3EBD80F95
:109D2000E2D90D1F2D1BED08294620462AF0CFF859
:109D3000EF003A1D2244B21A0192019908F10B0278
:109D40000A4403464FEAD20AB9F1000F02D016EADC
:109D50000B0F40D19A450FD010D22946204605EB73
:109D60000A0227442AF056F97B88114643F0010382
:109D700020467B802AF068F93746B6E705EB030BEF
:109D800004EBCB014988CA0725D4594620462AF05E
:109D90009EF8184450451ED32046AAEB03082AF02B
:109DA000DFF8594620462AF092F8404508D9204667
:109DB00005EB0A022AF02EF9114620462AF08CF80B
:109DC00027445A46294620462AF00EF97B8843F05C
:109DD00001037B80D0E7424649460098FFF7EEFE3C
:109DE0000746002880D0294620462AF070F8019BBB
:109DF0003146C3EBC002043A424528BF42463846CA
:109E00002BF058FA31460098FFF792FE6DE700BF3D
:109E1000B34B0400E74A0400A8480400CE4B0400FA
:109E2000B2F5802FF8B504460ED33A4940F2EB1351
:109E3000394A3A482AF02FFA39482AF02CFA40F2E7
:109E4000EB1135482AF020FA042A0CD835494FF492
:109E5000F973314A31482AF01EFA33482AF01BFAC6
:109E60004FF4F971EDE7043AC81D0A4420F00700E9
:109E700022F00702121A172A4FEAD2030CD82B49F4
:109E800040F2FB13244A25482AF005FA26482AF016
:109E900002FA40F2FB11D4E7B3FA83F12060002408
:109EA000C1F12006C1F1240189000731C9084D1C08
:109EB0009D428360C4600CD91D494FF40373164A58
:109EC00016482AF0E8F918482AF0E5F94FF403712A
:109ED000B7E700F10C0505EB860645F8044FB542DF
:109EE000FBD14D0045F0010545805D1A00EBC10630
:109EF0006F0004807780861820F8311000EBC303D0
:109F0000748085525A8842F001025A80BDE8F840B8
:109F100029F0E2BFEB4B0400E74A0400A848040024
:109F2000014C0400184C0400394C0400524C04004D
:109F30007B4C04002DE9F84F0446A38B0846190713
:109F4000154612D4022803F0070164D120462AF0F6
:109F5000D5F888B10138042800F23481DFE810F028
:109F60005B0032018100D100010101280CBF43F0E8
:109F7000100143F02001A1831434204626F0B2FBE7
:109F8000002840F09B819849C223984A98482AF0BB
:109F900082F92146B0E003F00702501F01281ED8C5
:109FA0000020062A2768C4E9000014D13A4603E0DD
:109FB000E08B0130E0831268002AF9D123F0070317
:109FC00043F002022046A2832AF098F890B342F0B0
:109FD0002002A2832EE023F007039AB2F2E7042ABC
:109FE00033D123F007039AB22046A2832AF086F8E1
:109FF00010B142F02002A283A38B03F00709894528
:10A0000040F0EA80A18BCA0640F14F8121F0100395
:10A01000A38301F00701D4F81880A38BB8F1000FD7
:10A02000B9DA0022276823F00703C4E9002243F0CD
:10A030000103A383A38B03F00709894540F0CD807A
:10A04000002FDFD00026B24644E06A4940F21B13DD
:10A05000694A67482AF01FF940F21B1166482AF046
:10A0600013F949B165494FF4AB73634A60482AF06C
:10A0700012F94FF4AB71F1E723684BB9604940F234
:10A0800057135D4A5A482AF006F940F25711E5E79E
:10A0900023691E684EB95B494FF4AD73564A544864
:10A0A0002AF0F9F84FF4AD71D8E70F4688464FF023
:10A0B0000609A38B23F0070343F006039BB2A38397
:10A0C000A268002A40F08B80002F40F08B80002E89
:10A0D00098D0BA4643F0080304F1140B5846A38302
:10A0E00026F000FB002840F097803F49C2233F4AFA
:10A0F0003F482AF0D0F8594643482AF0CCF8C2210C
:10A10000AEE0022909D0414940F25D133A4A38488D
:10A110002AF0C1F840F25D11A0E7E78B4FB13C494E
:10A120004FF4AF73344A32482AF0B5F84FF4AF71A8
:10A1300094E723695E684EB9324940F261132E4AB2
:10A140002B482AF0A8F840F2611187E7A38BB846A4
:10A1500023F0070343F004039BB24FF00409A383E9
:10A16000AEE7012909D02B494FF4B273224A2048A7
:10A170002AF091F84FF4B27170E723684BB9204987
:10A1800040F265131C4A1A482AF085F840F265111E
:10A1900064E723699E684EB91A494FF4B473164AAE
:10A1A00013482AF078F84FF4B47157E70027A38BCF
:10A1B000B84623F0070343F005039BB24FF00509AF
:10A1C000A3837DE70B4940F26B130B4A08482AF042
:10A1D00062F840F26B1141E70027002670E74FF06C
:10A1E000010A77E7924675E7764D0400494D040071
:10A1F000A8480400937C0400A64C0400C84C04004A
:10A20000D44C0400F74C04008D4D04000E4D0400A6
:10A21000244D0400334D040085F31188BFF36F8F84
:10A22000BAF1000F1ED1002F2FD116B120462649BA
:10A23000B0474FF02003EFF3118583F31288BFF38B
:10A240006F8F584626F040FA38BB94231F4A2049A6
:10A2500020482AF020F859461F482AF01CF894217B
:10A260001A48FCE6A1680029DDD00D680029DAD083
:10A2700043464A462046D1F804A0D0471DB12B687A
:10A2800029461D46F2E72B46FAE7394643464A4639
:10A2900020463F6829F05EFFC5E7584626F030FAB1
:10A2A000A38B23F00803A383ACE68B067FF564AE93
:10A2B00021F02003A38301F0070147E685F311880D
:10A2C000BFF36F8FBDE8F88FDDA20000494D040099
:10A2D000A24D0400A8480400B74D0400F8B5044698
:10A2E0000D4600F114064FF02003EFF3118783F3BE
:10A2F0001288BFF36F8F304626F0E6F968B99423D1
:10A300000B4A0C490C4829F0C6FF31460B4829F08E
:10A31000C2FF9421064829F0B7FF304626F0F0F935
:10A32000A5613A462046BDE8F8400121FFF702BE8C
:10A33000494D0400A24D0400A8480400B74D040094
:10A340002DE9F04704460F4629F0F4FE051E67DBB1
:10A3500004F114094FF02003EFF3118A83F31288FC
:10A36000BFF36F8F484626F0AFF9804660B994235B
:10A37000374A3849384829F08EFF4946374829F08E
:10A380008AFF9421324840E0484626F0B9F94FF65A
:10A39000FF72E38BA68B934206F0070643D0022E92
:10A3A00013D135460133E383484626F09BF9002854
:10A3B0003FD1C223264A2A49274829F06CFF494643
:10A3C000284829F068FFC221DCE7062E13D8DFE811
:10A3D00006F0092D1212090409006FF085054FF0EF
:10A3E0000008E1E700233B60636883B9C4E90077B4
:10A3F00086B13546F3E71C4917484FF4E4731B4A0E
:10A4000029F049FF4FF4E471184829F03DFF1F601F
:10A410006760EDE7524602212046FFF78BFD354687
:10A420002846BDE8F0876FF00A05D8E76FF004050D
:10A43000D5E78AF31188BFF36F8FB8F1000FEFD023
:10A44000002332463946204629F084FEE8E700BF63
:10A45000494D0400A24D0400A8480400B74D040073
:10A46000764D04008D4D0400334D0400A64C0400CD
:10A4700008B54268034602F00302022A81600AD04E
:10A48000032A4FF0000103D0012A0AD1596006E0E7
:10A490001868596008BD186800225A6058B9002031
:10A4A000F8E7064906484523064A29F0F4FE452107
:10A4B000044829F0E9FE29F06BFBF0E7937C0400E7
:10A4C000A8480400CF4D04002DE9F04F81468B468B
:10A4D00017461C46002595B0387808B9284657E33A
:10A4E0007B1C2528039306D05946C8470028C0F294
:10A4F0004F830135FBE1182200210EA82AF0E5FE6A
:10A500007B78252B7DD0002398469E469C461E4690
:10A51000781C014610F8012B2B2A00F0A18000F2D4
:10A520009880202A00F09F80232A00F09F802BB182
:10A530009DF8403043F040038DF84030B8F1000FF3
:10A5400005D09DF8403043F020038DF84030BEF137
:10A55000000F05D09DF8403043F010038DF84030D7
:10A56000BCF1000F05D09DF8403043F008038DF892
:10A5700040302EB19DF8403043F004038DF8403058
:10A580009DF8403003F04400442803D16FF3861354
:10A590008DF840309DF840302A2A43F080038DF832
:10A5A00040307FD19DF841204B1C42F001028DF8D4
:10A5B00041201A782E2A0CBF012100219DF841204C
:10A5C00061F341028DF8412078D15A782A2A6ED061
:10A5D00000224FF00A0C0133194611F8010BA0F1CB
:10A5E0003006092E40F295809DF840101292C1F37A
:10A5F000400040EAD2700A4660F341028DF84020E4
:10A600005CE0BA1C03928DF843309DF84130DA07C4
:10A6100040F12E8154F8048BB8F1000F07DA9DF851
:10A620004020C8F1000842F004028DF840205E0787
:10A6300040F1278154F804ABBAF1000F80F2268173
:10A640009DF841306FF341038DF841304FF0FF3AF0
:10A650001CE12D2A0DD0302A7FF469AF012358E781
:10A660004FF0010C55E74FF0010E52E74FF0010893
:10A670004FE701264DE703460EFB0262303A1846CB
:10A6800010F8016BA6F1300CBCF1090FF3D9994217
:10A690008FD09DF840101192D20F62F341018DF8D6
:10A6A000401086E70B4600224FF00A0EE7E79DF8C0
:10A6B0004120023342F004028DF841201A786C2ABE
:10A6C00047D02BD8682A31D06A2A4BD04C2A51D097
:10A6D0001A4612F8013B782B03928DF843309DF80F
:10A6E000412000F2BE806D2B51D8692B00F2B98059
:10A6F000572B67D8412B03D0453B022B00F2B1808A
:10A7000004229DF8423062F302038DF842300123A7
:10A7100073E00CFB02020B46303A5DE7742A25D049
:10A720007A2AD5D106219DF841200CE05A78682A72
:10A730009DF8412006D1012161F3C6028DF8412028
:10A740000233C5E7022161F3C6028DF841200133CF
:10A75000BEE75A786C2A9DF8412001D10421EBE72D
:10A760000321F0E705219DF84120ECE707219DF842
:10A770004120E8E7BDF8402022F4F04222F0020236
:10A7800042F4804242F00202ADF84020DFE76E3B27
:10A79000D9B201238B4040F282410B4237D113F0F2
:10A7A000240F51D1D8075CD503219DF8423061F3C5
:10A7B00002038DF8423002F07803A3F140014B42CE
:10A7C0004B411AE00120A3F15801C9B200FA01F18E
:10A7D00011F4624F94D140F6010631421DD111F4BB
:10A7E000043F3ED09DF8423060F3020302F078024D
:10A7F000402A8DF8423034D000239DF84020C2F327
:10A8000040010B4363F341028DF84020FDE6022135
:10A810009DF8423061F30203E8E702209DF8421000
:10A8200002F0780260F30201402A8DF8421002BF64
:10A830009DF8401041F001018DF84010632BDBD1F1
:10A84000131E18BF0123D8E703219DF8423012F0F0
:10A85000780F61F302038DF8423014BF0123002307
:10A86000CBE79DF8403043F001038DF84030C3E75B
:10A870009DF94020002AACBF4FF0FF38DDF844803E
:10A88000D5E698077FF5E2AEDDF848A00023CDE9D4
:10A8900011339DF842309DF8411003F00703012B5E
:10A8A000C1F3C30133D1CB1E042B04D8DFE803F07E
:10A8B000214646212100236801294FEAE372CDE9B0
:10A8C0000E321CD19DF93830DA17CDE90E3204343E
:10A8D0009DF8403013F0030650D03A46594648469A
:10A8E000039B29F0BAFC0028C0F252810544039F63
:10A8F000F2E554F8043BDA17CDE90E32E8E7022915
:10A90000E5D11AB243F3C033CDE90E23DFE7022BC2
:10A9100024D1CB1E042B04D8DFE803F01810101844
:10A92000180001294FF0000254F8043B14D002290A
:10A93000CDE90E32CCD19BB20E93C9E7073424F097
:10A940000704F4E80223CDE90E23C1E754F8043BE1
:10A950000E9300230F93BBE7DBB2CDE7042B08D1A6
:10A96000073424F00704D4E900230834CDE90E238A
:10A97000AEE7032BACD154F8043BDDE79DF8430070
:10A980007828B4D862281CD825283FF4ADAD5828C3
:10A99000ADD1DDE90E010DF13603009310AA08AB2D
:10A9A00029F015FCBAF1000F074680F29980002FBC
:10A9B0009DD00DF13603D81B002E00F0C080013071
:10A9C000BDE06338152892D801A252F820F000BFEC
:10A9D000A5AA0000B7AA0000EFA80000EFA8000099
:10A9E000EFA80000EFA80000B7AA0000EFA8000041
:10A9F000EFA80000EFA80000EFA8000043AB0000A4
:10AA0000DBAA000001AB0000EFA80000EFA80000E7
:10AA100029AA0000EFA80000DBAA0000EFA80000B0
:10AA2000EFA80000DBAA0000BAF1000F0E9F35DB93
:10AA3000514638462AF006FC07EB000A002F3FF487
:10AA400056AF00269DF8423013F01002059200F038
:10AA5000928002305B06119A48BF129B104448BF97
:10AA6000C018B8F1000F049240F39F809DF8402079
:10AA7000A8EB0008C2F380035007069300F195800D
:10AA8000510640F188803EB159463046C8470028FB
:10AA90007EDB069B01351E4630227DE038462AF0DB
:10AAA000CAFBC9E70E9B002601208DF8203008AFB5
:10AAB0000DF1210AC6E719075ABFC3F300135E015F
:10AAC0002B26DDE90E23002BBFF663AF524263EB6A
:10AAD00043032D26CDE90E235BE7002659E7002628
:10AAE0009DF840200DF13603DB1B6FF386129A456B
:10AAF0008DF840207FF65BAFAAEB0303119356E776
:10AB00000E9890B30DF136030093002108AB10AA04
:10AB100029F05DFBBDF84230BAF1000F03F0EF03FE
:10AB200043F4F04343F010030746ADF84230D6DA61
:10AB300000283FF4DCAE00260DF13603181A9A46C1
:10AB400080E70E9B07293FF6D2AEDFE801F00C0448
:10AB5000060C08080C0C1D70C9E61D80C7E6EA1734
:10AB6000C3E90052C3E61D60C1E62F4F064607F158
:10AB7000050A052066E71A0748BF01306AE7104654
:10AB8000079306925946C847DDE90623002804DAF0
:10AB900015B0BDE8F08F202243461946002903F185
:10ABA000FF33ECDC454498466D1A2EB159463046C9
:10ABB000C8470028ECDB01359DF84230DA0601D4A5
:10ABC0001B0705D559463020C8470028E0DB013572
:10ABD000059B33B159469DF84300C8470028D7DB91
:10ABE0000135049E2E4405E059463020C847002810
:10ABF000CEDB0135731B002BF6DC53463A46594633
:10AC0000484629F02AFB0028C2DB0544A844A8EBEB
:10AC10000503002B7FF76BAE59462020C84700285C
:10AC2000B6DB0135F3E700BFF24D040038B50D4641
:10AC30000446202200212AF048FB0022EB68E36151
:10AC4000AB68A3612B6823626B68A26263622A69A6
:10AC500023B1591E194208BF42F0010222610122AC
:10AC6000002104F12C0037F05EFB48B1054906488D
:10AC70002E23064A29F00FFB2E21044829F004FB5D
:10AC800038BD00BF1E4E0400A8480400F84D040063
:10AC90002DE9F04F87B0CDE90123436A0446013B1B
:10ACA0008B420F46C0F0A0800026B24600F114058A
:10ACB0004FF02003EFF3118B83F31288BFF36F8FF4
:10ACC0002846D94625F000FD58B99423494A4A49F7
:10ACD0004A4829F0E0FA2946494829F0DCFA94214B
:10ACE00050E0284625F00CFD05A9204629F0E0FAA1
:10ACF00005998046B94228D32268236A204613F872
:10AD0000221003EB820A21F0030103F822102168CC
:10AD10003A4629F0EFFA4FF000082060284625F067
:10AD2000E1FC20B389F31188BFF36F8FB8F1000FF6
:10AD30005CD046B19DF81330002BB9D0A36913B194
:10AD40003146204698470026B2E718B1204629F040
:10AD5000DFFAE3E7DDE90132134336D0039137F040
:10AD600091FA039988BB284625F0BCFC68B9C22338
:10AD7000204A2449214829F08EFA2946224829F000
:10AD80008AFAC2211B4829F07FFA8BF31188BFF39E
:10AD90006F8F04F12C00DDE9012325F0EFFF8046E1
:10ADA0004FF02003EFF3118983F31288BFF36F8F05
:10ADB000284625F089FC002887D0B8FA88F828466C
:10ADC00025F09EFC4FEA5818A8E7226920460DF1AD
:10ADD0001303C2F3400229F0BEFAB0F100080646A0
:10ADE00018BF4FF0010899E74FF0000A504607B02E
:10ADF000BDE8F08F494D0400A24D0400A8480400AE
:10AE0000B74D0400764D04008D4D04002DE9F0414E
:10AE10000446C36908460E46984704F114050746E0
:10AE20004FF02003EFF3118883F31288BFF36F8F85
:10AE3000284625F049FC68B99423194A19491A484B
:10AE400029F029FA2946194829F025FA94211448AD
:10AE500029F01AFA284625F053FC33783A4643F095
:10AE6000010333706168204629F044FA606020468F
:10AE700029F064FA284625F035FC58B9C223084A5F
:10AE80000B49094829F007FA29460A4829F003FA2C
:10AE9000C221DCE788F31188BFF36F8FBDE8F08132
:10AEA000494D0400A24D0400A8480400B74D040019
:10AEB000764D04008D4D04002DE9F843044600F161
:10AEC00014074FF02003EFF3118883F31288BFF3C8
:10AED0006F8F384625F0F8FB054668B99423334A4E
:10AEE0003349344829F0D7F93946334829F0D3F9A2
:10AEF00094212E4829F0C8F9384625F001FCD4E900
:10AF000001329A4288BF636A9B1A002B3FD0216AA4
:10AF100011F8223001EB820913F003003AD0022825
:10AF200003D151F82260B60805D1D8071FD448468E
:10AF3000E36998470646A1683246204629F0DAF9C7
:10AF4000E168A0603246204629F0D4F9E060384636
:10AF500025F0C8FB00BBC223144A1849154829F044
:10AF60009AF93946164829F096F9C221C1E743F00B
:10AF7000020301F82230E3694846A568984729464C
:10AF80000246204629F0B6F90025A060DFE71D46FD
:10AF9000A946DCE70546FBE788F31188BFF36F8F0E
:10AFA000002D8ED14846BDE8F88300BF494D04000E
:10AFB000A24D0400A8480400B74D0400764D0400DB
:10AFC0008D4D04002DE9F0410446C36908460D4645
:10AFD000984704F1140607464FF02003EFF3118859
:10AFE00083F31288BFF36F8F304625F06DFB68B98D
:10AFF0009423234A2349244829F04DF93146234814
:10B0000029F049F994211E4829F03EF9304625F0EF
:10B0100077FB2B786FF300032B7023699B0705D513
:10B02000E268236A03EB82039D4219D12B783A46EA
:10B030006FF341032B70E168204629F05BF9E06073
:10B04000304625F04FFB80B9C2230D4A10490E4807
:10B0500029F021F931460F4829F01DF9C221D2E724
:10B060002B6867F39F032B60EAE788F31188BFF32F
:10B070006F8F04F12C00BDE8F04125F03BBE00BF0E
:10B08000494D0400A24D0400A8480400B74D040037
:10B09000764D04008D4D040048B1054B054A1B68F0
:10B0A000B3FBF2F35843044B43F0010318477047D6
:10B0B000A483002040420F00202D04000F2A70B509
:10B0C00005461E4608460BD91D491E4840F2E713A7
:10B0D0001D4A29F0E0F840F2E7111B4829F0D4F8A6
:10B0E00094000BF085F804F5C072AEB150B9174961
:10B0F00040F24E23164A134829F0CDF840F24E2173
:10B100001348EBE702F1804245F0004502F5283292
:10B11000C0F88050156070BD48B90C4940F26323F7
:10B120000B4A084829F0B7F840F26321E8E702F13A
:10B13000804202F52832C0F880601660EBE700BF5D
:10B140005D4E0400A84804002B4E0400A04E0400ED
:10B15000684E0400F0B583B000AF381D0CF052F813
:10B16000244B984243D10BF02BFA041E13DA3879A2
:10B170000CF04EF86D4688B06A461F4BC2E90534A4
:10B18000032342F8103F00234FF4C2511B4800F044
:10B1900093FCAD4627E040F60703194D7C71AE687D
:10B1A000FB8074687B6814B96FF05704E2E70821EC
:10B1B0002846144AA047041EDCDB3369002BF3D079
:10B1C0000122082128469847041ED3DB0123387941
:10B1D0000D4A03FA00F1C2F80415FA797979FFF7FC
:10B1E0006DFF002CC6D120460C37BD46F0BD6FF078
:10B1F0001204BFE70000AD0BA44E0400782C04003D
:10B2000030280400BDB200000070014070B5049EFB
:10B21000C6F30744F5B2C6F3072630460AF0CEFF60
:10B220000F2C0BD91B491C4840F2E1131B4A29F093
:10B2300032F840F2E111194829F026F8A400E4B2EE
:10B2400050B9174914484FF41773164A29F023F8D8
:10B250004FF417711348EFE70022134BC0F880201A
:10B260001A510123114AAB40C2F8083530460BF0A1
:10B27000C5F928460BF0CCFF0D4B984208D00D497C
:10B28000054874230C4A29F006F874210A48D3E7CC
:10B2900070BD00BF5D4E0400A84804002B4E0400A2
:10B2A000CC4E0400684E040080A0024000700140B3
:10B2B0000000AD0B074F0400D04E04002DE9F7430A
:10B2C000144683681B694BB927492848CA23284A72
:10B2D00028F0E1FFCA21264828F0D6FF002298472F
:10B2E00006460028F0D1C4F3072948460AF09AFF21
:10B2F0005FFA84F833464946220E07464046FFF778
:10B30000DDFEC4F3074548460AF058FF0F2D0AD961
:10B310001849164840F2E113174A28F0BCFF40F2E2
:10B32000E1111548D8E7154AAD00EDB248F00043E9
:10B33000535150B912490D484FF41273114A28F075
:10B34000AAFF4FF412710F48C6E7C0F880300E4BC9
:10B3500007F13202009348463346019452000BF045
:10B360003FF803B0BDE8F0831E4E0400A848040077
:10B37000D04E04005D4E04002B4E040080A002401D
:10B38000CC4E0400684E04000DB200002BF096BCB9
:10B3900013B501AA2BF079FC044668B116230E4AB6
:10B3A0000E490F4828F077FF21460E4828F073FF1A
:10B3B0001621094828F068FF019B5BB11723064A54
:10B3C0000949074828F067FF0199084828F063FFFA
:10B3D0001721EEE702B010BD244F04005E4F0400B9
:10B3E000A84804007E4F0400984F0400A44F0400B6
:10B3F00030B5002289B00F490F4837F065F80022B8
:10B4000000230024CDE906230E230C4DCDE903349F
:10B410004FF400622846CDE90144094B09490094E4
:10B4200025F088F80849284636F032FF204609B052
:10B4300030BD00BF91B50000C08D002030890020D4
:10B4400061B8000088190120BE4F04002DE9F047C3
:10B45000044607464FF00109DFF8508014B938461A
:10B46000BDE8F08794FAA4F5B5FA85F509FA05F375
:10B470002E0108EB05156FEA030A24EA03042B7B6F
:10B48000002BEBD058F806301B694BB94644736863
:10B4900004222846196807EA0A0700F0E7FADDE700
:10B4A000284698470028D9D1F0E700BF882C04002F
:10B4B0002DE9F047DFF8B8902E4C8046A9EB040345
:10B4C0009F2B0F460BD92C4940F215132B4A2C48C1
:10B4D00028F0E1FE40F21511284828F0D5FE294851
:10B4E00028F0F0FF064660B300252846BDE8F08747
:10B4F000237B73B12368DB680BB120469847236830
:10B500001B69B3B9636804222046196800F0AEFADB
:10B51000013610344C4518D91B494FF49173174A22
:10B52000174828F0B8FE194828F0B5FE4FF491717D
:10B53000D2E7204698470028E4D00AFA06F31D43D4
:10B54000E6E705464FF0010AE4E7D1D3B8F1000F72
:10B55000CBD0002DC8D02846FFF778FF0546002F36
:10B56000F7D000214FF4A47027F0B8FAF1E700BF3C
:10B57000982C0400882C0400F34F0400C64F0400EC
:10B58000A848040044D80020175004003850040094
:10B59000014825F0AFBB00BFEC860020014B53F8FB
:10B5A00020007047F82D040008B5034608462BB16B
:10B5B000044A136000F0FCFC002008BD6FF0150089
:10B5C000FBE700BF8481002010B5044C237813B939
:10B5D000034825F08FFB0123237010BDBE0301201B
:10B5E000EC86002010B50446064828F06BFF3CB1FD
:10B5F000054BD3E8EF1F0139C3E8E21F002AF8D159
:10B6000010BD00BF3CD8002040D8002000200146DB
:10B61000034BD3E8EF0FC3E8E21F002AF9D17047CC
:10B620003CD8002070B5FFF7F1FF05460F4C104ED7
:10B63000B44219D90F4940F2CD130F4A0F4828F0F0
:10B640002AFE0F4828F027FE40F2CD110A4828F0C4
:10B650001BFE63685B792BB123685B6813B12946D5
:10B66000204698471034E3E7F3D370BD882C0400DC
:10B67000982C040017500400C64F0400A84804008A
:10B680003850040010B5044C04492046FFF7CEFAA8
:10B69000034B1C6010BD00BFAC850020E42D0400EE
:10B6A00034D8002008B50023064A4FF40041137037
:10B6B000054A06481360FFF777FFBDE80840FFF72B
:10B6C000E1BF00BFBF0301203CD80020C1440300FC
:10B6D0000146002200230148FFF7DABAAC850020BA
:10B6E0000148FFF7E9BB00BFAC850020024B0146D3
:10B6F0001868FFF767BC00BF34D80020014828F065
:10B7000084BE00BFAC85002070B52E4B1878002891
:10B7100057D0FFF7E5FF054640B32B4BD3E8EF1FAB
:10B720000139C3E8E21F002AF8D1284C284EB44260
:10B7300018D9284940F2C113274A284828F0ABFD00
:10B74000274828F0A8FD40F2C111234828F09CFDAD
:10B7500063685B7923B12368294620461B689847B4
:10B760001034E4E7F4D32846FFF7C0FF1D4B1E4C0E
:10B770001B68002B19DD36F07FFE4FF47A72A0FBB8
:10B78000020302FB0131C30B43EA4143D4E9002029
:10B790009B1A40F2E9324FEAD13161EB000193424A
:10B7A00071F1000101D3FFF73DFFD4E9003213F539
:10B7B0007A7342F10002C4E90032BDE87040FFF73D
:10B7C0009DBF70BDBE03012040D80020882C04001E
:10B7D000982C040017500400C64F0400A848040029
:10B7E000385004003CD80020B88D002070B5154DAD
:10B7F000297829BB0120FFF75BFE134C134EB4429E
:10B8000017D913494FF4C273124A134828F043FD65
:10B81000124828F040FD4FF4C2710E4828F034FD64
:10B8200063685B791BB1236820469B689847103496
:10B83000E5E7F5D3FFF768FF0028FBD101232B7064
:10B8400070BD00BFBF030120882C0400982C0400A9
:10B8500017500400C64F0400A848040038500400E4
:10B860002DE9F0472F4B304FFB1A1B090BD12F4905
:10B8700040F247332E4A2F4828F00DFD40F2473161
:10B880002B4828F001FD00210846FFF711FE044671
:10B8900040B340F267684FF0000927F053F9264B98
:10B8A000186030B1254B1B68092B02DD244825F0B8
:10B8B00021FA0025DFF888A044B12046FFF7C6FD35
:10B8C000044618B94FF0FF384FF0FF39FFF71CFF5F
:10B8D000064628B95DB942464B46504625F04EFA19
:10B8E0003546E9E74FF0FF384FF0FF39D5E70D4D0A
:10B8F00008E0F0D22B689B691BB100222846114654
:10B9000098471035BD42F4D90E4940F23B33084AFE
:10B91000084828F0C0FC0C4828F0BDFC40F23B3140
:10B92000AEE700BF882C0400982C04005750040098
:10B93000C64F0400A848040038D8002040D8002092
:10B94000EC860020175004003850040013B52B4833
:10B9500028F0B8FD2A4B1B78002B34D04FF0200381
:10B96000EFF3118483F31288BFF36F8F254824F01F
:10B97000ABFE68B99423244A2449254828F08BFC5F
:10B980002049244828F087FC94211F4828F07CFC9B
:10B990001C4824F0B5FEFFF7B7FE1A4824F0A2FEBB
:10B9A00058B9C223184A1C49194828F074FC154993
:10B9B0001A4828F070FCC221E7E784F31188BFF32E
:10B9C0006F8F02B010BD164B1B68002BF9D050B919
:10B9D000002200231348CDE900234FF40042002346
:10B9E00027F09AFDEDE70A28EBD10E4836F078FDF6
:10B9F0000D4802B0BDE8104025F07CB940D80020C9
:10BA0000BF03012030D80020494D0400A24D04009E
:10BA1000A8480400B74D0400764D04008D4D040085
:10BA200038D80020C08D0020EC86002010B5064BD1
:10BA300004461B6898472146A0600448FFF7E6F9D2
:10BA4000BDE81040FFF782BF84810020AC85002054
:10BA5000044A054B9B1AB1EBD30F34BF52F83100A7
:10BA600000207047602B0400882C04000E4B10B59A
:10BA7000C31A1B110133DBB248B90C490C48DE2351
:10BA80000C4A28F008FCDE210A4828F0FDFB446837
:10BA9000237143689A7101224368196043685A719F
:10BAA000BDE81040FFF790BD882C0400F75004005B
:10BAB000A8480400BF5004002DE9F04FC1F3CB4467
:10BAC0008FB0C1F349260D4690469946059017342C
:10BAD000002E3DD04FF0040B4FF00A0A002209AFB0
:10BAE00031460BAB4046CDF808B00197CDF800A029
:10BAF000CDE90B220D920796FDF7B4FDC0F30903C3
:10BB0000181920F0070080081E4663F3522506939B
:10BB1000FFF7DEFD044608B30022069B10300B90B1
:10BB20000C930D924046CDE9017B124A0799CDF85E
:10BB300000A00BABFDF796FD00280FDA0E490F4869
:10BB400049230F4A28F0A7FB49210D4828F09CFB08
:10BB500024F007008008FFF7BBFD044666F352257A
:10BB60004B462A46204605990FB0BDE8F04F28F015
:10BB7000CDBC00BFE144030043510400A8480400C9
:10BB8000175104000EB403B503AB53F8042B014660
:10BB90000448019328F0E1FC02B05DF804EB03B027
:10BBA000704700BFC5BB0000CA0605D48B064CBF5A
:10BBB00002490349FFF7E6BF704700BFC76F0400A3
:10BBC00095D8040038B54B6805461A68CB680C4612
:10BBD0009A4202D1084628F0C7FC6368D3E8EF2FE9
:10BBE000511CC3E8E01F0028F8D1A3689D54636886
:10BBF0001A68E3689A4209D9054906487923064A32
:10BC000028F049FB7921044828F03EFB002038BD8C
:10BC10007B510400A84804004C5104002DE9F04F6A
:10BC200089B09B46DDE915769DF8483004460493BB
:10BC3000DDE913930593049B0D460692002B00F05B
:10BC4000878006F00803079328F048FC06F0020AF4
:10BC5000024600284BD020468D49FFF793FF8046CF
:10BC6000BAF1000F08D016F0440F42D12A46204600
:10BC70008849FFF787FF804406F001035BB1864BDC
:10BC8000049A204653F82220844B8549002A08BF95
:10BC90001A46FFF777FF06F00803002B55D0814BBB
:10BCA000049A204653F822207F49FFF76BFF054690
:10BCB000069B2BB11A4620467C49FFF763FF0544DB
:10BCC000BBF1000F05D05A4620467949FFF75AFFCD
:10BCD00005444544B9F1000F4AD1002F61D1F30763
:10BCE00000F1CF8031462046FFF75EFFC3E080467B
:10BCF000B6E7704B18680028BDD06F4B4FF47A7EC2
:10BD00001B684FF46162B5FBF3F5B5FBF0F300FB84
:10BD100013550EFB05F5B3FBF2FAB5FBF0FC3C2125
:10BD200002FB1A3200FB1C55B2FBF1F30EFB05F5CA
:10BD3000B5FBF0F501FB132220460092CDE901C5C9
:10BD400052465E49FFF71EFF95E706F00805AFE78C
:10BD5000BBF1010F07D1B9F1000F1DD1002F00F089
:10BD60008A8000251DE0B9F1000FF7D0544814E097
:10BD700054484B462246544928F01AF800280EDA57
:10BD8000524953484FF40073524A28F084FA4FF452
:10BD90000071504828F078FA4A48049DE9E7002FDE
:10BDA00065D0DFF83491DFF834A1102F31462046FA
:10BDB000B8464FF0000B28BF4FF01008FFF7F4FE15
:10BDC0005D4542DC059B514620461A78FFF7DAFEB6
:10BDD0004FF0010B1BF0070F03D149462046FFF738
:10BDE000D1FED84538D9059B5146204613F80B2083
:10BDF000FFF7C8FE0BF1010BBBF1100FEAD14FF0BA
:10BE0000000B20463649FFF7BDFE5A46059B2046EB
:10BE10009A5CA2F120015F2928BF2E223149FFF749
:10BE2000B1FE0BF1010BBBF1100F1AD01BF0070F85
:10BE300003D149462046FFF7A5FED8455A46E5D826
:10BE400049462046FFF79EFEEBE749462046FFF7AE
:10BE500099FE0BF1010BB3E720462349FFF792FE51
:10BE6000C8E7059BB7EB0807434405939DD1049BA6
:10BE7000002B7FF434AF204609B0BDE8F04F28F026
:10BE800073BB2046054A0649FFF77CFE2AE700BF40
:10BE9000B0510400B4510400082E0400AB5104005A
:10BEA0009E4504001C2E0400D9510400DF510400FB
:10BEB000E35104004CD8002048D80020BD510400B4
:10BEC00083450300C5BB00005B450300E851040047
:10BED000A84804004C5104009C850400F151040062
:10BEE000F75104009F4604009A8504002DE9F041B3
:10BEF0000F884B6805460C4690468E6886B0C7F39F
:10BF000082175BB1134A9B1A43F3CF0100291FDB51
:10BF10002078C0F3C200FFF79BFD0346214651F88D
:10BF2000102B6088C2F34922002A01EB020408BFEB
:10BF30000021C0F3CB00CDE90308CDE901140022B4
:10BF4000314628460097FFF769FE06B0BDE8F0814C
:10BF50000023E3E7602B040042F20F7373B58B42BA
:10BF600028BF0B4605680446052168460D4A27F0A0
:10BF700097FF0646636828460B225B680A4928F04B
:10BF8000DFFA63683246694628465B6828F0D8FACB
:10BF900063681B2228465B68044928F0D1FA02B086
:10BFA00070BD00BF165E040015520400F951040074
:10BFB00000210123064A904206D8064A01B901230E
:10BFC0001360054B18607047012140085B00F2E7E1
:10BFD00040420F0048D800204CD80020014B0020E0
:10BFE0001960704764D800200122024B02481A7081
:10BFF00028F0BABAC10301204C2E04000148FFF713
:10C00000ABBF00BF4C2E040010B5064B0C461868A1
:10C01000FFF7C4FA2146BDE8104003460F2202484C
:10C02000184700BF64D800204C2E0400F8B50D4618
:10C030000446064F4618B44201D12846F8BD14F80C
:10C04000011BBB6801485B689847F4E7D0270400F0
:10C0500008B5074836F0E9F848B9064906486F239D
:10C06000064A28F018F96F21044828F00DF908BD98
:10C07000D02704007F520400A84804004152040065
:10C080007FB570B9124B1348059302234FF48251C8
:10C0900004AA049328F083FA6FF0150007B05DF846
:10C0A00004FB836863B90C4B0A48059302234FF4E1
:10C0B000825104AA049328F072FA6FF00400EDE7AD
:10C0C0001B681BB107B05DF804EB18471846E5E79D
:10C0D000B3520400F82B0400C452040030B587B0FA
:10C0E00008B101B16AB9134B1348059302234FF409
:10C0F000825104AA049328F052FA6FF0150007B099
:10C1000030BD84680CB1E56865B90C4B0A480593ED
:10C1100002234FF4825104AA049328F040FA6FF0EE
:10C120000400ECE741F8040BE36807B0BDE83040D9
:10C13000184700BFE2520400F82B0400C452040068
:10C1400030B51346044687B068B91A4B1A480593B0
:10C1500002234FF4825104AA049328F020FA6FF0CE
:10C16000150007B030BD006860B9144B1248059344
:10C1700002234FF4825104AA049328F010FA6FF0BE
:10C180000100EEE782680AB1956865B90C4B0A4870
:10C19000059302234FF4825104AA049328F0FFF977
:10C1A0006FF00400DDE70A46AC46616807B0BDE801
:10C1B000304060470E530400F82B04001F53040066
:10C1C000C452040008B504220021024829F07DF879
:10C1D000002008BD000007200023012213B50446FB
:10C1E000CDE90032074BD0E9091223F08FFAA36E94
:10C1F0001B6823B1E06E02B0BDE81040184702B0E2
:10C2000010BD00BFC86F040030B50C460E4985B0A4
:10C210000291D0F898110546CDE9003100F1E00116
:10C220004FF0FF33204623F0B7FA50B9012384F8CA
:10C230006430D5F8943123B1204605B0BDE83040D4
:10C24000184705B030BD00BF9546030038B50C4611
:10C250001146054628F020FA034638B92846044915
:10C2600028F01AFA03460020236038BD0120FBE7BE
:10C27000C86F04002DE9F04F012381460569466827
:10C2800085B005F55577D7E8EF2F002A03D1C7E829
:10C29000E13F0029F7D140F0B880B368B26A043BAF
:10C2A0002632B3EB420F4FEA420126BFB3FBF1F354
:10C2B000B3FA83F300234FF0010428BFC3F1200336
:10C2C000013B9C4005F5D87800F0998010220821A8
:10C2D00070689A4002EB4402043099400932C5F874
:10C2E0004802063122F003020A44B16A01FA03FC53
:10C2F000510001EB4C01C5F84C12B16A994000EBBA
:10C300004103C5F840320333134423F00303C5F857
:10C310003C327368C5F84442C5F838323C4B40465D
:10C32000C5E9A363316800F003FA044630BBD9F8CD
:10C3300004A0D9F81090DAE9073409F52A7B012B1B
:10C34000584608BF103C25F049F80023DAF82400CD
:10C3500030494FF4806201EB802100935846234618
:10C3600025F056F809F526702B4924F06BFFDAF812
:10C37000140083685C681CB96FF05704002137E033
:10C380004B46264ADAF81810A04704460028F5D193
:10C39000DAF8140083681B69002BEDD00122DAF86B
:10C3A0001810984704460028E8D11D4B2846C5F8C8
:10C3B00094311C4BC5F898311B4B0393D5F8F831D9
:10C3C0000293D5F8F031CDE90083D5F85032B26A46
:10C3D000D5F8501300F076F904460028CED105F1C7
:10C3E000E00023F077FB0028C5F858030ADB0221A0
:10C3F000384628F09DF9204605B0BDE8F08F6FF073
:10C400000B04BBE76FF01504B8E76FF07704F2E7B1
:10C410001947030088210120D1460300C5460300C7
:10C42000D9C10000EB460300614703002DE9F84342
:10C4300006464FF001090569D0F8048005F55577E7
:10C44000D7E8EF3F022B03D1C7E8E29F002AF7D1DC
:10C4500049D1264805F1400128F0FDFE20B16FF0DA
:10C460000F042046BDE8F883204805F1B00128F00C
:10C47000F2FE0028F3D12846D5F8501328F0C4F96D
:10C48000044670BB71683669486983681B6933B3B9
:10C49000224689699847044618BB06F52A7649461C
:10C4A000304625F01DF8304605F5D87601F052FAF1
:10C4B0003046D8F8001028F0E4F9044688B901465F
:10C4C000E822304628F001FF21464FF4D872284672
:10C4D00028F0FBFE2146384628F02AF9C1E76FF024
:10C4E00057040221F7E76FF07704BAE7C86F04003A
:10C4F00013B504460846216901F55571D1E8AF1F0F
:10C50000022910D193B1A0B10121CDE90031134628
:10C51000D0E9091223F0FAF8074B984208BF6FF0F0
:10C520000B0002B010BD6FF00F00FAE76FF04C0087
:10C53000F7E76FF00100F4E72EF8FFFF2DE9F7436E
:10C5400088461546066906F55573D3E8AF3F022BBA
:10C550005FD1136823B96FF0150003B0BDE8F08315
:10C560001B78002BF7D0D6F85093B9F1000F33D1D8
:10C5700006F5CE774FF0FF324FF0FF33384624F008
:10C58000F9F830462A6801A9FFF760FE019C1CB942
:10C59000384628F0CBF8DEE705F10803A3666B699F
:10C5A00084F86490E366E46360B1384628F0BEF82E
:10C5B00021463046236E2A68FFF726FE0020C8F881
:10C5C0000040CAE72022296804F1400028F01FFE3D
:10C5D000384628F0ABF8F1E730460F4928F05CF810
:10C5E00004460028B7D005F1080383666B69C06371
:10C5F000C366002380F8643020222968403028F088
:10C6000006FE22460121304600F03EF80028D5D033
:10C61000A1E76FF00F00A0E7C86F04002DE9F04F0D
:10C6200005460E4690460027D0F8A4A085B0AAF58E
:10C63000A4742146304628F00EFEE0B9114BA4F157
:10C64000400B0293DAF810303246CDE900832946D8
:10C650004FF0FF335846AAF5C47923F09DF860B92E
:10C660007023012203FB079383F86420DAF80C306F
:10C670000BB158469847703417B105B0BDE8F08F3C
:10C680000127D6E7054803001FB5144690B18AB1CB
:10C69000012912D10A4B00F1E0010293D0F8983140
:10C6A000403201934FF0FF332046009323F074F89B
:10C6B00004B010BD6FF01500FAE70020F8E700BFE6
:10C6C000054803002DE9F04385B00F46DDE90C81F4
:10C6D0001446DDE90E251E4628B321B3DFF84CC011
:10C6E00000F1E009002D08BF654697B9CDE9024485
:10C6F00000F5C474204635F085FD02ABCDE900435A
:10C700002A4633464146484623F00AFA05B0BDE8BA
:10C71000F083002241460C9248462A4605B0BDE807
:10C72000F04323F00DBB6FF01500EFE71DC60000CE
:10C73000F0B50E46044689B000286FD001230246AA
:10C74000C3630023D0F89810364F403040F80C7C7B
:10C7500042F8301FCDE901334FF0FF330093C36D32
:10C760002AF006FC304A06AB92E8030083E8030097
:10C7700018460CF059FC0546D8B904F134000CF009
:10C7800033FC0546A8B93946284805AA2AF0C8FB53
:10C79000054670B9059B9A6872B10C33D4F89400C1
:10C7A000C4F8A03028F05FF8C4F8D40030B96FF0B6
:10C7B0000B05284609B0F0BD0346EFE7D4F8940016
:10C7C00028F051F8C4F8D8000028F0D0D4F88C3004
:10C7D000D4F8A010C4F8A8300423C4F8AC30C4F8CE
:10C7E000C4300223A362124BB4F89420D4F8D4705E
:10C7F000C4F8B810C4F8D010D4F89010236204F133
:10C80000A403A4F8B020C4F8A470C4F8C010A4F81D
:10C81000C820C4F8BC00A661E362CAE76FF0150542
:10C82000C7E700BF49530400B42C0400535304006D
:10C83000882E04002DE9F84305464FF02003EFF35E
:10C84000118683F31288BFF36F8F204823F03CFFDB
:10C8500068B994231E4A1F491F4827F01CFD1B4935
:10C860001E4827F018FD9421194827F00DFD4FF0C0
:10C870000C09164823F044FF194B1A4F1C68DFF8C7
:10C8800068807CB9114823F02DFFC8B9C223104A33
:10C890001649114827F0FFFC0C49154827F0FBFC0E
:10C8A000C221E1E7D4E90123002D18BF13462BB1C3
:10C8B00098F8142009FB02F2B85C98472468E0E776
:10C8C00086F31188BFF36F8FBDE8F88368D8002026
:10C8D000494D0400A24D0400A8480400B74D0400CF
:10C8E00088D800207CD800202CE30020764D04005E
:10C8F0008D4D0400012270B5164B1C7D04F01F0302
:10C900009A40D043144B610903EB8103D3E8EF1F36
:10C9100001EA0005C3E8E65F002EF7D10A4213D012
:10C920000E4B0F4D8BB10C236343EA185178E85C32
:10C9300027F0ADFD0020FFF77DFF0C235C430023B3
:10C940002A192B51C2E9013370BD83F31188BFF35B
:10C950006F8FEFE72CE3002090D800208F44030076
:10C960007CD800202DE9F041454B07461D7D4FF056
:10C970002003EFF3118883F31288BFF36F8F4148D0
:10C9800023F0A2FE68B994233F4A4049404827F06B
:10C9900082FC3C493F4827F07EFC94213A4827F02E
:10C9A00073FC0C246C43374823F0AAFE3A4B3B4EF1
:10C9B000195D1A19B9B107CA06EB040C8CE8070017
:10C9C00000221A552F4823F08DFE0446B0B9C22329
:10C9D0002D4A33492E4827F05EFC2A49314827F07A
:10C9E0005AFCC221DAE73946284600F065F80028EB
:10C9F000E8D007C8344484E80700E3E788F31188E7
:10CA0000BFF36F8F0C236B43F218F35CABB37B1C4B
:10CA10000FD04FF4004C0021D2F808E02248002348
:10CA2000EEFB0C01214AFBF785FF0121381A26F0A5
:10CA300087FB25F005FA0120FFF7FCFE1C4B6A0975
:10CA400003EB8203012205F01F018A40D3E8EF0FB8
:10CA50001043C3E8E10F0029F8D1164B33B10C2382
:10CA60006B43F2185178F05C27F005FDFFF742FFA9
:10CA700025F052FA2046BDE8F0811C46FAE700BFD7
:10CA80002CE300206CD80020494D0400A24D040086
:10CA9000A8480400B74D040070D800207CD80020BE
:10CAA000764D04008D4D04003F420F0040420F00C0
:10CAB00090D80020774403002DE9F04F85B00E4652
:10CAC00003A900F043F84FF4004704464FF0000B71
:10CAD0001B4B039DD3F800A0431E1BB203EB430383
:10CAE000DFF8608005EB830524B9A146484605B010
:10CAF000BDE8F08FC446594668680023E0FB07C1D3
:10CB0000114A6046FBF716FFC44659460190A868D3
:10CB10000023E0FB07C10C4A6046FBF70BFFBAF1AC
:10CB2000FF3FA94601D0824505D9731CDED0019B89
:10CB30001844B042DAD9013CA4B20C3DD4E700BF9E
:10CB4000B48100203F420F0040420F0008B9024B61
:10CB50000B600020704700BFAC2E04000449431E48
:10CB60000F3013F8012F8A5C83421A70F9D1704795
:10CB70005E530400F0B50746264E8DB001AD0C465D
:10CB80000FCE0FC50FCE0FC596E8070085E807004A
:10CB90003846002F39D0002C39D0381F02462146A4
:10CBA00010344B780D781B0443EA0563CD780431CB
:10CBB0002B4311F8025C8C4243EA052342F8043F00
:10CBC000EFD10421144C8A07036916D1C3F307423D
:10CBD000A55C1A0EA25C42EA0562C3F30725655DF7
:10CBE000DBB2E35C42EA054242EA032221F003039E
:10CBF00030336B4453F82C3C534050F8042F013130
:10CC000053402C290361DED101200DB0F0BD204638
:10CC1000FBE700BFBC2C04005E5304002DE9F04F7D
:10CC2000002703689DB002934368DFF8BCA103931B
:10CC30008368DDE902460493C36805930369DDE96F
:10CC400004BE0693436907938369DDE9062C0893C4
:10CC5000C36998460993089B0093CD590CAB2DBA34
:10CC60005AF8049BDD514FEAF223A94483EAB21338
:10CC7000009D83EA72634B4425EA020502EA0C092F
:10CC800085EA09052B44434486EA0B054FEA7438CC
:10CC900088EAB408254006EA0B0985EA090588EA0E
:10CCA000B4580437A844402F03EB0E054344DE4636
:10CCB000DDF8008040F088804FF0100A4B490A915F
:10CCC00051460AF1010A0DF1700E0AF00F070EEB42
:10CCD000870757F8407C01F00F094FEAB7480197E2
:10CCE00088EAF71801F10E0707F00F070EEB870728
:10CCF00057F8407C09314FEAF74E8EEA774ECDF86F
:10CD00002CE001F00F010DF1700E0EEB81010EEB26
:10CD1000890959F840EC51F8401CBAF1400F7144B0
:10CD2000DDF804E088EADE08DDF82CE041448EEA14
:10CD3000972E714405EA02084FEAF52E2CEA050702
:10CD400087EA08078EEAB51EDDF828808EEA756E40
:10CD5000774458F804EF49F8401C77440F44009991
:10CD60004FEA733E394484EA0607CDF828808EEAFC
:10CD7000B30E07EA030704EA06088EEAB35E87EA01
:10CD8000080777440F4401EB0B0ECDF800C0B34603
:10CD900022D102993944016003991944049B4160EE
:10CDA00023448360059B3344C360069B7344036143
:10CDB000079B2B444361089B13448361099B634495
:10CDC000C3611DB0BDE8F08FB346CDF800C0264664
:10CDD00094461C462A4640E7944626462A461C4668
:10CDE00075463B466CE700BFAC2E0400E82E0400FD
:10CDF00010B50446C8B17022002127F07FFD0B4B0F
:10CE00000B4A0C49C4E900230B4B0C48C4E902133C
:10CE10000B4BC4E9040301200A4BA36103F17453D3
:10CE2000A3F52303A3F69243E36110BD85AE67BB70
:10CE300067E6096A72F36E3C3AF54FA57F520E51D0
:10CE40008C68059BABD9831F014910220A6070478B
:10CE500010ED00E072B6404080F31188BFF36F8F91
:10CE6000BFF34F8F30BF62B6BFF36F8F704700BF05
:10CE700072B6494081F3118820BF80F3118862B6F1
:10CE8000704700BF2DE9F04781460C4600AF0029EE
:10CE90004CD0D1E900126E468AB0A3686D464FF0BF
:10CEA000050AA8462548C5E90723C5E9050148F84C
:10CEB00010AF002342464FF421512148FEF7FCFDFC
:10CEC000D4E90312B5466369AD461E48C5E9072398
:10CED000C5E90501C5F810A0002342464FF42151D1
:10CEE0001748FEF7E9FDB54688B0E3696D464FF097
:10CEF000030AA846144AC5E9052348F810AF0023E1
:10CF000042464FF4C2510E48FEF7D6FDB546A3691E
:10CF1000AD460E4AC5F810A0C5E9052300234246D8
:10CF20004FF4C2510648FEF7C7FDB54621464846B4
:10CF300022F01AFFBD46BDE8F08700BF5E54040032
:10CF4000402C04008D540400BC540400CB54040055
:10CF500040B2002807DB01234109034A00F01F000B
:10CF6000834042F82130704700E100E040B20028E1
:10CF70000CDB01220649430900F01F0082402033E8
:10CF800041F82320BFF34F8FBFF36F8F704700BF6F
:10CF900000E100E0054B420953F82220012300F094
:10CFA0001F0003FA00F01040704700BF00E100E0EE
:10CFB00038B54B1C072B04460D460FD95B23104A8E
:10CFC0001049114827F067F92946104807232246DF
:10CFD00027F061F95B210A4827F056F940B2002892
:10CFE000ACBF00F160400A4A4FEA4313DBB2ABBF6B
:10CFF00000F5614000F00F0080F80033135438BD95
:10D00000F95404002F550400A84804004A550400B0
:10D0100014ED00E030BFFFF7FDBF00BF0B4A08B5BD
:10D020000B4B22F07F029A60BFF34F8FBFF36F8FDD
:10D03000D3F8882022F47002C3F8882022F066FF1B
:10D0400025F0BEFE00F000FC22F0A0FF00800000F2
:10D0500000ED00E0094A0A49936809689867D967B2
:10D0600008494B6843F080534B60002383F31188D9
:10D07000BFF36F8F9368D86F704700BF2CE3002019
:10D080009842040000ED00E015498A6882F881E0CA
:10D090004FF030001044EFF3098C80E8F01F20209F
:10D0A00080F31288BFF36F8F0E4F4FF00066CA698E
:10D0B0008A603E6092F981E0906F0023936780F36D
:10D0C000118802F1300090E8F01F8CF3098802F11A
:10D0D000000004B528F05FF8BDE804407047000088
:10D0E0002CE3002004ED00E01EF0040F0CBFEFF372
:10D0F0000880EFF30980816911F8021C0229FFD032
:10D1000001B528F039F801BD42F8203C009B0D49DB
:10D1100042F81C3C019B21F0010142F8183C029BA3
:10D1200042F8081C42F8143C4FF0807342F8043C6B
:10D13000002383674FF43C43203A0265C0F88030F7
:10D14000704700BFBB3E0300084B9860836E83F3BB
:10D150000B88104681F30988002163B681F311889A
:10D16000BFF36F8F0022002326F0A7FE2CE30020E0
:10D1700001B572B60B4A906900281EBF002191616B
:10D1800035F08DF862B6EFF30580A0F110004FEA9C
:10D19000C0000549014409C99847BDE80140034959
:10D1A000084700002CE3002078280400B1D10000DB
:10D1B000044B9968D869884203D003494FF08052E4
:10D1C0000A6070472CE3002004ED00E02DE9F041F7
:10D1D00086B006460D4600AF02244B4B4FF48251F9
:10D1E0007B614A483C6107F1100227F0D8FF484BA9
:10D1F0009B6ADB0609D5474B4FF48251C7E90443CC
:10D20000424807F1100227F0CAFF414B9B6A1807FA
:10D210000AD5414B4FF482517B6102233B483B616D
:10D2200007F1100227F0BBFF394CA36A990722D5FA
:10D23000E8463A4B07F110027B6102234FF482511A
:10D240003B61324827F0ABFF636BA26A120612D52E
:10D2500088B06A4632492D48C2E9051303234FF4CA
:10D26000C25142F8103F27F09AFFC5461EB1A36A8B
:10D2700023F08003A362264B9B6ADB070AD5294B68
:10D280004FF482517B61022320483B6107F1100279
:10D2900027F085FF1E4B9B6A9E060AD5224B4FF452
:10D2A00082517B61022319483B6107F1100227F08C
:10D2B00076FF174B9A6AD40602D49A6A900711D562
:10D2C0009B6AD9060ED519494FF4AE73184A19480E
:10D2D00026F0E1FF184826F0DEFF4FF4AE71144847
:10D2E00026F0D2FF00200A4B18379A6A920642BFF6
:10D2F0005A6A22F400525A629A6A42F0FF029A6213
:10D300002870BD46BDE8F0818A550400402C040019
:10D3100000ED00E0A0550400D3550400E6550400DC
:10D32000FE55040014560400335604009C560400B5
:10D3300062560400A8480400E65604002DE9F041B6
:10D3400086B006460D4600AF02243E4B4FF4825194
:10D350007B613D483C6107F1100227F020FF3B4B09
:10D360009B6AD90409D53A4B4FF48251C7E904436B
:10D37000354807F1100227F012FF344B9B6A1A055B
:10D380000AD5344B4FF482517B6102232E483B6116
:10D3900007F1100227F003FF2C4CA36A9B0522D54E
:10D3A000E8462D4B28487B61022307F110023B61C0
:10D3B0004FF4825127F0F3FEA36BA26A100412D53A
:10D3C00088B06A4625492048C2E9051303234FF473
:10D3D000C25142F8103F27F0E2FEC5461EB1A36AD3
:10D3E00023F40043A362194B9B6A59050AD51C4BD1
:10D3F0004FF482517B61022313483B6107F1100215
:10D4000027F0CDFE114B9A6AD20515D5154B7B61DD
:10D4100002234FF482510C483B6107F1100227F0C0
:10D42000BEFE0020094A1837936A43F47F43936293
:10D430002870BD46BDE8F0819B6A9B04F1D50A4B7C
:10D44000E5E700BF4A570400402C040000ED00E06F
:10D4500060570400D3550400715704008A57040034
:10D460009F570400BA5704003356040010B586B025
:10D4700002243A4B4FF48251394804AA059304948C
:10D4800027F08DFE374B9B6A9B0108D5364B4FF436
:10D490008251334804AACDE9044327F080FE314B82
:10D4A0009B6ADC0109D5314B4FF48251059302236D
:10D4B0002B4804AA049327F072FE2A4B9C6A14F4AA
:10D4C000801409D002242A4B4FF48251244804AA24
:10D4D0000593049427F063FE224B9B6A180309D539
:10D4E000244B4FF48251059302231D4804AA049350
:10D4F00027F055FE1B4B9B6A590309D51E4B4FF471
:10D50000825105930223164804AA049327F047FE8C
:10D51000144B9B6A9A0309D5184B4FF4825105931B
:10D5200002230F4804AA049327F039FE0D4B9B6A8F
:10D53000DB0309D5124B4FF48251059302230848AF
:10D5400004AA049327F02BFE064A2046936A6FEA4A
:10D5500003436FEA1343936206B010BDD257040031
:10D56000402C040000ED00E0EA570400FD570400E1
:10D5700017580400415804005F5804008458040000
:10D580009E5804002DE9F0478AB0904B0546D3F829
:10D5900004A088461646002300AFCAF3080983F3A7
:10D5A0001188BFF36F8F02F07F43B3F17F4F0ED02E
:10D5B00087494FF48463874A874826F06CFE874882
:10D5C00026F069FE4FF48461824826F05DFE12F079
:10D5D0000104EDD1530604D410070FD44FF0010815
:10D5E0000FE07F4B4FF48251FB6102237D48BB610A
:10D5F00007F1180227F0D3FD710700D545464FF01B
:10D600000008002DD4D00023FB71A9F10303092BDE
:10D6100000F2BA80DFE803F005ADB090B8B8B8B852
:10D62000B8B3E9464FF0020A6F4B07F11802FB61ED
:10D630004FF482516B48C7F818A027F0B0FD0023C3
:10D64000624EFB71F36A9A070AD5684BC7E906A3D5
:10D650004FF48251634807F1180227F0A0FD41E022
:10D66000F36A002B01DA624BF0E7F36A5B0073D5D3
:10D67000604B07F11802C7E906A34FF482515948DD
:10D6800027F08DFD7369AA6943F480737361BFF35A
:10D690004F8FBFF36F8F736932F8022C23F48073BE
:10D6A0007361BFF34F8FBFF36F8F4DF602739A42D2
:10D6B00008D0B36ADBB293B30120F91DFFF786FDF2
:10D6C00004460FE088B02B686A464B494548C2E9DA
:10D6D000051303234FF4C25142F8103F27F05FFDBA
:10D6E000CD462C68FB79B3B92022294607F1080002
:10D6F00027F0E0FD7B6AB8F1000F61D0C3F30802A8
:10D7000022B96FEA53236FEA43237B62204607F175
:10D710000801FFF7B7FB2837BD46BDE8F087B36ABD
:10D7200013F47F4F04D00120F91DFFF707FEC7E770
:10D73000B36AB3F5803F02D3FFF798FEC0E72F49E5
:10D7400040F2F223234A244826F0A5FD2C4826F077
:10D75000A2FD40F2F22137E7284940F2F6231D4AA4
:10D760001D4826F098FD274826F095FD40F2F62149
:10D770002AE70020F91DA1E70020F91DD5E7224B7B
:10D78000FB610223BB6163E7204A6E461AF4F87F0F
:10D790008AB01F4B18BF13466A461E491148C2E99A
:10D7A0000513A9F11003D3614FF4007313841A4BCE
:10D7B0004FF4115142F8103F27F0F1FCB54691E7C4
:10D7C00023F4FF7323F001039FE700BF00ED00E0A7
:10D7D000F758040062560400A84804000A590400DF
:10D7E00048590400402C04006B590400825904007D
:10D7F000A3590400B1590400D0590400937C0400DB
:10D80000EC590400105A0400405A0400DE58040089
:10D81000C9580400645A040004000001044B5A690A
:10D8200042F010025A615A6942F480625A617047AC
:10D8300000ED00E0EFF30880EFF3098101B57246D7
:10D84000FFF7A0FE01BD00BF002320210348C2183E
:10D850000133452B82F80013F9D1704700E100E055
:10D86000002080F31488BFF36F8F002080F30A88B4
:10D8700080F30B88FDF78AFD00200E490860BFF396
:10D880004F8F0D4880F3088800F03EF8202080F389
:10D8900011880A484FF40061401880F30988EFF3BB
:10D8A00014800221084380F31488BFF36F8FFFF7C1
:10D8B000B5FB000094ED00E08845012048340120CC
:10D8C000BFF34F8F0549064BCA6802F4E062134369
:10D8D000CB60BFF34F8F00BFFDE700BF00ED00E05E
:10D8E0000400FA05002318460649D1F89020C2F337
:10D8F0000722934200DB7047C1F89830C1F8A000BE
:10D900000133F6E700ED00E010B572B6002484F3B1
:10D910001388FFF7E7FF23464FF0FF300C4A03F16F
:10D9200020010133102B42F82100F8D100234FF0E1
:10D93000FF30074A03F160010133102B42F8210048
:10D94000F8D162B6BFF34F8FBFF36F8F10BD00BF2A
:10D9500000E100E0084B9B6883420BD1EFF30583A5
:10D9600043B1064B5A6842F080525A605A6A22F418
:10D9700000425A6225F0ECB82CE3002000ED00E0F4
:10D980001FB5094C094A23460121094800F02AF92C
:10D9900000230393074B0121E41A01A80193029489
:10D9A00000F044F904B010BD000007200080002002
:10D9B000AC2F0400A888002010B50C7A0B6804F086
:10D9C0001F0223F01F031A43CB68640923F01F03CF
:10D9D000054943EA440343F00103C1F89800C1F844
:10D9E0009C20C1F8A03010BD00ED00E080B500AF74
:10D9F00088B06A46074BC2E90530032342F8103F5E
:10DA000000234FF4C2510448FEF756F86FF015009A
:10DA1000BD4680BD7B5A0400282C04002DE9F04F40
:10DA2000144606464FF0000987B05F4D00AF79609D
:10DA30007B68994535DAD6F80480B8F1000F54D0E8
:10DA4000B8F11F0F1BD918F01F0F18D1D6F800B06E
:10DA50001BF01F0F13D1584627F0A6FB824608EB98
:10DA60000B00013827F0A0FB82451FD06FF0150A8C
:10DA70006C4688B06A464D49C2E9051A05E06C4615
:10DA800088B06A464A4BC2E90539032342F8103F81
:10DA900000234FF4C2514748FEF70EF8A5466FF039
:10DAA000150420461C37BD46BDE8F08F1AF1160F4D
:10DAB000DED05445DCDDC5F898A0D5F89C00C5F84B
:10DAC00098A0D5F8A02020F01F0042F01F08D6E94A
:10DAD00000211144904201F1FF3B1ED1D84508D1ED
