:020000040000FA
:10800000683C01204DD50000254B030021D5000020
:1080100021D5000021D5000021D5000021D5000088
:10802000000000000000000000000000C9CD0000BA
:1080300021D500000000000069CD000021D500001E
:1080400051CE000051CE000051CE000051CE0000B4
:1080500051CE000051CE000051CE000051CE0000A4
:1080600051CE000051CE000051CE000051CE000094
:1080700051CE000051CE000051CE000051CE000084
:1080800051CE000051CE000051CE000051CE000074
:1080900051CE000051CE000051CE000051CE000064
:1080A00051CE000051CE000051CE000051CE000054
:1080B00051CE000051CE000051CE000051CE000044
:1080C00051CE000051CE000051CE000051CE000034
:1080D00051CE000051CE000051CE000051CE000024
:1080E00051CE000051CE000051CE000051CE000014
:1080F00051CE000051CE000051CE000051CE000004
:1081000051CE000051CE000051CE000051CE0000F3
:1081100051CE000051CE000051CE000051CE0000E3
:1081200051CE000051CE000051CE000051CE0000D3
:1081300051CE000051CE000051CE000051CE0000C3
:1081400051CE000051CE000051CE000051CE0000B3
:1081500051CE0000FFFFFFFF81F0004102E000BFB1
:1081600083F0004330B54FEA41044FEA430594EAF7
:10817000050F08BF90EA020F1FBF54EA000C55EA32
:10818000020C7FEA645C7FEA655C00F0E2804FEA03
:108190005454D4EB5555B8BF6D420CDD2C4480EAE5
:1081A000020281EA030382EA000083EA010180EA15
:1081B000020281EA0303362D88BF30BD11F0004F63
:1081C0004FEA01314FF4801C4CEA113102D0404299
:1081D00061EB410113F0004F4FEA03334CEA1333D4
:1081E00002D0524263EB430394EA050F00F0A780EC
:1081F000A4F10104D5F1200E0DDB02FA0EFC22FAE7
:1082000005F2801841F1000103FA0EF2801843FADA
:1082100005F359410EE0A5F120050EF1200E012ACB
:1082200003FA0EFC28BF4CF0020C43FA05F3C01809
:1082300051EBE37101F0004507D54FF0000EDCF182
:10824000000C7EEB00006EEB0101B1F5801F1BD32B
:10825000B1F5001F0CD349085FEA30004FEA3C0C2F
:1082600004F101044FEA445212F5800F80F09A8025
:10827000BCF1004F08BF5FEA500C50F1000041EB29
:10828000045141EA050130BD5FEA4C0C404141EB2D
:108290000101013C28BFB1F5801FE9D291F0000F28
:1082A00004BF01460020B1FA81F308BF2033A3F1D7
:1082B0000B03B3F120020CDA0C3208DD02F1140CCE
:1082C000C2F10C0201FA0CF021FA02F10CE002F109
:1082D0001402D8BFC2F1200C01FA02F120FA0CFC02
:1082E000DCBF41EA0C019040E41AA2BF01EB04514B
:1082F000294330BD6FEA04041F3C1CDA0C340EDC49
:1083000004F11404C4F1200220FA04F001FA02F38B
:1083100040EA030021FA04F345EA030130BDC4F149
:108320000C04C4F1200220FA02F001FA04F340EA3E
:108330000300294630BD21FA04F0294630BD94F0EF
:10834000000F83F4801306BF81F480110134013DD6
:108350004EE77FEA645C18BF7FEA655C29D094EA47
:10836000050F08BF90EA020F05D054EA000C04BFC5
:108370001946104630BD91EA030F1EBF00210020B0
:1083800030BD5FEA545C05D14000494128BF41F04F
:10839000004130BD14F580043CBF01F5801130BDB3
:1083A00001F0004545F0FE4141F470014FF000003E
:1083B00030BD7FEA645C1ABF194610467FEA655CEF
:1083C0001CBF0B46024650EA013406BF52EA033591
:1083D00091EA030F41F4002130BD00BF90F0000F7F
:1083E00004BF0021704730B54FF4806404F13204BB
:1083F0004FF000054FF0000150E700BF90F0000F74
:1084000004BF0021704730B54FF4806404F132049A
:1084100010F0004548BF40424FF000013EE700BF6A
:1084200042004FEAE2014FEA31014FEA02701FBFFA
:1084300012F07F4393F07F4F81F06051704732F02C
:108440007F4208BF704793F07F4F04BF41F4002183
:10845000704730B54FF4607401F0004521F00041E1
:108460001CE700BF50EA010208BF704730B54FF06B
:1084700000050AE050EA010208BF704730B511F06C
:10848000004502D5404261EB41014FF4806404F1A4
:1084900032045FEA915C3FF4D8AE4FF003025FEA2A
:1084A000DC0C18BF03325FEADC0C18BF033202EBAE
:1084B000DC02C2F1200300FA03FC20FA02F001FA08
:1084C00003FE40EA0E0021FA02F11444BDE600BFAB
:1084D00070B54FF0FF0C4CF4E06C1CEA11541DBF5A
:1084E0001CEA135594EA0C0F95EA0C0F00F0DEF825
:1084F0002C4481EA030621EA4C5123EA4C5350EA0A
:10850000013518BF52EA033541F4801143F480135A
:1085100038D0A0FB02CE4FF00005E1FB02E506F0EB
:108520000042E0FB03E54FF00006E1FB03569CF040
:10853000000F18BF4EF0010EA4F1FF04B6F5007F46
:1085400064F5407404D25FEA4E0E6D4146EB0606B8
:1085500042EAC62141EA55514FEAC52040EA5E5041
:108560004FEACE2EB4F1FD0C88BFBCF5E06F1ED8EB
:10857000BEF1004F08BF5FEA500E50F1000041EB22
:10858000045170BD06F0004646EA010140EA0200CF
:1085900081EA0301B4EB5C04C2BFD4EB0C0541EAF1
:1085A000045170BD41F480114FF0000E013C00F306
:1085B000AB8014F1360FDEBF002001F0004170BD2A
:1085C000C4F10004203C35DA0C341BDC04F1140443
:1085D000C4F1200500FA05F320FA04F001FA05F2CF
:1085E00040EA020001F0004221F0004110EBD3709C
:1085F00021FA04F642EB06015EEA430E08BF20EAC8
:10860000D37070BDC4F10C04C4F1200500FA04F36A
:1086100020FA05F001FA04F240EA020001F00041FC
:1086200010EBD37041F100015EEA430E08BF20EA6F
:10863000D37070BDC4F1200500FA05F24EEA020EB7
:1086400020FA04F301FA05F243EA020321FA04F0E6
:1086500001F0004121FA04F220EA020000EBD3709D
:108660005EEA430E08BF20EAD37070BD94F0000F9D
:108670000FD101F00046400041EB010111F4801FD1
:1086800008BF013CF7D041EA060195F0000F18BF82
:10869000704703F00046520043EB030313F4801FBE
:1086A00008BF013DF7D043EA0603704794EA0C0F78
:1086B0000CEA135518BF95EA0C0F0CD050EA41068E
:1086C00018BF52EA4306D1D181EA030101F000410B
:1086D0004FF0000070BD50EA410606BF1046194633
:1086E00052EA430619D094EA0C0F02D150EA01363F
:1086F00013D195EA0C0F05D152EA03361CBF104680
:1087000019460AD181EA030101F0004141F0FE411E
:1087100041F470014FF0000070BD41F0FE4141F4A2
:10872000780170BD70B54FF0FF0C4CF4E06C1CEAA2
:1087300011541DBF1CEA135594EA0C0F95EA0C0F57
:1087400000F0A7F8A4EB050481EA030E52EA033512
:108750004FEA013100F088804FEA03334FF0805533
:1087600045EA131343EA12634FEA022245EA111560
:1087700045EA10654FEA00260EF000419D4208BF11
:10878000964244F1FD0404F5407402D25B084FEABE
:108790003202B61A65EB03055B084FEA32024FF46A
:1087A00080104FF4002CB6EB020E75EB030E22BFC7
:1087B000B61A754640EA0C005B084FEA3202B6EB87
:1087C000020E75EB030E22BFB61A754640EA5C0036
:1087D0005B084FEA3202B6EB020E75EB030E22BFC6
:1087E000B61A754640EA9C005B084FEA3202B6EBC7
:1087F000020E75EB030E22BFB61A754640EADC0086
:1088000055EA060E18D04FEA051545EA16754FEAE7
:1088100006164FEAC30343EA52734FEAC2025FEA05
:108820001C1CC0D111F4801F0BD141EA00014FF094
:1088300000004FF0004CB6E711F4801F04BF014365
:108840000020B4F1FD0C88BFBCF5E06F3FF6AFAE81
:10885000B5EB030C04BFB6EB020C5FEA500C50F111
:10886000000041EB045170BD0EF0004E4EEA113194
:1088700014EB5C04C2BFD4EB0C0541EA045170BD9B
:1088800041F480114FF0000E013C90E645EA060EDF
:108890008DE60CEA135594EA0C0F08BF95EA0C0F0D
:1088A0003FF43BAF94EA0C0F0AD150EA01347FF455
:1088B00034AF95EA0C0F7FF425AF104619462CE72C
:1088C00095EA0C0F06D152EA03353FF4FDAE10468F
:1088D000194622E750EA410618BF52EA43067FF4E0
:1088E000C5AE50EA41047FF40DAF52EA43057FF470
:1088F000EBAE12E74A0011D212F5001211D20DD5DB
:108900006FF47873B3EB62520ED44FEAC12343F095
:10891000004343EA505323FA02F070474FF000003F
:10892000704750EA013002D14FF0FF3070474FF0EE
:108930000000704753B94AB9002908BF00281CBF7E
:108940004FF0FF314FF0FF3000F00CB8ADF1080CE4
:108950006DE904CE00F008F8DDF804E0DDE902235B
:1089600004B07047704700BF2DE9F04F07468C46B2
:108970000846099E15463C461946002B40F0C58026
:108980008242B2FA82F746D94FB1C7F1200E00FAFF
:1089900007F3BD4024FA0EFEBC404EEA030C4FEA3A
:1089A00015481FFA85FE220CBCFBF8F908FB19C319
:1089B00009FB0EFA42EA03439A4528D9EB1809F15C
:1089C000FF3004D29A4502D9A9F102002B44A3EB4F
:1089D0000A03A4B2B3FBF8F208FB123302FB0EFE4B
:1089E00044EA0344A64514D92C1902F1FF3303D2FB
:1089F000A64501D9931E2C44A4EB0E0443EA004083
:108A00001EB1FC40002334607360BDE8F08F48461F
:108A1000DDE71346F0E702B9FFDE87BB831A0121C9
:108A20004FEA154EAAB2200CB3FBFEFC0EFB1C3322
:108A30000CFB02F840EA0343984562D9EB180CF1AD
:108A4000FF3004D2984502D9ACF102002B44A3EBCD
:108A50000803A4B2B3FBFEFC0EFB1C330CFB02F2BA
:108A600044EA0344A2424ED92C190CF1FF3304D23C
:108A7000A24202D9ACF102032C44A41ABEE7C7F10A
:108A8000200CBD4000FA07F320FA0CF84FEA154E0F
:108A900024FA0CFCBC404CEA0302ABB2B8FBFEFC6F
:108AA000110C0EFB1C800CFB03F941EA00408145D0
:108AB00023D928180CF1FF3104D2814502D9ACF139
:108AC00002012844A0EB090092B2B0FBFEFC0EFBB1
:108AD0001C000CFB03F842EA004398450FD9EB1841
:108AE0000CF1FF3204D2984502D9ACF102022B44BA
:108AF000A3EB080342EA014192E76146E2E76246DE
:108B0000F6E76046A3E76346B7E7834205D90EB1AF
:108B1000C6E900700021084677E7B3FA83F181B90E
:108B2000834201D3BA420AD8BC1A60EB0303012086
:108B30009C46002E67D0C6E9004C002165E7084638
:108B4000F7E7C1F1200C8B4002FA01F522FA0CF490
:108B500020FA0CFB27FA0CF28F401C4300FA01F3B9
:108B60004FEA144913431FFA84FE1A0CBBFBF9F8B1
:108B700009FB18BB08FB0EFA42EA0B4292453ED9AC
:108B8000A21808F1FF3004D2924502D9A8F10200E0
:108B90002244A2EB0A029BB2B2FBF9F809FB1822AD
:108BA00008FB0EFE43EA024296452AD9A21808F1B4
:108BB000FF3304D2964502D9A8F10203224443EAC6
:108BC0000040A2EB0E02A0FB05939A42CE469846C7
:108BD00002D306D14F4504D20138B9EB050E63EB41
:108BE000040886B1B7EB0E0362EB080707FA0CFC2A
:108BF000CB40CF404CEA0303C6E900379DE740462F
:108C0000C7E74346DBE73146FFE60000000000000F
:108C10002DE9F04FD0E90069838987B00D46876858
:108C20000393B368494630465B6804AA9847002816
:108C300031DBDDE90443A7FB04B807FB03884FF0F1
:108C4000FF3A58460293414617A3D3E90023FFF7A2
:108C500071FEDA45DFF858B007467BEB08031DD3F9
:108C6000A5FB0484029B404605FB03450EA3D3E904
:108C700000232946FFF75EFEC2457BEB0502034653
:108C80000CD38742B2680CD3039930460091146824
:108C900049463A46A04707B0BDE8F08F6FF085001F
:108CA000F9E76FF01500F6E700CA9A3B00000000F4
:108CB000FFC99A3B0000000038B51D4D1D4C002235
:108CC0002978206800F044FB0021012029F094FB62
:108CD00001222978206800F03BFB0021012029F0C7
:108CE0008BFB00222978206800F032FB0021012054
:108CF00029F082FB43F698220F4B104C19689142E1
:108D000001D9206838BD1868FFF768FB06A3D3E9CE
:108D10000023FFF7DDFB0022094BFFF7D9FBFFF72C
:108D2000E9FD2060EDE700BF6ABC74931804D63FEC
:108D3000DD0301200CD8002018D80020FCD700202B
:108D40000000E03F90B587B0044600AF89B16C46A3
:108D500088B06A46114B1248C2E9053103234FF42B
:108D6000C25142F8103F2AF065FDA5461C37BD46AA
:108D700090BD0C4B4FF486517B61022307F110022A
:108D800007483B612AF056FD20462CF0DCF9064BE3
:108D9000186001202DF036FDE8E700BF0A4204000C
:108DA000582804001D420400D0D7002098B56C4616
:108DB00000AF88B06A460C4B0C48C2E9053103236A
:108DC0004FF4C65142F8103F2AF034FDA546084C36
:108DD00001202DF01AFD206818B107F0DDFC0023FA
:108DE0002360BD4698BD00BF2842040058280400F7
:108DF000D0D7002010B50B4C86B021460A48FFF7AB
:108E000007FF21460948FFF703FF094B4FF486513E
:108E100005930223074804AA04932AF00BFD06B029
:108E200010BD00BF60E31600702A0400802A040011
:108E300042420400582804002DE9F04788B06846F3
:108E400002F10803DB08A0EBC30302AF9D4602ADAD
:108E5000284614462BF0F6FE00232B559DF80840BB
:108E60006D46303C88B0E4B202AA2D4B4FF4C65197
:108E7000C2E9053403232B4842F8103F2AF0DAFCFC
:108E8000082CAD463CD8284B53F82450274B53F8B8
:108E9000248029462648FFF7BBFE41462548FFF7B8
:108EA000B7FEE94688B002AE4FF47A7AB5FBFAF520
:108EB0003446B5610325204B4FF4C651736144F825
:108EC000105F224617482AF0B5FCB8FBFAF11B4B9D
:108ED000B16122464FF4C6511248736135612AF0E0
:108EE000A9FCCD46002200231548CDE9002340F619
:108EF0005D7200232AF008F81837BD46BDE8F087F8
:108F0000104B40F2DC587B6102234FF48651054838
:108F100007F110023B6145462AF08CFCB9E700BF1F
:108F20005E42040058280400182A04003C2A040069
:108F3000702A0400802A0400A5420400BD420400F7
:108F4000F0850020664204002DE9F043002583B03F
:108F5000214C224EDFF88880DFF8889002AF33681A
:108F60003BB321464046FFF753FE00B2002810DA1B
:108F700088B002AA1C4B4FF4C251C2E9053003234A
:108F80001A4842F8103F2AF055FC0437BD46BDE8A8
:108F9000F083FFF791FE082320460093144A012333
:108FA00010492AF04AFC55B94C4511D9A4F51C5476
:108FB000103C002140F21F5029F01EFACFE70D4B64
:108FC00004F51C5410349C42F3D90025084CF0E7FA
:108FD0000125044CEDE700BF60E31600D0D7002068
:108FE000602A040040420F00D642040058280400C2
:108FF00080841E007F841E00B0B586B06C4600AF32
:1090000088B06A465E4B4FF4D65153615D4B5E4863
:109010009361022313775D4B42F8103F2AF00AFC5C
:10902000A5460DF061FD00B268B188B06A46584BA4
:109030004FF4C251C2E905300323534842F8103FB0
:109040002AF0F8FBA5461A221921524800F0ACF983
:10905000514D5248286038F089FF50B9504B4FF4B9
:1090600082517B610223484807F110023B612AF0DC
:10907000E1FB4FF4805300224A494B4830F07CFE1C
:1090800013F038FA12F06AFE14F098F904464749D2
:1090900014F0F8FD182300220921204630F0E9F9E8
:1090A00013F028FA12F05AFE14F088F93B460446F1
:1090B0003F4A1068516803C33946204614F0E2FD68
:1090C0003C492022C9B20023204630F0D2F928685A
:1090D00083685B68984719F025FE3749374800F0E8
:1090E000A1F800B270B16C4688B06A46344B4FF4B8
:1090F000C651C2E905300323234842F8103F2AF045
:1091000099FBA5462F4C204638F030FFA0B92368C4
:109110006C4688B06A462C491B48C2E905130223F5
:1091200013771A4B4FF4D25142F8103F2AF082FBCA
:10913000A5461837BD46B0BD204638F017FF0028B9
:10914000E5D0224B4FF486517B6102230E4807F194
:1091500010023B612AF06EFB0021002901F101049D
:1091600001F00101B8BF494200200DF0E9FC24B232
:1091700000214FF4004029F03FF92146EDE700BF00
:10918000094304001A4304005828040003000001A6
:109190003343040098240400F0D7002088250400FD
:1091A00051430400DCE30020D4D7002074430400C2
:1091B000EF43040085430400748100206081002097
:1091C0009943040040250400C1430400E443040023
:1091D00010B51C46034B11461B680BB1224698473D
:1091E000204610BDF4D7002098B500AF78B16C468A
:1091F00088B06A46084BC2E90530032342F8103FA5
:1092000000234FF4C251054802F00CFBA546044868
:1092100027F0FCF9BD4698BD1A4404003829040023
:10922000B48600202DE9F04188B0044602AF0D4617
:109230006E464FF00208254BC7F810807B61002373
:109240004FF48651224807F1100202F0EBFA002C8D
:109250003AD0204607F0DEFC2A681E4B1E481A60F2
:1092600006F03AF9044698B188B002AA1B4BC2E94D
:109270000534032342F8103F00234FF4C251144831
:1092800002F0D0FAB54620461837BD46BDE8F08159
:109290003C46134D4FF0FF324FF0FF33114827F09B
:1092A000F9F90FCD0FC42B684246236001233846DD
:1092B00000930D490D4B06F053FE04460028E2D002
:1092C00088B002AA0A4BD2E70A4CDCE72F4404001C
:1092D00038290400F4D70020E99100004644040036
:1092E00080290400B4860020902A0400DC2A0400AF
:1092F0005C4404000900AD0B38B50F4C0F4D2378CA
:109300002BB9012323702DF05EF9286038BD2DF0B4
:109310005AF900220A4B186022701B682A689B1AAF
:10932000084A13601368084AA3FB0232DB0B43EAC6
:109330004243064A1360E9E7DC03012010D800200D
:1093400014D80020F8D7002040420F0018D8002081
:1093500070B5012543688D401B6804461D421646C2
:109360000ED10D4940F2FC430C4A0D482AF0BEFCD8
:109370000C482AF0BBFC40F2FC4108482AF0AFFC44
:1093800036B1A368DB6829462046BDE8704018471F
:10939000A3681B69F7E700BFCC4404009B440400AA
:1093A0000A450400274504002DE9F8433F4B0446D5
:1093B00018603F4B0D4616461970012743688F40D1
:1093C0001B68D0F808901F42D0F810800ED13949A0
:1093D00040F2DA23384A39482AF088FC38482AF023
:1093E00085FC40F2DA2134482AF079FCD8F80030C4
:1093F0004FF4003223EA0703C8F80030294620461C
:10940000D9F80030984701256368B5401B68D4F847
:1094100008801D4227690ED1264940F2DA23264AE8
:1094200026482AF063FC26482AF060FC40F2DA2144
:1094300021482AF054FC3B684FF4803223EA0503AC
:109440003B6031462046D8F800309847D4E90137D0
:109450001B681D420ED117494FF41F73164A174857
:109460002AF044FC16482AF041FC4FF41F711248C0
:109470002AF035FC4FF0C0634FF0A0723146204611
:10948000BF69B84770B90F4B0F49C1E90135A368EF
:10949000DB691BB101222046984708B140F29B20AE
:1094A000BDE8F88340F29A20FAE700BF0CD800200C
:1094B000DD030120CC4404009B4404000A45040061
:1094C00027450400F992000000D800202DE9F04F54
:1094D00093B092461F4604460191002840F0B9819E
:1094E00040F25F33A04AA149A1482AF0FFFB40F2B5
:1094F0005F319D482AF0F3FB019BABB99D499C4825
:10950000C423994A2AF0F2FBC42197482AF0E7FBCA
:109510004FF000092078A178667801EB80012144A2
:109520004E451AD80B1B0193A5780395F5B11C9BEA
:1095300003F00103E278029212B11C9A920717D449
:10954000B3B9BAF1000F03D03A4620460199D0478B
:10955000019E304613B0BDE8F08F4D1C28462BF01D
:1095600033FB411C294409F10109D9E72B46E1E706
:1095700094F800904FEA8902049204EB8909BAF149
:10958000000F5BD1019EA3B357464D444D451ED1FC
:10959000A9464D461C9BDDF808A0DFF8DC81774921
:1095A00003F0050BCA4403F00202AA45D1D015F816
:1095B000010B54F82000404525D3884223D21C9B40
:1095C000DB0738D4BBF1000FEFD1013EEDE719F80E
:1095D000013B54F823002BF0F7FA1D9B013033B107
:1095E0001E9B9F423EBF1D9B23F817000137064478
:1095F000CCE735B11C9A12F00407CAD01F46A94423
:10960000C7E72F46C5E7002ACFD04FF000090192E7
:109610002BF0DAFA1D9B019A5849013033B11E9B99
:109620009F423EBF1D9B23F8170001370644B9F146
:10963000000FBAD0C6E74FF00109E8E7002B40F071
:10964000FC8025B11C9A510700F1FF801D46A846F9
:10965000039BDFF814B19944029B494E4B44059398
:109660001C9B03F00101059B994549D11C98667824
:1096700010F0020F06EB05020CBF404600202378D5
:10968000D2B2002940F0A9801C9911F0040F14BF38
:10969000414600210793E37894F802B06270A1700C
:1096A000E0703A46204604990693D047B0F100098D
:1096B000C0F2BF80079B66702370069B3A46414606
:1096C00084F802B0E3700EA8D047061EFFF641AF43
:1096D000DDE902311944049B3A461944019B05987F
:1096E000591AD0470028C0F2A6804E444FF0000916
:1096F00006444D4573DC00213A460846D04728E72A
:1097000099F800301C4A54F82330934202D31B4A84
:1097100093420FD31C9B9A0753D4B8F10F0F45D92E
:10972000314640F2FF335A4611482AF0DFFA40F240
:10973000FF3138E041B30F2D0BD9124940F2F2331B
:109740005A460B482AF0D2FA40F2F23158462AF033
:10975000C6FA12AA6B1C154499F8002005F8202CB3
:10976000DDB209F101097BE739450400CE4504006B
:109770000A450400D1450400A0230400B4DD040020
:1097800008460400E94504001C9B5B07E9D5B8F1D5
:109790000F0F0BD9314640F2F5335A462F482AF0C5
:1097A000A5FA40F2F53158462AF099FA12AA08F1C2
:1097B0000103904499F8002008F8102C5FFA83F810
:1097C000CFE70F2DC5D926494FF47F735A4623485A
:1097D0002AF08CFA4FF47F71B8E700215AE70AAB00
:1097E00013F8093054F823B08DF827301D9BEBB1E6
:1097F00033F819803A4601210DF12700D04700289F
:1098000019DB0644B8F1000F06D158462BF0DCF9FD
:1098100000F101081FFA88F83A4641465846D047F9
:10982000002808DB064409F1010962E7DDF87480CD
:10983000E0E74E468DE606468BE64FF000080AA8A4
:109840004946039A2BF0FEF902E7A8460EA81D46EA
:10985000F6E7019B002B7FF467AE59E60A4504004A
:10986000E9450400436870B503F00303022B044686
:109870000E46816010D0032B04D0012B0FD10025A0
:10988000284601E0056800200023636010B13146DE
:1098900029F0DAFE284670BD00250068F4E745236C
:1098A000054A064906482AF021FA452102482AF0CD
:1098B00016FA0025E7E700BF284604004B770400AE
:1098C0000A450400014B1B68184700BF8081002037
:1098D000014B1860704700BF8081002007B50B4620
:1098E000002102460091034800F0E8FC03B05DF857
:1098F00004FB00BFC598000030B5002587B0CDE956
:1099000003010446009503A90548059500F0D6FC1F
:10991000DDE904309842B8BF255407B030BD00BF20
:10992000E53803002DE9F74FB0F81C90044619F014
:10993000080F009222D001290CBF49F0100949F00C
:109940002009A0F81C901434204626F023FB68B9A7
:10995000B9239B4A9B499C482AF0C8F921469B4859
:109960002AF0C4F9B92196482AF0B9F9009B83F38B
:109970001188BFF36F8F03B0BDE8F08F944FDFF80D
:10998000488209F00709022906D1204629F0D7FFAD
:109990000028D8D0012864D1D4F818B0A38BBBF12B
:1099A000000F19DA0026256823F00703C4E90066D2
:1099B00043F00103A383A38B03F007024A450192FE
:1099C00003D0A268002A40F0138115B9002E00F0E0
:1099D00059814FF0000A0DE103F00702511F0129E0
:1099E00020D8002123F00703062A25689BB2C4E98A
:1099F00000110AD13DB12946E28B0968013292B2C9
:109A00000029FAD1E28343F002032046A38329F020
:109A100096FF06460028CED0A38B43F02003A383F5
:109A20000026C8E7042A0DD123F007039AB2204686
:109A3000A28329F084FF054688B142F02002002568
:109A4000A283EDE740F21B133A46404661492AF0F3
:109A50004DF940F21B1138462AF041F900252E46F7
:109A6000A9E7032834D1B9F1000F0BD040465A4979
:109A70004FF4AB733A462AF039F94FF4AB713846DC
:109A80002AF02DF923685BB94046544940F2571338
:109A90003A462AF02BF940F2571138462AF01FF9BE
:109AA00023691E685EB940464D494FF4AD733A468E
:109AB0002AF01CF94FF4AD7138462AF010F9A38B47
:109AC00023F0070343F006030025A383AB4672E7A8
:109AD000042831D1B9F1020F0BD04046414940F280
:109AE0005D133A462AF002F940F25D1138462AF039
:109AF000F6F8E38B5BB140463B494FF4AF733A460F
:109B00002AF0F4F84FF4AF7138462AF0E8F82369E8
:109B10005E685EB94046324940F261133A462AF027
:109B2000E5F840F2611138462AF0D9F8A38B23F00A
:109B3000070343F00403C7E7052831D1B9F1010F4A
:109B40000BD0404629494FF4B2733A462AF0CEF87A
:109B50004FF4B27138462AF0C2F823685BB9404628
:109B60001E4940F265133A462AF0C0F840F26511EA
:109B700038462AF0B4F823699E685EB94046184911
:109B80004FF4B4733A462AF0B1F84FF4B471384642
:109B90002AF0A5F8A38B23F0070343F0050393E70E
:109BA000002540F26B133A4640460A492AF09EF8D7
:109BB00040F26B1138462AF092F82E4686E700BF35
:109BC000EE4604001B4704000A4504003247040027
:109BD0004B4604004B7704006D46040079460400B0
:109BE0009C460400B3460400C9460400D84604005D
:109BF0004FF0010A43F0080304F114094846A38317
:109C000026F0C8F968B9B9234046374A37492AF0DF
:109C10006DF8494636482AF069F8B92132482AF0E9
:109C20005EF8009B83F31188BFF36F8FBAF1000FCA
:109C300037D1002D47D116B120462E49B0474FF0FD
:109C40002003EFF3118B83F31288BFF36F8F484625
:109C5000CDF800B026F090F968B98E234046224A2C
:109C600025492AF043F8494624482AF03FF88E2136
:109C70001D482AF034F8484626F09AF9A38B23F0C1
:109C80000803A383A38BDA0625D5012123F0100353
:109C9000A383B4F81C9009F0070900297FF473AE80
:109CA00051E6A1680029C4D0D1F800A04B68204635
:109CB0009C46019A5B46E047BAF1000FB9D0514685
:109CC000DAF800A0F2E729465B462046019A2D68A3
:109CD00029F051FEADE713F020011EBF23F0200351
:109CE0000221A383D5E700BFEE4604001B47040012
:109CF00032470400019D0000474704005C47040010
:109D0000F8B504460D4600F114064FF02003EFF3BA
:109D1000118783F31288BFF36F8F304626F02CF93A
:109D200068B98E230B4A0C490C4829F0DFFF3146F5
:109D30000B4829F0DBFF8E21064829F0D0FF304682
:109D400026F036F93A462046A5610121BDE8F840E3
:109D5000FFF7E8BDEE460400474704000A4504004B
:109D60005C4704002DE9F04704460F4629F019FE30
:109D7000051E5EDB04F114094FF02003EFF3118A96
:109D800083F31288BFF36F8F484626F0F5F868B961
:109D90008E23384A3849394829F0A8FF49463848BF
:109DA00029F0A4FF8E21334829F099FF484626F078
:109DB000FFF84FF6FF71E38BA28B8B4202F0070690
:109DC00050D0022E24D135464FF001080133E383F1
:109DD000484626F0DFF868B9B923264A29492748BA
:109DE00029F084FF4946284829F080FFB9212148FD
:109DF00029F075FF8AF31188BFF36F8FB8F1000F58
:109E000017D0002332463946204629F0B4FD10E031
:109E1000930701D0062E0FD100233B606368F3B98E
:109E2000C4E900773546FEB9524602212046FFF7C5
:109E300079FD2846BDE8F087052E18D0012E0BD0FD
:109E400012490E484FF4E473114A29F04FFF4FF4C2
:109E5000E4710F4829F043FF6FF0040504E01F6030
:109E60006760DFE76FF00A054FF00008B0E76FF0BA
:109E70008505F9E7EE460400474704000A4504005B
:109E80005C4704001B47040032470400D846040026
:109E90004B460400F8B50D46002939D006680C1F62
:109EA000A41BE70824F0070434446388DB070DD4BF
:109EB000AC23184A1849194829F018FF29461848B0
:109EC00029F014FFAC21134829F009FF3946304628
:109ED00029F093FD384436F83030C01A87420DD04F
:109EE000B4230C4A0F490D4829F000FF29460E48BB
:109EF00029F0FCFEB421074829F0F1FE63883946B9
:109F000023F0010330466380BDE8F84029F031BEFC
:109F1000F8BD00BF74470400954704000A450400DB
:109F2000A6470400DE470400044804004B422DE924
:109F3000F04703EA010731EA0303144606681FD01D
:109F4000042F3D4628BF0425B946CF1B07F1FF3A31
:109F50001AEA070F0ED033494FF4A073324A334840
:109F600029F0C4FE324829F0C1FE4FF4A0712E48FA
:109F700029F0B5FE7CB94FF000094846BDE8F087EE
:109F8000042904D8BDE8F047114629F023BE4FF05C
:109F900000090425DAE7B368B3EBD40FEBD904F179
:109FA0000B013944491B3046C90829F07CFD804625
:109FB0000028E0D009F1040505EBC00535445544FF
:109FC0007F422F40A7EB09094C44A9F10403073451
:109FD0009B1B24F00704A41BB0EBD30F4FEAD3075D
:109FE0004FEAE40408D201463A46304629F0A7FD7C
:109FF0004146304629F006FD3946304629F0FDFC41
:10A000003844844207D23046224629F098FD214642
:10A01000304629F0F7FC06EBC706738843F00103CE
:10A020007380AAE740480400744704000A4504000E
:10A030005B4804002DE9F74F824690461F460E46C6
:10A0400031B91A46414603B0BDE8F04FFFF76EBF85
:10A050001BB9FFF71FFF002644E002F1FF3B1BEA9C
:10A06000020F04680ED0464940F28313454A464821
:10A0700029F03CFE454829F039FE40F28311414861
:10A0800029F02DFEA368B3EBD70FE4D9351F2D1BA4
:10A0900025F007031A1D22440093B31A07F10B029F
:10A0A0001A444FEAD5090193D508B8F1000F02D040
:10A0B00016EA0B0F47D14946204629F09EFC8542FF
:10A0C00003460FD012D209EB0502204629F037FDD6
:10A0D000009D114625446B88204643F001036B80A8
:10A0E00029F047FD304603B0BDE8F08F09EB000BC7
:10A0F00004EBCB014988CA0725D45946204629F0EC
:10A100007CFC1844A8421ED32046EF1A29F0BEFC5E
:10A110005946204629F071FCB84208D9204609EB7F
:10A12000050229F00CFD1146204629F06BFC204663
:10A130005A46494629F0EDFC009B1C44638843F0D5
:10A1400001036380CEE73A4641465046FFF7EEFEF4
:10A15000054690B14946204629F04FFC019B314607
:10A16000C3EBC002043ABA4228BF3A4628462AF056
:10A1700069FD31465046FFF78DFE2E46B2E700BF1F
:10A1800040480400744704000A4504005B4804008A
:10A19000B2F5802F2DE9F04104460E4617466AD3EA
:10A1A0003E4940F2E3133E4A3E4829F09FFD3E48B7
:10A1B00029F09CFD40F2E311394829F090FD043F5D
:10A1C000F51D3E4425F0070526F00706761B172EE1
:10A1D0004FEAD6070ED8354940F2F313304A3148DA
:10A1E00029F084FD324829F081FD40F2F3112C481A
:10A1F00029F075FD2560B7FA87F40023C4F1200823
:10A20000C4F12404A4000734E408EB60631CBB42DF
:10A21000AF600ED927494FF40173214A214829F034
:10A2200065FD234829F062FD4FF401711C4829F0B7
:10A2300056FD002205F1100303EB8808984529D14B
:10A24000630043F001036B803B1B05EBC401580026
:10A250002A804880A91925F834404A80AB5305EB81
:10A26000C7035A88214642F001022846BDE8F04162
:10A270005A8029F0C7BB042AA1D80F494FF4F573BF
:10A28000074A084829F032FD094829F02FFD4FF40C
:10A29000F57191E743F8042BD0E700BF784804003C
:10A2A000744704000A4504008E480400DF48040097
:10A2B000C648040008490400A54804002DE9F04FF1
:10A2C0008B4692461C46002591B002909AF80000F9
:10A2D00008B9284663E325280AF1010707D0594643
:10A2E000029B98470028C0F25A83013512E21822D7
:10A2F00000210AA82AF0B1FC9AF80130252B78D069
:10A3000000221046964694461646394617F8013BF9
:10A310002B2B00F09D8000F29480202B00F09B807E
:10A32000232B00F09B802EB19DF8306046F0040690
:10A330008DF83060BCF1000F05D09DF8306046F01C
:10A3400008068DF83060BEF1000F05D09DF8306032
:10A3500046F010068DF8306028B19DF8300040F0CE
:10A3600020008DF830002AB19DF8302042F04002E4
:10A370008DF830209DF8302002F04400442803D1AD
:10A380006FF386128DF830209DF830202A2B42F092
:10A3900080028DF830207BD19DF831204B1C42F09B
:10A3A00001028DF831201A782E2A0CBF01210021DC
:10A3B0009DF8312061F341028DF8312074D15A7833
:10A3C0002A2A6AD000210A260133184610F8012BE8
:10A3D000A2F13007092F40F28E809DF830200E91B7
:10A3E000C2F3400040EAD17161F341028DF83020A0
:10A3F0005AE00AF102078DF833309DF83130D90761
:10A4000040F1498154F8049BB9F1000F07DA9DF837
:10A410003020C9F1000942F004028DF830205A07BB
:10A4200040F1428154F8048BB8F1000F80F2418171
:10A430009DF831306FF341038DF831304FF0FF3824
:10A4400037E12D2B0CD0302B7FF46DAF01225CE770
:10A450004FF0010C59E74FF0010E56E7012054E789
:10A46000012652E733460CFB0202303A1E4616F82C
:10A47000010BA0F13007092FF4D9994293D09DF830
:10A4800030100D92D20F62F341018DF830108AE73F
:10A490000B4600224FF00A0CE8E79DF8312002330A
:10A4A00042F004028DF831201F4617F8012B6C2A68
:10A4B00041D025D8682A2BD06A2A46D04C2A4CD0C5
:10A4C0001F4617F8012B9DF83130782A8DF833207C
:10A4D00000F2D980572A4DD8412A03D0453A022AA2
:10A4E00000F2D18004229DF8323062F302038DF82D
:10A4F000323001239EE006FB01210346303964E738
:10A50000742A26D07A2ADBD106229DF831300DE05C
:10A510005A78682A9DF8312006D1012161F3C602DC
:10A520008DF831209F1CCCE71346022262F3C6034C
:10A530008DF83130C5E75A786C2A9DF8312001D169
:10A540000421EBE713460322F0E705229DF83130A2
:10A55000ECE707229DF83130E8E7BDF8303023F40E
:10A56000F04323F0020343F4804343F00203ADF8C9
:10A570003030A6E7A2F15801202900F2848001A022
:10A5800050F821F049A6000087A6000087A6000029
:10A5900087A6000087A6000087A6000087A6000007
:10A5A00087A6000087A60000E5A4000087A600009B
:10A5B00049A6000009A60000E5A40000E5A40000EB
:10A5C000E5A4000087A6000009A6000087A60000F9
:10A5D00087A6000087A6000087A6000051A60000FD
:10A5E00049A600006DA6000087A6000087A600000F
:10A5F0006DA6000087A6000049A6000087A60000FF
:10A6000087A6000049A6000001209DF8321003F043
:10A61000780360F30201402B8DF8321002BF9DF8E1
:10A62000301041F001018DF83010632A31D1003B28
:10A6300018BF01239DF83020C2F340010B4363F3A0
:10A6400041028DF83020D8E602209DF83210DEE776
:10A6500003219DF8322003F07803A3F1400061F359
:10A66000020243428DF832204341E3E703219DF883
:10A67000322013F0780F61F3020214BF012300238C
:10A680008DF83220D6E79DF8303043F001038DF885
:10A6900030300023CEE79DF93020002AACBF4FF0C8
:10A6A000FF39DDF83490BAE69B077FF5C7AEDDF8D9
:10A6B00038800023CDE90D339DF832309DF83110FC
:10A6C00003F00703012BC1F3C30135D1CB1E042BCB
:10A6D00022D8DFE803F003090921210054F8043BE4
:10A6E000DA17CDE90A3206E0073424F00704F4E86B
:10A6F0000223CDE90A239DF8303013F0030659D028
:10A700003B4652465946029829F0D3FA0028C0F237
:10A7100046810544BA46D9E554F8043B01294FEA7D
:10A72000E372CDE90A3202D19DF92830D8E7022937
:10A73000E1D1BDF92830D3E7022B29D1CB1E042B60
:10A7400013D8DFE803F0030A0A121200002322687C
:10A75000201D0A920B930446CDE7E01D20F0070070
:10A76000F0E80223CDE90A23F5E754F8043B012978
:10A770000A934FF000030B9305D19DF828300A93FC
:10A7800000230B93B7E70229B5D1BDF82830F6E7CF
:10A79000042B09D1E31D23F0070303F10804D3E9D7
:10A7A0000023CDE90A23A6E7032B04BF54F8043B9A
:10A7B0000A93A0E79DF833007828ABD8622822D806
:10A7C00025283FF48CAD5828A4D1DDE90A010DF10C
:10A7D000260300930CAA04AB29F025FA8246B8F1AF
:10A7E000000F0DF126000CDB9DF83020A0EB0A03D2
:10A7F0006FF3861298458DF8302002D9A8EB030339
:10A800000D9380463EE06338152883D801A252F8A4
:10A8100020F000BF95A80000F9A8000015A70000CF
:10A8200015A7000015A7000015A70000F9A8000053
:10A8300015A7000015A7000015A7000015A7000028
:10A8400053A9000021A9000025A9000015A70000B8
:10A8500015A700006DA8000015A7000021A90000A1
:10A8600015A7000015A7000021A90000B8F1000FEE
:10A87000DDF828A00ADB414650462AF0ACF9002654
:10A880000AEB0008BAF1000F0CD143E750462AF05A
:10A890009BF9F4E700260A9B0DF1100A8DF81030A1
:10A8A0000DF11108A8EB0A0306B101339DF832201F
:10A8B000D00668D5023352060D9948BF0E9A0B4454
:10A8C00048BF9B18B9F1000F76DD9DF83020A9EB49
:10A8D0000309C2F38003039353076DD4500661D577
:10A8E00046B159463046029B9847002857DB039BE8
:10A8F00001351E46302356E01E070FD413F0100614
:10A9000018BF2026DDE90A23002BBFF65EAF5242B6
:10A9100063EB43032D26CDE90A2356E72B26F1E707
:10A92000002652E70A9840B30DF126030093002158
:10A9300004AB0CAA29F077F9BDF83230824603F057
:10A94000EF0343F4F04343F010030026ADF8323038
:10A9500045E70A9B07293FF6DDAEDFE801F00C046E
:10A96000060C08080C0C1D70D4E61D80D2E6EA1710
:10A97000C3E90052CEE61D60CCE6DFF8C8A006466B
:10A980000AF105088EE7110748BF013393E718461F
:10A9900003935946029B98470028039B04DA11B0A1
:10A9A000BDE8F08F20234D444A46002AA5EB09015B
:10A9B00009F1FF39EBDC0D4636B159463046029BB2
:10A9C00098470028EBDB01359DF83230D90601D4D9
:10A9D0001A0706D559463020029B98470028DEDB2F
:10A9E00001359DF83230DB0607D559469DF8330016
:10A9F000029B98470028D2DB01350D9E2E44731B25
:10AA0000002B16DC434652465946029829F051F96C
:10AA10000028C4DB0544A944A9EB0503002B7FF7FC
:10AA200079AE59462020029B98470028B7DB0135B4
:10AA3000F2E759463020029B98470028AFDB0135EA
:10AA4000DDE700BF3349040038B50D460446202237
:10AA500000212AF002F9EB686A68E361AB68A36140
:10AA60002B68626223620023A3622B6922B1511E0C
:10AA7000114208BF43F0010323610122002104F1C8
:10AA80002C0037F0DAFA58B12E2306490648074A57
:10AA900029F02CF9BDE838402E21044829F01FB9CF
:10AAA00038BD00BF5F4904000A450400394904006D
:10AAB0002DE9F04F87B0CDE90223436A0446013BFC
:10AAC0008B428B46C0F0C2800027BA46DFF88881EF
:10AAD000DFF8889104F114064FF02003EFF31182A0
:10AAE00083F31288BFF36F8F30460192009225F0F6
:10AAF00043FA68B98E2342464846594929F0F6F888
:10AB00003146584829F0F2F88E21404629F0E7F8FE
:10AB1000304625F04DFA05A9204629F0F4F80599AC
:10AB20000546594537D32168236A204613F821206A
:10AB300003EB810A22F0030203F821205A4629F090
:10AB400008F900252060304625F024FA68B9B923B9
:10AB500042464846444929F0C9F83146434829F05D
:10AB6000C5F8B921404629F0BAF8009B83F3118853
:10AB7000BFF36F8F002D6BD0002FABD09DF813303B
:10AB8000002BA7D0A36923B1394620469847002758
:10AB9000A0E71F469EE718B1204629F0E8F8D2E763
:10ABA000DDE90232134343D037F0F6F900283FD1F4
:10ABB000304625F0EFF968B9B923424648462A499C
:10ABC00029F094F83146294829F090F8B9214046F7
:10ABD00029F085F8019B83F31188BFF36F8F04F18F
:10ABE0002C00DDE9022325F055FD05464FF020023B
:10ABF000EFF3118382F31288BFF36F8F3046009317
:10AC000025F0BAF968B98E2342464846144929F01E
:10AC10006DF83146134829F069F88E21404629F035
:10AC20005EF8B5FA85F5304625F0C2F96D098AE778
:10AC30002269204605990DF11303C2F3400229F061
:10AC4000BDF8051E074618BF01257CE74FF0000A36
:10AC5000504607B0BDE8F08FEE4604000A450400F8
:10AC6000474704005C4704001B47040032470400C8
:10AC70002DE9F041C369044608460E46984704F1A1
:10AC8000140507464FF02003EFF3118883F3128871
:10AC9000BFF36F8F284625F06FF968B98E231A4AE3
:10ACA0001A491B4829F022F829461A4829F01EF8AB
:10ACB0008E21154829F013F8284625F079F93378C4
:10ACC0003A4643F0010333706168204629F041F8A9
:10ACD0006060204629F061F8284625F05BF968B9E4
:10ACE000B923094A0C490A4829F000F829460B48BB
:10ACF00028F0FCFFB921044828F0F1FF88F31188FF
:10AD0000BFF36F8FBDE8F081EE46040047470400B3
:10AD10000A4504005C4704001B4704003247040056
:10AD20002DE9F74F05463C4FDFF8F0A0DFF8F08043
:10AD300005F114064FF02003EFF3118983F3128815
:10AD4000BFF36F8F304625F017F968B98E233A4666
:10AD50005146404628F0CAFF3146324828F0C6FF27
:10AD60008E21384628F0BBFF304625F021F9D5E981
:10AD70000141A14288BF6C6A641AFCB1286A10F8CC
:10AD8000213000EB810B13F0030417D0022C03D108
:10AD900050F82140A40816D1DC07EA6910D543F029
:10ADA000020300F82130584601919047019902466C
:10ADB000284628F0CEFF0024A86011E0A3460FE04B
:10ADC0005846904704462246A968284628F0C1FF05
:10ADD0002246E968A860284628F0BBFF0124E86005
:10ADE000304625F0D7F868B9B9233A4640460E49AF
:10ADF00028F07CFF31460D4828F078FFB92138460D
:10AE000028F06DFF89F31188BFF36F8F002C8FD16D
:10AE1000584603B0BDE8F08FEE46040047470400F3
:10AE20000A4504005C4704001B4704003247040045
:10AE30002DE9F041C369044608460D46984704F1E0
:10AE4000140607464FF02003EFF3118883F31288AE
:10AE5000BFF36F8F304625F08FF868B98E23244AF0
:10AE60002449254828F042FF3146244828F03EFF77
:10AE70008E211F4828F033FF304625F099F82B78B3
:10AE80006FF300032B7023699B0705D5E268236AE3
:10AE900003EB82039D4225D12B783A466FF34103A1
:10AEA0002B70E168204628F054FFE060304625F022
:10AEB00071F868B9B9230E4A11490F4828F016FFF6
:10AEC0003146104828F012FFB921094828F007FF41
:10AED00088F31188BFF36F8F04F12C00BDE8F041B7
:10AEE00025F094BB2B6867F39F032B60DEE700BF60
:10AEF000EE460400474704000A4504005C4704008E
:10AF00001B4704003247040048B1054B1A68054B43
:10AF1000B2FBF3F2044B504343F001031847704770
:10AF20009C83002040420F00102A04000F2AF8B52D
:10AF300006460D4614461F460BD92049204840F2CC
:10AF4000E713204A28F0D2FE40F2E7111D4828F00E
:10AF5000C6FE28460BF0AEF8A400054604F5C07402
:10AF6000B7B158B91849164840F24E23174A28F08D
:10AF7000BDFE40F24E21154828F0B1FE04F1804399
:10AF800046F0004603F52833C5F880601E60F8BD22
:10AF900058B90D490A4840F263230C4A28F0A6FE2E
:10AFA00040F26321094828F09AFE002204F1804310
:10AFB00003F52833C5F880201A60E8E79E490400AD
:10AFC0000A4504006C490400E1490400A949040051
:10AFD000F0B583B000AF381D0CF0B8F8244B9842A0
:10AFE00042D10BF053FA041E13DA38790CF0B4F89E
:10AFF0006D4688B06A461F4BC2E90534032342F808
:10B00000103F00234FF4C2511B4800F00BFCAD462B
:10B0100026E040F60703194D7C71AE68FB8074682A
:10B020007B683CB108212846154AA047041EDFDB97
:10B03000336913B96FF05704DAE701220821284673
:10B040009847041ED4DB012338790E4A03FA00F135
:10B05000C2F80415FA797979FFF768FF002CC7D197
:10B0600020460C37BD46F0BD6FF01204C0E700BFAC
:10B070000000AD0BE54904005829040058250400E0
:10B0800041B1000000700140F8B5069CC4F30745CB
:10B09000E7B2C4F3072420460AF0F0FF0F2D06465E
:10B0A0000BD91D491D4840F2E1131D4A28F01EFE30
:10B0B00040F2E1111A4828F012FEAD00EDB25EB97F
:10B0C000184916484FF41773174A28F00FFE4FF42B
:10B0D0001771154828F003FE0022144BC6F8802093
:10B0E0005A510123124ABB40C2F8083520460BF0E2
:10B0F000EBF938460CF030F80E4B98420BD0752324
:10B100000D4906480D4A28F0F1FDBDE8F8407521CB
:10B110000A4828F0E4BDF8BD9E4904000A45040031
:10B120006C4904000D4A0400A949040080A00240B3
:10B13000007001400000AD0B484A0400114A0400B1
:10B140002DE9F743144683681B69002B50D12B4926
:10B150002B48CB232B4A28F0C9FDCB21294828F0C6
:10B16000BEFDC4F3072738460AF0C4FF5FFA84F92E
:10B1700000233946220E06464846FFF7D7FE3846DA
:10B180000AF07CFFC4F307450F2D80460BD91E49FA
:10B190001B4840F2E1131D4A28F0A8FD40F2E111DE
:10B1A0001A4828F09CFD1A4BAD00EDB22B4449F033
:10B1B00000451D60B8F1000F0BD1164910484FF43F
:10B1C0001273154A28F092FD4FF41271124828F0BC
:10B1D00086FD124B06F13202C8F8805038460093C3
:10B1E0000194002352000BF061F803B0BDE8F08336
:10B1F000002298470028B4D0A9E700BF5F490400A7
:10B200000A450400114A04009E4904006C490400E8
:10B2100080A002400D4A0400A949040089B0000042
:10B220002BF041BB13B501AA2BF024FB044668B1F7
:10B2300016230F4A0F49104828F058FD21460F48A1
:10B2400028F054FD16210A4828F049FD019B6BB1F6
:10B250001723074A0A49084828F048FD0199094878
:10B2600028F044FD1721024828F039FD02B010BD36
:10B27000654A04009F4A04000A450400BF4A0400CE
:10B28000D94A0400E54A04002DE9F843044606467D
:10B290000127DFF8448014B93046BDE8F88394FAFA
:10B2A000A4F5B5FA85F507FA05F308EB05156FEA7D
:10B2B000030924EA03042B7B002BECD0284628F05A
:10B2C00036FE0028E7D16B6804222846196806EA92
:10B2D000090600F083FADEE76829040030B5002291
:10B2E00089B00F490F4836F086FF00220023002462
:10B2F000CDE906230E230C4DCDE903344FF4006253
:10B300002846CDE90144094B0949009424F05CFD2D
:10B310000849284636F046FE204609B030BD00BF39
:10B32000F9B30000288D0020608D0020E9B50000F1
:10B33000A8190120FF4A04002DE9F047284B294DA8
:10B340008146ED1A902D88460BD9274927484FF49E
:10B350008473274A28F0CAFC4FF48471244828F0EB
:10B36000BEFC244BD3E8EF4F621CC3E8E12F002959
:10B37000F8D11CB100242046BDE8F08727464FF0E5
:10B38000010A2E11164DB74211DBB9F1000FF2D0B0
:10B39000002CEFD02046FFF777FF0446B8F1000FEE
:10B3A000F6D000214FF4A47027F026F8F0E72B7BAD
:10B3B00073B12B68DB680BB128469847284628F004
:10B3C000B6FD40B96B6804222846196800F006FAF9
:10B3D00001371035D7E70AFA07F31C43F8E700BF37
:10B3E0006829040078290400344B04000A4504004D
:10B3F000074B040024D80020014825F007B900BFFE
:10B40000E4860020014B53F820007047E42A040032
:10B4100010B5044C237813B9034825F0F7F801233D
:10B42000237010BDDE030120E4860020084BD3E822
:10B43000EF2F0132C3E8E12F0029F8D138B1054BD5
:10B44000D3E8EF2F013AC3E8E12F0029F8D1704784
:10B4500020D800201CD8002000200246034BD3E84F
:10B46000EF0FC3E8E12F0029F9D1704720D8002061
:10B47000F8B5FFF7F1FF002607460A4C0A4D2D1BD1
:10B480002D11AE4200DBF8BD204628F04DFD28B15D
:10B4900023685B6813B1394620469847013610345B
:10B4A000EFE700BF68290400782904000149024839
:10B4B000FFF7CABAF02A040028D8002008B50023F4
:10B4C000074A4FF400401370064A1360064B074AC0
:10B4D0001A6000F021FCBDE80840FFF7E7BF00BF9D
:10B4E000DF03012020D80020848100203B3F03009F
:10B4F0000146002200230148FFF7DABA28D80020CD
:10B500000148FFF70DBC00BF28D8002001460148C4
:10B51000FFF78EBC28D80020014828F0A9BC00BF46
:10B5200028D80020F8B5184B187858B3FFF7E8FF73
:10B53000054688B1154BD3E8EF2F013AC3E8E12F58
:10B540000029F8D10027124C124E361B3611B74293
:10B550000CDB2846FFF7DAFF0F4B1B68002B01DDE1
:10B56000FFF786FFBDE8F840FFF7D6BF204628F07A
:10B57000DBFC20B12368294620461B689847013729
:10B580001034E4E7F8BD00BFDE0301201CD8002022
:10B59000682904007829040020D80020F8B50F4F4E
:10B5A0003D787DB929460120FFF7C6FE0C4C0D4EB3
:10B5B000361B3611B54206DBFFF7B4FF0028FBD17E
:10B5C00001233B70F8BD204628F0AEFC18B123687B
:10B5D00020469B68984701351034EBE7DF030120D4
:10B5E00068290400782904002DE9F84F2A4D2B4BD7
:10B5F000ED1A002D0BDC2A492A4840F28A232A4AF8
:10B6000028F074FB40F28A21274828F068FB0021CB
:10B610000846FFF791FE044668B340F267660027CC
:10B6200026F022FF214B186030B1214B1B68092BFB
:10B6300002DD204824F0EAFF4FEA25180025DFF854
:10B6400074B044B12046FFF71FFE044618B94FF00E
:10B65000FF364FF0FF37FFF765FF814648B91DB150
:10B6600082460E4DC2450BDB32463B46584625F01E
:10B6700011F84D46E5E74FF0FF364FF0FF37CFE7C3
:10B680002B689B691BB100222846114698470AF196
:10B69000010A1035E6E700BF782904006829040094
:10B6A000584B04000A450400074B04006CD80020E6
:10B6B0001CD80020E4860020334B13B51B680446D9
:10B6C00098472146A0603148FFF7D2FA304BD3E8C3
:10B6D000EF2F511CC3E8E01F0028F8D12D4B1B7839
:10B6E000002B36D04FF02003EFF3118483F3128840
:10B6F000BFF36F8F284824F03FFC68B98E23274A98
:10B700002749284828F0F2FA2349274828F0EEFA7A
:10B710008E21224828F0E3FA1F4824F049FCFFF765
:10B7200001FF1D4824F036FC68B9B9231B4A1F49A4
:10B730001C4828F0DBFA18491D4828F0D7FAB9212F
:10B74000164828F0CCFA84F31188BFF36F8F02B04B
:10B7500010BD184B1B68002BF9D052B900220023F2
:10B760001548CDE900234FF40042002327F0CCFB1D
:10B77000EDE70A2AEBD1104836F049FD0F4802B038
:10B78000BDE8104024F042BF8481002028D800206A
:10B790001CD80020DF03012070D80020EE460400F2
:10B7A000474704000A4504005C4704001B470400A7
:10B7B000324704006CD80020288D0020E486002049
:10B7C000044A054B9B1AB1EBD30F34BF52F831003A
:10B7D00000207047582804006829040070B50D4CFB
:10B7E0000546041B241101340E46E4B248B90A4947
:10B7F0000A48DE230A4A28F079FADE21084828F0B0
:10B800006EFA01226B681C711E605A71BDE87040AF
:10B81000FFF7FEBD68290400084C04000A45040037
:10B82000D04B04002DE9F04FC1F3CB45C1F34926BD
:10B8300081460C4690469A468DB01735002E47D06B
:10B8400002234FF0040B002209A807AF31460093F2
:10B85000CDF808B0034601974046CDE909220B9286
:10B860000596FDF733FEC0F30903581920F00700D1
:10B8700080081E4663F352240493FFF739FE054601
:10B88000D8B1049B00220A930223103009900B9236
:10B8900000934046CDE9017B114A059909ABFDF7BC
:10B8A00015FE002809DA0F490F4848230F4A28F0EF
:10B8B0001DFA48210D4828F012FA66F35224534627
:10B8C0002246494628460DB0BDE8F04F28F053BB4C
:10B8D00025F007008008FFF70BFE0546EDE700BFE7
:10B8E000493F03004B4C04000A4504001F4C040070
:10B8F0000EB403B503AB53F8042B0146044801937F
:10B9000028F061FB02B05DF804EB03B0704700BFA4
:10B9100015B9000038B54B6805461A68CB680C4667
:10B920009A4202D1084628F055FB6368D3E8EF2F0E
:10B93000511CC3E8E01F0028F8D1A3689D54636838
:10B940001A68E3689A4209D9054906487923064AE4
:10B9500028F0CCF97921044828F0C1F9002038BD3D
:10B96000834C04000A450400544C04002DE9F04FB8
:10B9700089B09A469DF8483004460493DDE9138364
:10B980000693159B0F460593049B9346169E002B2A
:10B9900000F0218106F00803079328F0D3FA06F09F
:10B9A00002050246002800F0C08020469049FFF7BB
:10B9B0009FFF81464DB116F0440F40F0B8803A46E3
:10B9C00020468C49FFF794FF814406F001035BB1E8
:10B9D000894B049A204653F82220884B8849002A34
:10B9E00008BF1A46FFF784FF06F00803002B00F09B
:10B9F000CA80844B049A204653F822208249FFF7DC
:10BA000077FF0546BBF1000F05D05A4620467F4917
:10BA1000FFF76EFF0544BAF1000F05D052462046ED
:10BA20007B49FFF765FF05444D44B8F1000F00F076
:10BA3000DA80784843462246774927F010FF0028ED
:10BA40000BDA764976484FF4FD73764A28F04EF9C2
:10BA50004FF4FD71734828F042F9059B002B4CD040
:10BA6000DFF8C481059F102F28BF1027F30607D4E5
:10BA7000B00648BF6D49204658BF6D49FFF738FFF3
:10BA80004FF0000A554500F384804FF00009DFF8BD
:10BA9000A4A1DFF8A4B1B94580F08B80069B59467C
:10BAA000204613F80920FFF723FF09F10109B9F136
:10BAB000100F75D120466149FFF71AFF4FF0000BB8
:10BAC000DFF87CA15F4540F28180069B514613F868
:10BAD0000B202046A2F120035F2B28BF2E22FFF768
:10BAE00007FF0BF1010BBBF1100F67D1069B3B4425
:10BAF0000693059BDB1B0593B4D1049B7BB1F10737
:10BB000004D520463D4A3E49FFF7F2FEF20606D430
:10BB1000B30620464CBF45494549FFF7E9FE20469C
:10BB200009B0BDE8F04F28F055BA814642E7454BD1
:10BB3000186800283FF448AF434B4FF4616519681B
:10BB40004FF47A7EB7FBF1F7B7FBF0F1B1FBF5F2FA
:10BB500000FB11770EFB07F7B7FBF0FC05FB121596
:10BB60003C2100FB1C77B5FBF1F30EFB07F7B7FB9D
:10BB7000F0F701FB135120460091CDE901C733498D
:10BB8000FFF7B6FE20E706F008053BE7049D3048C6
:10BB900050E741462046FFF7ABFE0AF1010A71E784
:10BBA00019F0070F7FF477AF41462046FFF7A0FE5C
:10BBB00071E751462046FFF79BFE76E71BF0070F23
:10BBC00080D141462046FFF793FE7BE74146204661
:10BBD000FFF78EFE85E7B8F1000FD7D1059B002B4C
:10BBE0009DD0049D3CE7059B002B88D038E700BF23
:10BBF000B84C0400BC4C0400042B0400B34C0400FB
:10BC00008E6E0400182B0400E14C0400E74C040085
:10BC1000EB4C040015B90000C73F0300F04C0400D2
:10BC20000A450400544C04002B800400AE6A040052
:10BC3000F94C040029800400FC4C0400024D04006F
:10BC4000044D040074D8002078D80020C54C0400AE
:10BC5000EF3F03002DE9F0414B680F8805460C4685
:10BC600090468E6886B0C7F382175BB113495B1AA2
:10BC700043F3CF0100291FDB2078C0F3C200FFF798
:10BC80009FFD0346214651F8102B6088C2F34922DC
:10BC9000002A01EB020408BF0021C0F3CB00CDE96C
:10BCA0000308CDE901140022314628460097FFF72A
:10BCB0005DFE06B0BDE8F0810023E3E758280400EC
:10BCC00042F20F7373B58B4228BF0B4605680446DA
:10BCD000052168460D4A27F025FE0646636828467A
:10BCE0000B225B680A4928F061F9636832466946AD
:10BCF00028465B6828F05AF963681B2228465B686F
:10BD0000044928F053F902B070BD00BF0159040086
:10BD1000434D0400274D040001230021074A10B5BC
:10BD2000074C1360A04204D801B11360054B1860A2
:10BD300010BD012140085B00F4E700BF78D8002067
:10BD400040420F0074D80020F8B50D460446064F57
:10BD50004618B44201D12846F8BD386814F8011BD2
:10BD600083685B689847F4E794D80020014B002073
:10BD70001960704784D800200122024B02481A70D3
:10BD800028F028B9E0030120482B04000148FFF700
:10BD900097BF00BF482B0400064B10B518680C462F
:10BDA000FFF730FB2146BDE8104003460F22024852
:10BDB000184700BF84D80020482B040008B5094864
:10BDC000094B186036F0D2F858B96F230749084874
:10BDD000084A27F08BFFBDE808406F21054827F08F
:10BDE0007EBF08BDF824040094D80020844D0400D0
:10BDF0000A4504004F4D04007FB570B9124B13483B
:10BE0000059302234FF4825104AA049328F0FCF80E
:10BE10006FF0150007B05DF804FB836863B90C4B45
:10BE20000A48059302234FF4825104AA049328F090
:10BE3000EBF86FF00400EDE71B681BB107B05DF88D
:10BE400004EB18471846E5E7B84D0400E028040065
:10BE5000C94D040010B586B008B101B16AB9134BE1
:10BE60001348059302234FF4825104AA049328F047
:10BE7000CBF86FF0150006B010BD84680CB1A46853
:10BE800064B90C4B0A48059302234FF4825104AA6B
:10BE9000049328F0B9F86FF00400ECE7234641F86A
:10BEA000040B06B0BDE81040184700BFE74D040082
:10BEB000E0280400C94D040030B51346044687B09D
:10BEC00068B91A4B1A48059302234FF4825104AA09
:10BED000049328F099F86FF0150007B030BD0068A2
:10BEE00060B9144B1248059302234FF4825104AAFF
:10BEF000049328F089F86FF00100EEE782680AB138
:10BF0000556865B90C4B0A48059302234FF48251DA
:10BF100004AA049328F078F86FF00400DDE70A46DD
:10BF2000AC46616807B0BDE830406047134E04007E
:10BF3000E0280400244E0400C94D0400002301221F
:10BF400013B50446CDE90032074BD0E9091223F0BE
:10BF500013F8A36E1B6823B1E06E02B0BDE8104079
:10BF6000184702B010BD00BFAF6A040008B5042234
:10BF70000021024828F071FE002008BD00000720C3
:10BF800030B50C460E4985B00291D0F8981105469F
:10BF9000CDE9003100F1E0014FF0FF33204623F0FE
:10BFA00031F850B9012384F86430D5F8943123B1C5
:10BFB000204605B0BDE83040184705B030BD00BF91
:10BFC0002B41030070B50C461146064628F097F841
:10BFD000054610B12060012070BD3046034928F0AD
:10BFE0008EF820600028F7D02846F5E7AF6A0400F5
:10BFF0002DE9F04F012381460569476885B005F5B5
:10C000005576D6E8EF2F002A03D1C6E8E13F002994
:10C01000F7D140F0BF80BC6ABB6804F12602043B44
:10C02000B3EB420F4FEA420126BFB3FBF1F3B3FA81
:10C0300083F300234FF0010028BFC3F12003013B2D
:10C04000984005F5D87800F09F8010224FF0080E38
:10C05000D7F804C09A4002EB40029C400CF1040166
:10C060000EFA03F30932C5F8481222F0030201EB7D
:10C07000440106331344C5F8401203315A000B44FF
:10C0800023F00303C5E98EC3444B02EB4402C5F819
:10C090004402C5E9A37340463968C5F84C2200F054
:10C0A000B3F9044630BBD9F804A0D9F81090DAE906
:10C0B000073409F52A7B012B584608BF103C24F0B1
:10C0C00045FE0023DAF8240035494FF4806201EB85
:10C0D000802100935846234624F054FE09F526702B
:10C0E000304924F05FFDDAF8140083685C684CB9CD
:10C0F0006FF057040023D6E8EF2FC6E8E13F002990
:10C100003ED0F8E74B46284ADAF81810A047044614
:10C110000028EFD1DAF8140083681B69002BE7D000
:10C120000122DAF81810984704460028E2D11F4B84
:10C130002846C5F894311E4BC5F898311D4B039322
:10C14000D5F8F8310293D5F8F031CDE90083D5F870
:10C150005032BA6AD5F8501300F020F9044600288E
:10C16000C8D105F1E00023F0E7F80028C5F858032E
:10C170000DDB0223D6E8EF2FC6E8E13F0029F9D115
:10C18000204605B0BDE8F08F6FF00B04B2E76FF00A
:10C190001504AFE76FF07704F2E700BF83410300B7
:10C1A000A82101203B4103002F4103003DBF0000B7
:10C1B00055410300C341030013B5044608462169F5
:10C1C00001F55571D1E8AF1F022910D193B1A0B18B
:10C1D0000121CDE900311346D0E9091222F0CCFE4D
:10C1E000074B984208BF6FF00B0002B010BD6FF014
:10C1F0000F00FAE76FF04C00F7E76FF00100F4E78B
:10C200002EF8FFFF2DE9F3410F461546066906F5A6
:10C210005573D3E8AF3F022B61D1136823B96FF098
:10C22000150002B0BDE8F0811B78002BF7D0D6F8DE
:10C230005083B8F1000F35D106F5CE744FF0FF33BF
:10C240004FF0FF32204623F0EDFE30462A6801A968
:10C25000FFF7B8FE019B1BB9204627F09CFFDEE7E5
:10C2600005F108029A666A6983F86480DA66DB631E
:10C2700070B1204627F08FFF019930460B6E2A6877
:10C28000FFF77EFE019C002CC9D000203C60C8E76F
:10C290002022296803F1400028F084FC204627F082
:10C2A0007AFFEFE730460F4927F029FF04460028C0
:10C2B000B5D005F1080383666B692022C3660023AD
:10C2C000296880F86430C063403028F06BFC224657
:10C2D0000121304600F044F80028D6D09FE76FF0E7
:10C2E0000F009EE7AF6A04002DE9F04F06460F46A7
:10C2F00091464FF00008D0F8A440DFF860B0A4F5F4
:10C30000A47585B0A4F5C4742946384628F06CFCA1
:10C31000D0B9CDF808B0D4F89831A5F1400ACDE9EC
:10C3200000933A464FF0FF333146504622F06AFE02
:10C3300070B97023012203FB084383F86420D4F80A
:10C3400094310BB1504698477035B8F1000F02D0C8
:10C3500005B0BDE8F08F4FF00108D5E72742030094
:10C360001FB5144690B18AB1012912D10A4B00F1D0
:10C37000E0010293D0F89831403201934FF0FF333F
:10C380002046009322F03EFE04B010BD6FF0150071
:10C39000FAE70020F8E700BF274203002DE9F04349
:10C3A00085B00F46DDE90C811446DDE90E251E46F9
:10C3B00028B321B3DFF84CC000F1E009002D08BF1D
:10C3C000654697B9CDE9024400F5C474204635F0BE
:10C3D000C7FD02ABCDE900432A46334641464846F5
:10C3E00022F0D0FF05B0BDE8F083002241460C9258
:10C3F00048462A4605B0BDE8F04323F0C3B86FF0C5
:10C400001500EFE7E9C20000F0B50E46044689B01A
:10C4100000286FD001230246C3630023D0F8981090
:10C42000364F403040F80C7C42F8301FCDE90133E4
:10C430004FF0FF330093C36D2AF08CFB304A06ABFC
:10C4400092E8030083E8030018460CF00DFE054651
:10C45000D8B904F134000CF0E7FD0546A8B9394617
:10C46000284805AA2AF050FB054670B9059B9A6832
:10C4700072B10C33D4F89400C4F8A03027F0F0FE69
:10C48000C4F8D40030B96FF00B05284609B0F0BDF0
:10C490000346EFE7D4F8940027F0E2FEC4F8D80092
:10C4A0000028F0D0D4F88C30D4F8A010C4F8A8300C
:10C4B0000423C4F8AC30C4F8C4300223A362124B86
:10C4C000B4F89420D4F8D470C4F8B810C4F8D010DC
:10C4D000D4F89010236204F1A403A4F8B020C4F8A7
:10C4E000A470C4F8C010A4F8C820C4F8BC00A661A9
:10C4F000E362CAE76FF01505C7E700BF4E4E0400C0
:10C5000094290400584E04007C2B04002DE9F843C4
:10C5100005464FF02003EFF3118683F31288BFF333
:10C520006F8F224823F028FD68B98E23204A2149C5
:10C53000214827F0DBFB1D49204827F0D7FB8E213F
:10C540001B4827F0CCFB194823F032FD1C4B1C681C
:10C550009CB14FF00C091B4FDFF86C80D4E901321D
:10C56000002D08BF13462BB198F8142009FB02F2E6
:10C57000B85C98472468002CF0D10C4823F00AFDE1
:10C5800068B9B9230A4A11490B4827F0AFFB07499C
:10C590000F4827F0ABFBB921054827F0A0FB86F335
:10C5A0001188BFF36F8FBDE8F88300BF9CD80020CF
:10C5B000EE460400474704000A4504005C470400B7
:10C5C000A0D80020B4D800204CE300201B47040072
:10C5D00032470400012238B5174B1C7D04F01F03BD
:10C5E0009A40D043154B610903EB8103D3E8EF1F59
:10C5F00001EA0005C3E8EC5FBCF1000FF6D111427F
:10C6000013D00F4B0F4D8BB10C236343EA185178B5
:10C61000E85C27F070FC0020FFF778FF0C235C43F8
:10C6200000232A192B51C2E9013338BD83F3118845
:10C63000BFF36F8FEFE700BF4CE30020C0D80020AE
:10C64000F73E0300B4D800202DE9F041454B0746E2
:10C650001D7D4FF02003EFF3118883F31288BFF3A1
:10C660006F8F414823F088FC68B98E233F4A4049C8
:10C67000404827F03BFB3C493F4827F037FB8E21E1
:10C680003A4827F02CFB0C246C43374823F090FCED
:10C690003A4B3B4E195D1A19002957D007CA06EBD1
:10C6A000040C8CE8070000221A552F4823F072FC76
:10C6B00068B9B9232D4A33492E4827F017FB2A4978
:10C6C000314827F013FBB921284827F008FB88F3ED
:10C6D0001188BFF36F8F0C236B43F05CF21898B393
:10C6E0007B1C0FD04FF400440021D2F808C027482B
:10C6F0000023ECFB0401264AFCF71CF90121381A3F
:10C7000026F0CAF924F0D4FE0120FFF7FFFE012134
:10C7100005F01F0291401F4A6B0902EB8303D3E827
:10C72000EF2F0A43C3E8E02F0028F8D11A4B33B1AA
:10C730000C20684333185978305C27F0D0FBFFF7A2
:10C7400049FF25F0EBFB0120BDE8F0813946284682
:10C7500000F024F80028A8D007C8344484E8070073
:10C76000A3E700BF4CE3002098D80020EE46040069
:10C77000474704000A4504005C470400A8D800208D
:10C78000B4D800201B470400324704003F420F008A
:10C7900040420F00C0D80020DF3E03002DE9F04FDB
:10C7A00085B00E4603A900F041F84FF400474FF062
:10C7B000000B039B441E0193194BDFF86880D3F8EC
:10C7C00000A024B2631C04D10025284605B0BDE8B2
:10C7D000F08FC4465946019B04EB440503EB8505E5
:10C7E00068680023E0FB07C10F4A6046FCF7A2F827
:10C7F000C44659468146A8680023E0FB07C10A4A9F
:10C800006046FCF797F8BAF1FF3F01D0824504D9A2
:10C81000721CDAD04844B042D7D9013C24B2D1E7E7
:10C82000B48100203F420F0040420F0008B9024B84
:10C830000B600020704700BFA02B04000449431E7A
:10C840000F3013F8012F8A5C83421A70F9D17047B8
:10C85000634E0400F0B50746264E8DB001AD0C4680
:10C860000FCE0FC50FCE0FC596E8070085E807006D
:10C870003846002F39D0002C39D0381F02462146C7
:10C8800010344B780D781B0443EA0563CD780431EE
:10C890002B4311F8025C8C4243EA052342F8043F23
:10C8A000EFD10421144C8A07036916D1C3F3074260
:10C8B000A55C1A0EA25C42EA0562C3F30725655D1A
:10C8C000DBB2E35C42EA054242EA03220CAD21F00E
:10C8D00003032B4453F82C3C534050F8042F0131F0
:10C8E00053402C290361DED101200DB0F0BD20465C
:10C8F000FBE700BF9C290400634E04002DE9F04FC4
:10C90000002703689DB002934368DFF8B8A1039342
:10C910008368DDE902460493C368059303690693BF
:10C920004369DDE905E2079383690893C369DDE99B
:10C9300007CB98460993049B0093CD590CAB2DBAB5
:10C94000DD515AF8043B043705EB03094FEAF225A1
:10C9500085EAB21585EA72654D442BEA020302EAC4
:10C960000C0983EA09032B44009DDDF80090434441
:10C9700075404FEA743888EAB408254006EA090988
:10C9800085EA090588EAB458A844402F03EB0E0550
:10C990004344DDF800E0D84640F085804FF0100AAF
:10C9A00049490A9151460AF1010A0DF1700E0AF047
:10C9B0000F070EEB870757F8407C01F00F094FEA8D
:10C9C000B748019788EAF71801F10E0707F00F073B
:10C9D0000EEB870757F8407C09314FEAF74E8EEA95
:10C9E000774ECDF82CE001F00F010DF1700E0EEB3B
:10C9F00089090EEB810151F8401C59F840ECBAF15D
:10CA0000400F7144DDF804E088EADE08DDF82CE030
:10CA100041448EEA972E0A9F714457F804EB49F877
:10CA2000401C4FEAF52905EA02080A9789EAB51978
:10CA30002CEA050787EA080789EA75694F447744B5
:10CA4000394459444FEA733784EA060B0BEA030B67
:10CA500087EAB30704EA060EDDF800808BEA0E0EC3
:10CA600087EAB35777448844E3463944009621D196
:10CA7000029F0F44039907601944049B41602344BB
:10CA80008360059B3344C360069B43440361079B5B
:10CA90002B444361089B13448361099B6344C36136
:10CAA0001DB0BDE8F08FE3460096944626462A4620
:10CAB0001C4642E7944626462A461C4645460B46F7
:10CAC00070E700BFA02B0400E02B040010B5044663
:10CAD000C8B17022002127F0DEFB0B4B0B4A0C493A
:10CAE000C4E900230B4B0C48C4E902130B4BC4E907
:10CAF000040301200A4BA36103F17453A3F523033C
:10CB0000A3F69243E36110BD85AE67BB67E6096A91
:10CB100072F36E3C3AF54FA57F520E518C68059B1F
:10CB2000ABD9831F014910220A60704710ED00E065
:10CB300072B6404080F31188BFF36F8FBFF34F8F01
:10CB400030BF62B6BFF36F8F704700BF72B6494007
:10CB500081F3118820BF80F3118862B6704700BF4F
:10CB60002DE9F04781460C4600AF00294CD0D1E9B1
:10CB700000126E468AB0A3686D464FF0050AA846BB
:10CB80002548C5E90723C5E9050148F810AF00238A
:10CB900042464FF421512148FEF744FED4E90312E6
:10CBA000B5466369AD461E48C5E90723C5E90501D9
:10CBB000C5F810A0002342464FF421511748FEF754
:10CBC00031FEB54688B0E3696D464FF0030AA846CA
:10CBD000144AC5E9052348F810AF002342464FF434
:10CBE000C2510E48FEF71EFEB546A369AD460E4A79
:10CBF000C5F810A0C5E90523002342464FF4C251F1
:10CC00000648FEF70FFEB5462146484622F0EEFCE8
:10CC1000BD46BDE8F08700BF634F04002029040033
:10CC2000924F0400C14F0400D04F040043B2002BC8
:10CC300008DB012200F01F0002FA00F0024A5B0943
:10CC400042F82300704700BF00E100E043B2002B30
:10CC50000DDB012200F01F0002FA00F05B09044A1C
:10CC6000203342F82300BFF34F8FBFF36F8F70471D
:10CC700000E100E0054B420953F82220012300F0B7
:10CC80001F0003FA00F01040704700BF00E100E011
:10CC900070B54C1C072C05460E460FD95B23104A75
:10CCA0001049114827F022F83146104807232A4638
:10CCB00027F01CF85B210A4827F011F86BB2002B13
:10CCC000ACBF03F160430A4B4FEA4414E4B2ABBF7C
:10CCD00003F5614305F00F0583F800435C5570BD13
:10CCE000FE4F0400345004000A4504004F50040075
:10CCF00014ED00E030BFFFF7FDBF00BF0B4A08B5E1
:10CD00000B4B22F07F029A60BFF34F8FBFF36F8F00
:10CD1000D3F8882022F47002C3F8882022F016FD90
:10CD200025F0F8FC00F006FC22F050FD0080000029
:10CD300000ED00E0094A0A49936809689867D967D5
:10CD400008494B6843F080534B60002383F31188FC
:10CD5000BFF36F8F9368D86F704700BF4CE300201C
:10CD6000983F040000ED00E015498A6882F881E0F0
:10CD70004FF030001044EFF3098C80E8F01F2020C2
:10CD800080F31288BFF36F8F0E4F4FF00066CA69B1
:10CD90008A603E6092F981E0906F0023936780F390
:10CDA000118802F1300090E8F01F8CF3098802F13D
:10CDB000000004B527F0BDFEBDE804407047000048
:10CDC0004CE3002004ED00E01EF0040F0CBFEFF375
:10CDD0000880EFF30980816911F8021C0229FFD055
:10CDE00001B527F097FE01BD42F8203C009B0D499C
:10CDF00042F81C3C019B21F0010142F8183C029BC7
:10CE000042F8081C42F8143C4FF0807342F8043C8E
:10CE1000002383674FF43C43203A0265C0F880301A
:10CE2000704700BFE7390300084B9860836E83F3B7
:10CE30000B88104681F30988002163B681F31188BD
:10CE4000BFF36F8F0022002326F0CDFD4CE30020BE
:10CE500001B572B60B4A906900281EBF002191618E
:10CE600035F0A7F862B6EFF30580A0F110004FEAA5
:10CE7000C0000549014409C99847BDE8014003497C
:10CE8000084700004CE30020A025040091CE0000DC
:10CE9000044B9968D869884203D003494FF0805207
:10CEA0000A6070474CE3002004ED00E02DE9F041FA
:10CEB00086B006460D4600AF02244B4B4FF482511C
:10CEC0004A4807F110027B613C6127F036FE484B6F
:10CED0009B6ADB0609D5474B4FF48251434807F163
:10CEE0001002C7E9044327F028FE414B9B6A18074C
:10CEF0000AD5414B4FF482517B6102233B4807F135
:10CF000010023B6127F019FE394CA36A990722D51C
:10CF1000E8463A4B07F110027B6102234FF482513D
:10CF200032483B6127F009FE636BA26A120612D5F4
:10CF300088B06A4632492D48C2E9051303234FF4ED
:10CF4000C25142F8103F27F0F8FDC5461EB1A36A52
:10CF500023F08003A362264B9B6ADB070AD5294B8B
:10CF60004FF482517B610223204807F110023B619C
:10CF700027F0E3FD1E4B9B6A9E060AD5224B4FF419
:10CF800082517B610223194807F110023B6127F0AF
:10CF9000D4FD174B9A6AD40602D49A6A900711D529
:10CFA0009B6AD9060ED5194940F25913184A1948F7
:10CFB00026F09CFE184826F099FE40F259111448BC
:10CFC00026F08DFE00200A4B18379A6A920642BF5F
:10CFD0005A6A22F400525A629A6A42F0FF029A6236
:10CFE0002870BD46BDE8F0818F5004002029040060
:10CFF00000ED00E0A5500400D8500400EB50040000
:10D00000035104001951040038510400A1510400D7
:10D01000675104000A450400EB5104002DE9F0417A
:10D0200086B006460D4600AF02243E4B4FF48251B7
:10D030003D4807F110027B613C6127F07EFD3B4BD0
:10D040009B6AD90409D53A4B4FF48251364807F10F
:10D050001002C7E9044327F070FD344B9B6A1A05A0
:10D060000AD5344B4FF482517B6102232E4807F1DD
:10D0700010023B6127F061FD2C4CA36A9B0522D571
:10D08000E8462D4B28487B61022307F110024FF43C
:10D0900082513B6127F051FDA36BA26A100412D5A7
:10D0A00088B06A4625492048C2E9051303234FF496
:10D0B000C25142F8103F27F040FDC5461EB1A36A99
:10D0C00023F40043A362194B9B6A59050AD51C4BF4
:10D0D0004FF482517B610223134807F110023B6138
:10D0E00027F02BFD114B9A6AD20515D5154B7B61A4
:10D0F00002234FF482510C4807F110023B6127F0E4
:10D100001CFD0020094A1837936A43F47F43936259
:10D110002870BD46BDE8F0819B6A9B04F1D50A4B9F
:10D12000E5E700BF4F5204002029040000ED00E0B5
:10D1300065520400D8500400765204008F52040057
:10D14000A4520400BF5204003851040010B586B048
:10D1500002243A4B4FF48251394804AA05930494AF
:10D1600027F0EBFC374B9B6A9B0108D5364B4FF4FD
:10D170008251334804AACDE9044327F0DEFC314B49
:10D180009B6ADC0109D5314B4FF482510593022390
:10D190002B4804AA049327F0D0FC2A4B9C6A14F471
:10D1A000801409D002242A4B4FF48251244804AA47
:10D1B0000593049427F0C1FC224B9B6A180309D500
:10D1C000244B4FF48251059302231D4804AA049373
:10D1D00027F0B3FC1B4B9B6A590309D51E4B4FF438
:10D1E000825105930223164804AA049327F0A5FC54
:10D1F000144B9B6A9A0309D5184B4FF4825105933F
:10D2000002230F4804AA049327F097FC0D4B9B6A56
:10D21000DB0309D5124B4FF48251059302230848D2
:10D2200004AA049327F089FC064A2046936A6FEA11
:10D2300003436FEA1343936206B010BDD752040054
:10D240002029040000ED00E0EF5204000253040026
:10D250001C53040046530400645304008953040023
:10D26000A35304002DE9F04F8BB0934B0546D3F840
:10D2700004908A461446002600AFC9F3080886F3D6
:10D280001188BFF36F8F02F07F43B3F17F4F18D146
:10D29000D10716D4620603D423070FD401260FE06A
:10D2A000864B4FF48251FB610223854807F1180237
:10D2B000BB6127F042FC14F0040400D05546002660
:10D2C0007DB940F205437F4A7F49804826F00EFD34
:10D2D0007F4826F00BFD40F205417A4826F0FFFC1E
:10D2E00000250023FB71A8F10303092B00F2C28083
:10D2F000DFE803F005B5B895C0C0C0C0C0BBE946C3
:10D300004FF0020A4FF0000B724BDFF8AC814FF484
:10D3100082516B4807F11802FB61C7F818A027F08B
:10D320000CFCD8F82C4087F807B014EA0A040BD09C
:10D33000694BC7E906A34FF48251614807F118020F
:10D3400027F0FBFB00240DE0D8F82C30002B26DA68
:10D35000624B4FF482515A4807F11802C7E906A3FD
:10D3600027F0EBFBFB79B3B92022294607F108002F
:10D3700027F068FC7B6A002E00F09880C3F3080257
:10D3800022B96FEA53236FEA43237B62204607F1F9
:10D390000801FFF7E5FB2C37BD46BDE8F08FD8F854
:10D3A0002C4014F080444DD04D4B07F118024FF43F
:10D3B00082514348C7E906A327F0BFFBAB6933F8A6
:10D3C000022C4DF602739A4210D188B06A462B683F
:10D3D00044493B48C2E9051303234FF4C25142F8C4
:10D3E000103F27F0AAFBCD462C68BBE7D8F82830C1
:10D3F000DBB22BB10120F91DFFF758FD0446B1E760
:10D40000D8F8283013F47F4F04D00120F91DFFF71E
:10D4100005FEF3E7D8F82840240C240414B1FFF7E4
:10D4200095FEEBE7304940F2D723264A274826F0FD
:10D430005DFC2E4826F05AFC40F2D721214826F008
:10D440004EFC8FE7284940F2DB231E4A1F4826F096
:10D450004DFC274826F04AFC40F2DB21EEE7002095
:10D46000F91DC9E70020F91DD1E7224BFB6102231A
:10D47000BB6160E7204A6C4619F4F87F8AB01F4B05
:10D4800018BF13466A461E490D48C2E90513A8F1A4
:10D490001003D361022382F820301A4B4FF4095154
:10D4A00042F8103F27F049FBA5464BE723F4FF73F2
:10D4B00023F0010369E700BF00ED00E0FC53040026
:10D4C00020290400675104001F5404000A45040089
:10D4D000325404007054040087540400A85404001B
:10D4E000B6540400D55404004B770400F1540400F2
:10D4F0001555040045550400E3530400CE530400C1
:10D500006955040004000001044B5A6942F01002FE
:10D510005A615A6942F480625A61704700ED00E036
:10D52000EFF30880EFF3098101B57246FFF79AFE29
:10D5300001BD00BF002320210348C2180133452B41
:10D5400082F80013F9D1704700E100E0002080F379
:10D550001488BFF36F8F002080F30A8880F30B8854
:10D56000FDF75EFE00200E490860BFF34F8F0D48A7
:10D5700080F3088800F03EF8202080F311880A48E4
:10D580004FF40061401880F30988EFF31480022102
:10D59000084380F31488BFF36F8FFFF7AFFB0000E1
:10D5A00094ED00E0683C0120A83D0120BFF34F8FBF
:10D5B0000549064BCA6802F4E0621343CB60BFF32F
:10D5C0004F8F00BFFDE700BF00ED00E00400FA054B
:10D5D000002318460649D1F89020C2F3072293424F
:10D5E00000D17047C1F89830C1F8A0000133F6E7C8
:10D5F00000ED00E010B572B6002484F31388FFF745
:10D60000E7FF23464FF0FF300B4A03F120010133BF
:10D61000102B42F82100F8D100234FF0FF3003F126
:10D6200060010133102B42F82100F8D162B6BFF33C
:10D630004F8FBFF36F8F10BD00E100E0084B9B6878
:10D6400083420BD1EFF3058343B1064B5A6842F096
:10D6500080525A605A6A22F400425A6224F00ABF89
:10D660004CE3002000ED00E01FB5094C094A2346B9
:10D670000121094800F02AF900230393074B0121F7
:10D68000E41A01A80193029400F046F904B010BD19
:10D690000000072000800020A02C0400A0880020AB
:10D6A00010B50B680C7A23F01F0204F01F031A4315
:10D6B000CB68640923F01F03054943EA440343F0A0
:10D6C0000103C1F89800C1F89C20C1F8A03010BD3A
:10D6D00000ED00E080B500AF88B06A46074BC2E9B4
:10D6E0000530032342F8103F00234FF4C251044891
:10D6F000FEF798F86FF01500BD4680BD8055040018
:10D70000082904002DE9F04F144606464FF00009A1
:10D7100087B05F4D00AF79607B68994535DAD6F800
:10D720000480B8F1000F54D0B8F11F0F1BD918F0C6
:10D730001F0F18D1D6F800B01BF01F0F13D1584699
:10D7400027F000FA824608EB0B00013827F0FAF9BF
:10D7500082451FD06FF0150A6C4688B06A464D4965
:10D76000C2E9051A05E06C4688B06A464A4BC2E930
:10D770000539032342F8103F00234FF4C2514748B4
:10D78000FEF750F8A5466FF0150420461C37BD463D
:10D79000BDE8F08F1AF1160FDED05445DCDDC5F878
:10D7A00098A0D5F89C00C5F898A0D5F8A02020F046
:10D7B0001F0042F01F08D6E900120A44884202F115
:10D7C000FF3B1ED1D84508D131465FFA8AF027F0D9
:10D7D000C2F909F101090C369EE73146C5F898A057
:10D7E000D5F89C3022F01F0203F01F031343C5F845
:10D7F0009C30E0B227F0AFF910F1160FC3D0441CF3
:10D80000E7E70139D845E0B221F01F01C5F898A03B
:10D8100008D1D5F8A03003F01F031943C5F8A010B4
:10D820003146E7E7D5F8A02002F01F021143C5F802
:10D83000A010314627F08FF910F1160FA3D0C5F8CC
:10D8400098A0D5F89C203B7C08F1FF3862F30403D4
:10D850003B74D5F8A0303A7C5B0863F34712D6E9F5
:10D8600000310B44BB6023F01F034344441CA3EB73
:10D870000B0BE0B22BF01F0307283A747B6102D92F
:10D88000FFF728FFB8E707F10801FFF709FFB6E740
:10D8900000ED00E0C9550400A65504000829040065
:10D8A0000522044BC3F89420BFF34F8FBFF36F8F53
:10D8B000704700BF00ED00E0BFF35F8F0022024B16
:10D8C000C3F89420704700BF00ED00E038B50D4D5F
:10D8D0000C462A78FFF716FF2870163011D14FF446
:10D8E0008B73094A09490A4826F000FA214609487B
:10D8F00026F0FCF9BDE838404FF48B71024826F061
:10D90000EEB938BDE2030120EC5504004B7704006A
:10D910000A450400235604002DE9F74F324E89468C
:10D9200005464FF00008B346304FC84502DB03B050
:10D93000BDE8F08FD5F804A0BAF1000F4FD02968E8
:10D940000846019127F0FEF8019904460AEB010010
:10D95000013827F0F7F884424FF01402244B18D016
:10D960006FF0150302FB08F84BF808304FF493737F
:10D97000204A2149214826F0B9F94946204826F095
:10D98000B5F94FF493711B4803B0BDE8F04F26F092
:10D99000A6B914F1160F3460E8D01978A142E5DD7C
:10D9A00002FB08B0C7F89840C7F89840D7F89C40E9
:10D9B00000F10801007B64F304000871D7F8A000AF
:10D9C0000C79400860F347140C71D7F89C1021F0D3
:10D9D0001F017160D7F8A01021F01F01316108F11B
:10D9E000010814360C35A0E7C4D8002000ED00E093
:10D9F000E2030120EC5504004B7704000A450400C3
:10DA00004F56040038B5224D2C68082C13D940F22B
:10DA10004D13204A2049214826F068F90822214662
:10DA20001F4826F063F91B4840F24D1126F057F9C4
:10DA30004FF0FF3038BD0020FFF73EFF194B1A4A68
:10DA4000C3F8C02084421BD1184B1C70FFF728FF7D
:10DA5000144BD3F89030C3F30723082B0ED014498E
:10DA600040F2B1130B4A0D4826F040F9114826F058
:10DA70003DF940F2B111074826F031F90020D9E70D
:10DA8000696801EB0011FFF70BFE0130DAE700BF18
:10DA9000AC2C0400EC5504004B7704000A4504004C
:10DAA0007E56040000ED00E0AAFF4400E2030120DE
:10DAB000B256040002570400014B1860704700BFC3
:10DAC000B88100200CB410B586B009B90DF10B0077
:10DAD0000024CDE9040109AB089A009404A9054883
