:020000021000EC
:1000000058C500206D6501003DAF02002565010067
:1000100025650100256501002565010025650100B4
:100020000000000000000000000000007555010005
:100030002565010000000000115501002565010043
:100040000D5601000D5601000D5601000D56010020
:100050000D5601000D5601000D5601000D56010010
:100060000D5601000D5601000D5601000D56010000
:100070000D5601000D5601000D5601000D560100F0
:100080000D5601000D5601000D5601000D560100E0
:100090000D5601000D5601000D5601000D560100D0
:1000A0000D5601000D5601000D5601000D560100C0
:1000B0000D5601000D5601000D5601000D560100B0
:1000C0000D5601000D5601000D5601000D560100A0
:1000D0000D5601000D5601000D5601000D56010090
:1000E0000D5601000D5601000D5601000D56010080
:1000F0000D5601000D5601000D5601000D56010070
:100100000D5601000D5601000D5601000D5601005F
:100110000D5601000D5601000D5601000D5601004F
:100120000D5601000D5601000D5601000D5601003F
:100130000D5601000D5601000D5601000D5601002F
:100140000D5601000D5601000D5601000D5601001F
:040150000D56010047
:04015400FFFFFFFFAB
:1001580053B94AB9002908BF00281CBF4FF0FF3126
:100168004FF0FF3000F00CB8ADF1080C6DE904CE8B
:1001780000F008F8DDF804E0DDE9022304B0704778
:10018800704700BF2DE9F04786468C460846089E12
:10019800154674461946002B40F0C1808542B2FAD4
:1001A80082F245D94AB1C2F1200300FA02FC954017
:1001B80094402EFA03F343EA0C0C4FEA154EA8B20A
:1001C800230CBCFBFEF80EFB18CC08FB00F943EA35
:1001D8000C43994528D9EB1808F1FF3704D2994503
:1001E80002D9A8F102072B44A3EB0903A4B2B3FB7D
:1001F800FEFC0EFB1C330CFB00F044EA0344A04257
:1002080014D92C190CF1FF3304D2A04202D9ACF155
:1002180002032C44241A43EA07401EB1D4400023A9
:1002280034607360BDE8F0874746DDE76346F1E771
:1002380092BB431B01214FEA154EAFB2200CB3FB12
:10024800FEFC0EFB1C330CFB07F840EA0343984501
:1002580061D9EB180CF1FF3004D2984502D9ACF102
:1002680002002B44A3EB0803A4B2B3FBFEFC0EFB75
:100278001C330CFB07F744EA0344A7424DD92C1959
:100288000CF1FF3304D2A74202D9ACF102032C448B
:10029800E41B43EA0040C0E7C2F1200395409440C4
:1002A80020FA03F12EFA03F34FEA154E9040AFB24D
:1002B8000343B1FBFEFC0EFB1C10190C0CFB07F8EA
:1002C80041EA0041884522D969180CF1FF3004D26F
:1002D800884502D9ACF102002944A1EB08019BB280
:1002E800B1FBFEFC0EFB1C110CFB07F743EA0143B4
:1002F8009F420ED9EB180CF1FF3104D29F4202D96C
:10030800ACF102012B44DB1B41EA004193E7604654
:10031800E3E76146F7E76046A4E76346B8E7834248
:1003280006D916B9002108467CE7C6E900E0F9E7D6
:10033800B3FA83F78FB9834201D3724508D8BEEB6D
:10034800020460EB030301209C461EB9002169E703
:100358003846FAE7C6E9004CF8E7C7F1200CBB407D
:100368000EFA07F522FA0CF42EFA0CF1BA401C43E7
:1003780020FA0CF3B8404FEA144901431FFA84FEEF
:10038800B3FBF9F809FB18300B0C08FB0EFA43EA2B
:1003980000439A4540D9E31808F1FF3004D29A4542
:1003A80002D9A8F102002344A3EB0A0389B2B3FBE4
:1003B800F9F809FB183308FB0EFE41EA03418E45A4
:1003C8002CD9611808F1FF3304D28E4502D9A8F15F
:1003D8000203214443EA0040A1EB0E01A0FB02986E
:1003E8004145CE46434602D306D14D4504D2013895
:1003F800B9EB020E68EB0403002EA7D0B5EB0E0292
:1004080061EB030101FA0CFC22FA07F3F9404CEA0C
:100418000303C6E9003199E74046C5E74346D9E7F3
:100428002DE9F04F85B006460F4615469846836875
:100438005B6802AA984700282FDB029CDDF80C9025
:10044800A5FB04AB05FB09BB19A3D3E90023504660
:100458005946FFF77DFE05464FF0FF335345164BCF
:1004680073EB0B031CD3A8FB04A408FB094410A3DB
:10047800D3E9002350462146FFF76AFE03464FF0B2
:10048800FF3252450C4AA2410DD3BDF838200092E4
:100498002A463946304618F021FE05B0BDE8F08FEF
:1004A8006FF08500F9E76FF08500F6E7AFF300809D
:1004B80000CA9A3B00000000FFC99A3BB0B588B05B
:1004C80000AF002943D008466C4688B06B4613F14C
:1004D80010020FD00C2142B18C46042901DD324DA7
:1004E8005D61BCF1080F08DD98610B292CDD4FF028
:1004F8000C0C04E06FF00041EDE76FF01B0C3AB113
:100508000321397100217971B971F971786818611D
:1005180000216FF300016FF341016FF382016FF364
:10052800C501012363F388110CF47B7363F3522133
:100538006FF3DE416FF3DF7100231C4803F0DAFB31
:10054800A5462037BD46B0BD6FF01B0CD7E7044663
:10055800174BFB6102233B7100237B71BB71FB715D
:100568007A68BA61194663F3000163F3410163F3E2
:10057800820163F3C501032262F38811082262F342
:10058800522163F3DE4163F3DF7107F11802074874
:1005980003F0B0FB20460AF0A5FD064B18600120C9
:1005A8001DF0ACFBCDE700BFC8F90200E8F7020078
:1005B800DCF9020078970020F0B589B000AF5849FF
:1005C800584818F09AFD002828DB5549564818F075
:1005D80094FD002864DB554BFB6102233B7100232B
:1005E8007B71BB71FB717A68BA61194663F30001CC
:1005F80063F3410163F3820163F3C501032262F3EC
:100608008811082262F3522163F3DE4163F3DF713C
:1006180007F11802464803F06DFB3BE06C4688B0D2
:100628006B4613F110020ED00C213AB10D46042985
:1006380001DD404E5E61082D08DD98610B292CDD37
:100648004FF00C0C04E06FF00041EEE76FF01B0C6C
:100658003AB10321397100217971B971F97178685A
:10066800186100216FF300016FF341016FF38201FC
:100678006FF3C501012363F388110CF47B7363F3F3
:1006880052216FF3DE416FF3DF710023284803F036
:1006980031FBA5462437BD46F0BD6FF01B0CD7E7EC
:1006A8006D4688B06B4613F110020DD00C213AB19B
:1006B8000C46042901DD204E5E61082C07DD986197
:1006C8000B2929DD0C2404E06FF00041EFE76FF0FF
:1006D8001B043AB10321397100217971B971F9719B
:1006E8007868186100216FF300016FF341016FF31F
:1006F80082016FF3C501012363F3881104F47B744D
:1007080064F352216FF3DE416FF3DF710023084871
:1007180003F0F0FAAD46BDE76FF01B04D9E700BF60
:1007280060E316004CFC02003CFC020038FA0200B0
:10073800E8F70200E8F9020010FA0200B0B582B04A
:1007480000AF6C4688B06B4613F110023ED00C2007
:1007580042B18446042801DD1F4D5D61BCF1080FDC
:1007680000DD99610B2834DD4FF00C0C3AB1032100
:10077800397100217971B971F971786818610021AE
:100788006FF300016FF341016FF382016FF3C5014D
:10079800032363F388110CF47B7C6CF352216FF311
:1007A800DE416FF3DF7100230C4803F0A3FAA5467E
:1007B80001201DF0A8FA0A4B186820B10AF0BCFC09
:1007C800074B00221A600837BD46B0BD6FF00040E5
:1007D800BEE76FF01B0CC9E754FA0200E8F7020005
:1007E80078970020F0B583B000AF11F03DFDB0B3AD
:1007F80005466C4688B06B4613F1100232D00C21C6
:100808003AB10846042901DD194E5E61082800DD69
:100818009D610B2929DD4FF00C0C3AB10321397188
:1008280000217971B971F9717868186100216FF345
:1008380000016FF341016FF382016FF3C5010123DA
:1008480063F388110CF47B7C6CF352216FF3DE4167
:100858006FF3DF710023074803F04CFAA5460C3705
:10086800BD46F0BD6FF00041CAE76FF01B0CD4E73E
:1008780070FA0200E8F70200F0B589B000AF30382E
:10088800C0B2032835D8DFE800F002572E31A24C59
:1008980025462946A14818F030FC00284FDB2146A0
:1008A8009F4818F02AFC0028C0F288809D4BA3FBC3
:1008B8000535AD096E4688B06B4613F1100200F09D
:1008C800BC800C2152B10846042903DDDFF858C268
:1008D800C3F814C0082840F3B3809D610B2940F386
:1008E800EB800C25AEE0914C2546D2E78A4C8F4D23
:1008F800CFE78F4BFB6102233B7100237B71BB71F8
:10090800FB717A68BA61194663F3000163F3410128
:1009180063F3820163F3C501032262F3881108229D
:1009280062F3522163F3DE4163F3DF7107F11802CA
:10093800804803F0DFF9ACE77C4C774DA9E76D46BA
:1009480088B06B4613F110020DD00C213AB10C4659
:10095800042901DD784E5E61082C07DD98610B29BA
:1009680029DD0C2404E06FF00041EFE76FF01B0471
:100978003AB10321397100217971B971F971786837
:10098800186100216FF300016FF341016FF38201D9
:100998006FF3C501012363F3881104F47B7363F3D8
:1009A80052216FF3DE416FF3DF710023614803F0DA
:1009B800A1F9AD46AAE06FF01B04D9E76D4688B0EF
:1009C8006B4613F110020DD00C213AB10C460429E4
:1009D80001DD5A4E5E61082C07DD98610B2929DD7F
:1009E8000C2404E06FF00041EFE76FF01B043AB10C
:1009F8000321397100217971B971F9717868186129
:100A080000216FF300016FF341016FF382016FF36F
:100A1800C501012363F3881104F47B7363F3522146
:100A28006FF3DE416FF3DF710023424803F062F990
:100A3800AD466BE06FF01B04D9E76FF0004141E76A
:100A48006FF01B053AB10321397100217971B97131
:100A5800F9717868186100216FF300016FF34101A3
:100A68006FF382016FF3C501032363F3881105F463
:100A78007B7363F352216FF3DE416FF3DF71002361
:100A88002C4803F037F9B546264BA3FB0434A409D8
:100A98006D4688B06B4613F1100210D00C213AB1A4
:100AA8000846042901DD264E5E6108280ADD9C619E
:100AB8000B292EDD0C2407E06FF01B05C2E76FF051
:100AC8000041ECE76FF01B043AB1032139710021B2
:100AD8007971B971F9717868186100216FF30001B3
:100AE8006FF341016FF382016FF3C501032363F3D1
:100AF800881104F47B7363F352216FF3DE416FF3C3
:100B0800DF7100230B4803F0F5F8AD462437BD46E6
:100B1800F0BD6FF01B04D7E7E0FD1C004CFC0200A1
:100B28003CFC0200D34D621050FB0200E0C81000EC
:100B38008CFA0200E8F70200E8FA02001CFB020047
:100B480068FB02002DE9F04184B002AF80461446EC
:100B580002F10803DB086846A0EBC3039D4602AD1B
:100B680028461AF0E5FA00232B556E4688B002ABEA
:100B780013F1100250D010216AB10846042903DD90
:100B8800DFF830C1C3F814C0082801DDC3F81880A5
:100B98000C2800DDDC610F2941DD10243AB1042165
:100BA800397100217971B971F9717868186100217A
:100BB8006FF300016FF341016FF382016FF3C50119
:100BC800032363F3881104F47D7464F352216FF3F3
:100BD800DE416FF3DF710023374803F08BF8B54629
:100BE8006E4600233B7102237B7188B002AC14F17E
:100BF800100217D00E201AB1042801DD2F4B6361B3
:100C080000233B7002237B70CAB1082800DDA56170
:100C180004F11C03002110E06FF00041ACE76FF015
:100C28001B04BBE76FF00040E5E701F1080CBC448A
:100C38001CF808CC03F801CB01310129F5D90D289E
:100C480034DD0E2342B10321397100217971B97164
:100C58000121F9717868206100216FF300016FF3B9
:100C680041016FF382016FF3C501032060F388111E
:100C7800C3F3090363F352216FF3DE416FF3DF71AE
:100C880000230D4803F036F8B5462878FFF7F4FD41
:100C980000220023CDE9002340F6F602002308488D
:100CA80017F0E4FC0837BD46BDE8F0816FF01B0380
:100CB800C8E700BF84FB0200E8F70200A8FB0200B7
:100CC80098840020F0B589B000AF6D4600233B71D1
:100CD80002237B7188B06C4614F1100212D00E20EA
:100CE8001AB1042801DDBC4B636100233B70022369
:100CF8007B70AAB1082801DDB84BA36104F11C037D
:100D080000210BE06FF00040EAE701F1200606EB56
:100D1800070C1CF820CC03F801CB01310129F4D9C8
:100D28000D2840DD0E2342B103213971002179716C
:100D3800B9710121F9717868206100216FF3000110
:100D48006FF341016FF382016FF3C501032060F374
:100D58008811C3F3090363F352216FF3DE416FF384
:100D6800DF7100239E4802F0C5FFAD46FFF73AFD4C
:100D78009C499D4800F0EEF9044600283DD06D4698
:100D880088B06B4613F1100210D00C213AB1084616
:100D9800042901DD954E5E6108280ADD9C610B2956
:100DA8004EDD0C2407E06FF01B03BCE76FF0004139
:100DB800ECE76FF01B043AB1032139710021797116
:100DC800B971F9717868186100216FF300016FF348
:100DD80041016FF382016FF3C501032363F38811A7
:100DE80004F47B7363F352216FF3DE416FF3DF7119
:100DF80000237B4802F07EFFAD467D481DF0A6FF2C
:100E080000285AD17A4B19686D4600233B7102239A
:100E18007B7188B06C4614F1100214D00E201AB100
:100E2800042801DD734B636100233B7002237B7050
:100E3800BAB1082800DDA16104F11C0300210EE00D
:100E48006FF01B04B7E76FF00040E8E701F12006F8
:100E580006EB070C1CF820CC03F801CB0131012963
:100E6800F4D90D2826DD0E2342B103213971002162
:100E78007971B9710121F9717868206100216FF3E6
:100E880000016FF341016FF382016FF3C501012087
:100E980060F38811C3F3090363F352216FF3DE4152
:100EA8006FF3DF7100234E4802F024FFAD4624376C
:100EB800BD46F0BD6FF01B03D6E74D481DF046FF59
:100EC800002855D14A4B19686D4600233B7102230F
:100ED8007B7188B06C4614F1100211D00E201AB143
:100EE800042801DD434B636100233B7002237B70C0
:100EF800A2B1082800DDA16104F11C0300210BE068
:100F08006FF00040EBE701F1200606EB070C1CF838
:100F180020CC03F801CB01310129F4D90D2824DDB7
:100F28000E2342B10321397100217971B971012170
:100F3800F9717868206100216FF300016FF34101B6
:100F48006FF382016FF3C501012060F38811C3F3C9
:100F5800090363F352216FF3DE416FF3DF7100235E
:100F68001F4802F0C7FEAD46A1E76FF01B03D8E7A4
:100F7800214BFB6102233B7100247C71BC71FC7125
:100F88007B68BB61214664F3000164F3410164F3AB
:100F9800820164F3C501032363F38811082363F313
:100FA800522164F3DE4164F3DF71234607F118022E
:100FB8000B4802F09FFE21464C1C002901F001015C
:100FC800B8BF4942002011F093F94FF400400021C6
:100FD80016F074FD2146EFE7B4FB0200C8FB0200DF
:100FE800E8F702006081002064810020E4FB020031
:100FF80018F502000CFC020030FC02002DE9F0415B
:1010080082B000AF054616461C46088AE84688B0F6
:10101800EC461CF1100242D0102372B11946042B81
:1010280003DDDFF888E0CCF814E0082901DDCCF80E
:1010380018000C2901DDCCF81C500F2B32DD1023D1
:1010480042B10421397100217971B971F971786857
:10105800CCF8100000216FF300016FF341016FF32A
:1010680082016FF3C501032060F3881103F47D73D7
:1010780063F352216FF3DE416FF3DF7100230C48F5
:1010880002F038FEC5460B4B1B681BB122463146A1
:101098002846984720460837BD46BDE8F0816FF0DE
:1010A8000043BAE76FF01B03CAE700BF60FC020009
:1010B800C0F802007C970020F0B583B000AFB0B351
:1010C80005466C4688B06B4613F1100235D00C21EA
:1010D8003AB10846042901DD1B4E5E61082800DD8F
:1010E8009D610B292CDD4FF00C0C3AB103213971AD
:1010F80000217971B971F9717868186100216FF36D
:1011080000016FF341016FF382016FF3C501012301
:1011180063F388110CF47B7C6CF352216FF3DE418E
:101128006FF3DF710023094802F0E4FDA546084883
:1011380014F0CAFB0C37BD46F0BD6FF00041C7E79D
:101148006FF01B0CD1E700BF84FC0200C0F802005E
:101158005C850020F0B58FB002AF04460D46664BA3
:10116800FB6202233B7000237B70BB70FB703A6804
:10117800BA62194663F3000163F3410163F3820124
:1011880063F3C501032262F38811082262F3522136
:1011980063F3DE4163F3DF7107F12802574802F079
:1011A800A9FD002C00F0A58020460AF0B7FA2A68AD
:1011B800534B1A60534808F087FA0446002841D078
:1011C8006E4688B002AB13F110020DD00C213AB173
:1011D8000846042901DD4C4D5D61082807DD9C6146
:1011E8000B292CDD0C2504E06FF00041EFE76FF0D0
:1011F8001B053AB10321397000217970B970F97073
:101208003868186100216FF300016FF341016FF333
:1012180082016FF3C501012363F3881105F47B7321
:1012280063F352216FF3DE416FF3DF71002333481C
:1012380002F060FDB54620463437BD46F0BD6FF07C
:101248001B05D6E74FF0FF324FF0FF332F4814F05D
:1012580083FB3C1D2E4D0FCD0FC42B68236001234B
:1012680000932C4B02222C49381D09F033F904460F
:101278000028E0D06E4688B002AB13F110020DD002
:101288000C213AB10846042901DD244D5D61082886
:1012980007DD9C610B2929DD0C2504E06FF0004176
:1012A800EFE76FF01B053AB103213970002179701F
:1012B800B970F9703868186100216FF300016FF395
:1012C80041016FF382016FF3C501012363F38811B4
:1012D80005F47B7363F352216FF3DE416FF3DF7123
:1012E8000023064802F006FDB546A4E76FF01B058B
:1012F800D9E70B4C9FE700BF9CFC0200C0F8020036
:101308007C970020C1100100B4FC02005C8500201D
:1013180030F9020030FD020054FD0200CCFC02004E
:101328000900AD0BF8B540B10646037845788478D6
:1013380004EB83040444002711E00B4CC623224627
:101348000A490B4818F0CDFBC621204618F0C2FB0D
:101358000134204619F0A9FE013004440137AF4298
:10136800F6D3A01BF8BD00BF64FD020094FD020087
:10137800ACFD02002DE9F04F97B000AF39617A61FA
:101388007862B0B19B46D7F88030C3F3C003FB61E5
:101398003B69DBB17B6A93F80280C7F80C80B8F12F
:1013A800000F18D0D7F8803013F0010F1FD1002399
:1013B80012E0AC4C4FF465732246AB49AB4818F0C9
:1013C80090FB4FF46571204618F084FB786AFFF7AC
:1013D800A9FF3861DEE700237A6AD2783A6242B11F
:1013E800D7F8802012F0020F22D1002202E0012358
:1013F800F2E7002202B9EBB1796A0D78AA00BA6067
:101408000A464968B96102EB85057A69FAB1002B89
:1014180040F00E81FB68002B00F01981D7F880306E
:1014280013F0040F40F0178100208246804603E144
:101438000122DFE77B691BB15A463969786A984708
:10144800D7F8109048465C37BD46BDE8F08FD7F80E
:1014580010900BBBFB68ABB3D7F8802012F00406E2
:1014680027D01D44002624E0814401350134544529
:101478001DD22A7800235BF822201946786917F0D4
:1014880057FEB8F1000FEFD0D7F888309E42EBD264
:1014980028F816000136E7E700242646C7F810A00A
:1014A800D7F80CA0D7F824B0D7F88480DFE7D7F8AE
:1014B80010A0D7F8803003F00503FB604FF0000B55
:1014C8003E61A0E0FE68F4E70025FB697BB9002DCA
:1014D8007BD0D7F8803013F0010F7BD1FB68002B4D
:1014E80071D10223A9EB03098AE00125EDE7414602
:1014F800B86917F064FE0028E9D06D46002387F824
:101508002C30022387F82D308AB0694611F1100279
:1015180039D012261AB1042E01DD554B4B61002338
:1015280087F82830022387F829307ABB112E47DD47
:10153800122362B1042087F82C00002087F82D00C0
:1015480087F82E00012087F82F00F86A08616FF3EA
:10155800000A6FF3410A6FF3820A6FF3C50A02218A
:1015680061F3881AC3F3090363F3522A6FF3DE4A5F
:101578006FF3DF7A002351463E4802F0BBFBAD46CD
:10158800A9F102093CE06FF00046C3E73346082E94
:1015980001DDB86988610C2B01DDC1F81C8001F1FF
:1015A8002003002009E000F1300C07F1280EF44474
:1015B8001CF830CC03F801CB01300128F3D9B5E78A
:1015C8006FF01B03B5E701238CE7D7F8803013F0E1
:1015D800020F15D0002332461946786917F0A8FD86
:1015E800D7F8843053B13B69D7F88820934205D2A5
:1015F800D7F8842022F8130001333B610138814475
:101608000BF1010B25463B6A9B45BFF41BAF2C46EB
:1016180014F8028B6B787A6A52F82360164B9E4254
:10162800FFF452AF154B9E42FFF45FAF00254CE725
:1016380007F144004FF0000A18B1FA68294619F07A
:1016480077FDFB681D440026C7F804B033E000208E
:1016580082468046F0E7C24607F134004FF00008A2
:10166800EAE700BF64FD0200CCFD0200ACFD020009
:10167800E8FD020048F80200B8F30200FC4A030043
:101688000025FB696BBB002D61D0D7F8803013F0C3
:10169800010F3AD0B8F10F0F2AD808F1010308F169
:1016A800300207F1280102EB010808F8149C5FFAE0
:1016B80083F8013625463B6A9E4280F08E802C4690
:1016C80014F802BB95F801907B6A53F82930874AD1
:1016D8009342D5D3864A934201D30025D1E7012509
:1016E800CFE75946B86917F06AFD0028CBD0E0E784
:1016F800804C40F23E4322467F49804818F0F1F979
:1017080040F23E41204618F0E5F9D7F8803013F052
:10171800040FCED0BAF10F0F0CD80AF101030AF169
:10172800300207F1280102EB010A0AF8249C5FFA4B
:1017380083FABEE76F4C40F24143224670496F4836
:1017480018F0CFF940F24141204618F0C3F9D7F814
:10175800803013F0020F1CD0B8F10F0F0CD808F12D
:10176800010308F1300207F1280102EB010808F82B
:10177800149C5FFA83F89CE75E4C4FF48963224619
:101788005D495E4818F0ADF94FF48961204618F0BC
:10179800A1F9BAF10F0F13D80AF101030AF13002C7
:1017A80007F128010A4402F824BC0AF1020A5FFA88
:1017B8008AFA07F1580252FA83F303F8249C78E76F
:1017C8004C4C40F24B4322464D494C4818F089F99D
:1017D80040F24B41204618F07DF9D7F804B07A6AF8
:1017E800137887F854305378434487F85530D7F83E
:1017F800803013F0020F0DD1CAF3470387F8573032
:10180800D7F8803013F0010F06D113F0040F35D14B
:10181800002302E00023F1E7002387F856307C6AB2
:1018280020683863786D20605A46B96820467E691A
:10183800B047B0F10009FFF605AE386B20605A4694
:10184800514607F13400B047002849DB09EB000492
:10185800FA68BB681A443B6A02EB43015A463B6983
:10186800591A2846B047B0F10009FFF6EBAD4C44D1
:101878000025C7F82080D7F8849015E05346CCE7B8
:101888004FF0000A5A46012107F12C00B047002802
:1018980028DB0444534642465946304617F048FC74
:1018A800002821DB044401353B6A9D4211DA05F129
:1018B800300307F12802134413F8143C87F82C303E
:1018C8007A6A52F82380B9F1000FD9D039F815A0F7
:1018D800D8E75A46002108467B699847A146B1E5F2
:1018E8008146AFE58146ADE58146ABE5B8F3020038
:1018F800FC4A030064FD02008CFE0200ACFD0200FD
:10190800ACFE020008B5024B1B68984708BD00BF33
:10191800D8810020014B1860704700BFD881002093
:1019280000B583B002460B4600210091024800F042
:1019380051FD03B05DF804FB0D19010010B586B028
:1019480004460390049100210591009103A90648DB
:1019580000F040FD059B049A934201DA0022E2540C
:10196800059806B010BD00BF1992020000293BD0AF
:1019780038B50D460468204617F009FD0146C20037
:1019880004EBC0035B8813F0010F0FD000EB530387
:1019980034F833001B1A994217D1A3185A8822F039
:1019A80001025A80204617F00EFD38BD0F4CAF23B8
:1019B80022460F490F4818F094F829460E4818F0A7
:1019C80090F8AF21204618F085F8084CB723224636
:1019D8000A49084818F085F82946094818F081F896
:1019E800B721204618F076F8704700BFE0FE0200E5
:1019F80004FF0200ACFD020018FF020050FF0200C5
:101A080078FF02002DE9F843154606684B420B4063
:101A180001F1FF3919EA010904D0032B4AD84C46D1
:101A2800994603E00C4604293FD90423621E22424A
:101A380044D1002D66D0B268B2EBD50F65D96119D3
:101A4800C91A0B31C908304617F0EEFC07460028C2
:101A58005ED00146304617F019FC00EB0908A04497
:101A680008F1FF38644208EA0408A8EB090808EB03
:101A78000504073424F007044146304617F087FC74
:101A88000546A41BE410874228D3EF0006EBC503E4
:101A98005B8805EB53039C422AD33E44738843F08A
:101AA800010373804046BDE8F883114617F0F7FC40
:101AB8008046F7E74C4699460423B7E7164C4FF49F
:101AC800A27322461549164818F00BF8154818F065
:101AD80008F84FF4A271204617F0FCFF0246394679
:101AE800304617F01DFC3946304617F060FCCCE74D
:101AF80022462946304617F013FC2146304617F097
:101B080056FCCAE74FF00008CCE74FF00008C9E7D9
:101B18004FF00008C6E700BFE0FE0200B4FF020075
:101B2800ACFD0200D0FF020070B5B2F5802F1FD2C5
:101B38000346042A2CD9043AC81D20F007000A4499
:101B480022F00702121AD508172A31D918608560C1
:101B58000023C360B5FA85F1C1F1200EC1F124015B
:101B68008900CE1DF1084B1CAB4231D8002345E05B
:101B7800344C40F2EB1322463349344817F0B1FF96
:101B8800334817F0AEFF40F2EB11204617F0A2FFE2
:101B98002C4C4FF4F97322462E492C4817F0A1FF1C
:101BA8002D4817F09EFF4FF4F971204617F092FF69
:101BB800244C40F2FB1322462849244817F091FF91
:101BC800254817F08EFF40F2FB11204617F082FFE0
:101BD8001C4C4FF40373224621491C4817F081FF1F
:101BE8001D4817F07EFF4FF40371204617F072FF6F
:101BF80003F1040C002440F82C4001337345F7DB53
:101C08004C00A4B244804FF0000CA0F800C044F08F
:101C1800010444806B1A4FEA430E26F00704A51C02
:101C280020F805E0015322F00704951C20F805C0B0
:101C380002440353538843F00103538017F0B7FB62
:101C480070BD00BFE0FE0200F0FF0200ACFD020024
:101C580008000300200003004400030060000300A4
:101C68008C00030010B504468C46838B002A12DBD7
:101C780003F007035A1F012A19D9042B50D1002158
:101C880017F03FFC204617F066FC78B1A38B43F0B1
:101C98002003A3830AE0D0E900018CE803000023B5
:101CA800236063600121204617F02BFC10BDD0E9AA
:101CB80000018CE80300002222606260062B0FD02E
:101CC800052B20D10021204617F01BFC204617F0D9
:101CD80042FC0028EAD0A38B43F02003A383E5E766
:101CE800DCF8003053B1E28B0132E2831A461B68FC
:101CF800002BF7D0002AF5D11346F3E7022120463E
:101D080017F0FFFBE2E70D4C40F2091322460C499D
:101D18000C4817F0E6FE40F20911204617F0DAFEEB
:101D2800064C40F21B1322460749064817F0D9FE15
:101D380040F21B11204617F0CDFE00BFB80003008B
:101D4800DC000300ACFD0200EC3703002DE9F0478E
:101D580082B0838BE1B10446154603F0070603F011
:101D68000802084692B301291FD0022921D143F065
:101D78002003A3831434204613F06AF8002800F0E7
:101D88009D8185F31188BFF36F8F02B0BDE8F0879E
:101D9800B94C40F233132246B849B94817F0A1FEAE
:101DA80040F23311204617F095FE43F01003A38349
:101DB800E0E7B14C4FF49E732246B249B04817F0A1
:101DC80090FE4FF49E71204617F084FE0023009386
:101DD800019358E0204617F0BEFB56E0D4F818905F
:101DE8004A4669462046FFF73DFF0027A38B03F0CC
:101DF8000708B04500F00981A268002A00F00581B3
:101E0800012643F00803A38304F1140A504613F093
:101E18001FF8002800F0028185F31188BFF36F8F47
:101E2800002E40F00A81009B2BB14B464246694682
:101E3800204617F0D1FB17B193492046B8474FF019
:101E48002003EFF3118583F31288BFF36F8F504699
:101E580012F0EEFF002800F0F680504613F008F864
:101E6800A38B23F00803A383A38B13F0100F00F0B8
:101E7800F98023F01003A3830120A68B06F0070640
:101E880000283FF477AF0228A4D000283FF472AFAF
:101E98000138042800F2AC8001A353F820F000BFF9
:101EA800E51D0100F91F0100BD1E0100251F0100ED
:101EB8008F1F01005EB92368B3B123691F6807B398
:101EC8000621204617F01DFB4FF000098EE76A4CEB
:101ED8004FF4AB7322466D49694817F002FE4FF480
:101EE800AB71204617F0F6FD634C40F257132246BB
:101EF8006749634817F0F5FD40F25711204617F07F
:101F0800E9FD5D4C4FF4AD73224662495C4817F019
:101F1800E8FD4FF4AD71204617F0DCFD022E0BD121
:101F2800E38BB3B923695F6807B30421204617F030
:101F3800E8FA4FF0000959E74F4C40F25D1322468A
:101F480055494F4817F0CDFD40F25D11204617F076
:101F5800C1FD494C4FF4AF7322465049484817F029
:101F6800C0FD4FF4AF71204617F0B4FD424C40F26B
:101F7800611322464749424817F0B3FD40F2611108
:101F8800204617F0A7FD012E0BD12368B3B12369B2
:101F98009F6807B30521204617F0B3FA4FF00009F0
:101FA80024E7354C4FF4B27322463D49344817F0C4
:101FB80098FD4FF4B271204617F08CFD2E4C40F27C
:101FC8006513224632492E4817F08BFD40F2651101
:101FD800204617F07FFD284C4FF4B47322462D4954
:101FE800274817F07EFD4FF4B471204617F072FDB4
:101FF800214C40F26B1322462A49214817F071FD03
:1020080040F26B11204617F065FD009A0AB10026D0
:10201800F7E6002F3FF428AF0026F2E6224CC22351
:1020280022462249164817F05CFD5146204817F011
:1020380058FDC221204617F04DFD4A46414620462C
:1020480017F067FAEFE6184C9423224619490C4812
:1020580017F047FD5146184817F043FD94212046D4
:1020680017F038FD13F0200F04D023F02003A383CA
:10207800022002E7002000E7B80003000401030083
:10208800ACFD020014010300F52001002801030043
:1020980034010300580103007001030088010300A4
:1020A80098010300EC370300B0010300E0010300CE
:1020B800F80103001002030028020300074DC223A1
:1020C8002A460749074817F00CFD2146064817F02D
:1020D80008FDC221284617F0FDFC00BFB00103002F
:1020E800E0010300ACFD0200F8010300F8B5044666
:1020F8000D4600F114064FF02003EFF3118783F328
:102108001288BFF36F8F304612F092FE48B1304606
:1021180012F0AEFEA5613A4601212046FFF716FEF1
:10212800F8BD074C942322460649074817F0D9FC06
:102138003146064817F0D5FC9421204617F0CAFC12
:10214800B001030010020300ACFD020028020300E6
:102158002DE9F84F0446884617F016FA061E48DBA4
:1021680004F114074FF02003EFF3118A83F3128868
:10217800BFF36F8FD346384612F05AFE8146A8B196
:10218800384612F075FEA58B05F00705E38B4FF670
:10219800FF7293424BD02E46022D16D0062D39D809
:1021A800DFE805F0314C3838312A31003A4C9423B5
:1021B80022463A493A4817F094FC3946394817F00C
:1021C80090FC9421204617F085FC0133E38300231B
:1021D8001A4642B10022C8F800206268AAB3C2F8C1
:1021E8000080C4F80480ABB3524602212046FFF7B2
:1021F800ADFD3046BDE8F88F6FF085064FF0000959
:102208004B464A46E5E7B5FA85F35B094A464FF07F
:102218000009DEE7244C4FF4E473224623492048A2
:1022280017F05FFC4FF4E471204617F053FC6FF091
:102238000A064FF000094B464A46CAE76FF0040603
:102248004FF000094B464A46C3E7C4F80480C4F877
:102258000080C8E7384612F0FBFD68B18BF311889F
:10226800BFF36F8FB9F1000FC3D000232A46414650
:10227800204617F09EF9BCE7074CC22322460C49BA
:10228800074817F02EFC39460A4817F02AFCC221E5
:10229800204617F01FFC00BFB00103001002030026
:1022A800ACFD020028020300B800030098010300F7
:1022B800E0010300F801030010B50346426802F08C
:1022C80003028160022A11D0032A0CD0012A10D0FF
:1022D8000C4C452322460C490C4817F002FC4521BA
:1022E800204617F0F7FB0468002004E0006800248B
:1022F80001E00024204600225A6008B116F0F8FDDB
:10230800204610BD40020300EC370300ACFD02007C
:1023180084460846012226E09CF8003043F0040376
:102328008CF80030F2B101301CE09CF8003043F02A
:1023380008038CF80030F5E79CF8003043F01003F0
:102348008CF80030EEE79CF8003043F020038CF85E
:102358000030E7E79CF8003043F040038CF8003089
:10236800E0E7002242B30378203B102BF9D801A103
:1023780051F823F0412301006B2301006B23010076
:102388004F2301006B2301006B2301006B23010025
:102398006B2301006B2301006B2301006B230100F9
:1023A800332301006B230100212301006B2301006B
:1023B8006B2301005D2301009CF8003003F0440307
:1023C800442B00D070479CF800306FF386138CF8CC
:1023D8000030F7E72DE9F04F91B006460D469146DB
:1023E8000393002499F80000002800F0B9822528FA
:1023F80008D009F101092946B0470028C0F2B18286
:102408000134EFE700230493059306930793089399
:102418000993494606A817F09DFA02909DF81930CD
:1024280013F0010F00F09780039B1A1D03921F6899
:10243800002FC0F288809DF8193013F0040F00F0C7
:102448009C80039B1A1D0392D3F800A0BAF1000FD9
:10245800C0F28A800023079308939DF81A3003F08E
:1024680007039DF81910C1F3C301012B00F08E80FA
:10247800022B00F0D380042B00F02481032B00F002
:102488003B819DF8188018F0030B40F03B819DF8C4
:102498001B30253B532B00F2CA81DFE813F04001C3
:1024A800C801C801C801C801C801C801C801C801DC
:1024B800C801C801C801C801C801C801C801C801CC
:1024C800C801C801C801C801C801C801C801C801BC
:1024D800C801C801C801C801C801C801C801C801AC
:1024E800C801C801C801C801C801C801C801C8019C
:1024F800C801C801C801C801C801C801C801C8018C
:10250800C801C8018101C801C801C801C801C801C2
:10251800C801C801C801C801C8015E016701C80136
:10252800C801C801C8016701C801C801C801C801BC
:10253800BD018101A101C801C8014D01C801810186
:10254800C801C80181019DF8183043F004038DF8D3
:1025580018307F426FE79DF91830002B02DB4FF0EF
:10256800FF3768E7079F66E79DF819306FF3410367
:102578008DF819304FF0FF3A6CE713F0020F02D0D4
:10258800DDF820A066E74FF0FF3A63E7CB1E042B87
:1025980004D8DFE803F00B1D29353500039B1A1D0D
:1025A80003921B68DA170493059206E0039B1A1D31
:1025B80003921B68DA1704930592012928D002298F
:1025C8007FF45FAFBDF91030DA170493059258E72E
:1025D800039B073323F0070303F108020392D3E9AF
:1025E8000023CDE90423E8E7039B073323F007031F
:1025F80003F108020392D3E90023CDE90423DCE7C1
:10260800039B1A1D03921B68DA1704930592D4E7FB
:102618009DF91030DA170493059232E7CB1E042B8C
:1026280004D8DFE803F00B1F35414100039B1A1D56
:1026380003921B680493002305931EE09DF81B304A
:10264800632B07D0039B1A1D03921B680493002376
:10265800059312E0039B1A1D03921B680493002341
:1026680005930AE0039B073323F0070303F10802ED
:102678000392D3E90023CDE9042301291CD00229C0
:102688007FF4FFAEBDF81030049300230593F8E6FD
:10269800039B073323F0070303F108020392D3E9EE
:1026A8000023CDE90423E8E7039B1A1D03921B6866
:1026B800049300230593E0E79DF81030049300236A
:1026C8000593DEE608290BD0039B073323F00703A5
:1026D80003F108020392D3E90023CDE90423D0E6ED
:1026E800039B073323F0070303F108020392D3E99E
:1026F8000023CDE90423C4E6039B1A1D03921B683B
:102708000493BEE6029F3B464A462946304617F0E8
:10271800C7F90028C0F225810444B94662E6294673
:102728002520B0470028C0F21C810134D8460DF19D
:102738003E0A4FF000097FE0DDF81090BAF1000F73
:1027480007DB5146484618F0B9FC09EB000AD846A1
:1027580072E0484618F0A9FCF7E7049B8DF828308A
:10276800D8460DF1290A0DF1280965E018F0080F7F
:1027780005D118F0100804D04FF0200801E04FF000
:102788002B08049A059B002B02DB0492059308E0B2
:10279800524263EB4303049205934FF02D0800E087
:1027A800D8460DF13E0300930AAB06AADDE9040101
:1027B80017F007F98146BAF1000F6CDB0DF13E0303
:1027C800A3EB09039DF818206FF386128DF81820E3
:1027D8009A4563D9AAEB030307930DF13E0A2BE050
:1027E800049828B9D846DFF880A1AAF1050923E0A2
:1027F8000DF13E0300930AAB06AA002117F0E1F899
:1028080081469DF81A3043F010038DF81A3078236A
:102818008DF81B30D846CEE72246049906A817F053
:1028280020F9D8460DF13E0A4FF0000904E0D846D9
:102838000DF13E0A4FF00009B9F1000F00F08D804C
:10284800AAEB0903B8F1000F00D001339DF81A2054
:1028580012F0100F25D0023307990B4412F0400FE5
:1028680001D0089A1344002F31DDFF1A9DF8183063
:1028780013F0040F2BD113F0400F17D0B8F1000F4D
:1028880017D029464046B04700286ADB0134D846AD
:102898004FF0300B0FE00DF13E0ACDE70DF13E0A87
:1028A800CAE712F0080FD7D00133D5E74FF0200B55
:1028B80001E04FF0300B3B465F1E002B07DD294639
:1028C8005846B04700284CDB01343B46F4E7B8F1E2
:1028D800000F05D029464046B047002841DB0134A7
:1028E8009DF81A30C3F30012C3F3C0031A4305D08E
:1028F80029463020B047002833DB01349DF81A30D0
:1029080013F0100F06D029469DF81B00B047002889
:1029180027DB0134079B03F1FF38002B07DD29462D
:102928003020B04700281CDB01344346F3E7534608
:102938004A462946304617F0B3F8002811DB04440C
:10294800002F07DD29462020B047002809DB013485
:10295800013FF5E7DDF8089044E5DDF8089041E52A
:10296800204611B0BDE8F08F6902030038B504466F
:102978000D462022002118F00AFCEB68E361AB68E1
:10298800A3612B6823626B6863620022A2622A69D2
:1029980022612BB1591E0B4202D142F00102226181
:1029A80004F12C00012200211CF0CEFA00B938BD38
:1029B800054C2E2322460549054817F092F82E218A
:1029C800204617F087F800BF6C020300940203004A
:1029D800ACFD02002DE9F04F87B002929B46436A96
:1029E800013B8B42C0F0DD80054688464FF0000968
:1029F800CA4630E06E4C942322466E496E4817F062
:102A080070F831466D4817F06CF89421204617F09D
:102A180061F86A6A013A13402B600024304612F0CC
:102A280017FA002800F0AB8087F31188BFF36F8F87
:102A380074B1B9F1000F0BD09DF8133043B1AB69F5
:102A4800002B00F0AB804946284698474FF0000914
:102A5800002C00F0A88005F114064FF02003EFF3D6
:102A6800118783F31288BFF36F8F0197304612F0F6
:102A7800DFF90028BED0304612F0FAF905A9284639
:102A880017F03DF804460599414519D32B6A2A6881
:102A980003EB820A13F822106FF3000103F82210E7
:102AA800C9B26FF3410103F822102B6843442A6925
:102AB80012F0010FADD16A6A9342ADD39B1AABE70E
:102AC800A8B9029B5BEA030303D01CF082F90390C8
:102AD80088B12A690DF11303C2F34002059928460B
:102AE80017F070F88146041E18BF012496E728469F
:102AF80017F03FF892E7304612F0AAF908B3019BA5
:102B080083F31188BFF36F8F05F12C00029A5B469F
:102B180012F022FF01904FF02003EFF3118783F3A7
:102B28001288BFF36F8F304612F082F90446B8B1AD
:102B3800304612F09DF9019B002B3FF46FAF039CC8
:102B48006CE71B4CC22322461D491B4816F0C9FFDF
:102B580031461C4816F0C5FFC221204616F0BAFFC0
:102B6800134C942322461349134816F0BAFF3146F2
:102B7800124816F0B6FF9421204616F0ABFF0C4C15
:102B8800C22322460E490C4816F0ABFF31460D48C9
:102B980016F0A7FFC221204616F09CFF4FF000094F
:102BA80056E74FF0000A504607B0BDE8F08F00BF67
:102BB800B001030010020300ACFD0200280203006C
:102BC800E0010300F80103002DE9F04104460D4639
:102BD800C36908469847804604F114064FF020035D
:102BE800EFF3118783F31288BFF36F8F304612F02B
:102BF8001FF990B1304612F03BF92B7843F00103EE
:102C08002B70636803EB0800236913F0010F13D1DD
:102C1800636A984213D3C01A11E0174C94232246D2
:102C28001649174816F05DFF3146164816F059FF49
:102C38009421204616F04EFF636A013B18406060FD
:102C4800204616F083FF304612F002F928B187F3C8
:102C58001188BFF36F8FBDE8F081074CC22322466D
:102C68000949074816F03DFF3146084816F039FF74
:102C7800C221204616F02EFFB00103001002030007
:102C8800ACFD020028020300E0010300F801030084
:102C98002DE9F04104464DE04E4C942322464E491E
:102CA8004E4816F01EFF29464D4816F01AFF94218B
:102CB800204616F00FFF9B1A55E051F822008008B5
:102CC80067D15DE0616A01390B40A360E3680344A2
:102CD80022B9626A934204D39B1A02E0626A013AFB
:102CE8001340E3601BE011F8223043F0020301F8BF
:102CF8002230A768E369404698473844236913F0AF
:102D0800010F04D1636A984204D3C01A02E0636ACF
:102D1800013B1840A060002701E00027B84628467C
:102D280012F096F8002842D086F31188BFF36F8F0F
:102D3800002F4BD004F114054FF02003EFF3118658
:102D480083F31288BFF36F8F284612F071F8074695
:102D58000028A1D0284612F08BF8A26863689A422E
:102D6800A9D9636A9B1A216A01EB8208002BD4D087
:102D780011F8223013F0030316D0022B9DD0002047
:102D880011F8223013F0010FADD110B9E3694046B4
:102D98009847A3680344226912F0010292D1616A3C
:102DA8008B4292D35B1A90E70027B846B7E7094CE5
:102DB800C22322460B49094816F093FE29460A48C1
:102DC80016F08FFEC221204616F084FE4046BDE86C
:102DD800F08100BFB001030010020300ACFD020047
:102DE80028020300E0010300F80103002DE9F04187
:102DF80004460D46C36908469847804604F1140600
:102E08004FF02003EFF3118783F31288BFF36F8F1E
:102E1800304612F00DF8A8B1304612F029F82B7898
:102E28006FF300032B70236913F0020F19D0236A84
:102E3800E26803EB8203AB4213D02B6868F39F036D
:102E48002B6021E01F4C942322461F491F4816F08F
:102E580048FE31461E4816F044FE9421204616F0DE
:102E680039FE2B786FF341032B70E36843442269E2
:102E780012F0010F04D1626A934204D39B1A02E054
:102E8800626A013A1340E360304611F0E1FF48B14D
:102E980087F31188BFF36F8F04F12C0012F014FD33
:102EA800BDE8F081074CC22322460A49074816F0BC
:102EB80018FE3146084816F014FEC221204616F0C6
:102EC80009FE00BFB001030010020300ACFD0200C0
:102ED80028020300E0010300F801030068B108B507
:102EE800064A074B1B680749A1FB03139B0C00FB11
:102EF80003F042F00103984708BD7047C0F902008B
:102F08007883002083DE1B4338B54FF02003EFF3AE
:102F1800118583F31288BFF36F8F4FF0402302228D
:102F2800C3F8D0260122C3F80427C3F80429C3F83C
:102F3800002B002405E00121064B185D00F0DEF9A6
:102F48000134032CF7D985F31188BFF36F8F002064
:102F580038BD00BFA002030000B583B00246084B8D
:102F68000093082301930749684616F0DBFE002802
:102F780003DB0121684616F0E4FE03B05DF804FBAC
:102F880030F50200DD3101000F2803D8800000F081
:102F9800FC00704710B5064C40F2E1132246054983
:102FA800054816F09EFD40F2E111204616F092FD0C
:102FB800A8020300DC020300ACFD020021B140F0CE
:102FC8000040C1F88000704710B5064C4FF41273EA
:102FD80022460549054816F084FD4FF41271204633
:102FE80016F078FDE802030020030300ACFD0200A0
:102FF80019B10022C1F88020704710B5064C4FF473
:10300800177322460549064816F06BFD4FF41771F1
:10301800204616F05FFD00BFE8020300200303000E
:10302800ACFD02000F2803D8800000F580707047BF
:1030380010B5064C40F2E71322460549054816F03C
:1030480050FD40F2E711204616F044FDA8020300A7
:10305800DC020300ACFD020021B140F00040C1F8E1
:103068008000704710B5064C40F24E2322460549B1
:10307800054816F036FD40F24E21204616F02AFD8E
:10308800E802030024030300ACFD020019B100228A
:10309800C1F88020704710B5064C40F263232246E1
:1030A8000549064816F01DFD40F26321204616F03A
:1030B80011FD00BFE802030024030300ACFD020079
:1030C80010B5C4B20123A3400C4AC2F80835C0F3B6
:1030D80007200EF079FB20460FF0C0FC084B984201
:1030E80000D110BD074C742322460749074816F043
:1030F800F8FC7421204616F0EDFC00BF007001407A
:103108000000AD0B2803030060030300ACFD0200C0
:10311800F8B504460F46C0F307200EF09DF90646A1
:10312800C4F30740FFF730FF054647B1E0B2084B4C
:1031380040F000425A513146FFF740FFF8BD314692
:10314800E0B2FFF755FF024B00225A51F6E700BFE5
:1031580080A0024070B504460E46000EFFF762FFDD
:103168000546C4F307200EF093F9014646B1E4B2D0
:103178002046FFF771FF064B44F000445C5170BDD8
:10318800E0B2FFF783FF024B00225A51F7E700BF76
:1031980080A0024070B582B00446C0F307263046CE
:1031A8000EF096F9054600212046FFF7D3FF0121CE
:1031B8002046FFF7ADFF05F132020194044B00935E
:1031C8005200002330460EF00BFA02B070BD00BF6B
:1031D800659D020010B582B014460090019100214F
:1031E800684616F0AEFD20B92046FFF7D3FF02B0BF
:1031F80010BD054CCA2322460449054816F071FC47
:10320800CA21204616F066FC280303009402030036
:10321800ACFD0200F0B583B000AF381D0FF016FC0E
:10322800314B98423BD06FF012046D4688B06B4624
:1032380013F1100252D00C213AB10846042901DDDD
:103248002A4E5E61082800DD9C610B2949DD4FF09C
:103258000C0C3AB10321397000217970B970F970FA
:103268003868186100216FF300016FF341016FF3B3
:1032780082016FF3C501012363F388110CF47B7C91
:103288006CF352216FF3DE416FF3DF7100231848AE
:1032980000F030FDAD4620460C37BD46F0BD0EF0BF
:1032A8006BFA041E16DB7C710723BB710823FB71C4
:1032B8007868FFF751FE041EB7DB3B79012101FA5C
:1032C80003F30C4AC2F804357868FFF743FF002C73
:1032D800E1D0AAE738790FF0C1FBF8E76FF00041B9
:1032E800AAE76FF01B0CB4E70000AD0B74030300F2
:1032F800D0F80200007001401AF05ABD30B583B012
:1033080001AA1AF03DFD18B9019B8BB903B030BD75
:1033180004460F4D16232A460E490F4816F0E1FBC6
:1033280021460E4816F0DDFB1621284616F0D2FB82
:10333800074C172322460A49074816F0D2FB019981
:10334800084816F0CEFB1721204616F0C3FB00BF35
:10335800A8030300E4030300ACFD02000404030017
:10336800200403002C04030010B143685879704707
:1033780010B5064C4FF4997322460549054816F0D6
:10338800B0FB4FF49971204616F0A4FB48040300E3
:1033980080040300ACFD020010B520B10268D268B9
:1033A80002B1904710BD054C8A23224604490548BE
:1033B80016F097FB8A21204616F08CFB4804030080
:1033C80080040300ACFD020010B520B10268126948
:1033D80062B1904710BD064C9D2322460549064818
:1033E80016F07FFB9D21204616F074FB0020F1E7C4
:1033F8004804030080040300ACFD020010B518B1B6
:1034080002689268904710BD054CCF2322460549B3
:10341800054816F066FBCF21204616F05BFB00BF7F
:103428004804030080040300ACFD020010B520B17D
:103438000268526802B1904710BD054CC12322466C
:103448000449054816F04DFBC121204616F042FB01
:103458004804030080040300ACFD020010B520B14D
:1034680071B102681268904710BD0B4CB123224617
:103478000A490B4816F035FBB121204616F02AFB05
:10348800054CB22322460749054816F02AFBB2210B
:10349800204616F01FFB00BF480403008004030009
:1034A800ACFD02009804030038B50546144C00E052
:1034B8001034144B9C4212D8124B9C421FD2204607
:1034C800FFF752FF0028F3D02946204616F063FC88
:1034D8000028EDD029462046FFF7C0FFE8E70A4C50
:1034E80040F2C11322460949094816F0FAFA094878
:1034F80016F0F7FA40F2C111204616F0EBFA38BD83
:10350800E0F80200F0F80200AC040300DC04030059
:10351800ACFD02000005030010B530B10346006899
:1035280084690CB11846A04710BD064C40F26113DF
:1035380022460549054816F0D4FA40F261112046A2
:1035480016F0C8FA4804030080040300ACFD02002A
:1035580070B506460D460F4C05E02A463146204612
:10356800FFF7DAFF10340C4B9C4203D80A4B9C42FD
:10357800F3D370BD094C40F23B3322460849094851
:1035880016F0AFFA084816F0ACFA40F23B31204684
:1035980016F0A0FAE0F80200F0F80200AC0403000C
:1035A800DC040300ACFD0200000503002DE9F04136
:1035B80007460546EDB195FAA5F6B6FA86F60E4C1D
:1035C80004EB06140123B3406FEA030825EA030558
:1035D800237B002BEED02046FFF7F6FE0028E9D12A
:1035E80007EA0807636804221968204600F054FBBC
:1035F800E0E73846BDE8F081E0F802002DE9F04147
:103608002F4B304A9B1A9F2B0ED880460F462E4BC5
:10361800D3E8EF5F6A1CC3E8E12F0029F8D1002D39
:103628004AD1284C002614E0284C40F215132246B3
:103638002749284816F055FA40F21511204616F089
:1036480049FA636804221968204600F025FB013610
:1036580010341B4B9C4211D8194B9C421ED2237B21
:10366800002BF5D02046FFF797FE2046FFF7ACFE6B
:103678000028E6D00123B3401D43E8E7134C4FF47C
:10368800917322461449134816F02BFA134816F082
:1036980028FA4FF49171204616F01CFAB8F1000F81
:1036A8000BD055B12846FFF781FF0546002FF8D00B
:1036B8000A2016F076FBF4E700252846BDE8F081DD
:1036C800F0F80200E0F8020098970020AC0403002C
:1036D80020050300ACFD0200DC0403000005030024
:1036E80008B5064B186018B1054B1B68092B00DCA0
:1036F80008BD044812F0E8F8FAE700BF8C970020EC
:10370800949700208C85002008B5024812F0DCF858
:1037180008BD00BF8C85002030B589B000220F4954
:103728000F481BF07DFD0F4D00220023CDE9062335
:10373800002404940E2303930294019400940A4BEA
:103748004FF400620949284611F0B8FC0849284698
:1037580011F04EFB204609B030BD00BF1137010003
:10376800088C002048870020653B0100589D0020F8
:1037780044050300014B53F8200070477C05030003
:1037880048B108B5054A1060054B1960084600F0B5
:1037980045FD002008BD6FF015007047DC81002052
:1037A8008897002008B5054B1B781BB1034B0122F5
:1037B8001A7008BD024812F087F8F7E74E9D0020FE
:1037C8008C850020094BD3E8EF1F0131C3E8E21FC5
:1037D800002AF8D100B97047054BD3E8EF1F01392B
:1037E800C3E8E21F002AF6D0F7E700BF9097002051
:1037F80094970020044B00200146D3E8EF0FC3E85C
:10380800E21F002AF9D170479097002038B5FFF7DA
:10381800F1FF0546114C00E01034114B9C420CD8C6
:103828000F4B9C4219D22046FFF79EFD0028F3D08B
:1038380029462046FFF7FAFDEEE70A4C40F2CD1381
:1038480022460949094816F04CF9094816F049F981
:1038580040F2CD11204616F03DF938BDE0F80200DF
:10386800F0F80200AC040300DC040300ACFD020025
:1038780000050300034B18680028D4BF002001206E
:10388800704700BF9097002010B5044C04492046AB
:10389800FFF76CF8034B1C6010BD00BF4C84002080
:1038A800680503008497002008B50023054A1370B3
:1038B800054A13604FF400410448FFF761FFFFF722
:1038C800E3FF08BD4F9D002090970020A39D0200B4
:1038D80008B50146014816F07AFA08BD4C84002064
:1038E80008B50248FFF7D4F908BD00BF4C84002092
:1038F80008B50146024B186816F06FFA08BD00BFFC
:103908008497002008B5024816F06BFA08BD00BF7E
:103918004C84002010B582B000220023CDE900239A
:10392800264B187808B902B010BD684616F062FA3E
:10393800044668B1224BD3E8EF1F0139C3E8E21F00
:10394800002AF8D12046FFF7AFFD2046FFF7D0FF49
:10395800FFF790FF58B91B4A1368516813F57A733B
:1039680041F1000113605160FFF7CCFFDBE71BF06A
:1039780014FC4A0142EAD06243011B1A62EB0102BD
:10398800920042EA93729B001B1842EB0102D2009C
:1039980042EA5372C3F3103343EA4243D20B094855
:1039A800016840685B1A62EB000240F2E9318B4221
:1039B80072F10002CFD3FFF729FFCCE74E9D00201C
:1039C80094970020008C0020194B1B7803B1704796
:1039D80010B500210120FFF711FE164C00E010344D
:1039E800154B9C420BD8144B9C4218D22046FFF72B
:1039F800BBFC0028F3D02046FFF700FDEFE70F4C93
:103A08004FF4C27322460E490E4816F06AF80E4863
:103A180016F067F84FF4C271204616F05BF8FFF70E
:103A280079FF0028FBD1024B01221A7010BD00BF9C
:103A38004F9D0020E0F80200F0F80200AC040300FB
:103A4800DC040300ACFD02000005030030B583B0C0
:103A58002E4BD3E8EF2F511CC3E8E01F0028F8D104
:103A68002B4B1B786BB92B4B1B6823B3002A42D016
:103A78000A2A20D128481BF0DFFB284811F024FF30
:103A880019E04FF02003EFF3118483F31288BFF39A
:103A98006F8F234811F0CCF978B1214D284611F0E9
:103AA800E7F9FFF737FF284611F0D2F9A0B184F300
:103AB8001188BFF36F8F03B030BD1A4C9423224690
:103AC80019491A4816F00DF81549194816F009F859
:103AD8009421204615F0FEFF124CC22322461549B8
:103AE800124815F0FEFF2946134815F0FAFFC221C7
:103AF800204615F0EFFF00220023CDE900234FF404
:103B080000420023044814F0B1FDD4E79497002044
:103B18004F9D00208C970020088C00208C85002069
:103B280080970020B001030010020300ACFD0200E2
:103B380028020300E0010300F801030010B5044661
:103B4800044B1B689847A0602146034816F056F9B5
:103B580010BD00BFDC8100204C8400202DE9F0411D
:103B6800224A234B9B1A1B090ED000210846FFF757
:103B780045FD8046A8B140F26766002713F0E2FFD2
:103B8800FFF7AEFD002525E01A4C40F247332246E8
:103B980019491A4815F0A5FF40F24731204615F09B
:103BA80099FF4FF0FF364FF0FF37E7E74046FFF742
:103BB800FDFC804688B94FF0FF364FF0FF370CE028
:103BC80000210846FFF7C4FC32463B460C4811F07A
:103BD800C3FE2546B8F1000FE8D1FFF79BFE044667
:103BE8000028F6D1002DEBD12C46EDE7E0F80200D5
:103BF800F0F80200AC0403004C050300ACFD020021
:103C08008C85002010B143681971704710B5054CB8
:103C1800DE2322460449054815F063FFDE212046CD
:103C280015F058FF4804030080040300ACFD0200AF
:103C380028B142681160436801225A71704710B573
:103C4800064C40F2171322460549064815F049FF6D
:103C580040F21711204615F03DFF00BF480403004D
:103C680080040300ACFD02000248034BC01AC008E0
:103C7800704700BFE0F80200E8F7020010B50C46F4
:103C8800FFF7F2FFA04203D9024B53F8340010BDEE
:103C98000020FCE7E8F7020070B504460D4616461A
:103CA800074BC31A1B110133D9B2FFF7ABFF636887
:103CB8009E7129462046FFF7BBFFFFF773FD70BDD5
:103CC800E0F8020000B589B0059206930023079337
:103CD80062B1074A0C9B02930B9B01930A9B0093CA
:103CE80005ABFDF747FB09B05DF804FB0022F1E7DF
:103CF800159E02002DE9F0478AB005461E460F467C
:103D0800C1F34924002C38D090460022079208922B
:103D180009920423029305AB01930A23009307AB8E
:103D280021464046FDF726FB60F35227C0F30909F8
:103D3800C7F3CB414944173121F007018808FFF741
:103D4800C7FD824618B30423029305AB01930A23E7
:103D580000934B4600F1100221464046FFF7B2FFA0
:103D6800002814DA0E4C492322460E490E4815F055
:103D7800B8FE4921204615F0ADFEC1F3CB410C44F5
:103D8800173424F00704A008FFF7A2FD8246334643
:103D98003A462946504616F04FF80AB0BDE8F08773
:103DA800E805030014060300ACFD02000EB400B5DC
:103DB80084B0014605AB53F8042B03930020009010
:103DC8000348FEF707FB04B05DF804EB03B0704747
:103DD8005940010030B585B011F0440F05D01A4B99
:103DE8001C6834B9002005B030BD1849FFF7DEFF64
:103DF800F9E7174B1968B2FBF1F1B1FBF4FC154A6E
:103E0800A2FB0C32D20A4FF4616E0EFB12CE124B9B
:103E1800A3FB0E535B0904FB1C114FF47A7C0CFBCB
:103E280001F1B1FBF4F504FB15110CFB01F1B1FB39
:103E3800F4F102910195C3EB0311AEEB81010091FE
:103E48000649FFF7B3FFCEE7A0970020200603003E
:103E58009C970020C5B3A291898888882C06030006
:103E680061B108B52AB1064A52F8232012B9054AA9
:103E780000E0044A0449FFF799FF08BD704700BFF6
:103E88003C07030048060300500603002DE9F041F3
:103E9800054690461E46069F81B900242EB132463B
:103EA80010492846FFF782FF0444B7B1B8F1000F64
:103EB8000DD0079B042B13D00B4909E00B4B079A35
:103EC80053F822200A49FFF771FF0446E6E706493E
:103ED8003A462846FFF76AFF04442046BDE8F081C9
:103EE8000449F5E768060300580603005007030075
:103EF80060060300540603002DE9F04F85B005461F
:103F08000C46164603939DF8408001F0020B01F021
:103F1800010AC1F3C00915F077FFD8B1024612496A
:103F28002846FFF743FF0746BBF1000F14D142466E
:103F38005146284615F0ADFFCDF804800F9B00933D
:103F48000E9B324649462846FFF7A0FF384405B085
:103F5800BDE8F08F0027E7E7039A21462846FFF7D8
:103F680039FF0744E3E700BF6C06030011F0100FA8
:103F78000BD108B511F0200F03D00449FFF716FF45
:103F880008BD0349FFF712FFFAE770472C49030001
:103F9800700603002DE9F04105460F46164698467F
:103FA8000699FFF7E3FF0024444505DA234928462C
:103FB800FFF7FCFE0134F7E7002409E01F49284613
:103FC800FFF7F4FE0BE01E492846FFF7EFFE013429
:103FD8000F2C0CDC002C02DD14F0070FEED0B442DD
:103FE800F1D23A5D17492846FFF7E0FEEFE7164998
:103FF8002846FFF7DBFE002409E010492846FFF7B2
:10400800D5FE0BE011492846FFF7D0FE01340F2CEE
:1040180012DC002C02DD14F0070FEED0B44206D2F9
:104028003A5DA2F120035E2BECD92E22EAE7034980
:104038002846FFF7BBFEE9E7BDE8F0816406030008
:104048007C06030074060300800603008406030050
:1040580038B505460C464B681A68CB689A4210D0AA
:104068006368D3E8EF2F511CC3E8E01F0028F8D19C
:10407800A3689D5463681A68E3689A4205D80020CB
:1040880038BD084615F038FFEAE7054C7923224683
:104098000449054815F025FD7921204615F01AFD3B
:1040A80088060300B8060300ACFD02002DE9F041C4
:1040B80084B004469DF828500B9F0D9EA5B9012B8E
:1040C8001DD01F484FF0000837B13B4622461D4916
:1040D80015F045F8002816DB16BB55BB204615F031
:1040E8000BFF04B0BDE8F0810295019300920B46E6
:1040F80000220E99FFF700FF80461348E4E71248B4
:104108004FF00008E0E7114C4FF4007322461049C5
:10411800104815F0E6FC4FF40071204615F0DAFC63
:104128000E9B0093434632460C99204615F0C9FE73
:10413800D3E72A460E99204615F0B7FECEE700BF12
:104148001B9F02008B9E0200594001008806030055
:10415800E8060300ACFD02002DE9F04186B00546F3
:104168000C461746D1F808800E88C6F382160878E0
:10417800C0F3C2004B6833B1114A9B1A43F3CF0115
:10418800002918DA0023224652F8101BC1F34921EE
:104198006088C0F3CB00541801B90022049703903B
:1041A800029401920096002241462846FFF77EFFBE
:1041B80006B0BDE8F081FFF761FD0346E3E700BF05
:1041C800E8F7020070B582B00446056842F20F7342
:1041D8008B4228BF0B460E4A0521684615F03EF86B
:1041E800064663685B680B220A49284615F03CFEC0
:1041F80063685B6832466946284615F035FE636891
:104208005B681B220449284615F02EFE02B070BDDB
:10421800081D030010070300F4060300074B0122E2
:104228001A6004E04008054A13685B001360044BF9
:104238009842F7D8034B1860704700BF9C9700203E
:1042480040420F00A097002070B506460D46002496
:1042580005E0315D044883685B6898470134AC42E7
:10426800F7D3284670BD00BFE8F40200014B19607F
:1042780000207047BC97002010B508481AF066FD6A
:1042880000B110BD064C6F2322460649064815F0BA
:1042980028FC6F21204615F01DFC00BFE8F4020041
:1042A80064070300A4070300ACFD020008B5034B34
:1042B80001221A70024815F01FFE08BD509D00200B
:1042C800FC07030008B50248FFF77CFF08BD00BFE4
:1042D800FC07030010B50C46044B1868FFF74AFAB0
:1042E80003460F2221460248984710BDBC9700207C
:1042F800FC07030000B58FB040B1836873B31B6837
:10430800002B53D098470FB05DF804FB284B0D9352
:1043180002238DF8043000238DF805308DF806301F
:104328008DF80730019A0C92194663F3000163F384
:10433800410163F3820163F3C501012262F388112D
:10434800082262F3522163F3DE4163F3DF710CAAA2
:104358001848FFF7CFFC6FF01500D4E7164B07930A
:1043680002238DF8043000238DF805308DF80630CF
:104378008DF80730019A0692194663F3000163F33A
:10438800410163F3820163F3C501012262F38811DD
:10439800082262F3522163F3DE4163F3DF7106AA58
:1043A8000448FFF7A7FC6FF00400ACE70020AAE779
:1043B8000C08030068F802002008030010B58EB04E
:1043C80068B1034659B152B1806880B3C46874B308
:1043D80041F8043BC4681846A0470EB010BD284BEE
:1043E8000D9302238DF8043000238DF805308DF8E5
:1043F80006308DF80730019A0C92194663F30001D4
:1044080063F3410163F3820163F3C501012262F39F
:104418008811082262F3522163F3DE4163F3DF71EE
:104428000CAA1848FFF766FC6FF01500D5E7164B85
:10443800079302238DF8043000238DF805308DF89A
:1044480006308DF80730019A0692194663F3000189
:1044580063F3410163F3820163F3C501012262F34F
:104468008811082262F3522163F3DE4163F3DF719E
:1044780006AA0448FFF73EFC6FF00400ADE700BF52
:104488004008030068F802002008030010B594B043
:1044980080B1134684460068002833D08268002A19
:1044A80058D09468002C55D00A46DCF80410A04770
:1044B80014B010BD3B4B139302238DF80430002336
:1044C8008DF805308DF806308DF80730019A129274
:1044D800194663F3000163F3410163F3820163F357
:1044E800C501012262F38811082262F3522163F3A5
:1044F800DE4163F3DF7112AA2B48FFF7FBFB6FF075
:104508001500D5E7294B0D9302238DF804300023BD
:104518008DF805308DF806308DF80730019A0C9229
:10452800194663F3000163F3410163F3820163F306
:10453800C501012262F38811082262F3522163F354
:10454800DE4163F3DF710CAA1748FFF7D3FB6FF066
:104558000100ADE7164B079302238DF804300023C2
:104568008DF805308DF806308DF80730019A0692DF
:10457800194663F3000163F3410163F3820163F3B6
:10458800C501012262F38811082262F3522163F304
:10459800DE4163F3DF7106AA0348FFF7ABFB6FF058
:1045A800040085E76C08030068F80200800803002F
:1045B8002008030010B58CB00DF1040C0D4C0FCC85
:1045C800ACE80F000FCCACE80F0094E807008CE8CB
:1045D800070001AC0CAB9C4202D300200CB010BD0C
:1045E80023680BB12C34F5E704220021606816F02B
:1045F800CEFDF7E744F9020008B5024915F07DFD44
:1046080008BD00BFC047030038B505460024012C8B
:104618000AD8C4EBC401090140312944044816F002
:1046280057FD18B90134F2E7012038BD0020FCE736
:10463800C047030030B585B004460D460B490291CA
:10464800D0F89811019100934FF0FF3300F1E00189
:1046580028460FF019FC38B9012385F86430D4F8DE
:1046680094310BB12846984705B030BDC7A0020069
:1046780008B58446084611461A46DCF8103003F59A
:104688006173D3E8AF3F022B07D14AB158B115F097
:1046980015FE084B984209D008BD6FF00F00FBE7E4
:1046A8006FF04C00F8E76FF00100F5E76FF00B00D2
:1046B800F2E700BF2EF8FFFF10B5044600220449B8
:1046C80015F0FCFDA36E1B680BB1E06E984710BD9A
:1046D800C0470300F0B583B044680569E369012B5E
:1046E8001FD0276A05F52A76304611F0A5FC606AC6
:1046F800002300933B464FF480620E4901EB802172
:10470800304611F0B3FC0C4905F5267011F000FC99
:1047180014342A460949204615F017FC20B103B085
:10472800F0BD276A103FDDE70121204615F01CFC8B
:10473800F5E700BF58A5002075A4020065A4020093
:104748002DE9F04385B004464668056905F56179A9
:104758000123D9E8EF2F002A03D1C9E8E13F002956
:10476800F7D152D105F5D8783146404615F030FEDC
:10477800074650B10023D9E8EF2FC9E8E13F0029E7
:10478800F9D1384605B0BDE8F083214BC5F8903221
:10479800C5F88C623168404600F046F907460028A3
:1047A800E8D12046FFF796FF07460028E2D1194BCB
:1047B800C5F89431184BC5F89831B26AD5F850321B
:1047C800D5F8801315480390D5F8F8010290D5F86C
:1047D800F0010190CDF80080284600F081F80746E6
:1047E8000028C7D105F1E0000FF000FDC5F88803E7
:1047F800002807DB0223D9E8EF2FC9E8E13F0029A9
:10480800BFD0F8E76FF01507B4E76FF07707B8E7A0
:10481800AD9F0200C1460100DFA20200CDA1020047
:104828002DE9F04385B007460E469146D0F8A4809E
:10483800002400E00134012C28D8A8F5C471C4EB89
:10484800C40501EB0515C4EBC4031B01403319442F
:10485800304616F03DFC0028ECD10E4B0293D8F8F8
:1048680010300193CDF800904FF0FF3332463946AF
:1048780028460FF009FB48B9012185F86410D8F8DB
:104888000C30002BD6D028469847D3E705B0BDE8B2
:10489800F08300BFBBA40200C8B110B584B01446B1
:1048A8000346BAB1E030012902D0002004B010BD9F
:1048B8000A4A0292D3F8983101934FF0FF330093DC
:1048C80004F14002014620460FF0DEFAEEE76FF0F1
:1048D800150070476FF01500E8E700BFBBA40200A1
:1048E8002DE9F04184B00B9D0D9C38B31F46064658
:1048F8003DB3BCB1C1B90292039206F5C4780C9AD3
:10490800294640461AF00EFA02AB0193CDF8008012
:104918003B4622460A9906F1E0000FF07DFC04B000
:10492800BDE8F081084CE5E7002300933B462246AA
:104938000A9906F1E0000FF071FDF0E76FF015003D
:10494800EDE76FF01500EAE72948010010B584B0DB
:104958000446114A02AB92E8030083E803001846B4
:104968000FF022F908B104B010BD04F134000FF0C3
:10497800FBF80028F7D101AA0849094819F04EFCAC
:104988000028F0D1019B9A681AB10C33C4F8A03002
:10499800E9E70023FAE700BF70F90200DC0803002A
:1049A800E808030038B504460D46D0F8940015F021
:1049B800C0FDC4F8D40078B3D4F8940015F0B9FD5C
:1049C800C4F8D80058B3D4F8A010C4F8B810D4F874
:1049D8008C30C4F8A830B4F89420A4F8B02004238C
:1049E800C4F8AC30D4F8D4C0C4F8A4C0C4F8D0100B
:1049F800D4F89010C4F8C010A4F8C820C4F8C43083
:104A0800C4F8BC00A5610223A362064B236204F12B
:104A1800A403E362002038BD6FF00B00FBE76FF0E2
:104A28000B00F8E7F008030010B330B585B00D4669
:104A38000446114B43630123C363D0F89810016304
:104A48000023029301934FF0FF330093D0F89C307A
:104A580000F13002403019F006FC2046FFF776FFDF
:104A680008B105B030BD29462046FFF79BFFF8E79F
:104A78006FF01500704700BFDC08030008B5064B4F
:104A880023B14178007815F047F908BD002383F376
:104A98001188BFF36F8FF8E7219D020070B50546B6
:104AA8004FF02003EFF3118683F31288BFF36F8F63
:104AB800224810F0BDF928B1204810F0D9F9204B50
:104AC8001C681CE01F4C942322461F491F4815F000
:104AD80008F81A491E4815F004F89421204614F0E5
:104AE800F9FFA2683AB11B4B1B7D03EB43031A493C
:104AF80011F8230090472346246804B123B12CB150
:104B0800002DEED06268EDE71C46F8E70B4810F080
:104B18009FF920B186F31188BFF36F8F70BD094CE0
:104B2800C22322460D49094814F0DBFF03490C480B
:104B380014F0D7FFC221204614F0CCFFC097002004
:104B4800E0970020B001030010020300ACFD020052
:104B580028020300E89C0020D4970020E00103000D
:104B6800F801030070B50E4B1C7D21460D4815F069
:104B780028FD00B970BD650004EB44000A4E06EB41
:104B88008000FFF77BFF0020FFF788FF2B199900B3
:104B980006EB8303002272505A609A60EAE700BF6E
:104BA800E89C0020E8970020D4970020F8B5054637
:104BB8004F4B1C7D4FF02003EFF3118683F31288CF
:104BC800BFF36F8F4B4810F033F900284BD049489A
:104BD80010F04EF904EB4403474A12F82330002B37
:104BE80050D004EB4402454B03EB820C424F4FEA92
:104BF800820E07EB820393E807008CE80700002386
:104C080007F80E303B4810F023F90746002848D033
:104C180086F31188BFF36F8F04EB4403374A12F809
:104C28002330002B62D0B5F1FF3F49D111F024FFAA
:104C38000120FFF733FF2146314815F0DAFC314BEC
:104C48005BB12E4A04EB440302EB830304EB4404F8
:104C5800597812F8240015F057F8FFF783FF12F07F
:104C680059FC3846F8BD284C942322462749284841
:104C780014F037FF1F49274814F033FF94212046CA
:104C880014F028FF2946204600F04EF80028B9D035
:104C980004EB4401194B03EB810307C883E80700C1
:104CA800B0E7194CC22322461B49194814F019FFD2
:104CB80010491A4814F015FFC221204614F00AFFC3
:104CC80004EB44020D4B03EB82039868410CC003CC
:104CD800134BC018134A4FF0000341F10001FBF7D2
:104CE80037FA0121281A13F05BFA9FE70027B8E783
:104CF800E89C0020C4970020C8970020D497002083
:104D0800E8970020119D0200B00103001002030083
:104D1800ACFD020028020300E0010300F8010300D3
:104D28003F420F0040420F002DE9F04182B00E468D
:104D380001A900F045F8441E24B207E0B6F1FF3F90
:104D480033D08044B04530D9013C24B2002C2BDB51
:104D5800019B04EB440203EB8205697813F82200F7
:104D680015F056FC0028EFD16868410CC003114FBC
:104D7800C019114A4FF0000341F10001FBF7E8F9AF
:104D88008046AB68590CDB03D8190B4A4FF0000377
:104D980041F10001FBF7DCF9084B1B68B3F1FF3F59
:104DA800CCD08342CAD8CFE70025284602B0BDE858
:104DB800F08100BF3F420F0040420F000C820020EC
:104DC80008B9024B0B600020704700BF18090300A8
:104DD80070B48DB006460D460DF1040C2B4C0FCC6B
:104DE800ACE80F000FCCACE80F0094E807008CE8A3
:104DF8000700002E45D03046002D44D000230FE098
:104E080015F8234005EB83014A78120442EA04624C
:104E18008C7842EA0422C9780A4340F823200133F7
:104E2800032BEDD906E0191F50F821104A4040F82D
:104E3800232001332B2B20D85A1E50F8222013F0A0
:104E4800030FF0D14FEA3262110E114C655CC2F3C8
:104E58000741615C090441EA0561C2F30725655D04
:104E680041EA0521D2B2A25C114323F00302303299
:104E78006A4452F82C2C4A40D5E701200DB070BC8A
:104E880070470020FAE70020F8E700BF78F9020031
:104E98001809030000284ED070B584B015460646A0
:104EA80000294AD0002A4AD010230A4619466846E3
:104EB80015F0B0FB2946684615F0C6FB002414E03F
:104EC8001DF803101F48415C0DF8031001330F2B28
:104ED800F6D9684615F0F9FB684615F070FC013400
:104EE80005EB0411684615F0AFFB082C01D8002328
:104EF800EDE7002306E01DF8032012498A5C0DF84F
:104F0800032001330F2BF6D9684615F0DEFB611C30
:104F180005EB0111684615F097FB10236A46194600
:104F2800304615F077FB10220021684615F07FFB0C
:104F3800012004B070BD002070470020F9E7002070
:104F4800F7E700BF180903002DE9F04F95B003916A
:104F58000568D0F804808768D0F80CB00469D0F8E8
:104F680014A0D0F81890D0F81CC00026CDF804B0D2
:104F7800E346029030E003A815F04CFD14AB03EBB8
:104F8800860343F8400C4FEAF42383EAB41383EA18
:104F980074635B4404EA0A0229EA04014A401344A0
:104FA8004E4A52F82620134418444FEA753383EAD0
:104FB800B50383EAB55388EA07022A4008EA0701DD
:104FC8004A4013440136CB46D146A246019C0444CC
:104FD80001974746A846C5180F2ECCD9DC46DDF800
:104FE80004B03F2E5ED806F1010E0EF00F0314AA8E
:104FF80002EB830353F8402C4FEAB24383EAF213DF
:1050080083EAD20306F10E0202F00F0214A901EBA3
:10501800820252F8401C4FEAF14282EA714282EA67
:10502800912206F00F0114A800EB810151F8400C01
:105038000190134406F1090202F00F0214A800EBD4
:10504800820252F8402C1344019A134441F8403C20
:105058004FEAF42282EAB41282EA7462624404EAF1
:105068000A0129EA040041400A441C4951F8261063
:105078000A4413444FEA753282EAB50282EAB5510E
:1050880088EA07022A4008EA070042400A447646AE
:10509800CC46D146A2460BEB0304BB464746A8467E
:1050A8009D189EE7029803682B44036043684344B5
:1050B800436083683B448360C3685B44C36003699F
:1050C8002344036143695344436183694B448361C7
:1050D800C3696344C36115B0BDE8F08F180A0300C3
:1050E800E0B110B504467022002115F0A0FA0C4B6F
:1050F80023600C4B63600C4BA3600C4BE3600C4BC0
:1051080023610C4B63610C4BA36103F17453A3F54A
:105118002303A3F69243E361012010BD00207047EA
:1051280067E6096A85AE67BB72F36E3C3AF54FA530
:105138007F520E518C68059BABD9831F0149102201
:105148000A60704710ED00E072B6404080F31188A5
:10515800BFF36F8FBFF34F8F30BF62B6BFF36F8F50
:10516800704700BF72B6494081F3118820BF80F3B1
:10517800118862B6704700BF2DE9F04182B000AFD8
:105188000446D0F800E0D0F804C086686D468AB0BE
:105198006B4613F1100200F0F38014218AB108461F
:1051A800042903DDDFF80882C3F81480082801DD2C
:1051B800C3F818E00C2801DDC3F81CC0102800DD76
:1051C8001E62132940F3DF804FF0140C3AB1052119
:1051D800397100217971B971F97178681861002104
:1051E8006FF300016FF341016FF382016FF3C501A3
:1051F800012363F388110CF47D7C6CF352216FF367
:10520800DE416FF3DF7100236A48FEF773FDAD4698
:10521800D4F80CE0D4F810C066696D468AB06B46C5
:1052280013F1100200F0B28014218AB10846042953
:1052380003DDDFF88481C3F81480082801DDC3F892
:1052480018E00C2801DDC3F81CC0102800DD1E6220
:10525800132940F39E804FF0140C3AB1052139719F
:1052680000217971B971F9717868186100216FF3BB
:1052780000016FF341016FF382016FF3C501012350
:1052880063F388110CF47D7C6CF352216FF3DE41DB
:105298006FF3DF7100234748FEF72CFDAD46E66942
:1052A8006D4688B06B4613F1100275D00C214AB1D7
:1052B8000846042903DDDFF804C1C3F814C0082830
:1052C80000DD9E610B296ADD4FF00C0C3AB1032119
:1052D800397100217971B971F97178681861002103
:1052E8006FF300016FF341016FF382016FF3C501A2
:1052F800012363F388110CF47B7C6CF352216FF368
:10530800DE416FF3DF7100232A48FEF7F3FCAD4658
:10531800A46988B06B4613F1100243D00C213AB14E
:105328000846042901DD264D5D61082800DD9C61E1
:105338000B293ADD0C243AB1032139710021797126
:10534800B971F9717868186100216FF300016FF382
:1053580041016FF382016FF3C501012363F38811E3
:1053680004F47B7464F352216FF3DE416FF3DF7151
:1053780000231048FEF7BEFC0837BD46BDE8F081A3
:105388006FF000410AE76FF01B0C1FE76FF0004158
:105398004BE76FF01B0C60E76FF0004187E76FF099
:1053A8001B0C93E76FF00041B9E76FF01B04C2E7ED
:1053B800180B0300A8F80200480B0300780B030041
:1053C800880B0300002807DB00F01F0240090123B7
:1053D8009340024A42F82030704700BF00E100E0E5
:1053E80000280CDB00F01F02400901239340203005
:1053F800034A42F82030BFF34F8FBFF36F8F7047D7
:1054080000E100E0002808DB4901C9B200F1604072
:1054180000F5614080F80013704700F00F00490163
:10542800C9B2014B1954704714ED00E04209054B0D
:1054380053F8222000F01F00012303FA00F0104067
:10544800704700BF00E100E070B505460C46013129
:10545800072903D840B2FFF7D5FF70BD084E5B237C
:1054680032460849084814F03CFB07232A462146DF
:10547800064814F036FB5B21304614F02BFB00BFC6
:10548800B80B0300F00B0300ACFD02000C0C03008A
:1054980030BFFFF7FDBF00BF08B50B4B0B4A22F02A
:1054A8007F029A60BFF34F8FBFF36F8FD3F88820C6
:1054B80022F47002C3F888200FF0AEF912F090FCC5
:1054C80001F036F80FF004FA00ED00E000000100EA
:1054D8000A4A9368C3F8AC0009490968C3F8B010D0
:1054E80008494B6843F080534B60002383F31188CD
:1054F800BFF36F8F9368D3F8B0007047E89C002023
:10550800583F030000ED00E016498A6882F8B5E0CC
:105518004FF030001044EFF3098C80E8F01F202092
:1055280080F31288BFF36F8F0F4F4FF00066CA6980
:105538008A603E6092F9B5E0D2F8AC000023C2F868
:10554800AC3080F3118802F1300090E8F01F8CF342
:10555800098802F1000004B515F0F2FCBDE804402A
:1055680070470000E89C002004ED00E01EF0040FE6
:105578000CBFEFF30880EFF30980816911F8021C72
:105588000229FFD001B515F0BFFC01BD10B4A2F18E
:105598002004104942F8081C21F0010142F8081CB7
:1055A80042F8203C019B42F81C3C029B42F8183C04
:1055B800039B42F8143C4FF0807342F8043C0465A6
:1055C8000023C0F8AC30C0F8B430BC2380F8B53044
:1055D80010BC704781920200094B9860D0F89C304B
:1055E80083F30B88104681F30988002163B681F3A1
:1055F8001188BFF36F8F0022002313F03DFE00BF18
:10560800E89C002001B572B60B4A906900281EBFBD
:105618000021916119F0F4FB62B6EFF30580A0F167
:1056280010004FEAC0000549014409C99847BDE880
:105638000140034908470000E89C002048F50200A3
:105648004D560100044B9968D869884203D0034934
:105658004FF080520A607047E89C002004ED00E09B
:1056680081690D4B5A6942F480725A61BFF34F8FBA
:10567800BFF36F8F31F8021C5A6922F480725A61A5
:10568800BFF34F8FBFF36F8F4DF60273994201D06E
:10569800002070470120704700ED00E0F0B589B0A8
:1056A8001D4600232B7002F07F43B3F17F4F42D198
:1056B80006460F46144612F0010F3FD112F0400F74
:1056C80007D100200346BBBB14F0080F2FD0384683
:1056D80032E01B4B079302238DF8043000238DF82A
:1056E80005308DF806308DF80730019A0692194674
:1056F80063F3000163F3410163F3820163F3C501BE
:10570800012262F38811082262F3522163F3DE4119
:1057180063F3DF7106AA0B48FEF7ECFA14F0040FE6
:1057280002D038460123CEE730460123CBE7304686
:1057380001232B7000E0002009B0F0BD0020FBE73A
:105748004C0C0300A8F802002DE9F041A6B000AF08
:1057580005460E461446BC4BFB6102233B710023F1
:105768007B71BB71FB717A68BA61194663F30001FA
:1057780063F3410163F3820163F3C501012262F31C
:105788008811082262F3522163F3DE4163F3DF716B
:1057980007F11802AD48FEF7ADFAAD4B9B6A13F05E
:1057A800100F3ED1AA4B9B6A13F0080F5CD1A84B8F
:1057B8009B6A13F0020F7AD1A54B9B6A13F0010F75
:1057C80040F0E980A24B9B6A13F0200F40F006815D
:1057D8009F4B9B6A13F0100F04D19D4B9B6A13F0EB
:1057E800020F05D09A4B9B6A13F0100F40F01B81F3
:1057F800974B9B6A13F0200F04D0954A536A23F401
:1058080000535362924A936A43F0FF039362012163
:10581800284615F09AFB207000209837BD46BDE851
:10582800F0818C4B7B6302233B7100237B71BB713E
:10583800FB717A683A63194663F3000163F3410127
:1058480063F3820163F3C501012262F38811082220
:1058580062F3522163F3DE4163F3DF7107F1300233
:105868007A48FEF747FA9DE77B4BFB6402233B71BE
:1058780000237B71BB71FB717A68BA64194663F3C4
:10588800000163F3410163F3820163F3C50101225F
:1058980062F38811082262F3522163F3DE4163F355
:1058A800DF7107F148026948FEF724FA7FE76B4B7E
:1058B8007B6602233B7100237B71BB71FB717A68A5
:1058C8003A66194663F3000163F3410163F3820109
:1058D80063F3C501012262F38811082262F35221A1
:1058E80063F3DE4163F3DF7107F160025748FEF7A7
:1058F80001FA574B586B9B6A13F0800F3FF45CAF6B
:10590800E84688B06B4613F1100211D00C2152B151
:105918008C46042903DDDFF848E1C3F814E0BCF144
:10592800080F08DD98610B2932DD4FF00C0C04E0FC
:105938006FF00041EBE76FF01B0C3AB103213971AE
:1059480000217971B971F9717868186100216FF3D4
:1059580000016FF341016FF382016FF3C501012369
:1059680063F388110CF47B7363F352216FF3DE4108
:105978006FF3DF7100233548FEF7BCF9C546002EEA
:105988003FF41AAF324A936A23F08003936213E715
:105998006FF01B0CD1E7334BFB6702233B710023ED
:1059A8007B71BB71FB717A68BA67194663F30001B2
:1059B80063F3410163F3820163F3C501012262F3DA
:1059C8008811082262F3522163F3DE4163F3DF7129
:1059D80007F178021D48FEF78DF9F3E6224BC7F868
:1059E800943002233B7100237B71BB71FB717A6891
:1059F800C7F89020194663F3000163F3410163F38C
:105A0800820163F3C501012262F38811082262F35F
:105A1800522163F3DE4163F3DF7107F190020B4813
:105A2800FEF768F9D4E6114C4FF4AE7322461049DC
:105A3800104814F056F8104814F053F84FF4AE71AB
:105A4800204614F047F800BF700C0300A8F80200C5
:105A580000ED00E0880C0300BC0C0300D00C030030
:105A6800E80C0300000D0300200D0300500D030097
:105A78008C0D0300ACFD0200D80D03002DE9F041A8
:105A8800ACB000AF05460E461446BC4BFB61022382
:105A98003B7100237B71BB71FB717A68BA6119464F
:105AA80063F3000163F3410163F3820163F3C5010A
:105AB800012262F38811082262F3522163F3DE4166
:105AC80063F3DF7107F11802AD48FEF713F9AD4B28
