:1080000020C90020B1D60000DDD9010085D60000CE
:1080100085D6000085D6000085D6000085D60000F4
:1080200000000000000000000000000039CF000048
:1080300085D6000000000000D9CE000085D60000E3
:10804000C1CF0000C1CF0000C1CF0000C1CF0000F0
:10805000C1CF0000C1CF0000C1CF0000C1CF0000E0
:10806000C1CF0000C1CF0000C1CF0000C1CF0000D0
:10807000C1CF0000C1CF0000C1CF0000C1CF0000C0
:10808000C1CF0000C1CF0000C1CF0000C1CF0000B0
:10809000C1CF0000C1CF0000C1CF0000C1CF0000A0
:1080A000C1CF0000C1CF0000C1CF0000C1CF000090
:1080B000C1CF0000C1CF0000C1CF0000C1CF000080
:1080C000C1CF0000C1CF0000C1CF0000C1CF000070
:1080D000C1CF0000C1CF0000C1CF0000C1CF000060
:1080E000C1CF0000C1CF0000C1CF0000C1CF000050
:1080F000C1CF0000C1CF0000C1CF0000C1CF000040
:10810000C1CF0000C1CF0000C1CF0000C1CF00002F
:10811000C1CF0000C1CF0000C1CF0000C1CF00001F
:10812000C1CF0000C1CF0000C1CF0000C1CF00000F
:10813000C1CF0000C1CF0000C1CF0000C1CF0000FF
:10814000C1CF0000C1CF0000C1CF0000C1CF0000EF
:04815000C1CF00009B
:04815400FFFFFFFF2B
:1081580081F0004102E000BF83F0004330B54FEAF0
:1081680041044FEA430594EA050F08BF90EA020F5D
:108178001FBF54EA000C55EA020C7FEA645C7FEAF0
:10818800655C00F0E2804FEA5454D4EB5555B8BF13
:108198006D420CDD2C4480EA020281EA030382EA84
:1081A800000083EA010180EA020281EA0303362D16
:1081B80088BF30BD11F0004F4FEA01314FF4801CE9
:1081C8004CEA113102D0404261EB410113F0004FFB
:1081D8004FEA03334CEA133302D0524263EB4303B2
:1081E80094EA050F00F0A780A4F10104D5F1200E50
:1081F8000DDB02FA0EFC22FA05F2801841F10001AB
:1082080003FA0EF2801843FA05F359410EE0A5F17E
:1082180020050EF1200E012A03FA0EFC28BF4CF0AF
:10822800020C43FA05F3C01851EBE37101F0004565
:1082380007D54FF0000EDCF1000C7EEB00006EEB72
:108248000101B1F5801F1BD3B1F5001F0CD34908FC
:108258005FEA30004FEA3C0C04F101044FEA445253
:1082680012F5800F80F09A80BCF1004F08BF5FEADA
:10827800500C50F1000041EB045141EA050130BDBA
:108288005FEA4C0C404141EB0101013C28BFB1F5CC
:10829800801FE9D291F0000F04BF01460020B1FA17
:1082A80081F308BF2033A3F10B03B3F120020CDAEA
:1082B8000C3208DD02F1140CC2F10C0201FA0CF0C8
:1082C80021FA02F10CE002F11402D8BFC2F1200C2D
:1082D80001FA02F120FA0CFCDCBF41EA0C019040E3
:1082E800E41AA2BF01EB0451294330BD6FEA04042C
:1082F8001F3C1CDA0C340EDC04F11404C4F1200217
:1083080020FA04F001FA02F340EA030021FA04F328
:1083180045EA030130BDC4F10C04C4F1200220FA7F
:1083280002F001FA04F340EA0300294630BD21FABD
:1083380004F0294630BD94F0000F83F4801306BF83
:1083480081F480110134013D4EE77FEA645C18BF77
:108358007FEA655C29D094EA050F08BF90EA020F0E
:1083680005D054EA000C04BF1946104630BD91EA06
:10837800030F1EBF0021002030BD5FEA545C05D109
:108388004000494128BF41F0004130BD14F5800448
:108398003CBF01F5801130BD01F0004545F0FE41BC
:1083A80041F470014FF0000030BD7FEA645C1ABFF1
:1083B800194610467FEA655C1CBF0B46024650EA28
:1083C800013406BF52EA033591EA030F41F4002154
:1083D80030BD00BF90F0000F04BF0021704730B5DA
:1083E8004FF4806404F132044FF000054FF00001AF
:1083F80050E700BF90F0000F04BF0021704730B570
:108408004FF4806404F1320410F0004548BF404244
:108418004FF000013EE700BF42004FEAE2014FEA99
:1084280031014FEA02701FBF12F07F4393F07F4F74
:1084380081F06051704732F07F4208BF704793F077
:108448007F4F04BF41F40021704730B54FF460748A
:1084580001F0004521F000411CE700BF50EA01028D
:1084680008BF704730B54FF000050AE050EA010236
:1084780008BF704730B511F0004502D5404261EBA6
:1084880041014FF4806404F132045FEA915C3FF4E7
:10849800D8AE4FF003025FEADC0C18BF03325FEA84
:1084A800DC0C18BF033202EBDC02C2F1200300FA35
:1084B80003FC20FA02F001FA03FE40EA0E0021FA5A
:1084C80002F11444BDE600BF70B54FF0FF0C4CF448
:1084D800E06C1CEA11541DBF1CEA135594EA0C0FFA
:1084E80095EA0C0F00F0DEF82C4481EA030621EA35
:1084F8004C5123EA4C5350EA013518BF52EA033570
:1085080041F4801143F4801338D0A0FB02CE4FF021
:108518000005E1FB02E506F00042E0FB03E54FF051
:108528000006E1FB03569CF0000F18BF4EF0010E49
:10853800A4F1FF04B6F5007F64F5407404D25FEA45
:108548004E0E6D4146EB060642EAC62141EA5551F8
:108558004FEAC52040EA5E504FEACE2EB4F1FD0C3A
:1085680088BFBCF5E06F1ED8BEF1004F08BF5FEAB8
:10857800500E50F1000041EB045170BD06F000466A
:1085880046EA010140EA020081EA0301B4EB5C0417
:10859800C2BFD4EB0C0541EA045170BD41F480110F
:1085A8004FF0000E013C00F3AB8014F1360FDEBF34
:1085B800002001F0004170BDC4F10004203C35DA10
:1085C8000C341BDC04F11404C4F1200500FA05F393
:1085D80020FA04F001FA05F240EA020001F0004234
:1085E80021F0004110EBD37021FA04F642EB0601AA
:1085F8005EEA430E08BF20EAD37070BDC4F10C04D4
:10860800C4F1200500FA04F320FA05F001FA04F297
:1086180040EA020001F0004110EBD37041F1000183
:108628005EEA430E08BF20EAD37070BDC4F120058E
:1086380000FA05F24EEA020E20FA04F301FA05F2F6
:1086480043EA020321FA04F001F0004121FA04F29E
:1086580020EA020000EBD3705EEA430E08BF20EA6E
:10866800D37070BD94F0000F0FD101F000464000A8
:1086780041EB010111F4801F08BF013CF7D041EA2A
:10868800060195F0000F18BF704703F0004652002E
:1086980043EB030313F4801F08BF013DF7D043EAFF
:1086A8000603704794EA0C0F0CEA135518BF95EAB5
:1086B8000C0F0CD050EA410618BF52EA4306D1D13C
:1086C80081EA030101F000414FF0000070BD50EA5B
:1086D800410606BF1046194652EA430619D094EAE5
:1086E8000C0F02D150EA013613D195EA0C0F05D1CF
:1086F80052EA03361CBF104619460AD181EA030123
:1087080001F0004141F0FE4141F470014FF00000DA
:1087180070BD41F0FE4141F4780170BD70B54FF075
:10872800FF0C4CF4E06C1CEA11541DBF1CEA1355F5
:1087380094EA0C0F95EA0C0F00F0A7F8A4EB0504D7
:1087480081EA030E52EA03354FEA013100F08880CE
:108758004FEA03334FF0805545EA131343EA126397
:108768004FEA022245EA111545EA10654FEA00264C
:108778000EF000419D4208BF964244F1FD0404F505
:10878800407402D25B084FEA3202B61A65EB030561
:108798005B084FEA32024FF480104FF4002CB6EB1E
:1087A800020E75EB030E22BFB61A754640EA0C009E
:1087B8005B084FEA3202B6EB020E75EB030E22BFDE
:1087C800B61A754640EA5C005B084FEA3202B6EB1F
:1087D800020E75EB030E22BFB61A754640EA9C00DE
:1087E8005B084FEA3202B6EB020E75EB030E22BFAE
:1087F800B61A754640EADC0055EA060E18D04FEA6C
:10880800051545EA16754FEA06164FEAC30343EA0B
:1088180052734FEAC2025FEA1C1CC0D111F4801FD8
:108828000BD141EA00014FF000004FF0004CB6E7D1
:1088380011F4801F04BF01430020B4F1FD0C88BF70
:10884800BCF5E06F3FF6AFAEB5EB030C04BFB6EB7B
:10885800020C5FEA500C50F1000041EB045170BD6E
:108868000EF0004E4EEA113114EB5C04C2BFD4EB9B
:108878000C0541EA045170BD41F480114FF0000E1F
:10888800013C90E645EA060E8DE60CEA135594EA9B
:108898000C0F08BF95EA0C0F3FF43BAF94EA0C0F9E
:1088A8000AD150EA01347FF434AF95EA0C0F7FF413
:1088B80025AF104619462CE795EA0C0F06D152EA67
:1088C80003353FF4FDAE1046194622E750EA41064B
:1088D80018BF52EA43067FF4C5AE50EA41047FF45C
:1088E8000DAF52EA43057FF4EBAE12E74A0011D20E
:1088F80012F5001211D20DD56FF47873B3EB6252F2
:108908000ED44FEAC12343F0004343EA505323FAFD
:1089180002F070474FF00000704750EA013002D172
:108928004FF0FF3070474FF00000704753B94AB915
:10893800002908BF00281CBF4FF0FF314FF0FF305F
:1089480000F00CB8ADF1080C6DE904CE00F008F8A1
:10895800DDF804E0DDE9022304B07047704700BF8A
:108968002DE9F04786468C460846089E154674460B
:108978001946002B40F0C1808542B2FA82F245D9EF
:108988004AB1C2F1200300FA02FC954094402EFA45
:1089980003F343EA0C0C4FEA154EA8B2230CBCFBB8
:1089A800FEF80EFB18CC08FB00F943EA0C43994586
:1089B80028D9EB1808F1FF3704D2994502D9A8F154
:1089C80002072B44A3EB0903A4B2B3FBFEFC0EFB86
:1089D8001C330CFB00F044EA0344A04214D92C19C0
:1089E8000CF1FF3304D2A04202D9ACF102032C44AB
:1089F800241A43EA07401EB1D44000233460736050
:108A0800BDE8F0874746DDE76346F1E792BB431BC5
:108A180001214FEA154EAFB2200CB3FBFEFC0EFB52
:108A28001C330CFB07F840EA0343984561D9EB185F
:108A38000CF1FF3004D2984502D9ACF102002B4466
:108A4800A3EB0803A4B2B3FBFEFC0EFB1C330CFB28
:108A580007F744EA0344A7424DD92C190CF1FF3318
:108A680004D2A74202D9ACF102032C44E41B43EA26
:108A78000040C0E7C2F120039540944020FA03F17A
:108A88002EFA03F34FEA154E9040AFB20343B1FB01
:108A9800FEFC0EFB1C10190C0CFB07F841EA004108
:108AA800884522D969180CF1FF3004D2884502D9CB
:108AB800ACF102002944A1EB08019BB2B1FBFEFC1A
:108AC8000EFB1C110CFB07F743EA01439F420ED92A
:108AD800EB180CF1FF3104D29F4202D9ACF102012C
:108AE8002B44DB1B41EA004193E76046E3E761461C
:108AF800F7E76046A4E76346B8E7834206D916B9A4
:108B0800002108467CE7C6E900E0F9E7B3FA83F7F5
:108B18008FB9834201D3724508D8BEEB020460EBDB
:108B2800030301209C461EB9002169E73846FAE78D
:108B3800C6E9004CF8E7C7F1200CBB400EFA07F570
:108B480022FA0CF42EFA0CF1BA401C4320FA0CF36A
:108B5800B8404FEA144901431FFA84FEB3FBF9F801
:108B680009FB18300B0C08FB0EFA43EA00439A4540
:108B780040D9E31808F1FF3004D29A4502D9A8F188
:108B880002002344A3EB0A0389B2B3FBF9F809FBFB
:108B9800183308FB0EFE41EA03418E452CD96118B3
:108BA80008F1FF3304D28E4502D9A8F1020321440B
:108BB80043EA0040A1EB0E01A0FB02984145CE46D6
:108BC800434602D306D14D4504D20138B9EB020E13
:108BD80068EB0403002EA7D0B5EB0E0261EB03018E
:108BE80001FA0CFC22FA07F3F9404CEA0303C6E940
:108BF800003199E74046C5E74346D9E70000000041
:108C08002DE9F04F89B0D0E90063039383890D46BD
:108C180087680593B36830465B68039906AA984746
:108C2800002831DBDDE9064BA7FB042307FB0B38E3
:108C380004924FF0FF3A1AA3D3E90023414604985F
:108C4800FFF774FE049BDFF860909A4579EB080300
:108C580007461CD3A5FB044305FB0B3510A3D3E93A
:108C6800002329462046FFF761FEA24579EB05055A
:108C780003460CD38742B2680CD30599304600915D
:108C8800146803993A46A04709B0BDE8F08F6FF021
:108C98008500F9E76FF01500F6E700BFAFF3008035
:108CA80000CA9A3B00000000FFC99A3B0000000080
:108CB80038B51D4D1D4C00222978206800F004FCB1
:108CC8000021012012F030FB01222978206800F0F1
:108CD800FBFB0021012012F027FB002229782068E5
:108CE80000F0F2FB0021012012F01EFB43F698224F
:108CF8000F4B104C1968914201D9206838BD18688B
:108D0800FFF768FB06A3D3E90023FFF7DDFB00228A
:108D1800094BFFF7D9FBFFF7E9FD2060EDE700BF3E
:108D28006ABC74931804D63F6C9C00202C970020D2
:108D38001C970020189700200000E03F98B56C466B
:108D480000AF88B06A460C4B0C48C2E905310323D2
:108D58004FF4C65142F8103F13F028FCA546084CC2
:108D6800012016F00EFB206818B107F0A5FD0023BE
:108D78002360BD4698BD00BF9C1102000408020094
:108D88000497002010B50B4C86B021460A48FFF71F
:108D980037FF21460948FFF733FF094B4FF4865147
:108DA80005930223074804AA049313F0FFFB06B0B7
:108DB80010BD00BF60E31600D4090200C409020018
:108DC800B61102000408020090B587B0044600AF4F
:108DD80089B16C4688B06A46114B1248C2E9053120
:108DE80003234FF4C25142F8103F13F0DFFBA546AE
:108DF8001C37BD4690BD0C4B4FF486517B61022356
:108E080007F110023B61074813F0D0FB204607F03A
:108E18002BFD064B1860012016F0B0FAE8E700BFFA
:108E2800D211020004080200E51102000497002094
:108E38002DE9F0473038C0B286B0032800AF35D8E6
:108E4800224B53F82060224B53F8205031462148DA
:108E5800FFF7D6FE29462048FFF7D2FEE94688B03C
:108E68006C464FF47A7AB6FBFAF64FF00308A6611F
:108E780026461A4B4FF4C651636146F8108F3246A6
:108E8800174813F093FBCD46A546B5FBFAF5154BED
:108E980032464FF4C65112486361A561C4F8108088
:108EA80013F084FB1837BD46BDE8F0870E4B40F23F
:108EB800DC557B6102234FF4865109483B6107F179
:108EC800100213F073FB2E46C0E700BF980902009A
:108ED80088090200D4090200C409020049120200EC
:108EE8000408020061120200F01102002DE9F041AD
:108EF80082B08046684602F10803DB08A0EBC30392
:108F080002AF9D4602AD2846144614F0F9FD002331
:108F18006E4688B02B5502AA164BD461C2E90538B3
:108F28000423154C42F8103F4FF40351204613F028
:108F38003DFB02AA114B4FF4E651C2E905354FF447
:108F4800007393830E4B204642F8103F13F02EFB1C
:108F5800B5462878FFF76CFF002200230948CDE9C1
:108F6800002340F6F602002312F0FCFEBD46BDE8E1
:108F7800F08100BF7A120200040802009C1202006D
:108F88000300000118850020022290B585B000AFCB
:108F9800C7E901270122114BFA60187059703B602C
:108FA8000F4B186883680F491C6807F108020023F3
:108FB800A04700B270B16C4688B06A460A4B4FF4BD
:108FC800C251C2E905300323084842F8103F13F0A4
:108FD800EDFAA5461437BD4690BD00BF689C002039
:108FE80000970020A8090200A51202000408020048
:108FF8002DE9F04F4FF0000AD04687B0584CDFF803
:10900800649102AF99F8003023B913F0D2FA012322
:1090180089F8003021465448FFF7F2FD00B20028D5
:1090280010DA88B002AA514B4FF4C251C2E9053098
:1090380003234F4842F8103F13F0B8FA1437BD46DF
:10904800BDE8F08FFFF734FE4FF0080B064601230A
:109058002046484A4849CDF800B013F0BDFA5045BB
:1090680005465ED00023CDF800B019464FF4FA72D9
:10907800304613F0B1FAFF22824012F0800F0CBF85
:109088004FF0300C4FF0310C12F0400F14BF31216B
:10909800302112F0200F0346F96014BF312130212E
:1090A80012F0100F14BF4FF0310B4FF0300B12F0CD
:1090B800080F14BF4FF0310E4FF0300E12F0040FAE
:1090C80014BF3120302012F0020FB9600CBF3021DC
:1090D8003121002B14BF30233123C7F800D090B0C2
:1090E8005FFA82FA7B6002AA244BC2E90CE0C2E96B
:1090F8000536FB6891635362BB6846F2C001C2E95A
:109108000A3B7B68C2E9075CD3630C23184842F822
:10911800103F13F04BFA5146D7F800D0E8B2FFF7EA
:1091280033FFB8F1000F0CD1134B9C4213D9A4F5AF
:109138001C54103C40F21F50002112F0F5F8AA46CA
:1091480060E70F4B04F51C5410349C42F2D94FF0E1
:109158000008084CEEE74FF001081C46EAE700BF9C
:1091680060E316006A9C0020B4090200BA120200EB
:109178000408020080841E0040420F00ED12020025
:109188007F841E0090B587B06C4600AF88B06A46F1
:109198004D4B4FF4E65153614C4B4D4893614FF49E
:1091A800007393834B4B42F8103F13F0FFF9A54629
:1091B8000CF0F0FF00B268B188B06A46464B4FF435
:1091C800C251C2E905300323414842F8103F13F069
:1091D800EDF9A5461A221921404800F09DF94048AA
:1091E800404B186016F0A0FE50B93F4B4FF4825127
:1091F8007B61022336483B6107F1100213F0D6F970
:109208003A4B186816F090FE50B9394B4FF482511A
:109218007B6102232E483B6107F1100213F0C6F967
:109228003449354800F0BAF800B270B16C4688B0DD
:109238006A46324B4FF4C651C2E90530032324482D
:1092480042F8103F13F0B2F9A5462D4C204616F00F
:109258006BFEA8B923686C4688B06A4629491C4841
:10926800C2E905134FF4007393831A4B4FF4E2518C
:1092780042F8103F13F09AF9A5461C37BD4690BD39
:10928800204616F051FE0028E4D01F4B4FF48651BB
:109298007B6102230E483B6107F1100213F086F947
:1092A8000021002901F1010401F00101B8BF494280
:1092B80000200CF09BFF24B200214FF4004012F074
:1092C80033F82146EDE700BF3113020042130200D4
:1092D80004080200030000015B1302006C04020092
:1092E80014050200009700207913020078810020FD
:1092F800971302006081002064810020C1130200DE
:10930800E4040200E91302000C1402002DE9F04104
:10931800E84600AF88B016461C4605466A460B8AE2
:109328000C49D061C2E90513042342F8103F002319
:109338004FF40351084802F0E3FA084BC5461B688E
:109348001BB122463146284698472046BD46BDE80F
:10935800F08100BF35140200DC08020008970020E5
:1093680098B500AF78B16C4688B06A46084BC2E938
:109378000530032342F8103F00234FF4C25105483B
:1093880002F0BEFAA546044810F0DAF8BD4698BDCA
:1093980057140200DC080200DC8500202DE9F041AA
:1093A80088B0044602AF0D466E464FF00208254BC2
:1093B800C7F810807B6100234FF48651224807F1DB
:1093C800100202F09DFA002C3AD0204607F0AEFCBD
:1093D8002A681E4B1E481A6006F008F9044698B120
:1093E80088B002AA1B4BC2E90534032342F8103F98
:1093F80000234FF4C251144802F082FAB5462046C1
:109408001837BD46BDE8F0813C46134D4FF0FF329A
:109418004FF0FF33114810F0D7F80FCD0FC42B6869
:10942800424623600123384600930D490D4B06F050
:10943800C9FD04460028E2D088B002AA0A4BD2E748
:109448000A4CDCE76C140200DC08020008970020D4
:10945800699300008314020020090200DC850020C3
:10946800280A0200200A0200991402000900AD0B24
:1094780038B50F4C0F4D23782BB90123237015F005
:109488009CFE286038BD15F098FE00220A4B186033
:1094980022701B682A689B1A084A13601368084AD6
:1094A800A3FB0232DB0B43EA4243064A1360E9E7B7
:1094B8006B9C0020289700202497002020970020EC
:1094C80040420F001C970020012310B503FA01F158
:1094D80043681B6819420ED10B4940F2FE430B4A00
:1094E8000B4813F0FEFA0B4813F0FBFA40F2FE416A
:1094F800064813F0EFFA22B18368DB68BDE8104034
:10950800184783681B69F9E709150200D814020097
:1095180047150200641502002DE9F0411546334A4B
:1095280004461060324A11700127426807FA01F3B5
:109538001268D0F808C0134206690ED12D494FF4BD
:1095480037732D4A2D4813F0CCFA2D4813F0C9FA79
:109558004FF43771284813F0BDFA326822EA030243
:109568003260DCF800304FF400329847636807FA3D
:1095780005F61B68A1681E422269DFD013682046E1
:1095880023EA060313600B684FF480322946984794
:10959800D4E90123126816420CD1164940F27E2301
:1095A800154A164813F09DFA154813F09AFA40F236
:1095B8007E21CFE7D3F818804FF0A0724FF0C06338
:1095C80029462046C04770B90E4B0F49C1E90136FC
:1095D800A368DB691BB13A462046984708B140F2B8
:1095E8009B20BDE8F08140F29A20FAE72C970020F2
:1095F8006C9C002009150200D814020047150200CF
:1096080064150200799400000C9700202DE9F04FB2
:1096180095B000AF0446C7E90812D7F878B0BB6127
:1096280058B9AA494FF46573A94AAA4813F059FAD8
:109638004FF46571A64813F04DFACBF3C0033B61B4
:109648003B6A53B90378467880783D6A00EB83001B
:109658002044AE421AD8031B3B6294F80290E37888
:109668004E467B61B9F1000F02D01BF0010F16D1F5
:109678007B6953BB7B6A1BB12046BA69396A984734
:109688003D6A28465437BD46BDE8F08F00F1010811
:10969800404614F0F6F9013040440135D9E76368D3
:1096A80094F800A0FB617B6A4FEA8A02FA6004EB37
:1096B8008A0A002B40F00581D04600263D6A09EB56
:1096C8000A0398454ED1CA4413E01BF0020FD1D0CB
:1096D80094F800A04FEA8A03FB60636804EB8A0AE7
:1096E800FB617B6A002B78D13D6AB9F1000F4ED13E
:1096F8004E461BF0050F0CBF022301237B627B69DA
:109708000AEB43090BF002033B62CA45B9D01AF8C9
:10971800021B1AF8013C54F823806F4B984502D37A
:109728006E4B984539D33B69002B43D0F86912F04A
:1097380096FF00283ED0E8468AB06A46684B5361D7
:10974800FB69C2E906314FF400731384654B42F894
:10975800103F00234FF41251634802F0D1F8023D44
:10976800C546D2E718F8012B7B6254F8220014F0A2
:1097780088F9FA6F7B6A01303AB1D7F880209642AF
:109788003EBFFA6F22F816000136054499E71BF030
:1097980004061CBF7E6ACA44ABE73B6923B1F8697B
:1097A80012F05DFF0028C6D11BF0010F05D17B6ABE
:1097B800ED1AAAE73B6A002BA7D0404614F061F9DE
:1097C800FB6F43B1D7F880309E423FBFFA6F431C0E
:1097D80022F816300136054497E7B9F1000F00F07A
:1097E80085801BF0040600F08480C846002607F137
:1097F80040004A46514614F083F97B69CA445B002D
:10980800BB607B690AEB43037B610BF002037B605F
:109818007B699A456FD123781BF0020F7B616378CF
:1098280018BF002106EB030208BF4FEA58011BF0DE
:10983800010FD2B240F0E2801BF0040F14BF404683
:1098480000203B61A37894F803B0FB616270A070BC
:10985800E1702046BA69F9687B6A9847051EFFF6E9
:1098680010AF7B69414623703B69BA696370FB6935
:1098780084F803B0A37007F140007B6A9847B0F101
:109888000008C0F2E8803B6A5046A3EB0901FB6878
:10989800BA69C91ABB68C91A7B6A98470028C0F216
:1098A800DC804FF0000BA84408EB000507F1300AF4
:1098B800B345C0F2A5800021BA6908467B6A98477B
:1098C800DFE64FF0000807F1300092E70B160200C0
:1098D80076150200471502007C030200B05802000A
:1098E8002616020004000001640802004E46C8461D
:1098F80083E7B04681E71AF8021B594B1AF8015C56
:1099080054F825209A4202D3564B9A4216D33B6903
:109918002BB1F86912F0A3FE00287FF479AF7B68B9
:10992800002B4AD00F2E3ED94F494FF489634F4A36
:109938004F4813F0D6F84FF489617BE63B692BB1A9
:10994800F86912F08CFE00287FF462AF1BF0010F5B
:109958000BD00F2E27D9444940F23E43434A44488E
:1099680013F0BFF840F23E4164E61BF0040F3FF4E9
:109978004FAFB8F10F0F09D93E4940F241433B4A76
:109988003B4813F0AEF840F2414153E608F1280392
:1099980007F1280108F1010203EB010808F8105C3F
:1099A8005FFA82F834E706F1280307F12801721CF0
:1099B8005E1806F8205CD6B22AE7B8F10F0F09D96D
:1099C8002C4940F24B43294A294813F08AF840F2BF
:1099D8004B412FE608F1280307F1280008F101029E
:1099E800181807F1500308F1020853FA82F200F838
:1099F800101C5FFA88F802F8105C09E7002020E7DD
:109A08001BF80A3054F8239087F82F30FB6FFBB10E
:109A180033F81B800121BA697B6A07F12F00984748
:109A280000281ADB0544B8F1000F06D1484614F0A7
:109A380028F800F101081FFA88F841464846BA6933
:109A48007B6A9847002808DB05440BF1010B2FE7D8
:109A5800D7F87C80DEE7454613E6054611E600BFE9
:109A68007C030200B0580200C916020076150200F5
:109A780047150200E8160200014B1B68184700BF93
:109A88008C810020014B1860704700BF8C8100203A
:109A980007B50B46002102460091034800F038FC48
:109AA80003B05DF804FB00BF819A000030B50025C3
:109AB80087B0CDE903010446009503A9054805953B
:109AC80000F026FCDDE904309842B8BF255407B001
:109AD80030BD00BFB5C6010070B50C46002934D0B2
:109AE80002680B1F9B1AD90823F0070313445D88EB
:109AF800E8070DD4AF23154A1549164812F0F1FFAF
:109B08002146154812F0EDFFAF21104812F0E2FF90
:109B1800104612F002FE084432F83060801B814281
:109B28000BD0B723094A0D490A4812F0DAFF21463B
:109B38000B4812F0D6FFB721E7E725F001055D8055
:109B48001046BDE8704012F0A5BE70BD191702009E
:109B58003A170200471502004B170200831702004C
:109B6800A91702002DE9F8434B1E0B400F46144677
:109B7800066810D0C1F1000909EA01094A46591ED0
:109B8800042A28BF042219420CD11F46E4B9002533
:109B98002846BDE8F883042913D8BDE8F8431146E0
:109BA80012F0A9BE2C494FF4A2732C4A2C4812F08B
:109BB80098FF2C4812F095FF4FF4A271274812F035
:109BC80089FF99460422E1E7B368B3EBD40FDED9E5
:109BD80004F10B013944891A3046C90812F0F3FD23
:109BE80080460028D3D009F1040505EBC0057B1E8B
:109BF80035441D447F423D40A5EB09052C442B1FED
:109C080007349B1B24F00704A41BB0EBD30F4FEAC7
:109C1800D3074FEAE40408D201463A46304612F028
:109C28001FFE4146304612F07DFD3946304612F09F
:109C380074FD3844844207D23046224612F010FEA2
:109C48002146304612F06EFD06EBC706738843F0D6
:109C5800010373809CE700BFE51702001917020093
:109C68004715020000180200B2F5802FF8B5044627
:109C78000ED33A4940F2EB13394A3A4812F031FF11
:109C8800394812F02EFF40F2EB11354812F022FF4E
:109C9800042A0CD835494FF4F973314A314812F087
:109CA80020FF334812F01DFF4FF4F971EDE7043A35
:109CB800C81D0A4420F0070022F00702121A172ACA
:109CC8004FEAD2030CD82B4940F2FB13244A25480B
:109CD80012F007FF264812F004FF40F2FB11D4E708
:109CE800B3FA83F120600024C1F12006C1F12401F8
:109CF80089000731C9084D1C9D428360C4600CD996
:109D08001D494FF40373164A164812F0EAFE184824
:109D180012F0E7FE4FF40371B7E700F10C0505EB0D
:109D2800860645F8044FB542FBD14D0045F00105C4
:109D380045805D1A00EBC1066F00048077808618A5
:109D480020F8311000EBC303748085525A8842F022
:109D580001025A80BDE8F84012F0E4BC1D18020068
:109D68001917020047150200331802004A180200AA
:109D78006B18020084180200AD1802002DE9F84F94
:109D88000446A38B08461907154612D4022803F087
:109D9800070164D1204612F0D7FD88B101380428A4
:109DA80000F23481DFE810F05B0032018100D1005D
:109DB800010101280CBF43F0100143F02001A183E9
:109DC800143420460FF0B4F8002840F09B819849DD
:109DD800C223984A984812F084FE2146B0E003F066
:109DE8000702501F01281ED80020062A2768C4E948
:109DF800000014D13A4603E0E08B0130E08312689A
:109E0800002AF9D123F0070343F002022046A28377
:109E180012F09AFD90B342F02002A2832EE023F0C4
:109E280007039AB2F2E7042A33D123F007039AB260
:109E38002046A28312F088FD10B142F02002A283CE
:109E4800A38B03F00709894540F0EA80A18BCA0675
:109E580040F14F8121F01003A38301F00701D4F8EA
:109E68001880A38BB8F1000FB9DA0022276823F015
:109E78000703C4E9002243F00103A383A38B03F083
:109E88000709894540F0CD80002FDFD00026B24673
:109E980044E06A4940F21B13694A674812F021FE00
:109EA80040F21B11664812F015FE49B165494FF49E
:109EB800AB73634A604812F014FE4FF4AB71F1E7DC
:109EC80023684BB9604940F257135D4A5A4812F06B
:109ED80008FE40F25711E5E723691E684EB95B4951
:109EE8004FF4AD73564A544812F0FBFD4FF4AD7170
:109EF800D8E70F4688464FF00609A38B23F00703DF
:109F080043F006039BB2A383A268002A40F08B802B
:109F1800002F40F08B80002E98D0BA4643F00803FB
:109F280004F1140B5846A3830FF002F8002840F000
:109F380097803F49C2233F4A3F4812F0D2FD594615
:109F4800434812F0CEFDC221AEE0022909D04149B2
:109F580040F25D133A4A384812F0C3FD40F25D11F1
:109F6800A0E7E78B4FB13C494FF4AF73344A32480E
:109F780012F0B7FD4FF4AF7194E723695E684EB9EC
:109F8800324940F261132E4A2B4812F0AAFD40F2E2
:109F9800611187E7A38BB84623F0070343F0040356
:109FA8009BB24FF00409A383AEE7012909D02B49DE
:109FB8004FF4B273224A204812F093FD4FF4B27165
:109FC80070E723684BB9204940F265131C4A1A48C8
:109FD80012F087FD40F2651164E723699E684EB967
:109FE8001A494FF4B473164A134812F07AFD4FF425
:109FF800B47157E70027A38BB84623F0070343F053
:10A0080005039BB24FF00509A3837DE70B4940F296
:10A018006B130B4A084812F064FD40F26B1141E7DC
:10A028000027002670E74FF0010A77E7924675E7A8
:10A03800A81902007B1902004715020073460200A6
:10A04800D8180200FA18020006190200291902009D
:10A05800BF190200401902005619020065190200D2
:10A0680085F31188BFF36F8FBAF1000F1ED1002F4F
:10A078002FD116B120462649B0474FF02003EFF301
:10A08800118583F31288BFF36F8F58460EF042FF95
:10A0980038BB94231F4A2049204812F022FD594614
:10A0A8001F4812F01EFD94211A48FCE6A1680029F9
:10A0B800DDD00D680029DAD043464A462046D1F85B
:10A0C80004A0D0471DB12B6829461D46F2E72B4650
:10A0D800FAE7394643464A4620463F6812F060FC94
:10A0E800C5E758460EF032FFA38B23F00803A3837D
:10A0F800ACE68B067FF564AE21F02003A38301F064
:10A10800070147E685F31188BFF36F8FBDE8F88F25
:10A118002DA100007B190200D41902004715020086
:10A12800E9190200F8B504460D4600F114064FF08F
:10A138002003EFF3118783F31288BFF36F8F304644
:10A148000EF0E8FE68B994230B4A0C490C4812F04B
:10A15800C8FC31460B4812F0C4FC9421064812F0A2
:10A16800B9FC30460EF0F2FEA5613A462046BDE83D
:10A17800F8400121FFF702BE7B190200D419020042
:10A1880047150200E91902002DE9F04704460F4679
:10A1980012F0F6FB051E67DB04F114094FF02003EB
:10A1A800EFF3118A83F31288BFF36F8F48460EF0DE
:10A1B800B1FE804660B99423374A3849384812F0CE
:10A1C80090FC4946374812F08CFC9421324840E014
:10A1D80048460EF0BBFE4FF6FF72E38BA68B934208
:10A1E80006F0070643D0022E13D135460133E38328
:10A1F80048460EF09DFE00283FD1C223264A2A4930
:10A20800274812F06EFC4946284812F06AFCC22121
:10A21800DCE7062E13D8DFE806F0092D1212090430
:10A2280009006FF085054FF00008E1E700233B6067
:10A23800636883B9C4E9007786B13546F3E71C49FA
:10A2480017484FF4E4731B4A12F04BFC4FF4E471C7
:10A25800184812F03FFC1F606760EDE75246022184
:10A268002046FFF78BFD35462846BDE8F0876FF09E
:10A278000A05D8E76FF00405D5E78AF31188BFF31C
:10A288006F8FB8F1000FEFD00023324639462046D1
:10A2980012F086FBE8E700BF7B190200D419020020
:10A2A80047150200E9190200A8190200BF190200A7
:10A2B80065190200D818020008B54268034602F082
:10A2C8000302022A81600AD0032A4FF0000103D05A
:10A2D800012A0AD1596006E01868596008BD186853
:10A2E80000225A6058B90020F8E706490648452375
:10A2F800064A12F0F6FB4521044812F0EBFB12F077
:10A308006DF8F0E77346020047150200011A0200D3
:10A318002DE9F04F81468B4617461C46002595B01F
:10A32800387808B9284657E37B1C2528039306D0BC
:10A338005946C8470028C0F24F830135FBE118226F
:10A3480000210EA813F0E7FB7B78252B7DD0002396
:10A3580098469E469C461E46781C014610F8012BDE
:10A368002B2A00F0A18000F29880202A00F09F801C
:10A37800232A00F09F802BB19DF8403043F0400322
:10A388008DF84030B8F1000F05D09DF8403043F00B
:10A3980020038DF84030BEF1000F05D09DF8403005
:10A3A80043F010038DF84030BCF1000F05D09DF844
:10A3B800403043F008038DF840302EB19DF840300E
:10A3C80043F004038DF840309DF8403003F044001A
:10A3D800442803D16FF386138DF840309DF8403040
:10A3E8002A2A43F080038DF840307FD19DF8412020
:10A3F8004B1C42F001028DF841201A782E2A0CBF1E
:10A40800012100219DF8412061F341028DF841208E
:10A4180078D15A782A2A6ED000224FF00A0C0133DC
:10A42800194611F8010BA0F13006092E40F295806B
:10A438009DF840101292C1F3400040EAD2700A46DB
:10A4480060F341028DF840205CE0BA1C03928DF85D
:10A4580043309DF84130DA0740F12E8154F8048BDF
:10A46800B8F1000F07DA9DF84020C8F1000842F063
:10A4780004028DF840205E0740F1278154F804ABB0
:10A48800BAF1000F80F226819DF841306FF3410345
:10A498008DF841304FF0FF3A1CE12D2A0DD0302ABB
:10A4A8007FF469AF012358E74FF0010C55E74FF0EF
:10A4B800010E52E74FF001084FE701264DE703462A
:10A4C8000EFB0262303A184610F8016BA6F1300C08
:10A4D800BCF1090FF3D999428FD09DF84010119221
:10A4E800D20F62F341018DF8401086E70B46002237
:10A4F8004FF00A0EE7E79DF84120023342F00402CC
:10A508008DF841201A786C2A47D02BD8682A31D088
:10A518006A2A4BD04C2A51D01A4612F8013B782BA4
:10A5280003928DF843309DF8412000F2BE806D2BD8
:10A5380051D8692B00F2B980572B67D8412B03D02B
:10A54800453B022B00F2B18004229DF8423062F3B1
:10A5580002038DF84230012373E00CFB02020B4624
:10A56800303A5DE7742A25D07A2AD5D106219DF89C
:10A5780041200CE05A78682A9DF8412006D1012133
:10A5880061F3C6028DF841200233C5E7022161F369
:10A59800C6028DF841200133BEE75A786C2A9DF82F
:10A5A800412001D10421EBE70321F0E705219DF8C3
:10A5B8004120ECE707219DF84120E8E7BDF840205D
:10A5C80022F4F04222F0020242F4804242F00202F7
:10A5D800ADF84020DFE76E3BD9B201238B4040F253
:10A5E80082410B4237D113F0240F51D1D8075CD5E3
:10A5F80003219DF8423061F302038DF8423002F0E6
:10A608007803A3F140014B424B411AE00120A3F12A
:10A618005801C9B200FA01F111F4624F94D140F621
:10A62800010631421DD111F4043F3ED09DF842305D
:10A6380060F3020302F07802402A8DF8423034D0E9
:10A6480000239DF84020C2F340010B4363F341020D
:10A658008DF84020FDE602219DF8423061F30203A7
:10A66800E8E702209DF8421002F0780260F3020148
:10A67800402A8DF8421002BF9DF8401041F00101B8
:10A688008DF84010632BDBD1131E18BF0123D8E7C8
:10A6980003219DF8423012F0780F61F302038DF820
:10A6A800423014BF01230023CBE79DF8403043F02C
:10A6B80001038DF84030C3E79DF94020002AACBF64
:10A6C8004FF0FF38DDF84480D5E698077FF5E2AE15
:10A6D800DDF848A00023CDE911339DF842309DF8FC
:10A6E800411003F00703012BC1F3C30133D1CB1E83
:10A6F800042B04D8DFE803F0214646212100236813
:10A7080001294FEAE372CDE90E321CD19DF93830A8
:10A71800DA17CDE90E3204349DF8403013F0030601
:10A7280050D03A4659464846039B12F0BCF90028D7
:10A73800C0F252810544039FF2E554F8043BDA174E
:10A74800CDE90E32E8E70229E5D11AB243F3C03366
:10A75800CDE90E23DFE7022B24D1CB1E042B04D82E
:10A76800DFE803F018101018180001294FF0000254
:10A7780054F8043B14D00229CDE90E32CCD19BB257
:10A788000E93C9E7073424F00704F4E80223CDE95F
:10A798000E23C1E754F8043B0E9300230F93BBE745
:10A7A800DBB2CDE7042B08D1073424F00704D4E941
:10A7B80000230834CDE90E23AEE7032BACD154F8BF
:10A7C800043BDDE79DF843007828B4D862281CD8FC
:10A7D80025283FF4ADAD5828ADD1DDE90E010DF1C6
:10A7E8003603009310AA08AB12F017F9BAF1000F5C
:10A7F800074680F29980002F9DD00DF13603D81BB3
:10A80800002E00F0C0800130BDE06338152892D8D2
:10A8180001A252F820F000BFF5A8000007A9000027
:10A828003FA700003FA700003FA700003FA7000088
:10A8380007A900003FA700003FA700003FA70000AE
:10A848003FA7000093A900002BA9000051A9000010
:10A858003FA700003FA7000079A800003FA700001D
:10A868002BA900003FA700003FA700002BA900006C
:10A87800BAF1000F0E9F35DB5146384613F008F940
:10A8880007EB000A002F3FF456AF00269DF8423030
:10A8980013F01002059200F0928002305B06119AC4
:10A8A80048BF129B104448BFC018B8F1000F04926B
:10A8B80040F39F809DF84020A8EB0008C2F3800376
:10A8C8005007069300F19580510640F188803EB10B
:10A8D80059463046C84700287EDB069B01351E4690
:10A8E80030227DE0384613F0CCF8C9E70E9B0026ED
:10A8F80001208DF8203008AF0DF1210AC6E71907AD
:10A908005ABFC3F300135E012B26DDE90E23002B8B
:10A91800BFF663AF524263EB43032D26CDE90E2306
:10A928005BE7002659E700269DF840200DF1360325
:10A93800DB1B6FF386129A458DF840207FF65BAFDC
:10A94800AAEB0303119356E70E9890B30DF1360363
:10A958000093002108AB10AA12F05FF8BDF842304E
:10A96800BAF1000F03F0EF0343F4F04343F0100390
:10A978000746ADF84230D6DA00283FF4DCAE0026B0
:10A988000DF13603181A9A4680E70E9B07293FF601
:10A99800D2AEDFE801F00C04060C08080C0C1D70A0
:10A9A800C9E61D80C7E6EA17C3E90052C3E61D6081
:10A9B800C1E62F4F064607F1050A052066E71A0784
:10A9C80048BF01306AE71046079306925946C847C0
:10A9D800DDE90623002804DA15B0BDE8F08F20224F
:10A9E80043461946002903F1FF33ECDC45449846F9
:10A9F8006D1A2EB159463046C8470028ECDB0135A0
:10AA08009DF84230DA0601D41B0705D55946302097
:10AA1800C8470028E0DB0135059B33B159469DF84E
:10AA28004300C8470028D7DB0135049E2E4405E0C3
:10AA380059463020C8470028CEDB0135731B002B50
:10AA4800F6DC53463A465946484612F02CF8002898
:10AA5800C2DB0544A844A8EB0503002B7FF76BAEC7
:10AA680059462020C8470028B6DB0135F3E700BF68
:10AA7800241A020038B50D4604462022002113F09E
:10AA88004AF80022EB68E361AB68A3612B68236294
:10AA98006B68A26263622A6923B1591E194208BF12
:10AAA80042F0010222610122002104F12C0015F07C
:10AAB800B9FA48B1054906482E23064A12F011F89A
:10AAC8002E21044812F006F838BD00BF501A0200C3
:10AAD800471502002A1A02002DE9F04F87B0CDE988
:10AAE8000123436A0446013B8B420F46C0F0A08015
:10AAF8000026B24600F114054FF02003EFF3118B46
:10AB080083F31288BFF36F8F2846D9460EF002FAF6
:10AB180058B99423494A4A494A4811F0E2FF29465C
:10AB2800494811F0DEFF942150E028460EF00EFA55
:10AB380005A9204611F0E2FF05998046B94228D3BD
:10AB48002268236A204613F8221003EB820A21F0B8
:10AB5800030103F8221021683A4611F0F1FF4FF083
:10AB68000008206028460EF0E3F920B389F3118825
:10AB7800BFF36F8FB8F1000F5CD046B19DF813306A
:10AB8800002BB9D0A36913B1314620469847002657
:10AB9800B2E718B1204611F0E1FFE3E7DDE9013241
:10ABA800134336D0039115F0ECF9039988BB284676
:10ABB8000EF0BEF968B9C223204A2449214811F091
:10ABC80090FF2946224811F08CFFC2211B4811F042
:10ABD80081FF8BF31188BFF36F8F04F12C00DDE93F
:10ABE80001230EF0F1FC80464FF02003EFF31189AA
:10ABF80083F31288BFF36F8F28460EF08BF9002875
:10AC080087D0B8FA88F828460EF0A0F94FEA581805
:10AC1800A8E7226920460DF11303C2F3400211F0A0
:10AC2800C0FFB0F10008064618BF4FF0010899E7C9
:10AC38004FF0000A504607B0BDE8F08F7B190200BC
:10AC4800D419020047150200E9190200A8190200E8
:10AC5800BF1902002DE9F0410446C36908460E46B3
:10AC6800984704F1140507464FF02003EFF31188C5
:10AC780083F31288BFF36F8F28460EF04BF968B93B
:10AC88009423194A19491A4811F02BFF29461948E3
:10AC980011F027FF9421144811F01CFF28460EF0EC
:10ACA80055F933783A4643F001033370616820461A
:10ACB80011F046FF6060204611F066FF28460EF04E
:10ACC80037F958B9C223084A0B49094811F009FF56
:10ACD80029460A4811F005FFC221DCE788F31188EC
:10ACE800BFF36F8FBDE8F0817B190200D419020011
:10ACF80047150200E9190200A8190200BF1902004D
:10AD08002DE9F843044600F114074FF02003EFF350
:10AD1800118883F31288BFF36F8F38460EF0FAF864
:10AD2800054668B99423334A3349344811F0D9FEAB
:10AD38003946334811F0D5FE94212E4811F0CAFE49
:10AD480038460EF003F9D4E901329A4288BF636AA3
:10AD58009B1A002B3FD0216A11F8223001EB82099F
:10AD680013F003003AD0022803D151F82260B60844
:10AD780005D1D8071FD44846E36998470646A16815
:10AD88003246204611F0DCFEE168A06032462046DB
:10AD980011F0D6FEE06038460EF0CAF800BBC223B8
:10ADA800144A1849154811F09CFE3946164811F006
:10ADB80098FEC221C1E743F0020301F82230E3699B
:10ADC8004846A568984729460246204611F0B8FE2D
:10ADD8000025A060DFE71D46A946DCE70546FBE73E
:10ADE80088F31188BFF36F8F002D8ED14846BDE8D8
:10ADF800F88300BF7B190200D4190200471502002E
:10AE0800E9190200A8190200BF1902002DE9F04152
:10AE18000446C36908460D46984704F114060746D8
:10AE28004FF02003EFF3118883F31288BFF36F8F7D
:10AE380030460EF06FF868B99423234A2349244812
:10AE480011F04FFE3146234811F04BFE94211E4865
:10AE580011F040FE30460EF079F82B786FF30003BE
:10AE68002B7023699B0705D5E268236A03EB8203ED
:10AE78009D4219D12B783A466FF341032B70E16854
:10AE8800204611F05DFEE06030460EF051F880B9C2
:10AE9800C2230D4A10490E4811F023FE31460F48CF
:10AEA80011F01FFEC221D2E72B6867F39F032B60C6
:10AEB800EAE788F31188BFF36F8F04F12C00BDE82F
:10AEC800F0410EF03DBB00BF7B190200D41902000F
:10AED80047150200E9190200A8190200BF1902006B
:10AEE80048B1054B054A1B68B3FBF2F35843044BC2
:10AEF80043F00103184770475083002040420F0079
:10AF0800800902000F2A70B505461E4608460BD96F
:10AF18001D491E4840F2E7131D4A11F0E2FD40F2B8
:10AF2800E7111B4811F0D6FD94000AF081FC04F5E6
:10AF3800C072AEB150B9174940F24E23164A1348B1
:10AF480011F0CFFD40F24E211348EBE702F18042A9
:10AF580045F0004502F52832C0F88050156070BDF4
:10AF680048B90C4940F263230B4A084811F0B9FD6F
:10AF780040F26321E8E702F1804202F52832C0F886
:10AF880080601660EBE700BF8F1A020047150200C9
:10AF98005D1A0200D21A02009A1A0200F0B583B0B4
:10AFA80000AF381D0BF04EFC244B984243D10AF0F9
:10AFB80027FE041E13DA38790BF04AFC6D4688B078
:10AFC8006A461F4BC2E90534032342F8103F0023A9
:10AFD8004FF4C2511B4800F093FCAD4627E040F601
:10AFE8000703194D7C71AE68FB8074687B6814B9DF
:10AFF8006FF05704E2E708212846144AA047041EC8
:10B00800DCDB3369002BF3D001220821284698475E
:10B01800041ED3DB012338790D4A03FA00F1C2F884
:10B028000415FA797979FFF76DFF002CC6D120460F
:10B038000C37BD46F0BD6FF01204BFE70000AD0B42
:10B04800D61A0200F4080200FC0402000DB1000048
:10B058000070014070B5049EC6F30744F5B2C6F30C
:10B06800072630460AF0CAFB0F2C0BD91B491C488F
:10B0780040F2E1131B4A11F034FD40F2E111194886
:10B0880011F028FDA400E4B250B9174914484FF450
:10B098001773164A11F025FD4FF417711348EFE79F
:10B0A8000022134BC0F880201A510123114AAB40EB
:10B0B800C2F8083530460AF0C1FD28460BF0C8FB37
:10B0C8000D4B984208D00D49054874230C4A11F0DD
:10B0D80008FD74210A48D3E770BD00BF8F1A02002B
:10B0E800471502005D1A0200FE1A02009A1A0200B1
:10B0F80080A00240007001400000AD0B391B020027
:10B10800021B02002DE9F743144683681B694BB9FB
:10B1180027492848CA23284A11F0E3FCCA212648AF
:10B1280011F0D8FC0022984706460028F0D1C4F355
:10B13800072948460AF096FB5FFA84F833464946E1
:10B14800220E07464046FFF7DDFEC4F30745484692
:10B158000AF054FB0F2D0AD91849164840F2E1139A
:10B16800174A11F0BEFC40F2E1111548D8E7154A1C
:10B17800AD00EDB248F00043535150B912490D48A3
:10B188004FF41273114A11F0ACFC4FF412710F48CE
:10B19800C6E7C0F880300E4B07F1320200934846EC
:10B1A8003346019452000AF03BFC03B0BDE8F0833B
:10B1B800501A020047150200021B02008F1A0200F3
:10B1C8005D1A020080A00240FE1A02009A1A0200CC
:10B1D8005DB0000014F023B913B501AA14F006F904
:10B1E800044668B116230E4A0E490F4811F079FC3F
:10B1F80021460E4811F075FC1621094811F06AFC29
:10B20800019B5BB11723064A0949074811F069FCFD
:10B218000199084811F065FC1721EEE702B010BD4E
:10B22800561B0200901B020047150200B01B0200CB
:10B23800CA1B0200D61B020030B5002289B00F4994
:10B248000F4814F0C0FF002200230024CDE9062394
:10B258000E230C4DCDE903344FF400622846CDE9A6
:10B268000144094B094900940DF08AFD0849284614
:10B2780014F08DFE204609B030BD00BFE1B30000D8
:10B28800E08C002050880020B1B6000020A10020EA
:10B29800F01B02002DE9F047044607464FF001096C
:10B2A800DFF8508014B93846BDE8F08794FAA4F561
:10B2B800B5FA85F509FA05F32E0108EB05156FEACD
:10B2C800030A24EA03042B7B002BEBD058F8063042
:10B2D8001B694BB94644736804222846196807EA73
:10B2E8000A0700F0E7FADDE7284698470028D9D191
:10B2F800F0E700BF040902002DE9F047DFF8B89035
:10B308002E4C8046A9EB04039F2B0F460BD92C49E2
:10B3180040F215132B4A2C4811F0E3FB40F21511AB
:10B32800284811F0D7FB294811F0F2FC064660B313
:10B3380000252846BDE8F087237B73B12368DB68C6
:10B348000BB12046984723681B69B3B96368042288
:10B358002046196800F0AEFA013610344C4518D969
:10B368001B494FF49173174A174811F0BAFB194853
:10B3780011F0B7FB4FF49171D2E7204698470028A7
:10B38800E4D00AFA06F31D43E6E705464FF0010A42
:10B39800E4E7D1D3B8F1000FCBD0002DC8D02846B0
:10B3A800FFF778FF0546002FF7D000214FF4A4706F
:10B3B8000FF0BAFFF1E700BF140902000409020008
:10B3C800251C0200F81B02004715020044970020C4
:10B3D800491C02006A1C020001480EF0B1B800BF07
:10B3E8000C860020014B53F8200070474C0A0200DD
:10B3F80008B5034608462BB1044A136000F0FCFC6C
:10B40800002008BD6FF01500FBE700BF9081002009
:10B4180010B5044C237813B903480EF091F80123B2
:10B42800237010BD6D9C00200C86002010B50446CA
:10B43800064811F06DFC3CB1054BD3E8EF1F01390C
:10B44800C3E8E21F002AF8D110BD00BF3C970020D6
:10B458004097002000200146034BD3E8EF0FC3E8D4
:10B46800E21F002AF9D170473C97002070B5FFF71A
:10B47800F1FF05460F4C104EB44219D90F4940F25E
:10B48800CD130F4A0F4811F02CFB0F4811F029FB80
:10B4980040F2CD110A4811F01DFB63685B792BB1AE
:10B4A80023685B6813B12946204698471034E3E7C0
:10B4B800F3D370BD0409020014090200491C0200FC
:10B4C800F81B0200471502006A1C020010B5044C64
:10B4D80004492046FFF7CEFA034B1C6010BD00BF9D
:10B4E800CC840020380A02003497002008B50023D5
:10B4F800064A4FF400411370054A06481360FFF7E7
:10B5080077FFBDE80840FFF7E1BF00BF6E9C002051
:10B518003C97002015CD0100014600220023014878
:10B52800FFF7DABACC8400200148FFF7E9BB00BF77
:10B53800CC840020024B01461868FFF767BC00BFA7
:10B5480034970020014811F086BB00BFCC8400204E
:10B5580070B52E4B1878002857D0FFF7E5FF054641
:10B5680040B32B4BD3E8EF1F0139C3E8E21F002A91
:10B57800F8D1284C284EB44218D9284940F2C113B2
:10B58800274A284811F0ADFA274811F0AAFA40F2E4
:10B59800C111234811F09EFA63685B7923B12368CF
:10B5A800294620461B6898471034E4E7F4D3284618
:10B5B800FFF7C0FF1D4B1E4C1B68002B19DD14F054
:10B5C800DAFD4FF47A72A0FB020302FB0131C30BD0
:10B5D80043EA4143D4E900209B1A40F2E9324FEA9A
:10B5E800D13161EB0001934271F1000101D3FFF702
:10B5F8003DFFD4E9003213F57A7342F10002C4E941
:10B608000032BDE87040FFF79DBF70BD6D9C002003
:10B61800409700200409020014090200491C020096
:10B62800F81B0200471502006A1C02003C97002024
:10B63800D88C002070B5154D297829BB0120FFF75B
:10B648005BFE134C134EB44217D913494FF4C2731F
:10B65800124A134811F045FA124811F042FA4FF411
:10B66800C2710E4811F036FA63685B791BB1236822
:10B6780020469B6898471034E5E7F5D3FFF768FF45
:10B688000028FBD101232B7070BD00BF6E9C0020E9
:10B698000409020014090200491C0200F81B0200F8
:10B6A800471502006A1C02002DE9F0472F4B304F66
:10B6B800FB1A1B090BD12F4940F247332E4A2F485A
:10B6C80011F00FFA40F247312B4811F003FA00212C
:10B6D8000846FFF711FE044640B340F267684FF092
:10B6E80000090FF055FE264B186030B1254B1B683A
:10B6F800092B02DD24480DF023FF0025DFF888A080
:10B7080044B12046FFF7C6FD044618B94FF0FF388C
:10B718004FF0FF39FFF71CFF064628B95DB94246CE
:10B728004B4650460DF050FF3546E9E74FF0FF38DD
:10B738004FF0FF39D5E70D4D08E0F0D22B689B6933
:10B748001BB100222846114698471035BD42F4D94E
:10B758000E4940F23B33084A084811F0C2F90C4838
:10B7680011F0BFF940F23B31AEE700BF0409020017
:10B7780014090200891C0200F81B02004715020088
:10B7880038970020409700200C860020491C0200B2
:10B798006A1C020013B52B4811F0BAFA2A4B1B7821
:10B7A800002B34D04FF02003EFF3118483F3128879
:10B7B800BFF36F8F25480DF0ADFB68B99423244A79
:10B7C8002449254811F08DF92049244811F089F9B8
:10B7D80094211F4811F07EF91C480DF0B7FBFFF7C4
:10B7E800B7FE1A480DF0A4FB58B9C223184A1C49E1
:10B7F800194811F076F915491A4811F072F9C22161
:10B80800E7E784F31188BFF36F8F02B010BD164BC2
:10B818001B68002BF9D050B9002200231348CDE94A
:10B8280000234FF40042002310F09CFAEDE70A28A9
:10B83800EBD10E4814F0D3FC0D4802B0BDE810401F
:10B848000DF07EBE409700206E9C002030970020AF
:10B858007B190200D419020047150200E9190200F9
:10B86800A8190200BF19020038970020E08C0020B8
:10B878000C86002010B5064B04461B6898472146E5
:10B88800A0600448FFF7E6F9BDE81040FFF782BF63
:10B8980090810020CC840020044A054B9B1AB1EB10
:10B8A800D30F34BF52F8310000207047040802005B
:10B8B800040902000E4B10B5C31A1B110133DBB289
:10B8C80048B90C490C48DE230C4A11F00AF9DE216C
:10B8D8000A4811F0FFF84468237143689A710122FD
:10B8E8004368196043685A71BDE81040FFF790BD7E
:10B8F80004090200291D020047150200F11C02007C
:10B908002DE9F04FC1F3CB448FB0C1F349260D4662
:10B918009046994605901734002E3DD04FF0040B01
:10B928004FF00A0A002209AF31460BAB4046CDF86A
:10B9380008B00197CDF800A0CDE90B220D9207962B
:10B94800FDF764FEC0F30903181920F0070080080A
:10B958001E4663F352250693FFF7DEFD044608B33F
:10B968000022069B10300B900C930D924046CDE9B7
:10B97800017B124A0799CDF800A00BABFDF746FEF4
:10B9880000280FDA0E490F4849230F4A11F0A9F889
:10B9980049210D4811F09EF824F007008008FFF7B0
:10B9A800BBFD044666F352254B462A4620460599B8
:10B9B8000FB0BDE8F04F11F0CFB900BF35CD010091
:10B9C800751D020047150200491D02000EB403B59B
:10B9D80003AB53F8042B01460448019311F0E3F933
:10B9E80002B05DF804EB03B0704700BF15BA000061
:10B9F800CA0605D48B064CBF02490349FFF7E6BFC8
:10BA0800704700BFF93B0200BD4D020038B54B68D6
:10BA180005461A68CB680C469A4202D1084611F0CE
:10BA2800C9F96368D3E8EF2F511CC3E8E01F002869
:10BA3800F8D1A3689D5463681A68E3689A4209D9E3
:10BA4800054906487923064A11F04BF8792104483C
:10BA580011F040F8002038BDAD1D02004715020066
:10BA68007E1D02002DE9F04F89B09B46DDE9157671
:10BA78009DF8483004460493DDE913930593049B2D
:10BA88000D460692002B00F0878006F00803079306
:10BA980011F04AF906F0020A024600284BD0204667
:10BAA8008D49FFF793FF8046BAF1000F08D016F0D2
:10BAB800440F42D12A4620468849FFF787FF804431
:10BAC80006F001035BB1864B049A204653F8222006
:10BAD800844B8549002A08BF1A46FFF777FF06F00E
:10BAE8000803002B55D0814B049A204653F8222096
:10BAF8007F49FFF76BFF0546069B2BB11A46204688
:10BB08007C49FFF763FF0544BBF1000F05D05A4697
:10BB180020467949FFF75AFF05444544B9F1000F1B
:10BB28004AD1002F61D1F30700F1CF80314620467A
:10BB3800FFF75EFFC3E08046B6E7704B1868002841
:10BB4800BDD06F4B4FF47A7E1B684FF46162B5FB32
:10BB5800F3F5B5FBF0F300FB13550EFB05F5B3FB4E
:10BB6800F2FAB5FBF0FC3C2102FB1A3200FB1C5533
:10BB7800B2FBF1F30EFB05F5B5FBF0F501FB132263
:10BB880020460092CDE901C552465E49FFF71EFFE7
:10BB980095E706F00805AFE7BBF1010F07D1B9F14A
:10BBA800000F1DD1002F00F08A8000251DE0B9F19B
:10BBB800000FF7D0544814E054484B4622465449E5
:10BBC80010F01CFD00280EDA524953484FF4007358
:10BBD800524A10F086FF4FF40071504810F07AFF77
:10BBE8004A48049DE9E7002F65D0DFF83491DFF873
:10BBF80034A1102F31462046B8464FF0000B28BF1D
:10BC08004FF01008FFF7F4FE5D4542DC059B5146F6
:10BC180020461A78FFF7DAFE4FF0010B1BF0070FEA
:10BC280003D149462046FFF7D1FED84538D9059BB0
:10BC38005146204613F80B20FFF7C8FE0BF1010B05
:10BC4800BBF1100FEAD14FF0000B20463649FFF741
:10BC5800BDFE5A46059B20469A5CA2F120015F2949
:10BC680028BF2E223149FFF7B1FE0BF1010BBBF1C2
:10BC7800100F1AD01BF0070F03D149462046FFF7D3
:10BC8800A5FED8455A46E5D849462046FFF79EFE08
:10BC9800EBE749462046FFF799FE0BF1010BB3E7A6
:10BCA80020462349FFF792FEC8E7059BB7EB080734
:10BCB800434405939DD1049B002B7FF434AF204669
:10BCC80009B0BDE8F04F11F075B82046054A06499D
:10BCD800FFF77CFE2AE700BFE21D0200E61D020016
:10BCE8005C0A0200DD1D0200A2120200700A0200B6
:10BCF8000B1E0200111E0200151E02004C970020A8
:10BD080048970020EF1D0200D7CD010015BA0000AA
:10BD1800AFCD01001A1E0200471502007E1D020069
:10BD2800894D0200231E0200291E02002E13020064
:10BD3800874D02002DE9F0410F884B6805460C46F7
:10BD480090468E6886B0C7F382175BB1134A9B1A78
:10BD580043F3CF0100291FDB2078C0F3C200FFF7AF
:10BD68009BFD0346214651F8102B6088C2F34922F7
:10BD7800002A01EB020408BF0021C0F3CB00CDE983
:10BD88000308CDE901140022314628460097FFF741
:10BD980069FE06B0BDE8F0810023E3E7040802006D
:10BDA80042F20F7373B58B4228BF0B4605680446F1
:10BDB800052168460D4A10F099FC06466368284636
:10BDC8000B225B680A4910F0E1FF63683246694656
:10BDD80028465B6810F0DAFF63681B2228465B6818
:10BDE800044910F0D3FF02B070BD00BF482A02001A
:10BDF800471E02002B1E020000210123064A904222
:10BE080006D8064A01B901231360054B186070472C
:10BE1800012140085B00F2E740420F0048970020EC
:10BE28004C970020014B0020196070476497002050
:10BE38000122024B02481A7010F0BCBF709C00200F
:10BE4800A00A02000148FFF7ABBF00BFA00A02002A
:10BE580010B5064B0C461868FFF7C4FA2146BDE832
:10BE6800104003460F220248184700BF649700207D
:10BE7800A00A0200F8B50D460446064F4618B4421B
:10BE880001D12846F8BD14F8011BBB6801485B685E
:10BE98009847F4E7B404020008B5074814F044F8DA
:10BEA80048B9064906486F23064A10F01AFE6F2162
:10BEB800044810F00FFE08BDB4040200B11E0200D1
:10BEC80047150200731E02007FB570B9124B134864
:10BED800059302234FF4825104AA049310F085FFBE
:10BEE8006FF0150007B05DF804FB836863B90C4B6D
:10BEF8000A48059302234FF4825104AA049310F0D0
:10BF080074FF6FF00400EDE71B681BB107B05DF824
:10BF180004EB18471846E5E7E51E0200840802000E
:10BF2800F61E020030B587B008B101B16AB9134BEB
:10BF38001348059302234FF4825104AA049310F086
:10BF480054FF6FF0150007B030BD84680CB1E56888
:10BF580065B90C4B0A48059302234FF4825104AA91
:10BF6800049310F042FF6FF00400ECE741F8040B73
:10BF7800E36807B0BDE83040184700BF141F02004F
:10BF880084080200F61E020030B51346044687B046
:10BF980068B91A4B1A48059302234FF4825104AA30
:10BFA800049310F022FF6FF0150007B030BD006851
:10BFB80060B9144B1248059302234FF4825104AA26
:10BFC800049310F012FF6FF00100EEE782680AB1E7
:10BFD800956865B90C4B0A48059302234FF48251C2
:10BFE80004AA049310F001FF6FF00400DDE70A468D
:10BFF800AC46616807B0BDE830406047401F0200AA
:10C0080084080200511F0200F61E020008B504222F
:10C018000021024811F07FFD002008BD0000072024
:10C028000023012213B50446CDE90032074BD0E9BD
:10C0380009120BF091FFA36E1B6823B1E06E02B0EA
:10C04800BDE81040184702B010BD00BFFA3B02001F
:10C0580030B50C460E4985B00291D0F898110546C6
:10C06800CDE9003100F1E0014FF0FF3320460BF03D
:10C07800B9FF50B9012384F86430D5F8943123B15D
:10C08800204605B0BDE83040184705B030BD00BFB8
:10C09800E9CE010038B50C461146054610F022FFDE
:10C0A800034638B92846044910F01CFF034600200F
:10C0B800236038BD0120FBE7FA3B02002DE9F04F71
:10C0C800012381460569466885B005F55577D7E8A7
:10C0D800EF2F002A03D1C7E8E13F0029F7D140F04C
:10C0E800B880B368B26A043B2632B3EB420F4FEA1A
:10C0F800420126BFB3FBF1F3B3FA83F300234FF0F9
:10C10800010428BFC3F12003013B9C4005F5D87802
:10C1180000F099801022082170689A4002EB4402CE
:10C12800043099400932C5F84802063122F003026A
:10C138000A44B16A01FA03FC510001EB4C01C5F84D
:10C148004C12B16A994000EB4103C5F84032033301
:10C15800134423F00303C5F83C327368C5F844421E
:10C16800C5F838323C4B4046C5E9A363316800F056
:10C1780003FA044630BBD9F804A0D9F81090DAE9DC
:10C18800073409F52A7B012B584608BF103C0DF0EF
:10C198004BFD0023DAF8240030494FF4806201EBAC
:10C1A80080210093584623460DF058FD09F5267066
:10C1B8002B490DF06DFCDAF8140083685C681CB933
:10C1C8006FF05704002137E04B46264ADAF818107A
:10C1D800A04704460028F5D1DAF8140083681B69E3
:10C1E800002BEDD00122DAF81810984704460028F1
:10C1F800E8D11D4B2846C5F894311C4BC5F8983139
:10C208001B4B0393D5F8F8310293D5F8F031CDE9FB
:10C218000083D5F85032B26AD5F8501300F076F999
:10C2280004460028CED105F1E0000CF079F800288A
:10C23800C5F858030ADB0221384610F09FFE204655
:10C2480005B0BDE8F08F6FF00B04BBE76FF0150485
:10C25800B8E76FF07704F2E76DCF010020A900205E
:10C2680025CF010019CF010029C000003FCF0100F0
:10C27800B5CF01002DE9F84306464FF001090569DD
:10C28800D0F8048005F55577D7E8EF3F022B03D1A6
:10C29800C7E8E29F002AF7D149D1264805F14001B5
:10C2A80011F0FFFB20B16FF00F042046BDE8F883C2
:10C2B800204805F1B00111F0F4FB0028F3D128461D
:10C2C800D5F8501310F0C6FE044670BB7168366985
:10C2D800486983681B6933B32246896998470446CD
:10C2E80018BB06F52A76494630460DF01FFD304644
:10C2F80005F5D87601F052FA3046D8F8001010F05B
:10C30800E6FE044688B90146E822304611F003FCEF
:10C3180021464FF4D872284611F0FDFB21463846D5
:10C3280010F02CFEC1E76FF057040221F7E76FF019
:10C338007704BAE7FA3B020013B5044608462169B8
:10C3480001F55571D1E8AF1F022910D193B1A0B101
:10C358000121CDE900311346D0E909120BF0FCFDAB
:10C36800074B984208BF6FF00B0002B010BD6FF08A
:10C378000F00FAE76FF04C00F7E76FF00100F4E701
:10C388002EF8FFFF2DE9F74388461546066906F59E
:10C398005573D3E8AF3F022B5FD1136823B96FF011
:10C3A800150003B0BDE8F0831B78002BF7D0D6F852
:10C3B8005093B9F1000F33D106F5CE774FF0FF3225
:10C3C8004FF0FF3338460CF0FBFD30462A6801A9D0
:10C3D800FFF760FE019C1CB9384610F0CDFDDEE782
:10C3E80005F10803A3666B6984F86490E366E46367
:10C3F80060B1384610F0C0FD21463046236E2A68E9
:10C40800FFF726FE0020C8F80040CAE72022296866
:10C4180004F1400011F021FB384610F0ADFDF1E7C2
:10C4280030460F4910F05EFD04460028B7D005F1EC
:10C43800080383666B69C063C366002380F86430B1
:10C4480020222968403011F008FB2246012130469D
:10C4580000F03EF80028D5D0A1E76FF00F00A0E764
:10C46800FA3B02002DE9F04F05460E46904600279C
:10C47800D0F8A4A085B0AAF5A4742146304611F0DE
:10C4880010FBE0B9114BA4F1400B0293DAF810301D
:10C498003246CDE9008329464FF0FF335846AAF5C6
:10C4A800C4790BF09FFD60B97023012203FB079349
:10C4B80083F86420DAF80C300BB15846984770348A
:10C4C80017B105B0BDE8F08F0127D6E759D00100B4
:10C4D8001FB5144690B18AB1012912D10A4B00F157
:10C4E800E0010293D0F89831403201934FF0FF33C6
:10C4F800204600930BF076FD04B010BD6FF01500D8
:10C50800FAE70020F8E700BF59D001002DE9F04311
:10C5180085B00F46DDE90C811446DDE90E251E467F
:10C5280028B321B3DFF84CC000F1E009002D08BFA3
:10C53800654697B9CDE9024400F5C474204613F066
:10C54800E0FC02ABCDE900432A4633464146484663
:10C558000BF00CFF05B0BDE8F083002241460C92B9
:10C5680048462A4605B0BDE8F0430CF00FB86FF016
:10C578001500EFE76DC40000F0B50E46044689B01B
:10C5880000286FD001230246C3630023D0F8981017
:10C59800364F403040F80C7C42F8301FCDE901336B
:10C5A8004FF0FF330093C36D13F057F8304A06ABD2
:10C5B80092E8030083E8030018460BF0EDFB0546FC
:10C5C800D8B904F134000BF0C7FB0546A8B93946C1
:10C5D800284805AA13F019F8054670B9059B9A680A
:10C5E80072B10C33D4F89400C4F8A03010F061FD97
:10C5F800C4F8D40030B96FF00B05284609B0F0BD77
:10C608000346EFE7D4F8940010F053FDC4F8D800BF
:10C618000028F0D0D4F88C30D4F8A010C4F8A83092
:10C628000423C4F8AC30C4F8C4300223A362124B0C
:10C63800B4F89420D4F8D470C4F8B810C4F8D01062
:10C64800D4F89010236204F1A403A4F8B020C4F82D
:10C65800A470C4F8C010A4F8C820C4F8BC00A6612F
:10C66800E362CAE76FF01505C7E700BF7B1F02004A
:10C6780034090200851F0200DC0A02002DE9F84394
:10C6880005464FF02003EFF3118683F31288BFF3BA
:10C698006F8F20480CF03EFC68B994231E4A1F494E
:10C6A8001F4810F01EFA1B491E4810F01AFA942170
:10C6B800194810F00FFA4FF00C0916480CF046FC18
:10C6C800194B1A4F1C68DFF868807CB911480CF0C8
:10C6D8002FFCC8B9C223104A1649114810F001FAB4
:10C6E8000C49154810F0FDF9C221E1E7D4E901230E
:10C6F800002D18BF13462BB198F8142009FB02F23D
:10C70800B85C98472468E0E786F31188BFF36F8F19
:10C71800BDE8F883689700207B190200D41902004D
:10C7280047150200E9190200889700207C9700202D
:10C73800FC9B0020A8190200BF190200012270B555
:10C74800164B1C7D04F01F039A40D043144B61091B
:10C7580003EB8103D3E8EF1F01EA0005C3E8E65FB6
:10C76800002EF7D10A4213D00E4B0F4D8BB10C237C
:10C778006343EA185178E85C10F0AFFA0020FFF73D
:10C788007DFF0C235C4300232A192B51C2E9013396
:10C7980070BD83F31188BFF36F8FEFE7FC9B002018
:10C7A80090970020E3CC01007C9700202DE9F04110
:10C7B800454B07461D7D4FF02003EFF3118883F3A7
:10C7C8001288BFF36F8F41480CF0A4FB68B994231B
:10C7D8003F4A4049404810F084F93C493F4810F02E
:10C7E80080F994213A4810F075F90C246C433748C5
:10C7F8000CF0ACFB3A4B3B4E195D1A19B9B107CA9C
:10C8080006EB040C8CE8070000221A552F480CF0A0
:10C818008FFB0446B0B9C2232D4A33492E4810F085
:10C8280060F92A49314810F05CF9C221DAE7394643
:10C83800284600F065F80028E8D007C8344484E8A2
:10C848000700E3E788F31188BFF36F8F0C236B436E
:10C85800F218F35CABB37B1C0FD04FF4004C0021F3
:10C86800D2F808E022480023EEFB0C01214AFCF72D
:10C878005DF80121381A0FF089F80DF007FF012043
:10C88800FFF7FCFE1C4B6A0903EB8203012205F04B
:10C898001F018A40D3E8EF0F1043C3E8E10F0029D6
:10C8A800F8D1164B33B10C236B43F2185178F05C76
:10C8B80010F007FAFFF742FF0DF054FF2046BDE8DD
:10C8C800F0811C46FAE700BFFC9B00206C97002013
:10C8D8007B190200D419020047150200E919020069
:10C8E800709700207C970020A8190200BF19020049
:10C8F8003F420F0040420F0090970020CBCC010030
:10C908002DE9F04F85B00E4603A900F043F84FF427
:10C91800004704464FF0000B1B4B039DD3F800A0C3
:10C92800431E1BB203EB4303DFF8608005EB83056E
:10C9380024B9A146484605B0BDE8F08FC44659461B
:10C9480068680023E0FB07C1114A6046FBF7EEFF69
:10C95800C44659460190A8680023E0FB07C10C4A69
:10C968006046FBF7E3FFBAF1FF3FA94601D08245D5
:10C9780005D9731CDED0019B1844B042DAD9013CBA
:10C98800A4B20C3DD4E700BFC08100203F420F0095
:10C9980040420F0008B9024B0B600020704700BFEF
:10C9A800000B02000449431E0F3013F8012F8A5C64
:10C9B80083421A70F9D17047901F0200F0B50746FC
:10C9C800264E8DB001AD0C460FCE0FC50FCE0FC54C
:10C9D80096E8070085E807003846002F39D0002C74
:10C9E80039D0381F0246214610344B780D781B0485
:10C9F80043EA0563CD7804312B4311F8025C8C427D
:10CA080043EA052342F8043FEFD10421144C8A0776
:10CA1800036916D1C3F30742A55C1A0EA25C42EA69
:10CA28000562C3F30725655DDBB2E35C42EA0542B4
:10CA380042EA032221F0030330336B4453F82C3CC1
:10CA4800534050F8042F013153402C290361DED1A3
:10CA580001200DB0F0BD2046FBE700BF3C090200F5
:10CA6800901F02002DE9F04F002703689DB0029344
:10CA78004368DFF8BCA103938368DDE902460493A9
:10CA8800C36805930369DDE904BE06934369079308
:10CA98008369DDE9062C0893C36998460993089BC6
:10CAA8000093CD590CAB2DBA5AF8049BDD514FEACF
:10CAB800F223A94483EAB213009D83EA72634B44CC
:10CAC80025EA020502EA0C0985EA09052B444344D4
:10CAD80086EA0B054FEA743888EAB408254006EA66
:10CAE8000B0985EA090588EAB4580437A844402F99
:10CAF80003EB0E054344DE46DDF8008040F08880F5
:10CB08004FF0100A4B490A9151460AF1010A0DF1FA
:10CB1800700E0AF00F070EEB870757F8407C01F0FC
:10CB28000F094FEAB748019788EAF71801F10E078D
:10CB380007F00F070EEB870757F8407C09314FEADB
:10CB4800F74E8EEA774ECDF82CE001F00F010DF18B
:10CB5800700E0EEB81010EEB890959F840EC51F883
:10CB6800401CBAF1400F7144DDF804E088EADE08A1
:10CB7800DDF82CE041448EEA972E714405EA02085C
:10CB88004FEAF52E2CEA050787EA08078EEAB51E54
:10CB9800DDF828808EEA756E774458F804EF49F876
:10CBA800401C77440F4400994FEA733E394484EAA5
:10CBB8000607CDF828808EEAB30E07EA030704EAD1
:10CBC80006088EEAB35E87EA080777440F4401EB4C
:10CBD8000B0ECDF800C0B34622D10299394401604A
:10CBE80003991944049B416023448360059B3344A3
:10CBF800C360069B73440361079B2B444361089BF6
:10CC080013448361099B6344C3611DB0BDE8F08F81
:10CC1800B346CDF800C0264694461C462A4640E74F
:10CC2800944626462A461C4675463B466CE700BF96
:10CC3800000B02003C0B020010B50446C8B170227C
:10CC4800002110F081FA0B4B0B4A0C49C4E9002370
:10CC58000B4B0C48C4E902130B4BC4E90403012035
:10CC68000A4BA36103F17453A3F52303A3F692437C
:10CC7800E36110BD85AE67BB67E6096A72F36E3C77
:10CC88003AF54FA57F520E518C68059BABD9831F8F
:10CC9800014910220A60704710ED00E072B640406A
:10CCA80080F31188BFF36F8FBFF34F8F30BF62B629
:10CCB800BFF36F8F704700BF72B6494081F3118888
:10CCC80020BF80F3118862B6704700BF2DE9F04796
:10CCD80081460C4600AF00294CD0D1E900126E46BF
:10CCE8008AB0A3686D464FF0050AA8462548C5E9ED
:10CCF8000723C5E9050148F810AF002342464FF461
:10CD080021512148FEF7FCFDD4E90312B5466369B9
:10CD1800AD461E48C5E90723C5E90501C5F810A0B9
:10CD2800002342464FF421511748FEF7E9FDB54666
:10CD380088B0E3696D464FF0030AA846144AC5E96E
:10CD4800052348F810AF002342464FF4C2510E485D
:10CD5800FEF7D6FDB546A369AD460E4AC5F810A044
:10CD6800C5E90523002342464FF4C2510648FEF7A1
:10CD7800C7FDB546214648460BF01CFCBD46BDE83C
:10CD8800F08700BF90200200C4080200BF20020004
:10CD9800EE200200FD20020040B2002807DB01233C
:10CDA8004109034A00F01F00834042F821307047D0
:10CDB80000E100E040B200280CDB012206494309EB
:10CDC80000F01F008240203341F82320BFF34F8F2B
:10CDD800BFF36F8F704700BF00E100E0054B4209C9
:10CDE80053F82220012300F01F0003FA00F010403E
:10CDF800704700BF00E100E038B54B1C072B044624
:10CE08000D460FD95B23104A104911480FF069FEEF
:10CE180029461048072322460FF063FE5B210A4883
:10CE28000FF058FE40B20028ACBF00F160400A4A3B
:10CE38004FEA4313DBB2ABBF00F5614000F00F00CF
:10CE480080F80033135438BD2B2102006121020001
:10CE5800471502007C21020014ED00E030BFFFF707
:10CE6800FDBF00BF0B4A08B50B4B22F07F029A604A
:10CE7800BFF34F8FBFF36F8FD3F8882022F470026F
:10CE8800C3F888200BF068FC0EF0C0FB00F000FC33
:10CE98000BF0A2FC0080000000ED00E0094A0A49FE
:10CEA800936809689867D96708494B6843F08053C5
:10CEB8004B60002383F31188BFF36F8F9368D86F9B
:10CEC800704700BFFC9B00206C11020000ED00E0E1
:10CED80015498A6882F881E04FF030001044EFF37A
:10CEE800098C80E8F01F202080F31288BFF36F8F31
:10CEF8000E4F4FF00066CA698A603E6092F981E081
:10CF0800906F0023936780F3118802F1300090E856
:10CF1800F01F8CF3098802F1000004B510F061FDE0
:10CF2800BDE8044070470000FC9B002004ED00E0D1
:10CF38001EF0040F0CBFEFF30880EFF3098081693E
:10CF480011F8021C0229FFD001B510F03BFD01BD0C
:10CF580042F8203C009B0D4942F81C3C019B21F003
:10CF6800010142F8183C029B42F8081C42F8143CA4
:10CF78004FF0807342F8043C002383674FF43C432E
:10CF8800203A0265C0F88030704700BF0FC7010023
:10CF9800084B9860836E83F30B88104681F30988E9
:10CFA800002163B681F31188BFF36F8F002200233D
:10CFB8000FF0A9FBFC9B002001B572B60B4A9069E3
:10CFC80000281EBF0021916112F0E8FF62B6EFF35E
:10CFD8000580A0F110004FEAC0000549014409C9C5
:10CFE8009847BDE80140034908470000FC9B002022
:10CFF8002C05020001D00000044B9968D8698842CA
:10D0080003D003494FF080520A607047FC9B002010
:10D0180004ED00E02DE9F04186B006460D4600AF6C
:10D0280002244B4B4FF482517B614A483C6107F123
:10D03800100210F0DAFC484B9B6ADB0609D5474B17
:10D048004FF48251C7E90443424807F1100210F037
:10D05800CCFC414B9B6A18070AD5414B4FF48251CF
:10D068007B6102233B483B6107F1100210F0BDFCD5
:10D07800394CA36A990722D5E8463A4B07F11002C2
:10D088007B6102234FF482513B61324810F0ADFCC2
:10D09800636BA26A120612D588B06A4632492D48D7
:10D0A800C2E9051303234FF4C25142F8103F10F0B0
:10D0B8009CFCC5461EB1A36A23F08003A362264BDD
:10D0C8009B6ADB070AD5294B4FF482517B61022307
:10D0D80020483B6107F1100210F087FC1E4B9B6A49
:10D0E8009E060AD5224B4FF482517B6102231948D0
:10D0F8003B6107F1100210F078FC174B9A6AD406CE
:10D1080002D49A6A900711D59B6AD9060ED5194997
:10D118004FF4AE73184A19480FF0E3FC18480FF0A3
:10D12800E0FC4FF4AE7114480FF0D4FC00200A4B19
:10D1380018379A6A920642BF5A6A22F400525A6213
:10D148009A6A42F0FF029A622870BD46BDE8F081F3
:10D15800BC210200C408020000ED00E0D221020058
:10D168000522020018220200302202004622020094
:10D1780065220200CE220200942202004715020016
:10D18800182302002DE9F04186B006460D4600AF8F
:10D1980002243E4B4FF482517B613D483C6107F1CC
:10D1A800100210F022FC3B4B9B6AD90409D53A4B7C
:10D1B8004FF48251C7E90443354807F1100210F0D3
:10D1C80014FC344B9B6A1A050AD5344B4FF4825130
:10D1D8007B6102232E483B6107F1100210F005FC29
:10D1E8002C4CA36A9B0522D5E8462D4B28487B6129
:10D1F800022307F110023B614FF4825110F0F5FB56
:10D20800A36BA26A100412D588B06A462549204843
:10D21800C2E9051303234FF4C25142F8103F10F03E
:10D22800E4FBC5461EB1A36A23F40043A362194B6D
:10D238009B6A59050AD51C4B4FF482517B61022326
:10D2480013483B6107F1100210F0CFFB114B9A6AAB
:10D25800D20515D5154B7B6102234FF482510C483A
:10D268003B6107F1100210F0C0FB0020094A183793
:10D27800936A43F47F4393622870BD46BDE8F0810A
:10D288009B6A9B04F1D50A4BE5E700BF7C230200AB
:10D29800C408020000ED00E092230200052202000B
:10D2A800A3230200BC230200D1230200EC230200C6
:10D2B8006522020010B586B002243A4B4FF4825121
:10D2C800394804AA0593049410F08FFB374B9B6AE6
:10D2D8009B0108D5364B4FF48251334804AACDE957
:10D2E800044310F082FB314B9B6ADC0109D5314BBA
:10D2F8004FF48251059302232B4804AA049310F09B
:10D3080074FB2A4B9C6A14F4801409D002242A4B1B
:10D318004FF48251244804AA0593049410F065FB45
:10D32800224B9B6A180309D5244B4FF4825105936D
:10D3380002231D4804AA049310F057FB1B4B9B6A59
:10D34800590309D51E4B4FF4825105930223164801
:10D3580004AA049310F049FB144B9B6A9A0309D55D
:10D36800184B4FF48251059302230F4804AA0493E3
:10D3780010F03BFB0D4B9B6ADB0309D5124B4FF4B6
:10D38800825105930223084804AA049310F02DFB48
:10D39800064A2046936A6FEA03436FEA134393628F
:10D3A80006B010BD04240200C408020000ED00E02D
:10D3B8001C2402002F2402004924020073240200C6
:10D3C80091240200B6240200D02402002DE9F0477F
:10D3D8008AB0904B0546D3F804A088461646002329
:10D3E80000AFCAF3080983F31188BFF36F8F02F007
:10D3F8007F43B3F17F4F0ED087494FF48463874A48
:10D4080087480FF06EFB87480FF06BFB4FF4846181
:10D4180082480FF05FFB12F00104EDD1530604D4EB
:10D4280010070FD44FF001080FE07F4B4FF48251E3
:10D43800FB6102237D48BB6107F1180210F0D5FAA1
:10D44800710700D545464FF00008002DD4D00023C1
:10D45800FB71A9F10303092B00F2BA80DFE803F09E
:10D4680005ADB090B8B8B8B8B8B3E9464FF0020AFD
:10D478006F4B07F11802FB614FF482516B48C7F8F4
:10D4880018A010F0B2FA0023624EFB71F36A9A07F3
:10D498000AD5684BC7E906A34FF48251634807F1E0
:10D4A800180210F0A2FA41E0F36A002B01DA624B8D
:10D4B800F0E7F36A5B0073D5604B07F11802C7E920
:10D4C80006A34FF48251594810F08FFA7369AA697C
:10D4D80043F480737361BFF34F8FBFF36F8F73692A
:10D4E80032F8022C23F480737361BFF34F8FBFF3BC
:10D4F8006F8F4DF602739A4208D0B36ADBB293B3CA
:10D508000120F91DFFF786FD04460FE088B02B685F
:10D518006A464B494548C2E9051303234FF4C251F3
:10D5280042F8103F10F061FACD462C68FB79B3B988
:10D538002022294607F1080010F0E2FA7B6AB8F1C8
:10D54800000F61D0C3F3080222B96FEA53236FEAD0
:10D5580043237B62204607F10801FFF7B7FB283712
:10D56800BD46BDE8F087B36A13F47F4F04D00120AD
:10D57800F91DFFF707FEC7E7B36AB3F5803F02D38B
:10D58800FFF798FEC0E72F4940F2F223234A2448C8
:10D598000FF0A7FA2C480FF0A4FA40F2F22137E76F
:10D5A800284940F2F6231D4A1D480FF09AFA2748E9
:10D5B8000FF097FA40F2F6212AE70020F91DA1E7BB
:10D5C8000020F91DD5E7224BFB610223BB6163E70D
:10D5D800204A6E461AF4F87F8AB01F4B18BF1346CC
:10D5E8006A461E491148C2E90513A9F11003D3611F
:10D5F8004FF4007313841A4B4FF4115142F8103F43
:10D6080010F0F3F9B54691E723F4FF7323F0010313
:10D618009FE700BF00ED00E02925020094220200E8
:10D62800471502003C2502007A250200C4080200C2
:10D638009D250200B4250200D5250200E32502003D
:10D6480002260200734602001E260200422602003D
:10D658007226020010250200FB2402009626020012
:10D6680004000001044B5A6942F010025A615A69D9
:10D6780042F480625A61704700ED00E0EFF30880E1
:10D68800EFF3098101B57246FFF7A0FE01BD00BFA7
:10D69800002320210348C2180133452B82F80013C8
:10D6A800F9D1704700E100E0002080F31488BFF34F
:10D6B8006F8F002080F30A8880F30B88FDF78AFDBE
:10D6C80000200E490860BFF34F8F0D4880F308888B
:10D6D80000F03EF8202080F311880A484FF40061DA
:10D6E800401880F30988EFF314800221084380F37F
:10D6F8001488BFF36F8FFFF7B5FB000094ED00E0CF
:10D7080020C90020E0BB0020BFF34F8F0549064B1E
:10D71800CA6802F4E0621343CB60BFF34F8F00BFC7
:10D72800FDE700BF00ED00E00400FA0500231846FD
:10D738000649D1F89020C2F30722934200DB7047D4
:10D74800C1F89830C1F8A0000133F6E700ED00E019
:10D7580010B572B6002484F31388FFF7E7FF234659
:10D768004FF0FF300C4A03F120010133102B42F82F
:10D778002100F8D100234FF0FF30074A03F1600180
:10D788000133102B42F82100F8D162B6BFF34F8F56
:10D79800BFF36F8F10BD00BF00E100E0084B9B682E
:10D7A80083420BD1EFF3058343B1064B5A6842F02D
:10D7B80080525A605A6A22F400425A620DF0EEBD55
:10D7C800FC9B002000ED00E01FB5094C094A2346E8
:10D7D8000121094800F02AF900230393074B01218E
:10D7E800E41A01A80193029400F044F904B010BDB2
:10D7F8000000072000800020000C0200C8870020DD
:10D8080010B50C7A0B6804F01F0223F01F031A43AB
:10D81800CB68640923F01F03054943EA440343F036
:10D828000103C1F89800C1F89C20C1F8A03010BDD0
:10D8380000ED00E080B500AF88B06A46074BC2E94A
:10D848000530032342F8103F00234FF4C251044827
:10D85800FEF756F86FF01500BD4680BDAD260200F4
:10D86800AC0802002DE9F04F144606464FF00009B7
:10D8780087B05F4D00AF79607B68994535DAD6F897
:10D888000480B8F1000F54D0B8F11F0F1BD918F05D
:10D898001F0F18D1D6F800B01BF01F0F13D1584630
:10D8A80010F0A8F8824608EB0B00013810F0A2F837
:10D8B80082451FD06FF0150A6C4688B06A464D49FC
:10D8C800C2E9051A05E06C4688B06A464A4BC2E9C7
:10D8D8000539032342F8103F00234FF4C25147484B
:10D8E800FEF70EF8A5466FF0150420461C37BD4616
:10D8F800BDE8F08F1AF1160FDED05445DCDDC5F80F
:10D9080098A0D5F89C00C5F898A0D5F8A02020F0DC
:10D918001F0042F01F08D6E900211144904201F18E
:10D92800FF3B1ED1D84508D131465FFA8AF010F086
:10D938006AF809F101090C369EE7C5F898A0D5F8F0
:10D948009C3021F01F0103F01F030B433146C5F83B
:10D958009C30E0B210F057F810F1160FC3D0441CF9
:10D96800E7E7013AD845E0B222F01F02C5F898A0CF
:10D9780008D1D5F8A030314603F01F031343C5F88A
:10D98800A030E7E7D5F8A01001F01F010A43C5F859
:10D99800A020314610F037F810F1160FA3D0C5F8C3
:10D9A80098A0D5F89C203B7C08F1FF3862F304036B
:10D9B8003B74D5F8A0303A7C5B0863F347123A749D
:10D9C800D6E900321344BB6023F01F03441C4344D0
:10D9D800A3EB0B03E0B223F01F0307287B6102D9F6
:10D9E800FFF728FFB8E707F10801FFF709FFB6E7D7
:10D9F80000ED00E0F6260200D3260200AC08020083
:10DA08000522044BC3F89420BFF34F8FBFF36F8FE9
:10DA1800704700BF00ED00E0BFF35F8F0022024BAC
:10DA2800C3F89420704700BF00ED00E038B50C4DF6
:10DA38000C462A78FFF716FF287016300FD14FF4DE
:10DA48008B73084A084909480FF04BF821460848E3
:10DA58000FF047F84FF48B7102480FF03BF838BDD0
:10DA6800719C002019270200734602004715020026
:10DA7800502702002DE9F74F314E894605464FF0F1
:10DA88000008B3462F4FC84502DB03B0BDE8F08F4E
:10DA9800D5F804A0BAF1000F4CD0296808460191C6
:10DAA8000FF0A8FF019904460AEB010001380FF0B6
:10DAB800A1FF84424FF01402234B15D002FB08F358
:10DAC8006FF015024BF803204FF493731F4A204957
