:1080000060C80020B1D500002BCC010085D5000050
:1080100085D5000085D5000085D5000085D50000F8
:1080200000000000000000000000000039CE000049
:1080300085D5000000000000D9CD000085D50000E6
:10804000C1CE0000C1CE0000C1CE0000C1CE0000F4
:10805000C1CE0000C1CE0000C1CE0000C1CE0000E4
:10806000C1CE0000C1CE0000C1CE0000C1CE0000D4
:10807000C1CE0000C1CE0000C1CE0000C1CE0000C4
:10808000C1CE0000C1CE0000C1CE0000C1CE0000B4
:10809000C1CE0000C1CE0000C1CE0000C1CE0000A4
:1080A000C1CE0000C1CE0000C1CE0000C1CE000094
:1080B000C1CE0000C1CE0000C1CE0000C1CE000084
:1080C000C1CE0000C1CE0000C1CE0000C1CE000074
:1080D000C1CE0000C1CE0000C1CE0000C1CE000064
:1080E000C1CE0000C1CE0000C1CE0000C1CE000054
:1080F000C1CE0000C1CE0000C1CE0000C1CE000044
:10810000C1CE0000C1CE0000C1CE0000C1CE000033
:10811000C1CE0000C1CE0000C1CE0000C1CE000023
:10812000C1CE0000C1CE0000C1CE0000C1CE000013
:10813000C1CE0000C1CE0000C1CE0000C1CE000003
:10814000C1CE0000C1CE0000C1CE0000C1CE0000F3
:04815000C1CE00009C
:04815400FFFFFFFF2B
:1081580081F0004102E000BF83F0004330B54FEAF0
:1081680041044FEA430594EA050F08BF90EA020F5D
:108178001FBF54EA000C55EA020C7FEA645C7FEAF0
:10818800655C00F0E2804FEA5454D4EB5555B8BF13
:108198006D420CDD2C4480EA020281EA030382EA84
:1081A800000083EA010180EA020281EA0303362D16
:1081B80088BF30BD11F0004F4FEA01314FF4801CE9
:1081C8004CEA113102D0404261EB410113F0004FFB
:1081D8004FEA03334CEA133302D0524263EB4303B2
:1081E80094EA050F00F0A780A4F10104D5F1200E50
:1081F8000DDB02FA0EFC22FA05F2801841F10001AB
:1082080003FA0EF2801843FA05F359410EE0A5F17E
:1082180020050EF1200E012A03FA0EFC28BF4CF0AF
:10822800020C43FA05F3C01851EBE37101F0004565
:1082380007D54FF0000EDCF1000C7EEB00006EEB72
:108248000101B1F5801F1BD3B1F5001F0CD34908FC
:108258005FEA30004FEA3C0C04F101044FEA445253
:1082680012F5800F80F09A80BCF1004F08BF5FEADA
:10827800500C50F1000041EB045141EA050130BDBA
:108288005FEA4C0C404141EB0101013C28BFB1F5CC
:10829800801FE9D291F0000F04BF01460020B1FA17
:1082A80081F308BF2033A3F10B03B3F120020CDAEA
:1082B8000C3208DD02F1140CC2F10C0201FA0CF0C8
:1082C80021FA02F10CE002F11402D8BFC2F1200C2D
:1082D80001FA02F120FA0CFCDCBF41EA0C019040E3
:1082E800E41AA2BF01EB0451294330BD6FEA04042C
:1082F8001F3C1CDA0C340EDC04F11404C4F1200217
:1083080020FA04F001FA02F340EA030021FA04F328
:1083180045EA030130BDC4F10C04C4F1200220FA7F
:1083280002F001FA04F340EA0300294630BD21FABD
:1083380004F0294630BD94F0000F83F4801306BF83
:1083480081F480110134013D4EE77FEA645C18BF77
:108358007FEA655C29D094EA050F08BF90EA020F0E
:1083680005D054EA000C04BF1946104630BD91EA06
:10837800030F1EBF0021002030BD5FEA545C05D109
:108388004000494128BF41F0004130BD14F5800448
:108398003CBF01F5801130BD01F0004545F0FE41BC
:1083A80041F470014FF0000030BD7FEA645C1ABFF1
:1083B800194610467FEA655C1CBF0B46024650EA28
:1083C800013406BF52EA033591EA030F41F4002154
:1083D80030BD00BF90F0000F04BF0021704730B5DA
:1083E8004FF4806404F132044FF000054FF00001AF
:1083F80050E700BF90F0000F04BF0021704730B570
:108408004FF4806404F1320410F0004548BF404244
:108418004FF000013EE700BF42004FEAE2014FEA99
:1084280031014FEA02701FBF12F07F4393F07F4F74
:1084380081F06051704732F07F4208BF704793F077
:108448007F4F04BF41F40021704730B54FF460748A
:1084580001F0004521F000411CE700BF50EA01028D
:1084680008BF704730B54FF000050AE050EA010236
:1084780008BF704730B511F0004502D5404261EBA6
:1084880041014FF4806404F132045FEA915C3FF4E7
:10849800D8AE4FF003025FEADC0C18BF03325FEA84
:1084A800DC0C18BF033202EBDC02C2F1200300FA35
:1084B80003FC20FA02F001FA03FE40EA0E0021FA5A
:1084C80002F11444BDE600BF70B54FF0FF0C4CF448
:1084D800E06C1CEA11541DBF1CEA135594EA0C0FFA
:1084E80095EA0C0F00F0DEF82C4481EA030621EA35
:1084F8004C5123EA4C5350EA013518BF52EA033570
:1085080041F4801143F4801338D0A0FB02CE4FF021
:108518000005E1FB02E506F00042E0FB03E54FF051
:108528000006E1FB03569CF0000F18BF4EF0010E49
:10853800A4F1FF04B6F5007F64F5407404D25FEA45
:108548004E0E6D4146EB060642EAC62141EA5551F8
:108558004FEAC52040EA5E504FEACE2EB4F1FD0C3A
:1085680088BFBCF5E06F1ED8BEF1004F08BF5FEAB8
:10857800500E50F1000041EB045170BD06F000466A
:1085880046EA010140EA020081EA0301B4EB5C0417
:10859800C2BFD4EB0C0541EA045170BD41F480110F
:1085A8004FF0000E013C00F3AB8014F1360FDEBF34
:1085B800002001F0004170BDC4F10004203C35DA10
:1085C8000C341BDC04F11404C4F1200500FA05F393
:1085D80020FA04F001FA05F240EA020001F0004234
:1085E80021F0004110EBD37021FA04F642EB0601AA
:1085F8005EEA430E08BF20EAD37070BDC4F10C04D4
:10860800C4F1200500FA04F320FA05F001FA04F297
:1086180040EA020001F0004110EBD37041F1000183
:108628005EEA430E08BF20EAD37070BDC4F120058E
:1086380000FA05F24EEA020E20FA04F301FA05F2F6
:1086480043EA020321FA04F001F0004121FA04F29E
:1086580020EA020000EBD3705EEA430E08BF20EA6E
:10866800D37070BD94F0000F0FD101F000464000A8
:1086780041EB010111F4801F08BF013CF7D041EA2A
:10868800060195F0000F18BF704703F0004652002E
:1086980043EB030313F4801F08BF013DF7D043EAFF
:1086A8000603704794EA0C0F0CEA135518BF95EAB5
:1086B8000C0F0CD050EA410618BF52EA4306D1D13C
:1086C80081EA030101F000414FF0000070BD50EA5B
:1086D800410606BF1046194652EA430619D094EAE5
:1086E8000C0F02D150EA013613D195EA0C0F05D1CF
:1086F80052EA03361CBF104619460AD181EA030123
:1087080001F0004141F0FE4141F470014FF00000DA
:1087180070BD41F0FE4141F4780170BD70B54FF075
:10872800FF0C4CF4E06C1CEA11541DBF1CEA1355F5
:1087380094EA0C0F95EA0C0F00F0A7F8A4EB0504D7
:1087480081EA030E52EA03354FEA013100F08880CE
:108758004FEA03334FF0805545EA131343EA126397
:108768004FEA022245EA111545EA10654FEA00264C
:108778000EF000419D4208BF964244F1FD0404F505
:10878800407402D25B084FEA3202B61A65EB030561
:108798005B084FEA32024FF480104FF4002CB6EB1E
:1087A800020E75EB030E22BFB61A754640EA0C009E
:1087B8005B084FEA3202B6EB020E75EB030E22BFDE
:1087C800B61A754640EA5C005B084FEA3202B6EB1F
:1087D800020E75EB030E22BFB61A754640EA9C00DE
:1087E8005B084FEA3202B6EB020E75EB030E22BFAE
:1087F800B61A754640EADC0055EA060E18D04FEA6C
:10880800051545EA16754FEA06164FEAC30343EA0B
:1088180052734FEAC2025FEA1C1CC0D111F4801FD8
:108828000BD141EA00014FF000004FF0004CB6E7D1
:1088380011F4801F04BF01430020B4F1FD0C88BF70
:10884800BCF5E06F3FF6AFAEB5EB030C04BFB6EB7B
:10885800020C5FEA500C50F1000041EB045170BD6E
:108868000EF0004E4EEA113114EB5C04C2BFD4EB9B
:108878000C0541EA045170BD41F480114FF0000E1F
:10888800013C90E645EA060E8DE60CEA135594EA9B
:108898000C0F08BF95EA0C0F3FF43BAF94EA0C0F9E
:1088A8000AD150EA01347FF434AF95EA0C0F7FF413
:1088B80025AF104619462CE795EA0C0F06D152EA67
:1088C80003353FF4FDAE1046194622E750EA41064B
:1088D80018BF52EA43067FF4C5AE50EA41047FF45C
:1088E8000DAF52EA43057FF4EBAE12E74A0011D20E
:1088F80012F5001211D20DD56FF47873B3EB6252F2
:108908000ED44FEAC12343F0004343EA505323FAFD
:1089180002F070474FF00000704750EA013002D172
:108928004FF0FF3070474FF00000704753B94AB915
:10893800002908BF00281CBF4FF0FF314FF0FF305F
:1089480000F00CB8ADF1080C6DE904CE00F008F8A1
:10895800DDF804E0DDE9022304B07047704700BF8A
:108968002DE9F04786468C460846089E154674460B
:108978001946002B40F0C1808542B2FA82F245D9EF
:108988004AB1C2F1200300FA02FC954094402EFA45
:1089980003F343EA0C0C4FEA154EA8B2230CBCFBB8
:1089A800FEF80EFB18CC08FB00F943EA0C43994586
:1089B80028D9EB1808F1FF3704D2994502D9A8F154
:1089C80002072B44A3EB0903A4B2B3FBFEFC0EFB86
:1089D8001C330CFB00F044EA0344A04214D92C19C0
:1089E8000CF1FF3304D2A04202D9ACF102032C44AB
:1089F800241A43EA07401EB1D44000233460736050
:108A0800BDE8F0874746DDE76346F1E792BB431BC5
:108A180001214FEA154EAFB2200CB3FBFEFC0EFB52
:108A28001C330CFB07F840EA0343984561D9EB185F
:108A38000CF1FF3004D2984502D9ACF102002B4466
:108A4800A3EB0803A4B2B3FBFEFC0EFB1C330CFB28
:108A580007F744EA0344A7424DD92C190CF1FF3318
:108A680004D2A74202D9ACF102032C44E41B43EA26
:108A78000040C0E7C2F120039540944020FA03F17A
:108A88002EFA03F34FEA154E9040AFB20343B1FB01
:108A9800FEFC0EFB1C10190C0CFB07F841EA004108
:108AA800884522D969180CF1FF3004D2884502D9CB
:108AB800ACF102002944A1EB08019BB2B1FBFEFC1A
:108AC8000EFB1C110CFB07F743EA01439F420ED92A
:108AD800EB180CF1FF3104D29F4202D9ACF102012C
:108AE8002B44DB1B41EA004193E76046E3E761461C
:108AF800F7E76046A4E76346B8E7834206D916B9A4
:108B0800002108467CE7C6E900E0F9E7B3FA83F7F5
:108B18008FB9834201D3724508D8BEEB020460EBDB
:108B2800030301209C461EB9002169E73846FAE78D
:108B3800C6E9004CF8E7C7F1200CBB400EFA07F570
:108B480022FA0CF42EFA0CF1BA401C4320FA0CF36A
:108B5800B8404FEA144901431FFA84FEB3FBF9F801
:108B680009FB18300B0C08FB0EFA43EA00439A4540
:108B780040D9E31808F1FF3004D29A4502D9A8F188
:108B880002002344A3EB0A0389B2B3FBF9F809FBFB
:108B9800183308FB0EFE41EA03418E452CD96118B3
:108BA80008F1FF3304D28E4502D9A8F1020321440B
:108BB80043EA0040A1EB0E01A0FB02984145CE46D6
:108BC800434602D306D14D4504D20138B9EB020E13
:108BD80068EB0403002EA7D0B5EB0E0261EB03018E
:108BE80001FA0CFC22FA07F3F9404CEA0303C6E940
:108BF800003199E74046C5E74346D9E70000000041
:108C08002DE9F04F89B0D0E90063039383890D46BD
:108C180087680593B36830465B68039906AA984746
:108C2800002831DBDDE9064BA7FB042307FB0B38E3
:108C380004924FF0FF3A1AA3D3E90023414604985F
:108C4800FFF774FE049BDFF860909A4579EB080300
:108C580007461CD3A5FB044305FB0B3510A3D3E93A
:108C6800002329462046FFF761FEA24579EB05055A
:108C780003460CD38742B2680CD30599304600915D
:108C8800146803993A46A04709B0BDE8F08F6FF021
:108C98008500F9E76FF01500F6E700BFAFF3008035
:108CA80000CA9A3B00000000FFC99A3B0000000080
:108CB80038B51D4D1D4C00222978206800F084FB32
:108CC8000021012011F07CFC01222978206800F0A5
:108CD8007BFB0021012011F073FC00222978206819
:108CE80000F072FB0021012011F06AFC43F6982283
:108CF8000F4B104C1968914201D9206838BD18688B
:108D0800FFF768FB06A3D3E90023FFF7DDFB00228A
:108D1800094BFFF7D9FBFFF7E9FD2060EDE700BF3E
:108D28006ABC74931804D63FB59B0020989600201F
:108D380088960020849600200000E03F98B56C4695
:108D480000AF88B06A460C4B0C48C2E905310323D2
:108D58004FF4C65142F8103F12F074FDA546084C76
:108D6800012015F0C2FB206818B107F025FD00238B
:108D78002360BD4698BD00BFC0010200A0F80100F5
:108D88007096002090B587B01749184800AFFFF7D4
:108D980037FF002811DA6C4688B06A46144BC2E9DE
:108DA800053003234FF4C251124842F8103F12F025
:108DB80049FDA5461C37BD4690BD0B490E48FFF737
:108DC8001FFF002804DA6C4688B06A460B4BE6E7BA
:108DD8000B4B4FF486517B61022306483B6107F138
:108DE800100212F02FFDE5E760E3160058FA0100C3
:108DF800DA010200A0F8010048FA010000020200AE
:108E08002702020090B587B0044600AF89B16C46CE
:108E180088B06A46114B1248C2E9053103234FF462
:108E2800C25142F8103F12F00DFDA5461C37BD4651
:108E380090BD0C4B4FF486517B61022307F1100261
:108E48003B61074812F0FEFC204607F08DFC064BFC
:108E58001860012015F046FBE8E700BF4302020056
:108E6800A0F8010056020200709600202DE9F04F8C
:108E7800304C83B0DFF8C090DFF8C0A0DFF8C0B096
:108E880000AFD9F80030002B41D021465046FFF7FB
:108E9800B7FE002810DA88B06A462A4B4FF4C25150
:108EA800C2E905300323284842F8103F12F0CAFCF3
:108EB8000C37BD46BDE8F08FE84688B06D464FF4E4
:108EC8007A73B4FBF3F32A46AB6103234FF4C6511C
:108ED800C5F814B01C4842F8103F7A6012F0B2FC92
:108EE800C546FFF7E5FEAD46032318497A68C5E98C
:108EF80005102B614FF4C651134812F0A3FCC54668
:108F08005EB9134B9C4211D9A4F51C54103C0021A6
:108F18004FF44D7011F054FBB3E70E4B04F51C549D
:108F280010349C42F3D900260B4CF0E701261C466E
:108F3800EDE700BF60E316007096002038FA0100E4
:108F48009402020061020200A0F80100AD020200D2
:108F580040420F007F841E0080841E002DE9F047E8
:108F68003038C0B286B0032800AF1ED82D4B53F856
:108F780020502D4B53F8206029462C48FFF740FE1F
:108F880000281EDA6C4688B06A46294BC2E90530CB
:108F980003234FF4C251274842F8103F12F052FC05
:108FA800A5461837BD46BDE8F087234B4FF48651D8
:108FB8007B6102231F483B6107F1100212F042FC5B
:108FC800DAE731461D48FFF71BFE002804DA6C4635
:108FD80088B06A461A4BD9E7E84688B06C464FF421
:108FE8007A7AB5FBFAF54FF00309A5612546154BCA
:108FF8004FF4C651636145F8109F2A460D4812F098
:1090080021FCC546A546B6FBFAF60F4B2A464FF497
:10901800C65108486361A661C4F8109012F012FCAA
:10902800C546BEE728FA010018FA010058FA0100FF
:1090380016030200A0F80100BD02020048FA010070
:10904800490302007D030200950302002DE9F04167
:1090580082B08046684602F10803DB08A0EBC30330
:1090680002AF9D4602AD2846144613F070FE002359
:109078006E4688B02B5502AA164BD461C2E9053852
:109088000423154C42F8103F4FF40351204612F0C8
:10909800D9FB02AA114B4FF4E651C2E905354FF44A
:1090A800007393830E4B204642F8103F12F0CAFB20
:1090B800B5462878FFF752FF002200230948CDE97A
:1090C800002340F6F602002311F098FFBD46BDE8E4
:1090D800F08100BFAE030200A0F80100D003020037
:1090E800030000018884002090B587B06C4600AF6B
:1090F80088B06A46394B4FF4E6515361384B3948CA
:1091080093614FF400739383374B42F8103F12F08A
:1091180099FBA5460CF062FC68B188B06A46334BEF
:109128004FF4C251C2E9053003232E4842F8103FDC
:1091380012F088FBA54619211A222D4800F06CF977
:109148002C492D4800F0AAF870B16C4688B06A46E0
:109158002A4B4FF4C651C2E905300323214842F88F
:10916800103F12F06FFBA546254C204615F03DFF39
:10917800A8B923686C4688B06A4622491948C2E9EA
:1091880005134FF400739383174B4FF4E25142F8E1
:10919800103F12F057FBA5461C37BD4690BD204630
:1091A80015F023FF0028E4D0174B4FF486517B615C
:1091B80002230C483B6107F1100212F043FB002127
:1091C8004C1C002001F001010CF034FC00214FF48C
:1091D800004011F0F5F92146F2E700BFD90302007B
:1091E800EA030200A0F801000300000103040200E2
:1091F80028F5010060810020648100201F0402001E
:10920800A0F5010046040200690402002DE9F041BE
:10921800E84600AF88B016461C4605466A460B8AE3
:109228000C49D061C2E90513042342F8103F00231A
:109238004FF40351084802F0E3FA084BC5461B688F
:109248001BB122463146284698472046BD46BDE810
:10925800F08100BF9204020078F9010074960020A2
:1092680098B500AF78B16C4688B06A46084BC2E939
:109278000530032342F8103F00234FF4C25105483C
:1092880002F0BEFAA54604480FF0A6FABD4698BDFE
:10929800B404020078F901004C8500202DE9F04162
:1092A80088B0044602AF0D466E464FF00208254BC3
:1092B800C7F810807B6100234FF48651224807F1DC
:1092C800100202F09DFA002C3AD0204607F0AEFCBE
:1092D8002A681E4B1E481A6006F008F9044698B121
:1092E80088B002AA1B4BC2E90534032342F8103F99
:1092F80000234FF4C251144802F082FAB5462046C2
:109308001837BD46BDE8F0813C46134D4FF0FF329B
:109318004FF0FF3311480FF0A3FA0FCD0FC42B689D
:10932800424623600123384600930D490D4B06F051
:10933800C9FD04460028E2D088B002AA0A4BD2E749
:109348000A4CDCE7C904020078F901007496002091
:1093580069920000E0040200B0F901004C85002089
:10936800ACFA0100A4FA0100F60402000900AD0BF2
:1093780038B50F4C0F4D23782BB90123237014F007
:10938800D0FF286038BD14F0CCFF00220A4B1860CB
:1093980022701B682A689B1A084A13601368084AD7
:1093A800A3FB0232DB0B43EA4243064A1360E9E7B8
:1093B800B49B002094960020909600208C96002064
:1093C80040420F0088960020012310B503FA01F1EE
:1093D80043681B6819420ED10B4940F2FE430B4A01
:1093E8000B4812F0A5FC0B4812F0A2FC40F2FE411B
:1093F800064812F096FC22B18368DB68BDE810408D
:10940800184783681B69F9E76605020035050200FD
:10941800A4050200C10502002DE9F0411546334AB2
:1094280004461060324A11700127426807FA01F3B6
:109438001268D0F808C0134206690ED12D494FF4BE
:1094480037732D4A2D4812F073FC2D4812F070FC2A
:109458004FF43771284812F064FC326822EA03029C
:109468003260DCF800304FF400329847636807FA3E
:1094780005F61B68A1681E422269DFD013682046E2
:1094880023EA060313600B684FF480322946984795
:10949800D4E90123126816420CD1164940F27E2302
:1094A800154A164812F044FC154812F041FC40F2E7
:1094B8007E21CFE7D3F818804FF0A0724FF0C06339
:1094C80029462046C04770B90E4B0F49C1E90136FD
:1094D800A368DB691BB13A462046984708B140F2B9
:1094E8009B20BDE8F08140F29A20FAE79896002088
:1094F800B59B00206605020035050200A4050200A0
:10950800C105020079930000789600202DE9F04FFC
:1095180095B000AF0446C7E90812D7F878B0BB6128
:1095280058B9AA494FF46573A94AAA4812F000FC31
:109538004FF46571A64812F0F4FBCBF3C0033B610E
:109548003B6A53B90378467880783D6A00EB83001C
:109558002044AE421AD8031B3B6294F80290E37889
:109568004E467B61B9F1000F02D01BF0010F16D1F6
:109578007B6953BB7B6A1BB12046BA69396A984735
:109588003D6A28465437BD46BDE8F08F00F1010812
:10959800404613F09DFB013040440135D9E763682C
:1095A80094F800A0FB617B6A4FEA8A02FA6004EB38
:1095B8008A0A002B40F00581D04600263D6A09EB57
:1095C8000A0398454ED1CA4413E01BF0020FD1D0CC
:1095D80094F800A04FEA8A03FB60636804EB8A0AE8
:1095E800FB617B6A002B78D13D6AB9F1000F4ED13F
:1095F8004E461BF0050F0CBF022301237B627B69DB
:109608000AEB43090BF002033B62CA45B9D01AF8CA
:10961800021B1AF8013C54F823806F4B984502D37B
:109628006E4B984539D33B69002B43D0F86912F04B
:109638003DF900283ED0E8468AB06A46684B536137
:10964800FB69C2E906314FF400731384654B42F895
:10965800103F00234FF41251634802F0D1F8023D45
:10966800C546D2E718F8012B7B6254F8220013F0A4
:109678002FFBFA6F7B6A01303AB1D7F88020964207
:109688003EBFFA6F22F816000136054499E71BF031
:1096980004061CBF7E6ACA44ABE73B6923B1F8697C
:1096A80012F004F90028C6D11BF0010F05D17B6A1E
:1096B800ED1AAAE73B6A002BA7D0404613F008FB37
:1096C800FB6F43B1D7F880309E423FBFFA6F431C0F
:1096D80022F816300136054497E7B9F1000F00F07B
:1096E80085801BF0040600F08480C846002607F138
:1096F80040004A46514613F02AFB7B69CA445B0086
:10970800BB607B690AEB43037B610BF002037B6060
:109718007B699A456FD123781BF0020F7B616378D0
:1097280018BF002106EB030208BF4FEA58011BF0DF
:10973800010FD2B240F0E2801BF0040F14BF404684
:1097480000203B61A37894F803B0FB616270A070BD
:10975800E1702046BA69F9687B6A9847051EFFF6EA
:1097680010AF7B69414623703B69BA696370FB6936
:1097780084F803B0A37007F140007B6A9847B0F102
:109788000008C0F2E8803B6A5046A3EB0901FB6879
:10979800BA69C91ABB68C91A7B6A98470028C0F217
:1097A800DC804FF0000BA84408EB000507F1300AF5
:1097B800B345C0F2A5800021BA6908467B6A98477C
:1097C800DFE64FF0000807F1300092E76806020074
:1097D800D3050200A405020040F40100FC45020084
:1097E800830602000400000100F901004E46C84645
:1097F80083E7B04681E71AF8021B594B1AF8015C57
:1098080054F825209A4202D3564B9A4216D33B6904
:109818002BB1F86912F04AF800287FF479AF7B6819
:10982800002B4AD00F2E3ED94F494FF489634F4A37
:109838004F4812F07DFA4FF489617BE63B692BB102
:10984800F86912F033F800287FF462AF1BF0010FBB
:109858000BD00F2E27D9444940F23E43434A44488F
:1098680012F066FA40F23E4164E61BF0040F3FF442
:109878004FAFB8F10F0F09D93E4940F241433B4A77
:109888003B4812F055FA40F2414153E608F12803EB
:1098980007F1280108F1010203EB010808F8105C40
:1098A8005FFA82F834E706F1280307F12801721CF1
:1098B8005E1806F8205CD6B22AE7B8F10F0F09D96E
:1098C8002C4940F24B43294A294812F031FA40F218
:1098D8004B412FE608F1280307F1280008F101029F
:1098E800181807F1500308F1020853FA82F200F839
:1098F800101C5FFA88F802F8105C09E7002020E7DE
:109908001BF80A3054F8239087F82F30FB6FFBB10F
:1099180033F81B800121BA697B6A07F12F00984749
:1099280000281ADB0544B8F1000F06D1484613F0A9
:10993800CFF900F101081FFA88F841464846BA698C
:109948007B6A9847002808DB05440BF1010B2FE7D9
:10995800D7F87C80DEE7454613E6054611E600BFEA
:1099680040F40100FC45020026070200D30502006E
:10997800A405020045070200014B1B68184700BFF9
:1099880080810020014B1860704700BF8081002053
:1099980007B50B46002102460091034800F038FC49
:1099A80003B05DF804FB00BF8199000030B50025C5
:1099B80087B0CDE903010446009503A9054805953C
:1099C80000F026FCDDE904309842B8BF255407B002
:1099D80030BD00BF03B9010070B50C46002934D072
:1099E80002680B1F9B1AD90823F0070313445D88EC
:1099F800E8070DD4AF23154A1549164812F098F90F
:109A08002146154812F094F9AF21104812F089F94F
:109A1800104611F0A9FF084432F83060801B8142DB
:109A28000BD0B723094A0D490A4812F081F921469B
:109A38000B4812F07DF9B721E7E725F001055D80B5
:109A48001046BDE8704012F04CB870BD76070200B1
:109A580097070200A4050200A8070200E007020019
:109A6800060802002DE9F8434B1E0B400F4614462A
:109A7800066810D0C1F1000909EA01094A46591ED1
:109A8800042A28BF042219420CD11F46E4B9002534
:109A98002846BDE8F883042913D8BDE8F8431146E1
:109AA80012F050B82C494FF4A2732C4A2C4812F0EB
:109AB8003FF92C4812F03CF94FF4A271274812F0F4
:109AC80030F999460422E1E7B368B3EBD40FDED945
:109AD80004F10B013944891A3046C90811F09AFF7C
:109AE80080460028D3D009F1040505EBC0057B1E8C
:109AF80035441D447F423D40A5EB09052C442B1FEE
:109B080007349B1B24F00704A41BB0EBD30F4FEAC8
:109B1800D3074FEAE40408D201463A46304611F02A
:109B2800C6FF4146304611F024FF3946304611F051
:109B38001BFF3844844207D23046224611F0B7FF53
:109B48002146304611F015FF06EBC706738843F02F
:109B5800010373809CE700BF4208020076070200F9
:109B6800A40502005D080200B2F5802FF8B504468E
:109B78000ED33A4940F2EB13394A3A4812F0D8F872
:109B8800394812F0D5F840F2EB11354812F0C9F80F
:109B9800042A0CD835494FF4F973314A314812F088
:109BA800C7F8334812F0C4F84FF4F971EDE7043AF6
:109BB800C81D0A4420F0070022F00702121A172ACB
:109BC8004FEAD2030CD82B4940F2FB13244A25480C
:109BD80012F0AEF8264812F0ABF840F2FB11D4E7C9
:109BE800B3FA83F120600024C1F12006C1F12401F9
:109BF80089000731C9084D1C9D428360C4600CD997
:109C08001D494FF40373164A164812F091F8184884
:109C180012F08EF84FF40371B7E700F10C0505EB6D
:109C2800860645F8044FB542FBD14D0045F00105C5
:109C380045805D1A00EBC1066F00048077808618A6
:109C480020F8311000EBC303748085525A8842F023
:109C580001025A80BDE8F84011F08BBE7A08020074
:109C680076070200A405020090080200A708020077
:109C7800C8080200E10802000A0902002DE9F84FAD
:109C88000446A38B08461907154612D4022803F088
:109C9800070164D1204611F07EFF88B101380428FD
:109CA80000F23481DFE810F05B0032018100D1005E
:109CB800010101280CBF43F0100143F02001A183EA
:109CC800143420460EF080FA002840F09B81984911
:109CD800C223984A984812F02BF82146B0E003F0C6
:109CE8000702501F01281ED80020062A2768C4E949
:109CF800000014D13A4603E0E08B0130E08312689B
:109D0800002AF9D123F0070343F002022046A28378
:109D180011F041FF90B342F02002A2832EE023F01D
:109D280007039AB2F2E7042A33D123F007039AB261
:109D38002046A28311F02FFF10B142F02002A28327
:109D4800A38B03F00709894540F0EA80A18BCA0676
:109D580040F14F8121F01003A38301F00701D4F8EB
:109D68001880A38BB8F1000FB9DA0022276823F016
:109D78000703C4E9002243F00103A383A38B03F084
:109D88000709894540F0CD80002FDFD00026B24674
:109D980044E06A4940F21B13694A674811F0C8FF5A
:109DA80040F21B11664811F0BCFF49B165494FF4F8
:109DB800AB73634A604811F0BBFF4FF4AB71F1E736
:109DC80023684BB9604940F257135D4A5A4811F06D
:109DD800AFFF40F25711E5E723691E684EB95B49AA
:109DE8004FF4AD73564A544811F0A2FF4FF4AD71C9
:109DF800D8E70F4688464FF00609A38B23F00703E0
:109E080043F006039BB2A383A268002A40F08B802C
:109E1800002F40F08B80002E98D0BA4643F00803FC
:109E280004F1140B5846A3830EF0CEF9002840F035
:109E380097803F49C2233F4A3F4811F079FF59466E
:109E4800434811F075FFC221AEE0022909D041490B
:109E580040F25D133A4A384811F06AFF40F25D114A
:109E6800A0E7E78B4FB13C494FF4AF73344A32480F
:109E780011F05EFF4FF4AF7194E723695E684EB945
:109E8800324940F261132E4A2B4811F051FF40F23B
:109E9800611187E7A38BB84623F0070343F0040357
:109EA8009BB24FF00409A383AEE7012909D02B49DF
:109EB8004FF4B273224A204811F03AFF4FF4B271BE
:109EC80070E723684BB9204940F265131C4A1A48C9
:109ED80011F02EFF40F2651164E723699E684EB9C0
:109EE8001A494FF4B473164A134811F021FF4FF47E
:109EF800B47157E70027A38BB84623F0070343F054
:109F080005039BB24FF00509A3837DE70B4940F297
:109F18006B130B4A084811F00BFF40F26B1141E735
:109F28000027002670E74FF0010A77E7924675E7A9
:109F3800050A0200D8090200A40502007E350200C5
:109F48003509020057090200630902008609020068
:109F58001C0A02009D090200B3090200C20902009E
:109F680085F31188BFF36F8FBAF1000F1ED1002F50
:109F78002FD116B120462649B0474FF02003EFF302
:109F8800118583F31288BFF36F8F58460EF00EF9D0
:109F980038BB94231F4A2049204811F0C9FE59466E
:109FA8001F4811F0C5FE94211A48FCE6A168002953
:109FB800DDD00D680029DAD043464A462046D1F85C
:109FC80004A0D0471DB12B6829461D46F2E72B4651
:109FD800FAE7394643464A4620463F6811F007FEED
:109FE800C5E758460EF0FEF8A38B23F00803A383B9
:109FF800ACE68B067FF564AE21F02003A38301F065
:10A00800070147E685F31188BFF36F8FBDE8F88F26
:10A018002DA00000D8090200310A0200A4050200A0
:10A02800460A0200F8B504460D4600F114064FF042
:10A038002003EFF3118783F31288BFF36F8F304645
:10A048000EF0B4F868B994230B4A0C490C4811F087
:10A058006FFE31460B4811F06BFE9421064811F053
:10A0680060FE30460EF0BEF8A5613A462046BDE8CF
:10A07800F8400121FFF702BED8090200310A0200A8
:10A08800A4050200460A02002DE9F04704460F46DF
:10A0980011F09DFD051E67DB04F114094FF0200344
:10A0A800EFF3118A83F31288BFF36F8F48460EF0DF
:10A0B8007DF8804660B99423374A3849384811F00A
:10A0C80037FE4946374811F033FE9421324840E0C4
:10A0D80048460EF087F84FF6FF72E38BA68B934243
:10A0E80006F0070643D0022E13D135460133E38329
:10A0F80048460EF069F800283FD1C223264A2A496B
:10A10800274811F015FE4946284811F011FEC221D2
:10A11800DCE7062E13D8DFE806F0092D1212090431
:10A1280009006FF085054FF00008E1E700233B6068
:10A13800636883B9C4E9007786B13546F3E71C49FB
:10A1480017484FF4E4731B4A11F0F2FD4FF4E47121
:10A15800184811F0E6FD1F606760EDE752460221DE
:10A168002046FFF78BFD35462846BDE8F0876FF09F
:10A178000A05D8E76FF00405D5E78AF31188BFF31D
:10A188006F8FB8F1000FEFD00023324639462046D2
:10A1980011F02DFDE8E700BFD8090200310A0200DE
:10A1A800A4050200460A0200050A02001C0A020071
:10A1B800C20902003509020008B54268034602F0E8
:10A1C8000302022A81600AD0032A4FF0000103D05B
:10A1D800012A0AD1596006E01868596008BD186854
:10A1E80000225A6058B90020F8E706490648452376
:10A1F800064A11F09DFD4521044811F092FD11F029
:10A2080039FAF0E77E350200A40502005E0A020072
:10A218002DE9F04F81468B4617461C46002595B020
:10A22800387808B9284657E37B1C2528039306D0BD
:10A238005946C8470028C0F24F830135FBE1182270
:10A2480000210EA812F08EFD7B78252B7DD00023EF
:10A2580098469E469C461E46781C014610F8012BDF
:10A268002B2A00F0A18000F29880202A00F09F801D
:10A27800232A00F09F802BB19DF8403043F0400323
:10A288008DF84030B8F1000F05D09DF8403043F00C
:10A2980020038DF84030BEF1000F05D09DF8403006
:10A2A80043F010038DF84030BCF1000F05D09DF845
:10A2B800403043F008038DF840302EB19DF840300F
:10A2C80043F004038DF840309DF8403003F044001B
:10A2D800442803D16FF386138DF840309DF8403041
:10A2E8002A2A43F080038DF840307FD19DF8412021
:10A2F8004B1C42F001028DF841201A782E2A0CBF1F
:10A30800012100219DF8412061F341028DF841208F
:10A3180078D15A782A2A6ED000224FF00A0C0133DD
:10A32800194611F8010BA0F13006092E40F295806C
:10A338009DF840101292C1F3400040EAD2700A46DC
:10A3480060F341028DF840205CE0BA1C03928DF85E
:10A3580043309DF84130DA0740F12E8154F8048BE0
:10A36800B8F1000F07DA9DF84020C8F1000842F064
:10A3780004028DF840205E0740F1278154F804ABB1
:10A38800BAF1000F80F226819DF841306FF3410346
:10A398008DF841304FF0FF3A1CE12D2A0DD0302ABC
:10A3A8007FF469AF012358E74FF0010C55E74FF0F0
:10A3B800010E52E74FF001084FE701264DE703462B
:10A3C8000EFB0262303A184610F8016BA6F1300C09
:10A3D800BCF1090FF3D999428FD09DF84010119222
:10A3E800D20F62F341018DF8401086E70B46002238
:10A3F8004FF00A0EE7E79DF84120023342F00402CD
:10A408008DF841201A786C2A47D02BD8682A31D089
:10A418006A2A4BD04C2A51D01A4612F8013B782BA5
:10A4280003928DF843309DF8412000F2BE806D2BD9
:10A4380051D8692B00F2B980572B67D8412B03D02C
:10A44800453B022B00F2B18004229DF8423062F3B2
:10A4580002038DF84230012373E00CFB02020B4625
:10A46800303A5DE7742A25D07A2AD5D106219DF89D
:10A4780041200CE05A78682A9DF8412006D1012134
:10A4880061F3C6028DF841200233C5E7022161F36A
:10A49800C6028DF841200133BEE75A786C2A9DF830
:10A4A800412001D10421EBE70321F0E705219DF8C4
:10A4B8004120ECE707219DF84120E8E7BDF840205E
:10A4C80022F4F04222F0020242F4804242F00202F8
:10A4D800ADF84020DFE76E3BD9B201238B4040F254
:10A4E80082410B4237D113F0240F51D1D8075CD5E4
:10A4F80003219DF8423061F302038DF8423002F0E7
:10A508007803A3F140014B424B411AE00120A3F12B
:10A518005801C9B200FA01F111F4624F94D140F622
:10A52800010631421DD111F4043F3ED09DF842305E
:10A5380060F3020302F07802402A8DF8423034D0EA
:10A5480000239DF84020C2F340010B4363F341020E
:10A558008DF84020FDE602219DF8423061F30203A8
:10A56800E8E702209DF8421002F0780260F3020149
:10A57800402A8DF8421002BF9DF8401041F00101B9
:10A588008DF84010632BDBD1131E18BF0123D8E7C9
:10A5980003219DF8423012F0780F61F302038DF821
:10A5A800423014BF01230023CBE79DF8403043F02D
:10A5B80001038DF84030C3E79DF94020002AACBF65
:10A5C8004FF0FF38DDF84480D5E698077FF5E2AE16
:10A5D800DDF848A00023CDE911339DF842309DF8FD
:10A5E800411003F00703012BC1F3C30133D1CB1E84
:10A5F800042B04D8DFE803F0214646212100236814
:10A6080001294FEAE372CDE90E321CD19DF93830A9
:10A61800DA17CDE90E3204349DF8403013F0030602
:10A6280050D03A4659464846039B11F063FB002830
:10A63800C0F252810544039FF2E554F8043BDA174F
:10A64800CDE90E32E8E70229E5D11AB243F3C03367
:10A65800CDE90E23DFE7022B24D1CB1E042B04D82F
:10A66800DFE803F018101018180001294FF0000255
:10A6780054F8043B14D00229CDE90E32CCD19BB258
:10A688000E93C9E7073424F00704F4E80223CDE960
:10A698000E23C1E754F8043B0E9300230F93BBE746
:10A6A800DBB2CDE7042B08D1073424F00704D4E942
:10A6B80000230834CDE90E23AEE7032BACD154F8C0
:10A6C800043BDDE79DF843007828B4D862281CD8FD
:10A6D80025283FF4ADAD5828ADD1DDE90E010DF1C7
:10A6E8003603009310AA08AB11F0BEFABAF1000FB6
:10A6F800074680F29980002F9DD00DF13603D81BB4
:10A70800002E00F0C0800130BDE06338152892D8D3
:10A7180001A252F820F000BFF5A7000007A800002A
:10A728003FA600003FA600003FA600003FA600008D
:10A7380007A800003FA600003FA600003FA60000B3
:10A748003FA6000093A800002BA8000051A8000015
:10A758003FA600003FA6000079A700003FA6000022
:10A768002BA800003FA600003FA600002BA8000071
:10A77800BAF1000F0E9F35DB5146384612F0AFFA9A
:10A7880007EB000A002F3FF456AF00269DF8423031
:10A7980013F01002059200F0928002305B06119AC5
:10A7A80048BF129B104448BFC018B8F1000F04926C
:10A7B80040F39F809DF84020A8EB0008C2F3800377
:10A7C8005007069300F19580510640F188803EB10C
:10A7D80059463046C84700287EDB069B01351E4691
:10A7E80030227DE0384612F073FAC9E70E9B002646
:10A7F80001208DF8203008AF0DF1210AC6E71907AE
:10A808005ABFC3F300135E012B26DDE90E23002B8C
:10A81800BFF663AF524263EB43032D26CDE90E2307
:10A828005BE7002659E700269DF840200DF1360326
:10A83800DB1B6FF386129A458DF840207FF65BAFDD
:10A84800AAEB0303119356E70E9890B30DF1360364
:10A858000093002108AB10AA11F006FABDF84230A7
:10A86800BAF1000F03F0EF0343F4F04343F0100391
:10A878000746ADF84230D6DA00283FF4DCAE0026B1
:10A888000DF13603181A9A4680E70E9B07293FF602
:10A89800D2AEDFE801F00C04060C08080C0C1D70A1
:10A8A800C9E61D80C7E6EA17C3E90052C3E61D6082
:10A8B800C1E62F4F064607F1050A052066E71A0785
:10A8C80048BF01306AE71046079306925946C847C1
:10A8D800DDE90623002804DA15B0BDE8F08F202250
:10A8E80043461946002903F1FF33ECDC45449846FA
:10A8F8006D1A2EB159463046C8470028ECDB0135A1
:10A908009DF84230DA0601D41B0705D55946302098
:10A91800C8470028E0DB0135059B33B159469DF84F
:10A928004300C8470028D7DB0135049E2E4405E0C4
:10A9380059463020C8470028CEDB0135731B002B51
:10A94800F6DC53463A465946484611F0D3F90028F2
:10A95800C2DB0544A844A8EB0503002B7FF76BAEC8
:10A9680059462020C8470028B6DB0135F3E700BF69
:10A97800810A020038B50D4604462022002112F053
:10A98800F1F90022EB68E361AB68A3612B682362ED
:10A998006B68A26263622A6923B1591E194208BF13
:10A9A80042F0010222610122002104F12C0014F07E
:10A9B8009AFB48B1054906482E23064A11F0B8F912
:10A9C8002E21044811F0ADF938BD00BFAD0A0200D0
:10A9D800A4050200870A02002DE9F04F87B0CDE9EF
:10A9E8000123436A0446013B8B420F46C0F0A08016
:10A9F8000026B24600F114054FF02003EFF3118B47
:10AA080083F31288BFF36F8F2846D9460DF0CEFB2B
:10AA180058B99423494A4A494A4811F089F92946BC
:10AA2800494811F085F9942150E028460DF0DAFBE9
:10AA380005A9204611F089F905998046B94228D31D
:10AA48002268236A204613F8221003EB820A21F0B9
:10AA5800030103F8221021683A4611F098F94FF0E3
:10AA68000008206028460DF0AFFB20B389F3118859
:10AA7800BFF36F8FB8F1000F5CD046B19DF813306B
:10AA8800002BB9D0A36913B1314620469847002658
:10AA9800B2E718B1204611F088F9E3E7DDE90132A1
:10AAA800134336D0039114F0CDFA039988BB284696
:10AAB8000DF08AFB68B9C223204A2449214811F0C5
:10AAC80037F92946224811F033F9C2211B4811F001
:10AAD80028F98BF31188BFF36F8F04F12C00DDE99F
:10AAE80001230DF0BDFE80464FF02003EFF31189DE
:10AAF80083F31288BFF36F8F28460DF057FB0028A9
:10AB080087D0B8FA88F828460DF06CFB4FEA581839
:10AB1800A8E7226920460DF11303C2F3400211F0A1
:10AB280067F9B0F10008064618BF4FF0010899E729
:10AB38004FF0000A504607B0BDE8F08FD809020070
:10AB4800310A0200A4050200460A0200050A0200B2
:10AB58001C0A02002DE9F0410446C36908460E4666
:10AB6800984704F1140507464FF02003EFF31188C6
:10AB780083F31288BFF36F8F28460DF017FB68B96F
:10AB88009423194A19491A4811F0D2F82946194844
:10AB980011F0CEF89421144811F0C3F828460DF0AE
:10ABA80021FB33783A4643F001033370616820464D
:10ABB80011F0EDF86060204611F00DF928460DF00F
:10ABC80003FB58B9C223084A0B49094811F0B0F8E9
:10ABD80029460A4811F0ACF8C221DCE788F311884D
:10ABE800BFF36F8FBDE8F081D8090200310A020077
:10ABF800A4050200460A0200050A02001C0A020017
:10AC08002DE9F843044600F114074FF02003EFF351
:10AC1800118883F31288BFF36F8F38460DF0C6FA98
:10AC2800054668B99423334A3349344811F080F80B
:10AC38003946334811F07CF894212E4811F071F808
:10AC480038460DF0CFFAD4E901329A4288BF636AD8
:10AC58009B1A002B3FD0216A11F8223001EB8209A0
:10AC680013F003003AD0022803D151F82260B60845
:10AC780005D1D8071FD44846E36998470646A16816
:10AC88003246204611F083F8E168A060324620463B
:10AC980011F07DF8E06038460DF096FA00BBC2234B
:10ACA800144A1849154811F043F83946164811F066
:10ACB8003FF8C221C1E743F0020301F82230E369FB
:10ACC8004846A568984729460246204611F05FF88D
:10ACD8000025A060DFE71D46A946DCE70546FBE73F
:10ACE80088F31188BFF36F8F002D8ED14846BDE8D9
:10ACF800F88300BFD8090200310A0200A405020047
:10AD0800460A0200050A02001C0A02002DE9F04169
:10AD18000446C36908460D46984704F114060746D9
:10AD28004FF02003EFF3118883F31288BFF36F8F7E
:10AD380030460DF03BFA68B99423234A2349244846
:10AD480010F0F6FF3146234810F0F2FF94211E4818
:10AD580010F0E7FF30460DF045FA2B786FF300034B
:10AD68002B7023699B0705D5E268236A03EB8203EE
:10AD78009D4219D12B783A466FF341032B70E16855
:10AD8800204611F004F8E06030460DF01DFA80B955
:10AD9800C2230D4A10490E4810F0CAFF31460F4829
:10ADA80010F0C6FFC221D2E72B6867F39F032B6020
:10ADB800EAE788F31188BFF36F8F04F12C00BDE830
:10ADC800F0410DF009BD00BFD8090200310A0200A8
:10ADD800A4050200460A0200050A02001C0A020035
:10ADE80048B1054B054A1B68B3FBF2F35843044BC3
:10ADF80043F0010318477047C482002040420F0007
:10AE080010FA01000F2A70B505461E4608460BD9F0
:10AE18001D491E4840F2E7131D4A10F089FF40F211
:10AE2800E7111B4810F07DFF94000AF025F904F59E
:10AE3800C072AEB150B9174940F24E23164A1348B2
:10AE480010F076FF40F24E211348EBE702F1804202
:10AE580045F0004502F52832C0F88050156070BDF5
:10AE680048B90C4940F263230B4A084810F060FFC8
:10AE780040F26321E8E702F1804202F52832C0F887
:10AE880080601660EBE700BFEC0A0200A405020030
:10AE9800BA0A02002F0B0200F70A0200F0B583B0CD
:10AEA80000AF381D0BF0F2F8244B984243D10AF05A
:10AEB800CBFA041E13DA38790BF0EEF86D4688B039
:10AEC8006A461F4BC2E90534032342F8103F0023AA
:10AED8004FF4C2511B4800F093FCAD4627E040F602
:10AEE8000703194D7C71AE68FB8074687B6814B9E0
:10AEF8006FF05704E2E708212846144AA047041EC9
:10AF0800DCDB3369002BF3D001220821284698475F
:10AF1800041ED3DB012338790D4A03FA00F1C2F885
:10AF28000415FA797979FFF76DFF002CC6D1204610
:10AF38000C37BD46F0BD6FF01204BFE70000AD0B43
:10AF4800330B020088F90100B8F501000DB00000CC
:10AF58000070014070B5049EC6F30744F5B2C6F30D
:10AF6800072630460AF06EF80F2C0BD91B491C48EF
:10AF780040F2E1131B4A10F0DBFE40F2E1111948E0
:10AF880010F0CFFEA400E4B250B9174914484FF4AA
:10AF98001773164A10F0CCFE4FF417711348EFE7F9
:10AFA8000022134BC0F880201A510123114AAB40EC
:10AFB800C2F8083530460AF065FA28460BF06CF8F6
:10AFC8000D4B984208D00D49054874230C4A10F0DF
:10AFD800AFFE74210A48D3E770BD00BFEC0A020037
:10AFE800A4050200BA0A02005B0B0200F70A02007D
:10AFF80080A00240007001400000AD0B960B0200DB
:10B008005F0B02002DE9F743144683681B694BB9AF
:10B0180027492848CA23284A10F08AFECA21264808
:10B0280010F07FFE0022984706460028F0D1C4F3AE
:10B03800072948460AF03AF85FFA84F83346494641
:10B04800220E07464046FFF7DDFEC4F30745484693
:10B0580009F0F8FF0F2D0AD91849164840F2E113F4
:10B06800174A10F065FE40F2E1111548D8E7154A75
:10B07800AD00EDB248F00043535150B912490D48A4
:10B088004FF41273114A10F053FE4FF412710F4827
:10B09800C6E7C0F880300E4B07F1320200934846ED
:10B0A8003346019452000AF0DFF803B0BDE8F0839C
:10B0B800AD0A0200A40502005F0B0200EC0A0200C0
:10B0C800BA0A020080A002405B0B0200F70A0200E5
:10B0D8005DAF000013F057BA13B501AA13F03AFA9E
:10B0E800044668B116230E4A0E490F4810F020FE98
:10B0F80021460E4810F01CFE1621094810F011FEDA
:10B10800019B5BB11723064A0949074810F010FE56
:10B118000199084810F00CFE1721EEE702B010BDA7
:10B12800B30B0200ED0B0200A40502000D0C020097
:10B13800270C0200330C020030B5002289B00F49F9
:10B148000F4814F0A1F8002200230024CDE90623BB
:10B158000E230C4DCDE903344FF400622846CDE9A7
:10B168000144094B094900940CF056FF0849284648
:10B1780013F06EFF204609B030BD00BFE1B20000F9
:10B18800508C0020C0870020B1B5000060A00020CE
:10B198004D0C02002DE9F047044607464FF001091F
:10B1A800DFF8508014B93846BDE8F08794FAA4F562
:10B1B800B5FA85F509FA05F32E0108EB05156FEACE
:10B1C800030A24EA03042B7B002BEBD058F8063043
:10B1D8001B694BB94644736804222846196807EA74
:10B1E8000A0700F0E7FADDE7284698470028D9D192
:10B1F800F0E700BF98F901002DE9F047DFF8B890B3
:10B208002E4C8046A9EB04039F2B0F460BD92C49E3
:10B2180040F215132B4A2C4810F08AFD40F2151104
:10B22800284810F07EFD294810F099FE064660B3C4
:10B2380000252846BDE8F087237B73B12368DB68C7
:10B248000BB12046984723681B69B3B96368042289
:10B258002046196800F0AEFA013610344C4518D96A
:10B268001B494FF49173174A174810F061FD1948AC
:10B2780010F05EFD4FF49171D2E720469847002800
:10B28800E4D00AFA06F31D43E6E705464FF0010A43
:10B29800E4E7D1D3B8F1000FCBD0002DC8D02846B1
:10B2A800FFF778FF0546002FF7D000214FF4A47070
:10B2B8000FF086F9F1E700BFA8F9010098F901003D
:10B2C800820C0200550C0200A4050200B096002072
:10B2D800A60C0200C70C020001480DF07DBA00BFA1
:10B2E8007C850020014B53F820007047D0FA0100FC
:10B2F80008B5034608462BB1044A136000F0FCFC6D
:10B30800002008BD6FF01500FBE700BF8481002016
:10B3180010B5044C237813B903480DF05DFA0123E6
:10B32800237010BDB69B00207C85002010B5044614
:10B33800064810F014FE3CB1054BD3E8EF1F013965
:10B34800C3E8E21F002AF8D110BD00BFA89600206C
:10B35800AC96002000200146034BD3E8EF0FC3E86A
:10B36800E21F002AF9D17047A896002070B5FFF7B0
:10B37800F1FF05460F4C104EB44219D90F4940F25F
:10B38800CD130F4A0F4810F0D3FC0F4810F0D0FC33
:10B3980040F2CD110A4810F0C4FC63685B792BB108
:10B3A80023685B6813B12946204698471034E3E7C1
:10B3B800F3D370BD98F90100A8F90100A60C0200AA
:10B3C800550C0200A4050200C70C020010B5044C7D
:10B3D80004492046FFF7CEFA034B1C6010BD00BF9E
:10B3E80040840020BCFA0100A096002008B5002384
:10B3F800064A4FF400411370054A06481360FFF7E8
:10B4080077FFBDE80840FFF7E1BF00BFB79B00200A
:10B41800A896002063BF01000146002200230148CE
:10B42800FFF7DABA408400200148FFF7E9BB00BF04
:10B4380040840020024B01461868FFF767BC00BF34
:10B44800A0960020014810F02DBD00BF40840020C8
:10B4580070B52E4B1878002857D0FFF7E5FF054642
:10B4680040B32B4BD3E8EF1F0139C3E8E21F002A92
:10B47800F8D1284C284EB44218D9284940F2C113B3
:10B48800274A284810F054FC274810F051FC40F295
:10B49800C111234810F045FC63685B7923B1236828
:10B4A800294620461B6898471034E4E7F4D3284619
:10B4B800FFF7C0FF1D4B1E4C1B68002B19DD13F056
:10B4C800BBFE4FF47A72A0FB020302FB0131C30BEF
:10B4D80043EA4143D4E900209B1A40F2E9324FEA9B
:10B4E800D13161EB0001934271F1000101D3FFF703
:10B4F8003DFFD4E9003213F57A7342F10002C4E942
:10B508000032BDE87040FFF79DBF70BDB69B0020BC
:10B51800AC96002098F90100A8F90100A60C0200D9
:10B52800550C0200A4050200C70C0200A8960020D2
:10B53800488C002070B5154D297829BB0120FFF7EC
:10B548005BFE134C134EB44217D913494FF4C27320
:10B55800124A134810F0ECFB124810F0E9FB4FF4C4
:10B56800C2710E4810F0DDFB63685B791BB123687C
:10B5780020469B6898471034E5E7F5D3FFF768FF46
:10B588000028FBD101232B7070BD00BFB79B0020A2
:10B5980098F90100A8F90100A60C0200550C020058
:10B5A800A4050200C70C02002DE9F0472F4B304FCD
:10B5B800FB1A1B090BD12F4940F247332E4A2F485B
:10B5C80010F0B6FB40F247312B4810F0AAFB0021DF
:10B5D8000846FFF711FE044640B340F267684FF093
:10B5E80000090FF021F8264B186030B1254B1B6875
:10B5F800092B02DD24480DF0EFF80025DFF888A0BC
:10B6080044B12046FFF7C6FD044618B94FF0FF388D
:10B618004FF0FF39FFF71CFF064628B95DB94246CF
:10B628004B4650460DF01CF93546E9E74FF0FF3818
:10B638004FF0FF39D5E70D4D08E0F0D22B689B6934
:10B648001BB100222846114698471035BD42F4D94F
:10B658000E4940F23B33084A084810F069FB0C4891
:10B6680010F066FB40F23B31AEE700BF98F90100ED
:10B67800A8F90100E60C0200550C0200A40502001E
:10B68800A4960020AC9600207C850020A60C020021
:10B69800C70C020013B52B4810F061FC2A4B1B782D
:10B6A800002B34D04FF02003EFF3118483F312887A
:10B6B800BFF36F8F25480CF079FD68B99423244AAD
:10B6C8002449254810F034FB2049244810F030FB69
:10B6D80094211F4810F025FB1C480CF083FDFFF750
:10B6E800B7FE1A480CF070FD58B9C223184A1C4915
:10B6F800194810F01DFB15491A4810F019FBC22112
:10B70800E7E784F31188BFF36F8F02B010BD164BC3
:10B718001B68002BF9D050B9002200231348CDE94B
:10B7280000234FF4004200230FF068FCEDE70A28DD
:10B73800EBD10E4813F0B4FD0D4802B0BDE810403F
:10B748000DF04AB8AC960020B79B00209C960020CC
:10B75800D8090200310A0200A4050200460A0200C4
:10B76800050A02001C0A0200A4960020508C002042
:10B778007C85002010B5064B04461B689847214677
:10B78800A0600448FFF7E6F9BDE81040FFF782BF64
:10B798008481002040840020044A054B9B1AB1EBA9
:10B7A800D30F34BF52F8310000207047A0F80100D1
:10B7B80098F901000E4B10B5C31A1B110133DBB207
:10B7C80048B90C490C48DE230C4A10F0B1FADE21C6
:10B7D8000A4810F0A6FA4468237143689A71012256
:10B7E8004368196043685A71BDE81040FFF790BD7F
:10B7F80098F90100860D0200A40502004E0D020012
:10B808002DE9F04FC1F3CB448FB0C1F349260D4663
:10B818009046994605901734002E3DD04FF0040B02
:10B828004FF00A0A002209AF31460BAB4046CDF86B
:10B8380008B00197CDF800A0CDE90B220D9207962C
:10B84800FDF764FEC0F30903181920F0070080080B
:10B858001E4663F352250693FFF7DEFD044608B340
:10B868000022069B10300B900C930D924046CDE9B8
:10B87800017B124A0799CDF800A00BABFDF746FEF5
:10B8880000280FDA0E490F4849230F4A10F050FAE2
:10B8980049210D4810F045FA24F007008008FFF709
:10B8A800BBFD044666F352254B462A4620460599B9
:10B8B8000FB0BDE8F04F10F076BB00BF83BF0100AA
:10B8C800D20D0200A4050200A60D02000EB403B5B5
:10B8D80003AB53F8042B01460448019310F08AFB8C
:10B8E80002B05DF804EB03B0704700BF15B9000063
:10B8F800CA0605D48B064CBF02490349FFF7E6BFC9
:10B90800704700BF592C0200093B020038B54B684C
:10B9180005461A68CB680C469A4202D1084610F0D0
:10B9280070FB6368D3E8EF2F511CC3E8E01F0028C1
:10B93800F8D1A3689D5463681A68E3689A4209D9E4
:10B94800054906487923064A10F0F2F97921044896
:10B9580010F0E7F9002038BD0A0E0200A405020025
:10B96800DB0D02002DE9F04F89B09B46DDE9157625
:10B978009DF8483004460493DDE913930593049B2E
:10B988000D460692002B00F0878006F00803079307
:10B9980010F0F1FA06F0020A024600284BD02046C1
:10B9A8008D49FFF793FF8046BAF1000F08D016F0D3
:10B9B800440F42D12A4620468849FFF787FF804432
:10B9C80006F001035BB1864B049A204653F8222007
:10B9D800844B8549002A08BF1A46FFF777FF06F00F
:10B9E8000803002B55D0814B049A204653F8222097
:10B9F8007F49FFF76BFF0546069B2BB11A46204689
:10BA08007C49FFF763FF0544BBF1000F05D05A4698
:10BA180020467949FFF75AFF05444544B9F1000F1C
:10BA28004AD1002F61D1F30700F1CF80314620467B
:10BA3800FFF75EFFC3E08046B6E7704B1868002842
:10BA4800BDD06F4B4FF47A7E1B684FF46162B5FB33
:10BA5800F3F5B5FBF0F300FB13550EFB05F5B3FB4F
:10BA6800F2FAB5FBF0FC3C2102FB1A3200FB1C5534
:10BA7800B2FBF1F30EFB05F5B5FBF0F501FB132264
:10BA880020460092CDE901C552465E49FFF71EFFE8
:10BA980095E706F00805AFE7BBF1010F07D1B9F14B
:10BAA800000F1DD1002F00F08A8000251DE0B9F19C
:10BAB800000FF7D0544814E054484B4622465449E6
:10BAC8000FF0C3FE00280EDA524953484FF40073B2
:10BAD800524A10F02DF94FF40071504810F021F936
:10BAE8004A48049DE9E7002F65D0DFF83491DFF874
:10BAF80034A1102F31462046B8464FF0000B28BF1E
:10BB08004FF01008FFF7F4FE5D4542DC059B5146F7
:10BB180020461A78FFF7DAFE4FF0010B1BF0070FEB
:10BB280003D149462046FFF7D1FED84538D9059BB1
:10BB38005146204613F80B20FFF7C8FE0BF1010B06
:10BB4800BBF1100FEAD14FF0000B20463649FFF742
:10BB5800BDFE5A46059B20469A5CA2F120015F294A
:10BB680028BF2E223149FFF7B1FE0BF1010BBBF1C3
:10BB7800100F1AD01BF0070F03D149462046FFF7D4
:10BB8800A5FED8455A46E5D849462046FFF79EFE09
:10BB9800EBE749462046FFF799FE0BF1010BB3E7A7
:10BBA80020462349FFF792FEC8E7059BB7EB080735
:10BBB800434405939DD1049B002B7FF434AF20466A
:10BBC80009B0BDE8F04F10F01CBA2046054A0649F6
:10BBD800FFF77CFE2AE700BF3F0E0200430E02007B
:10BBE800E0FA01003A0E0200D6030200F4FA01005E
:10BBF800680E02006E0E0200720E0200B896002057
:10BC0800B49600204C0E020025C0010015B90000B2
:10BC1800FDBF0100770E0200A4050200DB0D020043
:10BC2800D53A0200800E0200860E0200880E02003D
:10BC3800D33A02002DE9F0410F884B6805460C46BF
:10BC480090468E6886B0C7F382175BB1134A9B1A79
:10BC580043F3CF0100291FDB2078C0F3C200FFF7B0
:10BC68009BFD0346214651F8102B6088C2F34922F8
:10BC7800002A01EB020408BF0021C0F3CB00CDE984
:10BC88000308CDE901140022314628460097FFF742
:10BC980069FE06B0BDE8F0810023E3E7A0F80100E3
:10BCA80042F20F7373B58B4228BF0B4605680446F2
:10BCB800052168460D4A0FF040FE0646636828468F
:10BCC8000B225B680A4910F088F9636832466946B6
:10BCD80028465B6810F081F963681B2228465B6878
:10BCE800044910F07AF902B070BD00BFA81A02002A
:10BCF800A70E02008B0E020000210123064A904283
:10BD080006D8064A01B901231360054B186070472D
:10BD1800012140085B00F2E740420F00B496002082
:10BD2800B8960020014B002019607047D09600207B
:10BD38000122024B02481A7010F063B9B99B002027
:10BD480024FB01000148FFF7ABBF00BF24FB010043
:10BD580010B5064B0C461868FFF7C4FA2146BDE833
:10BD6800104003460F220248184700BFD096002013
:10BD780024FB0100F8B50D460446064F4618B442A8
:10BD880001D12846F8BD14F8011BBB6801485B685F
:10BD98009847F4E770F5010008B5074813F025F94E
:10BDA80048B9064906486F23064A0FF0C1FF6F21BC
:10BDB80004480FF0B6FF08BD70F50100110F02002E
:10BDC800A4050200D30E02007FB570B9124B1348C8
:10BDD800059302234FF4825104AA049310F02CF91E
:10BDE8006FF0150007B05DF804FB836863B90C4B6E
:10BDF8000A48059302234FF4825104AA049310F0D1
:10BE08001BF96FF00400EDE71B681BB107B05DF884
:10BE180004EB18471846E5E7450F020020F9010032
:10BE2800560F020030B587B008B101B16AB9134B9B
:10BE38001348059302234FF4825104AA049310F087
:10BE4800FBF86FF0150007B030BD84680CB1E568E9
:10BE580065B90C4B0A48059302234FF4825104AA92
:10BE6800049310F0E9F86FF00400ECE741F8040BD4
:10BE7800E36807B0BDE83040184700BF740F020000
:10BE880020F90100560F020030B51346044687B06A
:10BE980068B91A4B1A48059302234FF4825104AA31
:10BEA800049310F0C9F86FF0150007B030BD0068B2
:10BEB80060B9144B1248059302234FF4825104AA27
:10BEC800049310F0B9F86FF00100EEE782680AB148
:10BED800956865B90C4B0A48059302234FF48251C3
:10BEE80004AA049310F0A8F86FF00400DDE70A46EE
:10BEF800AC46616807B0BDE830406047A00F02005B
:10BF080020F90100B10F0200560F020008B5042203
:10BF18000021024810F026FF002008BD000007207D
:10BF28000023012213B50446CDE90032074BD0E9BE
:10BF380009120BF05DF9A36E1B6823B1E06E02B025
:10BF4800BDE81040184702B010BD00BF5A2C0200CF
:10BF580030B50C460E4985B00291D0F898110546C7
:10BF6800CDE9003100F1E0014FF0FF3320460BF03E
:10BF780085F950B9012384F86430D5F8943123B198
:10BF8800204605B0BDE83040184705B030BD00BFB9
:10BF980037C1010038B50C461146054610F0C9F8FE
:10BFA800034638B92846044910F0C3F80346002070
:10BFB800236038BD0120FBE75A2C02002DE9F04F21
:10BFC800012381460569466885B005F55577D7E8A8
:10BFD800EF2F002A03D1C7E8E13F0029F7D140F04D
:10BFE800B880B368B26A043B2632B3EB420F4FEA1B
:10BFF800420126BFB3FBF1F3B3FA83F300234FF0FA
:10C00800010428BFC3F12003013B9C4005F5D87803
:10C0180000F099801022082170689A4002EB4402CF
:10C02800043099400932C5F84802063122F003026B
:10C038000A44B16A01FA03FC510001EB4C01C5F84E
:10C048004C12B16A994000EB4103C5F84032033302
:10C05800134423F00303C5F83C327368C5F844421F
:10C06800C5F838323C4B4046C5E9A363316800F057
:10C0780003FA044630BBD9F804A0D9F81090DAE9DD
:10C08800073409F52A7B012B584608BF103C0CF0F1
:10C0980017FF0023DAF8240030494FF4806201EBDF
:10C0A80080210093584623460CF024FF09F526709A
:10C0B8002B490CF039FEDAF8140083685C681CB967
:10C0C8006FF05704002137E04B46264ADAF818107B
:10C0D800A04704460028F5D1DAF8140083681B69E4
:10C0E800002BEDD00122DAF81810984704460028F2
:10C0F800E8D11D4B2846C5F894311C4BC5F898313A
:10C108001B4B0393D5F8F8310293D5F8F031CDE9FC
:10C118000083D5F85032B26AD5F8501300F076F99A
:10C1280004460028CED105F1E0000BF045FA0028BE
:10C13800C5F858030ADB0221384610F046F82046B5
:10C1480005B0BDE8F08F6FF00B04BBE76FF0150486
:10C15800B8E76FF07704F2E7BBC1010060A80020E0
:10C1680073C1010067C1010029BF00008DC1010032
:10C1780003C201002DE9F84306464FF0010905699D
:10C18800D0F8048005F55577D7E8EF3F022B03D1A7
:10C19800C7E8E29F002AF7D149D1264805F14001B6
:10C1A80010F0A6FD20B16FF00F042046BDE8F8831B
:10C1B800204805F1B00110F09BFD0028F3D1284676
:10C1C800D5F8501310F06DF8044670BB71683669E5
:10C1D800486983681B6933B32246896998470446CE
:10C1E80018BB06F52A76494630460CF0EBFE304679
:10C1F80005F5D87601F052FA3046D8F8001010F05C
:10C208008DF8044688B90146E822304610F0AAFDA8
:10C2180021464FF4D872284610F0A4FD214638462E
:10C228000FF0D3FFC1E76FF057040221F7E76FF073
:10C238007704BAE75A2C020013B504460846216968
:10C2480001F55571D1E8AF1F022910D193B1A0B102
:10C258000121CDE900311346D0E909120AF0C8FFDF
:10C26800074B984208BF6FF00B0002B010BD6FF08B
:10C278000F00FAE76FF04C00F7E76FF00100F4E702
:10C288002EF8FFFF2DE9F74388461546066906F59F
:10C298005573D3E8AF3F022B5FD1136823B96FF012
:10C2A800150003B0BDE8F0831B78002BF7D0D6F853
:10C2B8005093B9F1000F33D106F5CE774FF0FF3226
:10C2C8004FF0FF3338460BF0C7FF30462A6801A904
:10C2D800FFF760FE019C1CB938460FF074FFDEE7DB
:10C2E80005F10803A3666B6984F86490E366E46368
:10C2F80060B138460FF067FF21463046236E2A6842
:10C30800FFF726FE0020C8F80040CAE72022296867
:10C3180004F1400010F0C8FC38460FF054FFF1E774
:10C3280030460F490FF005FF04460028B7D005F145
:10C33800080383666B69C063C366002380F86430B2
:10C3480020222968403010F0AFFC224601213046F7
:10C3580000F03EF80028D5D0A1E76FF00F00A0E765
:10C368005A2C02002DE9F04F05460E46904600274C
:10C37800D0F8A4A085B0AAF5A4742146304610F0E0
:10C38800B7FCE0B9114BA4F1400B0293DAF8103076
:10C398003246CDE9008329464FF0FF335846AAF5C7
:10C3A800C4790AF06BFF60B97023012203FB07937D
:10C3B80083F86420DAF80C300BB15846984770348B
:10C3C80017B105B0BDE8F08F0127D6E7A7C2010075
:10C3D8001FB5144690B18AB1012912D10A4B00F158
:10C3E800E0010293D0F89831403201934FF0FF33C7
:10C3F800204600930AF042FF04B010BD6FF015000C
:10C40800FAE70020F8E700BFA7C201002DE9F043D2
:10C4180085B00F46DDE90C811446DDE90E251E4680
:10C4280028B321B3DFF84CC000F1E009002D08BFA4
:10C43800654697B9CDE9024400F5C474204612F068
:10C44800C1FD02ABCDE900432A4633464146484682
:10C458000BF0D8F805B0BDE8F083002241460C92F5
:10C4680048462A4605B0BDE8F0430BF0DBB96FF04B
:10C478001500EFE76DC30000F0B50E46044689B01D
:10C4880000286FD001230246C3630023D0F8981018
:10C49800364F403040F80C7C42F8301FCDE901336C
:10C4A8004FF0FF330093C36D12F038F9304A06ABF2
:10C4B80092E8030083E8030018460AF0B9FD054630
:10C4C800D8B904F134000AF093FD0546A8B93946F5
:10C4D800284805AA12F0FAF8054670B9059B9A682B
:10C4E80072B10C33D4F89400C4F8A0300FF008FFF0
:10C4F800C4F8D40030B96FF00B05284609B0F0BD78
:10C508000346EFE7D4F894000FF0FAFEC4F8D80019
:10C518000028F0D0D4F88C30D4F8A010C4F8A83093
:10C528000423C4F8AC30C4F8C4300223A362124B0D
:10C53800B4F89420D4F8D470C4F8B810C4F8D01063
:10C54800D4F89010236204F1A403A4F8B020C4F82E
:10C55800A470C4F8C010A4F8C820C4F8BC00A66130
:10C56800E362CAE76FF01505C7E700BFDB0F0200FB
:10C57800C4F90100E50F020060FB01002DE9F84352
:10C5880005464FF02003EFF3118683F31288BFF3BB
:10C598006F8F20480BF00AFE68B994231E4A1F4982
:10C5A8001F480FF0C5FB1B491E480FF0C1FB942123
:10C5B80019480FF0B6FB4FF00C0916480BF012FEA5
:10C5C800194B1A4F1C68DFF868807CB911480BF0CA
:10C5D800FBFDC8B9C223104A164911480FF0A8FB41
:10C5E8000C4915480FF0A4FBC221E1E7D4E9012367
:10C5F800002D18BF13462BB198F8142009FB02F23E
:10C60800B85C98472468E0E786F31188BFF36F8F1A
:10C61800BDE8F883D4960020D8090200310A020048
:10C62800A4050200460A0200F4960020E8960020BD
:10C63800489B0020050A02001C0A0200012270B56E
:10C64800164B1C7D04F01F039A40D043144B61091C
:10C6580003EB8103D3E8EF1F01EA0005C3E8E65FB7
:10C66800002EF7D10A4213D00E4B0F4D8BB10C237D
:10C678006343EA185178E85C0FF056FC0020FFF796
:10C688007DFF0C235C4300232A192B51C2E9013397
:10C6980070BD83F31188BFF36F8FEFE7489B0020CD
:10C6A800FC96002031BF0100E89600202DE9F041FA
:10C6B800454B07461D7D4FF02003EFF3118883F3A8
:10C6C8001288BFF36F8F41480BF070FD68B994234F
:10C6D8003F4A404940480FF02BFB3C493F480FF088
:10C6E80027FB94213A480FF01CFB0C246C43374875
:10C6F8000BF078FD3A4B3B4E195D1A19B9B107CAD0
:10C7080006EB040C8CE8070000221A552F480BF0A2
:10C718005BFD0446B0B9C2232D4A33492E480FF0B9
:10C7280007FB2A4931480FF003FBC221DAE73946F3
:10C73800284600F065F80028E8D007C8344484E8A3
:10C748000700E3E788F31188BFF36F8F0C236B436F
:10C75800F218F35CABB37B1C0FD04FF4004C0021F4
:10C76800D2F808E022480023EEFB0C01214AFCF72E
:10C77800DDF80121381A0EF055FA0DF0D3F8012032
:10C78800FFF7FCFE1C4B6A0903EB8203012205F04C
:10C798001F018A40D3E8EF0F1043C3E8E10F0029D7
:10C7A800F8D1164B33B10C236B43F2185178F05C77
:10C7B8000FF0AEFBFFF742FF0DF020F92046BDE871
:10C7C800F0811C46FAE700BF489B0020D89600205D
:10C7D800D8090200310A0200A4050200460A020034
:10C7E800DC960020E8960020050A02001C0A0200D8
:10C7F8003F420F0040420F00FC96002019BF010085
:10C808002DE9F04F85B00E4603A900F043F84FF428
:10C81800004704464FF0000B1B4B039DD3F800A0C4
:10C82800431E1BB203EB4303DFF8608005EB83056F
:10C8380024B9A146484605B0BDE8F08FC44659461C
:10C8480068680023E0FB07C1114A6046FCF76EF8F0
:10C85800C44659460190A8680023E0FB07C10C4A6A
:10C868006046FCF763F8BAF1FF3FA94601D082455C
:10C8780005D9731CDED0019B1844B042DAD9013CBB
:10C88800A4B20C3DD4E700BFB48100203F420F00A2
:10C8980040420F0008B9024B0B600020704700BFF0
:10C8A80084FB01000449431E0F3013F8012F8A5CF2
:10C8B80083421A70F9D17047F00F0200F0B50746AD
:10C8C800264E8DB001AD0C460FCE0FC50FCE0FC54D
:10C8D80096E8070085E807003846002F39D0002C75
:10C8E80039D0381F0246214610344B780D781B0486
:10C8F80043EA0563CD7804312B4311F8025C8C427E
:10C9080043EA052342F8043FEFD10421144C8A0777
:10C91800036916D1C3F30742A55C1A0EA25C42EA6A
:10C928000562C3F30725655DDBB2E35C42EA0542B5
:10C9380042EA032221F0030330336B4453F82C3CC2
:10C94800534050F8042F013153402C290361DED1A4
:10C9580001200DB0F0BD2046FBE700BFCCF9010077
:10C96800F00F02002DE9F04F002703689DB00293F5
:10C978004368DFF8BCA103938368DDE902460493AA
:10C98800C36805930369DDE904BE06934369079309
:10C998008369DDE9062C0893C36998460993089BC7
:10C9A8000093CD590CAB2DBA5AF8049BDD514FEAD0
:10C9B800F223A94483EAB213009D83EA72634B44CD
:10C9C80025EA020502EA0C0985EA09052B444344D5
:10C9D80086EA0B054FEA743888EAB408254006EA67
:10C9E8000B0985EA090588EAB4580437A844402F9A
:10C9F80003EB0E054344DE46DDF8008040F08880F6
:10CA08004FF0100A4B490A9151460AF1010A0DF1FB
:10CA1800700E0AF00F070EEB870757F8407C01F0FD
:10CA28000F094FEAB748019788EAF71801F10E078E
:10CA380007F00F070EEB870757F8407C09314FEADC
:10CA4800F74E8EEA774ECDF82CE001F00F010DF18C
:10CA5800700E0EEB81010EEB890959F840EC51F884
:10CA6800401CBAF1400F7144DDF804E088EADE08A2
:10CA7800DDF82CE041448EEA972E714405EA02085D
:10CA88004FEAF52E2CEA050787EA08078EEAB51E55
:10CA9800DDF828808EEA756E774458F804EF49F877
:10CAA800401C77440F4400994FEA733E394484EAA6
:10CAB8000607CDF828808EEAB30E07EA030704EAD2
:10CAC80006088EEAB35E87EA080777440F4401EB4D
:10CAD8000B0ECDF800C0B34622D10299394401604B
:10CAE80003991944049B416023448360059B3344A4
:10CAF800C360069B73440361079B2B444361089BF7
:10CB080013448361099B6344C3611DB0BDE8F08F82
:10CB1800B346CDF800C0264694461C462A4640E750
:10CB2800944626462A461C4675463B466CE700BF97
:10CB380084FB0100C0FB010010B50446C8B1702297
:10CB480000210FF028FC0B4B0B4A0C49C4E90023C9
:10CB58000B4B0C48C4E902130B4BC4E90403012036
:10CB68000A4BA36103F17453A3F52303A3F692437D
:10CB7800E36110BD85AE67BB67E6096A72F36E3C78
:10CB88003AF54FA57F520E518C68059BABD9831F90
:10CB9800014910220A60704710ED00E072B640406B
:10CBA80080F31188BFF36F8FBFF34F8F30BF62B62A
:10CBB800BFF36F8F704700BF72B6494081F3118889
:10CBC80020BF80F3118862B6704700BF2DE9F04797
:10CBD80081460C4600AF00294CD0D1E900126E46C0
:10CBE8008AB0A3686D464FF0050AA8462548C5E9EE
:10CBF8000723C5E9050148F810AF002342464FF462
:10CC080021512148FEF7FCFDD4E90312B5466369BA
:10CC1800AD461E48C5E90723C5E90501C5F810A0BA
:10CC2800002342464FF421511748FEF7E9FDB54667
:10CC380088B0E3696D464FF0030AA846144AC5E96F
:10CC4800052348F810AF002342464FF4C2510E485E
:10CC5800FEF7D6FDB546A369AD460E4AC5F810A045
:10CC6800C5E90523002342464FF4C2510648FEF7A2
:10CC7800C7FDB546214648460AF0E8FDBD46BDE871
:10CC8800F08700BFF010020060F901001F110200D8
:10CC98004E1102005D11020040B2002807DB01239B
:10CCA8004109034A00F01F00834042F821307047D1
:10CCB80000E100E040B200280CDB012206494309EC
:10CCC80000F01F008240203341F82320BFF34F8F2C
:10CCD800BFF36F8F704700BF00E100E0054B4209CA
:10CCE80053F82220012300F01F0003FA00F010403F
:10CCF800704700BF00E100E038B54B1C072B044625
:10CD08000D460FD95B23104A104911480FF010F84F
:10CD180029461048072322460FF00AF85B210A48E3
:10CD28000EF0FFFF40B20028ACBF00F160400A4A95
:10CD38004FEA4313DBB2ABBF00F5614000F00F00D0
:10CD480080F80033135438BD8B110200C111020062
:10CD5800A4050200DC11020014ED00E030BFFFF76B
:10CD6800FDBF00BF0B4A08B50B4B22F07F029A604B
:10CD7800BFF34F8FBFF36F8FD3F8882022F4700270
:10CD8800C3F888200AF034FE0DF08CFD00F000FC9A
:10CD98000AF06EFE0080000000ED00E0094A0A4932
:10CDA800936809689867D96708494B6843F08053C6
:10CDB8004B60002383F31188BFF36F8F9368D86F9C
:10CDC800704700BF489B00209001020000ED00E082
:10CDD80015498A6882F881E04FF030001044EFF37B
:10CDE800098C80E8F01F202080F31288BFF36F8F32
:10CDF8000E4F4FF00066CA698A603E6092F981E082
:10CE0800906F0023936780F3118802F1300090E857
:10CE1800F01F8CF3098802F1000004B50FF008FF39
:10CE2800BDE8044070470000489B002004ED00E086
:10CE38001EF0040F0CBFEFF30880EFF3098081693F
:10CE480011F8021C0229FFD001B50FF0E2FE01BD66
:10CE580042F8203C009B0D4942F81C3C019B21F004
:10CE6800010142F8183C029B42F8081C42F8143CA5
:10CE78004FF0807342F8043C002383674FF43C432F
:10CE8800203A0265C0F88030704700BF5DB90100E4
:10CE9800084B9860836E83F30B88104681F30988EA
:10CEA800002163B681F31188BFF36F8F002200233E
:10CEB8000EF050FD489B002001B572B60B4A9069F0
:10CEC80000281EBF0021916112F0C9F862B6EFF385
:10CED8000580A0F110004FEAC0000549014409C9C6
:10CEE8009847BDE80140034908470000489B0020D7
:10CEF800D0F5010001CF0000044B9968D869884239
:10CF080003D003494FF080520A607047489B0020C5
:10CF180004ED00E02DE9F04186B006460D4600AF6D
:10CF280002244B4B4FF482517B614A483C6107F124
:10CF380010020FF081FE484B9B6ADB0609D5474B70
:10CF48004FF48251C7E90443424807F110020FF039
:10CF580073FE414B9B6A18070AD5414B4FF4825127
:10CF68007B6102233B483B6107F110020FF064FE2E
:10CF7800394CA36A990722D5E8463A4B07F11002C3
:10CF88007B6102234FF482513B6132480FF054FE1B
:10CF9800636BA26A120612D588B06A4632492D48D8
:10CFA800C2E9051303234FF4C25142F8103F0FF0B2
:10CFB80043FEC5461EB1A36A23F08003A362264B35
:10CFC8009B6ADB070AD5294B4FF482517B61022308
:10CFD80020483B6107F110020FF02EFE1E4B9B6AA2
:10CFE8009E060AD5224B4FF482517B6102231948D1
:10CFF8003B6107F110020FF01FFE174B9A6AD40627
:10D0080002D49A6A900711D59B6AD9060ED5194998
:10D018004FF4AE73184A19480EF08AFE18480EF0FD
:10D0280087FE4FF4AE7114480EF07BFE00200A4BC9
:10D0380018379A6A920642BF5A6A22F400525A6214
:10D048009A6A42F0FF029A622870BD46BDE8F081F4
:10D058001C12020060F9010000ED00E0321202002B
:10D06800651202007812020090120200A612020055
:10D07800C51202002E130200F4120200A4050200D9
:10D08800781302002DE9F04186B006460D4600AF40
:10D0980002243E4B4FF482517B613D483C6107F1CD
:10D0A80010020FF0C9FD3B4B9B6AD90409D53A4BD6
:10D0B8004FF48251C7E90443354807F110020FF0D5
:10D0C800BBFD344B9B6A1A050AD5344B4FF4825189
:10D0D8007B6102232E483B6107F110020FF0ACFD83
:10D0E8002C4CA36A9B0522D5E8462D4B28487B612A
:10D0F800022307F110023B614FF482510FF09CFDAF
:10D10800A36BA26A100412D588B06A462549204844
:10D11800C2E9051303234FF4C25142F8103F0FF040
:10D128008BFDC5461EB1A36A23F40043A362194BC5
:10D138009B6A59050AD51C4B4FF482517B61022327
:10D1480013483B6107F110020FF076FD114B9A6A04
:10D15800D20515D5154B7B6102234FF482510C483B
:10D168003B6107F110020FF067FD0020094A1837EC
:10D17800936A43F47F4393622870BD46BDE8F0810B
:10D188009B6A9B04F1D50A4BE5E700BFDC1302005C
:10D1980060F9010000ED00E0F213020065120200E0
:10D1A800031402001C140200311402004C14020083
:10D1B800C512020010B586B002243A4B4FF48251D2
:10D1C800394804AA059304940FF036FD374B9B6A3F
:10D1D8009B0108D5364B4FF48251334804AACDE958
:10D1E80004430FF029FD314B9B6ADC0109D5314B13
:10D1F8004FF48251059302232B4804AA04930FF09D
:10D208001BFD2A4B9C6A14F4801409D002242A4B73
:10D218004FF48251244804AA059304940FF00CFD9E
:10D22800224B9B6A180309D5244B4FF4825105936E
:10D2380002231D4804AA04930FF0FEFC1B4B9B6AB3
:10D24800590309D51E4B4FF4825105930223164802
:10D2580004AA04930FF0F0FC144B9B6A9A0309D5B7
:10D26800184B4FF48251059302230F4804AA0493E4
:10D278000FF0E2FC0D4B9B6ADB0309D5124B4FF410
:10D28800825105930223084804AA04930FF0D4FCA2
:10D29800064A2046936A6FEA03436FEA1343936290
:10D2A80006B010BD6414020060F9010000ED00E052
:10D2B8007C1402008F140200A9140200D314020087
:10D2C800F114020016150200301502002DE9F0478E
:10D2D8008AB0904B0546D3F804A08846164600232A
:10D2E80000AFCAF3080983F31188BFF36F8F02F008
:10D2F8007F43B3F17F4F0ED087494FF48463874A49
:10D3080087480EF015FD87480EF012FD4FF4846132
:10D3180082480EF006FD12F00104EDD1530604D444
:10D3280010070FD44FF001080FE07F4B4FF48251E4
:10D33800FB6102237D48BB6107F118020FF07CFCFA
:10D34800710700D545464FF00008002DD4D00023C2
:10D35800FB71A9F10303092B00F2BA80DFE803F09F
:10D3680005ADB090B8B8B8B8B8B3E9464FF0020AFE
:10D378006F4B07F11802FB614FF482516B48C7F8F5
:10D3880018A00FF059FC0023624EFB71F36A9A074C
:10D398000AD5684BC7E906A34FF48251634807F1E1
:10D3A80018020FF049FC41E0F36A002B01DA624BE6
:10D3B800F0E7F36A5B0073D5604B07F11802C7E921
:10D3C80006A34FF4825159480FF036FC7369AA69D5
:10D3D80043F480737361BFF34F8FBFF36F8F73692B
:10D3E80032F8022C23F480737361BFF34F8FBFF3BD
:10D3F8006F8F4DF602739A4208D0B36ADBB293B3CB
:10D408000120F91DFFF786FD04460FE088B02B6860
:10D418006A464B494548C2E9051303234FF4C251F4
:10D4280042F8103F0FF008FCCD462C68FB79B3B9E1
:10D438002022294607F108000FF089FC7B6AB8F121
:10D44800000F61D0C3F3080222B96FEA53236FEAD1
:10D4580043237B62204607F10801FFF7B7FB283713
:10D46800BD46BDE8F087B36A13F47F4F04D00120AE
:10D47800F91DFFF707FEC7E7B36AB3F5803F02D38C
:10D48800FFF798FEC0E72F4940F2F223234A2448C9
:10D498000EF04EFC2C480EF04BFC40F2F22137E720
:10D4A800284940F2F6231D4A1D480EF041FC274842
:10D4B8000EF03EFC40F2F6212AE70020F91DA1E714
:10D4C8000020F91DD5E7224BFB610223BB6163E70E
:10D4D800204A6E461AF4F87F8AB01F4B18BF1346CD
:10D4E8006A461E491148C2E90513A9F11003D36120
:10D4F8004FF4007313841A4B4FF4115142F8103F44
:10D508000FF09AFBB54691E723F4FF7323F001036C
:10D518009FE700BF00ED00E089150200F412020049
:10D52800A40502009C150200DA15020060F901004A
:10D53800FD150200141602003516020043160200FB
:10D54800621602007E3502007E160200A216020054
:10D55800D2160200701502005B150200F6160200D2
:10D5680004000001044B5A6942F010025A615A69DA
:10D5780042F480625A61704700ED00E0EFF30880E2
:10D58800EFF3098101B57246FFF7A0FE01BD00BFA8
:10D59800002320210348C2180133452B82F80013C9
:10D5A800F9D1704700E100E0002080F31488BFF350
:10D5B8006F8F002080F30A8880F30B88FDF78AFDBF
:10D5C80000200E490860BFF34F8F0D4880F308888C
:10D5D80000F03EF8202080F311880A484FF40061DB
:10D5E800401880F30988EFF314800221084380F380
:10D5F8001488BFF36F8FFFF7B5FB000094ED00E0D0
:10D6080060C8002020BB0020BFF34F8F0549064BA0
:10D61800CA6802F4E0621343CB60BFF34F8F00BFC8
:10D62800FDE700BF00ED00E00400FA0500231846FE
:10D638000649D1F89020C2F30722934200DB7047D5
:10D64800C1F89830C1F8A0000133F6E700ED00E01A
:10D6580010B572B6002484F31388FFF7E7FF23465A
:10D668004FF0FF300C4A03F120010133102B42F830
:10D678002100F8D100234FF0FF30074A03F1600181
:10D688000133102B42F82100F8D162B6BFF34F8F57
:10D69800BFF36F8F10BD00BF00E100E0084B9B682F
:10D6A80083420BD1EFF3058343B1064B5A6842F02E
:10D6B80080525A605A6A22F400425A620CF0BABF89
:10D6C800489B002000ED00E01FB5094C094A23469D
:10D6D8000121094800F02AF900230393074B01218F
:10D6E800E41A01A80193029400F044F904B010BDB3
:10D6F800000007200080002084FC010038870020FB
:10D7080010B50C7A0B6804F01F0223F01F031A43AC
:10D71800CB68640923F01F03054943EA440343F037
:10D728000103C1F89800C1F89C20C1F8A03010BDD1
:10D7380000ED00E080B500AF88B06A46074BC2E94B
:10D748000530032342F8103F00234FF4C251044828
:10D75800FEF756F86FF01500BD4680BD0D170200A4
:10D7680048F901002DE9F04F144606464FF000092C
:10D7780087B05F4D00AF79607B68994535DAD6F898
:10D788000480B8F1000F54D0B8F11F0F1BD918F05E
:10D798001F0F18D1D6F800B01BF01F0F13D1584631
:10D7A8000FF04FFA824608EB0B0001380FF049FAE8
:10D7B80082451FD06FF0150A6C4688B06A464D49FD
:10D7C800C2E9051A05E06C4688B06A464A4BC2E9C8
:10D7D8000539032342F8103F00234FF4C25147484C
:10D7E800FEF70EF8A5466FF0150420461C37BD4617
:10D7F800BDE8F08F1AF1160FDED05445DCDDC5F810
:10D8080098A0D5F89C00C5F898A0D5F8A02020F0DD
:10D818001F0042F01F08D6E900211144904201F18F
:10D82800FF3B1ED1D84508D131465FFA8AF00FF088
:10D8380011FA09F101090C369EE7C5F898A0D5F848
:10D848009C3021F01F0103F01F030B433146C5F83C
:10D858009C30E0B20FF0FEF910F1160FC3D0441C53
:10D86800E7E7013AD845E0B222F01F02C5F898A0D0
:10D8780008D1D5F8A030314603F01F031343C5F88B
:10D88800A030E7E7D5F8A01001F01F010A43C5F85A
:10D89800A02031460FF0DEF910F1160FA3D0C5F81D
:10D8A80098A0D5F89C203B7C08F1FF3862F304036C
:10D8B8003B74D5F8A0303A7C5B0863F347123A749E
:10D8C800D6E900321344BB6023F01F03441C4344D1
:10D8D800A3EB0B03E0B223F01F0307287B6102D9F7
:10D8E800FFF728FFB8E707F10801FFF709FFB6E7D8
:10D8F80000ED00E0561702003317020048F9010056
:10D908000522044BC3F89420BFF34F8FBFF36F8FEA
:10D91800704700BF00ED00E0BFF35F8F0022024BAD
:10D92800C3F89420704700BF00ED00E038B50C4DF7
:10D938000C462A78FFF716FF287016300FD14FF4DF
:10D948008B73084A084909480EF0F2F9214608483D
:10D958000EF0EEF94FF48B7102480EF0E2F938BD83
:10D96800BA9B0020791702007E350200A405020048
:10D97800B01702002DE9F74F314E894605464FF0A2
:10D988000008B3462F4FC84502DB03B0BDE8F08F4F
:10D99800D5F804A0BAF1000F4CD0296808460191C7
:10D9A8000FF04FF9019904460AEB010001380FF016
:10D9B80048F984424FF01402234B15D002FB08F3B8
:10D9C8006FF015024BF803204FF493731F4A204958
:10D9D80020480EF0ADF949461F480EF0A9F94FF45A
:10D9E80093711A480EF09DF914F1160F3460EBD0BC
:10D9F8001978A142E8DD02FB08B0C7F89840C7F8DB
:10DA08009840D7F89C4000F10801007B64F30400BB
:10DA18000871D7F8A0000C79400860F347140C711E
:10DA2800D7F89C1021F01F017160D7F8A01021F0E1
:10DA38001F01316108F1010814360C35A3E700BF56
:10DA48000097002000ED00E0BA9B00207917020043
:10DA58007E350200A4050200DC17020038B51F4D10
:10DA68002C68082C10D940F24D131D4A1D491E4838
:10DA78000EF05EF9214608221C480EF059F940F2D2
:10DA88004D1117480EF04DF90020FFF745FF184BD0
:10DA9800184AC3F8C020844217D1174B1C70FFF7EF
:10DAA8002FFF134BD3F89030C3F30723082B13D061
:10DAB800124940F2B1130A4A0B480EF039F91048DE
:10DAC8000EF036F940F2B111DBE7696801EB00119D
